{
  "address": "0x625C3af9c2499d3174e1f55742094A3B70452329",
  "abi": [
    {
      "inputs": [],
      "name": "ChildAlreadyExists",
      "type": "error"
    },
    {
      "inputs": [],
      "name": "ChildIndexOutOfRange",
      "type": "error"
    },
    {
      "inputs": [],
      "name": "ERC721AddressZeroIsNotaValidOwner",
      "type": "error"
    },
    {
      "inputs": [],
      "name": "ERC721ApprovalToCurrentOwner",
      "type": "error"
    },
    {
      "inputs": [],
      "name": "ERC721ApproveCallerIsNotOwnerNorApprovedForAll",
      "type": "error"
    },
    {
      "inputs": [],
      "name": "ERC721ApproveToCaller",
      "type": "error"
    },
    {
      "inputs": [],
      "name": "ERC721InvalidTokenId",
      "type": "error"
    },
    {
      "inputs": [],
      "name": "ERC721MintToTheZeroAddress",
      "type": "error"
    },
    {
      "inputs": [],
      "name": "ERC721NotApprovedOrOwner",
      "type": "error"
    },
    {
      "inputs": [],
      "name": "ERC721TokenAlreadyMinted",
      "type": "error"
    },
    {
      "inputs": [],
      "name": "ERC721TransferFromIncorrectOwner",
      "type": "error"
    },
    {
      "inputs": [],
      "name": "ERC721TransferToNonReceiverImplementer",
      "type": "error"
    },
    {
      "inputs": [],
      "name": "ERC721TransferToTheZeroAddress",
      "type": "error"
    },
    {
      "inputs": [],
      "name": "IdZeroForbidden",
      "type": "error"
    },
    {
      "inputs": [],
      "name": "InvalidGeolocation",
      "type": "error"
    },
    {
      "inputs": [],
      "name": "IsNotContract",
      "type": "error"
    },
    {
      "inputs": [],
      "name": "MaxPendingChildrenReached",
      "type": "error"
    },
    {
      "inputs": [
        {
          "internalType": "address",
          "name": "childContract",
          "type": "address"
        },
        {
          "internalType": "uint256",
          "name": "childId",
          "type": "uint256"
        }
      ],
      "name": "MaxRecursiveBurnsReached",
      "type": "error"
    },
    {
      "inputs": [],
      "name": "NestableTooDeep",
      "type": "error"
    },
    {
      "inputs": [],
      "name": "NestableTransferToDescendant",
      "type": "error"
    },
    {
      "inputs": [],
      "name": "NestableTransferToNonNestableImplementer",
      "type": "error"
    },
    {
      "inputs": [],
      "name": "NestableTransferToSelf",
      "type": "error"
    },
    {
      "inputs": [],
      "name": "NoNamingPermission",
      "type": "error"
    },
    {
      "inputs": [],
      "name": "NotApprovedOrDirectOwner",
      "type": "error"
    },
    {
      "inputs": [],
      "name": "PendingChildIndexOutOfRange",
      "type": "error"
    },
    {
      "inputs": [],
      "name": "UnexpectedChildId",
      "type": "error"
    },
    {
      "inputs": [],
      "name": "UnexpectedNumberOfChildren",
      "type": "error"
    },
    {
      "anonymous": false,
      "inputs": [
        {
          "indexed": false,
          "internalType": "address",
          "name": "previousAdmin",
          "type": "address"
        },
        {
          "indexed": false,
          "internalType": "address",
          "name": "newAdmin",
          "type": "address"
        }
      ],
      "name": "AdminChanged",
      "type": "event"
    },
    {
      "anonymous": false,
      "inputs": [
        {
          "indexed": true,
          "internalType": "uint256",
          "name": "tokenId",
          "type": "uint256"
        }
      ],
      "name": "AllChildrenRejected",
      "type": "event"
    },
    {
      "anonymous": false,
      "inputs": [
        {
          "indexed": true,
          "internalType": "address",
          "name": "owner",
          "type": "address"
        },
        {
          "indexed": true,
          "internalType": "address",
          "name": "approved",
          "type": "address"
        },
        {
          "indexed": true,
          "internalType": "uint256",
          "name": "tokenId",
          "type": "uint256"
        }
      ],
      "name": "Approval",
      "type": "event"
    },
    {
      "anonymous": false,
      "inputs": [
        {
          "indexed": true,
          "internalType": "address",
          "name": "owner",
          "type": "address"
        },
        {
          "indexed": true,
          "internalType": "address",
          "name": "operator",
          "type": "address"
        },
        {
          "indexed": false,
          "internalType": "bool",
          "name": "approved",
          "type": "bool"
        }
      ],
      "name": "ApprovalForAll",
      "type": "event"
    },
    {
      "anonymous": false,
      "inputs": [
        {
          "indexed": true,
          "internalType": "address",
          "name": "beacon",
          "type": "address"
        }
      ],
      "name": "BeaconUpgraded",
      "type": "event"
    },
    {
      "anonymous": false,
      "inputs": [
        {
          "indexed": true,
          "internalType": "uint256",
          "name": "tokenId",
          "type": "uint256"
        },
        {
          "indexed": false,
          "internalType": "uint256",
          "name": "childIndex",
          "type": "uint256"
        },
        {
          "indexed": true,
          "internalType": "address",
          "name": "childAddress",
          "type": "address"
        },
        {
          "indexed": true,
          "internalType": "uint256",
          "name": "childId",
          "type": "uint256"
        }
      ],
      "name": "ChildAccepted",
      "type": "event"
    },
    {
      "anonymous": false,
      "inputs": [
        {
          "indexed": true,
          "internalType": "uint256",
          "name": "tokenId",
          "type": "uint256"
        },
        {
          "indexed": false,
          "internalType": "uint256",
          "name": "childIndex",
          "type": "uint256"
        },
        {
          "indexed": true,
          "internalType": "address",
          "name": "childAddress",
          "type": "address"
        },
        {
          "indexed": true,
          "internalType": "uint256",
          "name": "childId",
          "type": "uint256"
        }
      ],
      "name": "ChildProposed",
      "type": "event"
    },
    {
      "anonymous": false,
      "inputs": [
        {
          "indexed": true,
          "internalType": "uint256",
          "name": "tokenId",
          "type": "uint256"
        },
        {
          "indexed": false,
          "internalType": "uint256",
          "name": "childIndex",
          "type": "uint256"
        },
        {
          "indexed": true,
          "internalType": "address",
          "name": "childAddress",
          "type": "address"
        },
        {
          "indexed": true,
          "internalType": "uint256",
          "name": "childId",
          "type": "uint256"
        },
        {
          "indexed": false,
          "internalType": "bool",
          "name": "fromPending",
          "type": "bool"
        }
      ],
      "name": "ChildTransferred",
      "type": "event"
    },
    {
      "anonymous": false,
      "inputs": [
        {
          "indexed": true,
          "internalType": "address",
          "name": "controller",
          "type": "address"
        },
        {
          "indexed": false,
          "internalType": "bool",
          "name": "enabled",
          "type": "bool"
        }
      ],
      "name": "ControllerChanged",
      "type": "event"
    },
    {
      "anonymous": false,
      "inputs": [
        {
          "indexed": false,
          "internalType": "uint8",
          "name": "version",
          "type": "uint8"
        }
      ],
      "name": "Initialized",
      "type": "event"
    },
    {
      "anonymous": false,
      "inputs": [
        {
          "indexed": true,
          "internalType": "uint256",
          "name": "tokenId",
          "type": "uint256"
        },
        {
          "indexed": false,
          "internalType": "string",
          "name": "name",
          "type": "string"
        }
      ],
      "name": "MEP1002TokenUpdateName",
      "type": "event"
    },
    {
      "anonymous": false,
      "inputs": [
        {
          "indexed": true,
          "internalType": "address",
          "name": "from",
          "type": "address"
        },
        {
          "indexed": true,
          "internalType": "address",
          "name": "to",
          "type": "address"
        },
        {
          "indexed": false,
          "internalType": "uint256",
          "name": "fromTokenId",
          "type": "uint256"
        },
        {
          "indexed": false,
          "internalType": "uint256",
          "name": "toTokenId",
          "type": "uint256"
        },
        {
          "indexed": true,
          "internalType": "uint256",
          "name": "tokenId",
          "type": "uint256"
        }
      ],
      "name": "NestTransfer",
      "type": "event"
    },
    {
      "anonymous": false,
      "inputs": [
        {
          "indexed": true,
          "internalType": "address",
          "name": "previousOwner",
          "type": "address"
        },
        {
          "indexed": true,
          "internalType": "address",
          "name": "newOwner",
          "type": "address"
        }
      ],
      "name": "OwnershipTransferred",
      "type": "event"
    },
    {
      "anonymous": false,
      "inputs": [
        {
          "indexed": true,
          "internalType": "address",
          "name": "from",
          "type": "address"
        },
        {
          "indexed": true,
          "internalType": "address",
          "name": "to",
          "type": "address"
        },
        {
          "indexed": true,
          "internalType": "uint256",
          "name": "tokenId",
          "type": "uint256"
        }
      ],
      "name": "Transfer",
      "type": "event"
    },
    {
      "anonymous": false,
      "inputs": [
        {
          "indexed": true,
          "internalType": "address",
          "name": "implementation",
          "type": "address"
        }
      ],
      "name": "Upgraded",
      "type": "event"
    },
    {
      "inputs": [],
      "name": "__Controllable_init",
      "outputs": [],
      "stateMutability": "nonpayable",
      "type": "function"
    },
    {
      "inputs": [
        {
          "internalType": "uint256",
          "name": "parentId",
          "type": "uint256"
        },
        {
          "internalType": "uint256",
          "name": "childIndex",
          "type": "uint256"
        },
        {
          "internalType": "address",
          "name": "childAddress",
          "type": "address"
        },
        {
          "internalType": "uint256",
          "name": "childId",
          "type": "uint256"
        }
      ],
      "name": "acceptChild",
      "outputs": [],
      "stateMutability": "nonpayable",
      "type": "function"
    },
    {
      "inputs": [
        {
          "internalType": "uint256",
          "name": "parentId",
          "type": "uint256"
        },
        {
          "internalType": "uint256",
          "name": "childId",
          "type": "uint256"
        },
        {
          "internalType": "bytes",
          "name": "data",
          "type": "bytes"
        }
      ],
      "name": "addChild",
      "outputs": [],
      "stateMutability": "nonpayable",
      "type": "function"
    },
    {
      "inputs": [
        {
          "internalType": "address",
          "name": "to",
          "type": "address"
        },
        {
          "internalType": "uint256",
          "name": "tokenId",
          "type": "uint256"
        }
      ],
      "name": "approve",
      "outputs": [],
      "stateMutability": "nonpayable",
      "type": "function"
    },
    {
      "inputs": [
        {
          "internalType": "address",
          "name": "owner",
          "type": "address"
        }
      ],
      "name": "balanceOf",
      "outputs": [
        {
          "internalType": "uint256",
          "name": "",
          "type": "uint256"
        }
      ],
      "stateMutability": "view",
      "type": "function"
    },
    {
      "inputs": [
        {
          "internalType": "uint256",
          "name": "tokenId",
          "type": "uint256"
        }
      ],
      "name": "burn",
      "outputs": [],
      "stateMutability": "nonpayable",
      "type": "function"
    },
    {
      "inputs": [
        {
          "internalType": "uint256",
          "name": "tokenId",
          "type": "uint256"
        },
        {
          "internalType": "uint256",
          "name": "maxChildrenBurns",
          "type": "uint256"
        }
      ],
      "name": "burn",
      "outputs": [
        {
          "internalType": "uint256",
          "name": "",
          "type": "uint256"
        }
      ],
      "stateMutability": "nonpayable",
      "type": "function"
    },
    {
      "inputs": [
        {
          "internalType": "address",
          "name": "childAddress",
          "type": "address"
        },
        {
          "internalType": "uint256",
          "name": "childId",
          "type": "uint256"
        }
      ],
      "name": "childIsInActive",
      "outputs": [
        {
          "internalType": "bool",
          "name": "",
          "type": "bool"
        }
      ],
      "stateMutability": "view",
      "type": "function"
    },
    {
      "inputs": [
        {
          "internalType": "uint256",
          "name": "parentId",
          "type": "uint256"
        },
        {
          "internalType": "uint256",
          "name": "index",
          "type": "uint256"
        }
      ],
      "name": "childOf",
      "outputs": [
        {
          "components": [
            {
              "internalType": "uint256",
              "name": "tokenId",
              "type": "uint256"
            },
            {
              "internalType": "address",
              "name": "contractAddress",
              "type": "address"
            }
          ],
          "internalType": "struct IERC6059.Child",
          "name": "",
          "type": "tuple"
        }
      ],
      "stateMutability": "view",
      "type": "function"
    },
    {
      "inputs": [
        {
          "internalType": "uint256",
          "name": "parentId",
          "type": "uint256"
        }
      ],
      "name": "childrenOf",
      "outputs": [
        {
          "components": [
            {
              "internalType": "uint256",
              "name": "tokenId",
              "type": "uint256"
            },
            {
              "internalType": "address",
              "name": "contractAddress",
              "type": "address"
            }
          ],
          "internalType": "struct IERC6059.Child[]",
          "name": "",
          "type": "tuple[]"
        }
      ],
      "stateMutability": "view",
      "type": "function"
    },
    {
      "inputs": [
        {
          "internalType": "address",
          "name": "",
          "type": "address"
        }
      ],
      "name": "controllers",
      "outputs": [
        {
          "internalType": "bool",
          "name": "",
          "type": "bool"
        }
      ],
      "stateMutability": "view",
      "type": "function"
    },
    {
      "inputs": [
        {
          "internalType": "uint256",
          "name": "tokenId",
          "type": "uint256"
        }
      ],
      "name": "directOwnerOf",
      "outputs": [
        {
          "internalType": "address",
          "name": "",
          "type": "address"
        },
        {
          "internalType": "uint256",
          "name": "",
          "type": "uint256"
        },
        {
          "internalType": "bool",
          "name": "",
          "type": "bool"
        }
      ],
      "stateMutability": "view",
      "type": "function"
    },
    {
      "inputs": [
        {
          "internalType": "uint256",
          "name": "tokenId",
          "type": "uint256"
        }
      ],
      "name": "geolocation",
      "outputs": [
        {
          "internalType": "uint256",
          "name": "",
          "type": "uint256"
        }
      ],
      "stateMutability": "view",
      "type": "function"
    },
    {
      "inputs": [
        {
          "internalType": "uint256",
          "name": "tokenId",
          "type": "uint256"
        }
      ],
      "name": "getApproved",
      "outputs": [
        {
          "internalType": "address",
          "name": "",
          "type": "address"
        }
      ],
      "stateMutability": "view",
      "type": "function"
    },
    {
      "inputs": [
        {
          "internalType": "string",
          "name": "name_",
          "type": "string"
        },
        {
          "internalType": "string",
          "name": "symbol_",
          "type": "string"
        },
        {
          "internalType": "address",
          "name": "namingTokenAddr",
          "type": "address"
        }
      ],
      "name": "initialize",
      "outputs": [],
      "stateMutability": "nonpayable",
      "type": "function"
    },
    {
      "inputs": [
        {
          "internalType": "address",
          "name": "owner",
          "type": "address"
        },
        {
          "internalType": "address",
          "name": "operator",
          "type": "address"
        }
      ],
      "name": "isApprovedForAll",
      "outputs": [
        {
          "internalType": "bool",
          "name": "",
          "type": "bool"
        }
      ],
      "stateMutability": "view",
      "type": "function"
    },
    {
      "inputs": [
        {
          "internalType": "uint256",
          "name": "geolocation_",
          "type": "uint256"
        }
      ],
      "name": "mint",
      "outputs": [],
      "stateMutability": "nonpayable",
      "type": "function"
    },
    {
      "inputs": [],
      "name": "name",
      "outputs": [
        {
          "internalType": "string",
          "name": "",
          "type": "string"
        }
      ],
      "stateMutability": "view",
      "type": "function"
    },
    {
      "inputs": [
        {
          "internalType": "address",
          "name": "from",
          "type": "address"
        },
        {
          "internalType": "address",
          "name": "to",
          "type": "address"
        },
        {
          "internalType": "uint256",
          "name": "tokenId",
          "type": "uint256"
        },
        {
          "internalType": "uint256",
          "name": "destinationId",
          "type": "uint256"
        },
        {
          "internalType": "bytes",
          "name": "data",
          "type": "bytes"
        }
      ],
      "name": "nestTransferFrom",
      "outputs": [],
      "stateMutability": "nonpayable",
      "type": "function"
    },
    {
      "inputs": [
        {
          "internalType": "address",
          "name": "",
          "type": "address"
        },
        {
          "internalType": "address",
          "name": "",
          "type": "address"
        },
        {
          "internalType": "uint256",
          "name": "",
          "type": "uint256"
        },
        {
          "internalType": "bytes",
          "name": "",
          "type": "bytes"
        }
      ],
      "name": "onERC721Received",
      "outputs": [
        {
          "internalType": "bytes4",
          "name": "",
          "type": "bytes4"
        }
      ],
      "stateMutability": "nonpayable",
      "type": "function"
    },
    {
      "inputs": [],
      "name": "owner",
      "outputs": [
        {
          "internalType": "address",
          "name": "",
          "type": "address"
        }
      ],
      "stateMutability": "view",
      "type": "function"
    },
    {
      "inputs": [
        {
          "internalType": "uint256",
          "name": "tokenId",
          "type": "uint256"
        }
      ],
      "name": "ownerOf",
      "outputs": [
        {
          "internalType": "address",
          "name": "",
          "type": "address"
        }
      ],
      "stateMutability": "view",
      "type": "function"
    },
    {
      "inputs": [
        {
          "internalType": "uint256",
          "name": "parentId",
          "type": "uint256"
        },
        {
          "internalType": "uint256",
          "name": "index",
          "type": "uint256"
        }
      ],
      "name": "pendingChildOf",
      "outputs": [
        {
          "components": [
            {
              "internalType": "uint256",
              "name": "tokenId",
              "type": "uint256"
            },
            {
              "internalType": "address",
              "name": "contractAddress",
              "type": "address"
            }
          ],
          "internalType": "struct IERC6059.Child",
          "name": "",
          "type": "tuple"
        }
      ],
      "stateMutability": "view",
      "type": "function"
    },
    {
      "inputs": [
        {
          "internalType": "uint256",
          "name": "parentId",
          "type": "uint256"
        }
      ],
      "name": "pendingChildrenOf",
      "outputs": [
        {
          "components": [
            {
              "internalType": "uint256",
              "name": "tokenId",
              "type": "uint256"
            },
            {
              "internalType": "address",
              "name": "contractAddress",
              "type": "address"
            }
          ],
          "internalType": "struct IERC6059.Child[]",
          "name": "",
          "type": "tuple[]"
        }
      ],
      "stateMutability": "view",
      "type": "function"
    },
    {
      "inputs": [],
      "name": "proxiableUUID",
      "outputs": [
        {
          "internalType": "bytes32",
          "name": "",
          "type": "bytes32"
        }
      ],
      "stateMutability": "view",
      "type": "function"
    },
    {
      "inputs": [
        {
          "internalType": "uint256",
          "name": "tokenId",
          "type": "uint256"
        },
        {
          "internalType": "uint256",
          "name": "maxRejections",
          "type": "uint256"
        }
      ],
      "name": "rejectAllChildren",
      "outputs": [],
      "stateMutability": "nonpayable",
      "type": "function"
    },
    {
      "inputs": [],
      "name": "renounceOwnership",
      "outputs": [],
      "stateMutability": "nonpayable",
      "type": "function"
    },
    {
      "inputs": [
        {
          "internalType": "uint256",
          "name": "geolocation_",
          "type": "uint256"
        }
      ],
      "name": "resetName",
      "outputs": [],
      "stateMutability": "nonpayable",
      "type": "function"
    },
    {
      "inputs": [
        {
          "internalType": "address",
          "name": "from",
          "type": "address"
        },
        {
          "internalType": "address",
          "name": "to",
          "type": "address"
        },
        {
          "internalType": "uint256",
          "name": "tokenId",
          "type": "uint256"
        }
      ],
      "name": "safeTransferFrom",
      "outputs": [],
      "stateMutability": "nonpayable",
      "type": "function"
    },
    {
      "inputs": [
        {
          "internalType": "address",
          "name": "from",
          "type": "address"
        },
        {
          "internalType": "address",
          "name": "to",
          "type": "address"
        },
        {
          "internalType": "uint256",
          "name": "tokenId",
          "type": "uint256"
        },
        {
          "internalType": "bytes",
          "name": "data",
          "type": "bytes"
        }
      ],
      "name": "safeTransferFrom",
      "outputs": [],
      "stateMutability": "nonpayable",
      "type": "function"
    },
    {
      "inputs": [
        {
          "internalType": "address",
          "name": "operator",
          "type": "address"
        },
        {
          "internalType": "bool",
          "name": "approved",
          "type": "bool"
        }
      ],
      "name": "setApprovalForAll",
      "outputs": [],
      "stateMutability": "nonpayable",
      "type": "function"
    },
    {
      "inputs": [
        {
          "internalType": "string",
          "name": "baseURI_",
          "type": "string"
        }
      ],
      "name": "setBaseURI",
      "outputs": [],
      "stateMutability": "nonpayable",
      "type": "function"
    },
    {
      "inputs": [
        {
          "internalType": "address",
          "name": "controller",
          "type": "address"
        },
        {
          "internalType": "bool",
          "name": "enabled",
          "type": "bool"
        }
      ],
      "name": "setController",
      "outputs": [],
      "stateMutability": "nonpayable",
      "type": "function"
    },
    {
      "inputs": [
        {
          "internalType": "address",
          "name": "mnsToken_",
          "type": "address"
        }
      ],
      "name": "setMNSToken",
      "outputs": [],
      "stateMutability": "nonpayable",
      "type": "function"
    },
    {
      "inputs": [
        {
          "internalType": "uint256",
          "name": "geolocation_",
          "type": "uint256"
        },
        {
          "internalType": "uint256",
          "name": "nameWrapperTokenId",
          "type": "uint256"
        }
      ],
      "name": "setName",
      "outputs": [],
      "stateMutability": "nonpayable",
      "type": "function"
    },
    {
      "inputs": [
        {
          "internalType": "address",
          "name": "namingTokenAddr",
          "type": "address"
        },
        {
          "internalType": "string",
          "name": "baseURI_",
          "type": "string"
        }
      ],
      "name": "setNamingToken",
      "outputs": [],
      "stateMutability": "nonpayable",
      "type": "function"
    },
    {
      "inputs": [
        {
          "internalType": "bytes4",
          "name": "interfaceId",
          "type": "bytes4"
        }
      ],
      "name": "supportsInterface",
      "outputs": [
        {
          "internalType": "bool",
          "name": "",
          "type": "bool"
        }
      ],
      "stateMutability": "view",
      "type": "function"
    },
    {
      "inputs": [],
      "name": "symbol",
      "outputs": [
        {
          "internalType": "string",
          "name": "",
          "type": "string"
        }
      ],
      "stateMutability": "view",
      "type": "function"
    },
    {
      "inputs": [
        {
          "internalType": "uint256",
          "name": "index",
          "type": "uint256"
        }
      ],
      "name": "tokenByIndex",
      "outputs": [
        {
          "internalType": "uint256",
          "name": "",
          "type": "uint256"
        }
      ],
      "stateMutability": "view",
      "type": "function"
    },
    {
      "inputs": [
        {
          "internalType": "uint256",
          "name": "",
          "type": "uint256"
        }
      ],
      "name": "tokenNames",
      "outputs": [
        {
          "internalType": "string",
          "name": "",
          "type": "string"
        }
      ],
      "stateMutability": "view",
      "type": "function"
    },
    {
      "inputs": [
        {
          "internalType": "address",
          "name": "owner",
          "type": "address"
        },
        {
          "internalType": "uint256",
          "name": "index",
          "type": "uint256"
        }
      ],
      "name": "tokenOfOwnerByIndex",
      "outputs": [
        {
          "internalType": "uint256",
          "name": "",
          "type": "uint256"
        }
      ],
      "stateMutability": "view",
      "type": "function"
    },
    {
      "inputs": [
        {
          "internalType": "uint256",
          "name": "tokenId",
          "type": "uint256"
        }
      ],
      "name": "tokenURI",
      "outputs": [
        {
          "internalType": "string",
          "name": "",
          "type": "string"
        }
      ],
      "stateMutability": "view",
      "type": "function"
    },
    {
      "inputs": [],
      "name": "totalSupply",
      "outputs": [
        {
          "internalType": "uint256",
          "name": "",
          "type": "uint256"
        }
      ],
      "stateMutability": "view",
      "type": "function"
    },
    {
      "inputs": [
        {
          "internalType": "uint256",
          "name": "tokenId",
          "type": "uint256"
        },
        {
          "internalType": "address",
          "name": "to",
          "type": "address"
        },
        {
          "internalType": "uint256",
          "name": "destinationId",
          "type": "uint256"
        },
        {
          "internalType": "uint256",
          "name": "childIndex",
          "type": "uint256"
        },
        {
          "internalType": "address",
          "name": "childAddress",
          "type": "address"
        },
        {
          "internalType": "uint256",
          "name": "childId",
          "type": "uint256"
        },
        {
          "internalType": "bool",
          "name": "isPending",
          "type": "bool"
        },
        {
          "internalType": "bytes",
          "name": "data",
          "type": "bytes"
        }
      ],
      "name": "transferChild",
      "outputs": [],
      "stateMutability": "nonpayable",
      "type": "function"
    },
    {
      "inputs": [
        {
          "internalType": "address",
          "name": "from",
          "type": "address"
        },
        {
          "internalType": "address",
          "name": "to",
          "type": "address"
        },
        {
          "internalType": "uint256",
          "name": "tokenId",
          "type": "uint256"
        }
      ],
      "name": "transferFrom",
      "outputs": [],
      "stateMutability": "nonpayable",
      "type": "function"
    },
    {
      "inputs": [
        {
          "internalType": "address",
          "name": "newOwner",
          "type": "address"
        }
      ],
      "name": "transferOwnership",
      "outputs": [],
      "stateMutability": "nonpayable",
      "type": "function"
    },
    {
      "inputs": [
        {
          "internalType": "address",
          "name": "newImplementation",
          "type": "address"
        }
      ],
      "name": "upgradeTo",
      "outputs": [],
      "stateMutability": "nonpayable",
      "type": "function"
    },
    {
      "inputs": [
        {
          "internalType": "address",
          "name": "newImplementation",
          "type": "address"
        },
        {
          "internalType": "bytes",
          "name": "data",
          "type": "bytes"
        }
      ],
      "name": "upgradeToAndCall",
      "outputs": [],
      "stateMutability": "payable",
      "type": "function"
    }
  ],
  "transactionHash": "0x53cb8e76c8b942a6d340b8bfeb8747d7aa9a1f944118aabb9cfcd71c1169190c",
  "args": [],
  "numDeployments": 1,
  "solcInputHash": "b614db82ce434773aec34039e091c348",
  "bytecode": "0x60a06040523060805234801561001457600080fd5b506080516156746200004d600039600081816111eb0152818161128101528181611549015281816115df015261175801526156746000f3fe6080604052600436106103135760003560e01c80635d79343d1161019a578063a868ec85116100e1578063defa80c31161008a578063e985e9c511610064578063e985e9c51461095e578063f2fde38b146109a7578063fb25fb7a146109c757600080fd5b8063defa80c3146108fe578063e0dba60f1461091e578063e97ceaa81461093e57600080fd5b8063b88d4fde116100bb578063b88d4fde1461088e578063c87b56dd146108ae578063da8c229e146108ce57600080fd5b8063a868ec851461082e578063a898e3641461084e578063b390c0ab1461086e57600080fd5b80638da5cb5b11610143578063a00e76dd1161011d578063a00e76dd146107ce578063a0712d68146107ee578063a22cb4651461080e57600080fd5b80638da5cb5b1461077b57806395d89b411461079957806397961336146107ae57600080fd5b80636f19951c116101745780636f19951c1461072657806370a0823114610746578063715018a61461076657600080fd5b80635d79343d146106d15780636352211e146106e6578063635490cc1461070657600080fd5b80632f745c591161025e57806344150775116102075780634f6ccce7116101e15780634f6ccce71461067c57806352d1902d1461069c57806355f804b3146106b157600080fd5b8063441507751461061c57806344ec93441461063c5780634f1ef2861461066957600080fd5b80634182e4a3116102385780634182e4a31461059757806342842e0e146105dc57806342966c68146105fc57600080fd5b80632f745c5914610537578063310495ab146105575780633659cfe61461057757600080fd5b8063150b7a02116102c057806323b872dd1161029a57806323b872dd146104ca5780632828adb2146104ea5780632f32f9371461050a57600080fd5b8063150b7a021461043657806317af13181461048757806318160ddd146104a757600080fd5b8063077f224a116102f1578063077f224a146103be578063081812fc146103de578063095ea7b31461041657600080fd5b806301ffc9a714610318578063064c0a3a1461034d57806306fdde031461036f575b600080fd5b34801561032457600080fd5b50610338610333366004614a1f565b610a0e565b60405190151581526020015b60405180910390f35b34801561035957600080fd5b5061036d610368366004614b2f565b610af3565b005b34801561037b57600080fd5b5060408051808201909152600f81527f4d4550313030322048657861676f6e000000000000000000000000000000000060208201525b6040516103449190614bf5565b3480156103ca57600080fd5b5061036d6103d9366004614c08565b610b12565b3480156103ea57600080fd5b506103fe6103f9366004614c80565b610ca6565b6040516001600160a01b039091168152602001610344565b34801561042257600080fd5b5061036d610431366004614c99565b610cec565b34801561044257600080fd5b50610456610451366004614cc5565b610daa565b6040517fffffffff000000000000000000000000000000000000000000000000000000009091168152602001610344565b34801561049357600080fd5b5061036d6104a2366004614d31565b610dd4565b3480156104b357600080fd5b506104bc610e88565b604051908152602001610344565b3480156104d657600080fd5b5061036d6104e5366004614d4e565b610e98565b3480156104f657600080fd5b5061036d610505366004614c80565b610ead565b34801561051657600080fd5b5061052a610525366004614d8f565b610ff6565b6040516103449190614db1565b34801561054357600080fd5b506104bc610552366004614c99565b6110a8565b34801561056357600080fd5b506103b1610572366004614c80565b611147565b34801561058357600080fd5b5061036d610592366004614d31565b6111e1565b3480156105a357600080fd5b506103386105b2366004614c99565b6001600160a01b0391909116600090815260d0602090815260408083209383529290522054151590565b3480156105e857600080fd5b5061036d6105f7366004614d4e565b61137e565b34801561060857600080fd5b5061036d610617366004614c80565b611399565b34801561062857600080fd5b5061036d610637366004614dd1565b6113a8565b34801561064857600080fd5b5061065c610657366004614c80565b6114c0565b6040516103449190614e21565b61036d610677366004614dd1565b61153f565b34801561068857600080fd5b506104bc610697366004614c80565b6116c9565b3480156106a857600080fd5b506104bc61174b565b3480156106bd57600080fd5b5061036d6106cc366004614e81565b611810565b3480156106dd57600080fd5b5061036d6118a1565b3480156106f257600080fd5b506103fe610701366004614c80565b611942565b34801561071257600080fd5b5061036d610721366004614eb6565b6119eb565b34801561073257600080fd5b5061065c610741366004614c80565b611b3c565b34801561075257600080fd5b506104bc610761366004614d31565b611bac565b34801561077257600080fd5b5061036d611c0a565b34801561078757600080fd5b506097546001600160a01b03166103fe565b3480156107a557600080fd5b506103b1611c1c565b3480156107ba57600080fd5b5061036d6107c9366004614d8f565b611cae565b3480156107da57600080fd5b506104bc6107e9366004614c80565b611cc2565b3480156107fa57600080fd5b5061036d610809366004614c80565b611ccd565b34801561081a57600080fd5b5061036d610829366004614f14565b611e96565b34801561083a57600080fd5b5061036d610849366004614d8f565b611f44565b34801561085a57600080fd5b5061052a610869366004614d8f565b612225565b34801561087a57600080fd5b506104bc610889366004614d8f565b61229b565b34801561089a57600080fd5b5061036d6108a9366004614cc5565b6122b1565b3480156108ba57600080fd5b506103b16108c9366004614c80565b6122ce565b3480156108da57600080fd5b506103386108e9366004614d31565b60c96020526000908152604090205460ff1681565b34801561090a57600080fd5b5061036d610919366004614f4d565b612345565b34801561092a57600080fd5b5061036d610939366004614f14565b61236a565b34801561094a57600080fd5b5061036d610959366004614fe9565b6123ca565b34801561096a57600080fd5b50610338610979366004615028565b6001600160a01b03918216600090815260cc6020908152604080832093909416825291909152205460ff1690565b3480156109b357600080fd5b5061036d6109c2366004614d31565b6123e0565b3480156109d357600080fd5b506109e76109e2366004614c80565b612490565b604080516001600160a01b0390941684526020840192909252151590820152606001610344565b60007fffffffff0000000000000000000000000000000000000000000000000000000082167f80ac58cd000000000000000000000000000000000000000000000000000000001480610aa157507fffffffff0000000000000000000000000000000000000000000000000000000082167f5b5e139f00000000000000000000000000000000000000000000000000000000145b80610aed57507fffffffff0000000000000000000000000000000000000000000000000000000082167f42b0e56f00000000000000000000000000000000000000000000000000000000145b92915050565b82610afd81612511565b610b0a8686868686612551565b505050505050565b600054610100900460ff1615808015610b325750600054600160ff909116105b80610b4c5750303b158015610b4c575060005460ff166001145b610bc35760405162461bcd60e51b815260206004820152602e60248201527f496e697469616c697a61626c653a20636f6e747261637420697320616c72656160448201527f647920696e697469616c697a656400000000000000000000000000000000000060648201526084015b60405180910390fd5b6000805460ff191660011790558015610c0357600080547fffffffffffffffffffffffffffffffffffffffffffffffffffffffffffff00ff166101001790555b610c0b6118a1565b610c1584846127de565b60d6805473ffffffffffffffffffffffffffffffffffffffff19166001600160a01b0384161790558015610ca057600080547fffffffffffffffffffffffffffffffffffffffffffffffffffffffffffff00ff169055604051600181527f7f26b83ff96e1f2b6a682f133852f6798a09c465da95921460cefb38474024989060200160405180910390a15b50505050565b6000610cb182612865565b600082815260cb6020526040812090610cc984611942565b6001600160a01b0390811682526020820192909252604001600020541692915050565b6000610cf782611942565b9050806001600160a01b0316836001600160a01b031603610d44576040517f0591db6d00000000000000000000000000000000000000000000000000000000815260040160405180910390fd5b336001600160a01b03821614801590610d645750610d628133610979565b155b15610d9b576040517f982462b200000000000000000000000000000000000000000000000000000000815260040160405180910390fd5b610da583836128b6565b505050565b7f150b7a02000000000000000000000000000000000000000000000000000000005b949350505050565b33600090815260c9602052604090205460ff16610e595760405162461bcd60e51b815260206004820152602860248201527f436f6e74726f6c6c61626c653a2043616c6c6572206973206e6f74206120636f60448201527f6e74726f6c6c65720000000000000000000000000000000000000000000000006064820152608401610bba565b60d7805473ffffffffffffffffffffffffffffffffffffffff19166001600160a01b0392909216919091179055565b6000610e9360d45490565b905090565b80610ea281612511565b610ca084848461293c565b610eb681612865565b3360d6546040517f6352211e000000000000000000000000000000000000000000000000000000008152600481018490526001600160a01b039283169290911690636352211e90602401602060405180830381865afa158015610f1d573d6000803e3d6000fd5b505050506040513d601f19601f82011682018060405250810190610f419190615056565b6001600160a01b031614610f81576040517f507b884600000000000000000000000000000000000000000000000000000000815260040160405180910390fd5b6040805160208082018352600080835284815260d19091529190912090610fa8908261510c565b50807fd4878af30a4a4a71c10122662443bc90d3fe898ea245ce80d45bde68e3909a2960d16000848152602001908152602001600020604051610feb9190615208565b60405180910390a250565b60408051808201909152600080825260208201528161101484611b3c565b511161104c576040517fca755cc000000000000000000000000000000000000000000000000000000000815260040160405180910390fd5b600083815260ce6020526040812080548490811061106c5761106c615293565b60009182526020918290206040805180820190915260029092020180548252600101546001600160a01b03169181019190915291505092915050565b60006110b383611bac565b82106111275760405162461bcd60e51b815260206004820152602b60248201527f455243373231456e756d657261626c653a206f776e657220696e646578206f7560448201527f74206f6620626f756e64730000000000000000000000000000000000000000006064820152608401610bba565b306001600160a01b0384160361113e575080610aed565b50600092915050565b60d1602052600090815260409020805461116090615073565b80601f016020809104026020016040519081016040528092919081815260200182805461118c90615073565b80156111d95780601f106111ae576101008083540402835291602001916111d9565b820191906000526020600020905b8154815290600101906020018083116111bc57829003601f168201915b505050505081565b6001600160a01b037f000000000000000000000000000000000000000000000000000000000000000016300361127f5760405162461bcd60e51b815260206004820152602c60248201527f46756e6374696f6e206d7573742062652063616c6c6564207468726f7567682060448201527f64656c656761746563616c6c00000000000000000000000000000000000000006064820152608401610bba565b7f00000000000000000000000000000000000000000000000000000000000000006001600160a01b03166112da7f360894a13ba1a3210667c828492db98dca3e2076cc3735a920a3ca505d382bbc546001600160a01b031690565b6001600160a01b0316146113565760405162461bcd60e51b815260206004820152602c60248201527f46756e6374696f6e206d7573742062652063616c6c6564207468726f7567682060448201527f6163746976652070726f787900000000000000000000000000000000000000006064820152608401610bba565b61135f81612ad9565b6040805160008082526020820190925261137b91839190612ae1565b50565b610da5838383604051806020016040528060008152506122b1565b6113a481600061229b565b5050565b33600090815260c9602052604090205460ff1661142d5760405162461bcd60e51b815260206004820152602860248201527f436f6e74726f6c6c61626c653a2043616c6c6572206973206e6f74206120636f60448201527f6e74726f6c6c65720000000000000000000000000000000000000000000000006064820152608401610bba565b60d6805473ffffffffffffffffffffffffffffffffffffffff19166001600160a01b0384169081179091556040517f55f804b30000000000000000000000000000000000000000000000000000000081526355f804b390611492908490600401614bf5565b600060405180830381600087803b1580156114ac57600080fd5b505af1158015610b0a573d6000803e3d6000fd5b600081815260cf60209081526040808320805482518185028101850190935280835260609493849084015b828210156115335760008481526020908190206040805180820190915260028502909101805482526001908101546001600160a01b03168284015290835290920191016114eb565b50929695505050505050565b6001600160a01b037f00000000000000000000000000000000000000000000000000000000000000001630036115dd5760405162461bcd60e51b815260206004820152602c60248201527f46756e6374696f6e206d7573742062652063616c6c6564207468726f7567682060448201527f64656c656761746563616c6c00000000000000000000000000000000000000006064820152608401610bba565b7f00000000000000000000000000000000000000000000000000000000000000006001600160a01b03166116387f360894a13ba1a3210667c828492db98dca3e2076cc3735a920a3ca505d382bbc546001600160a01b031690565b6001600160a01b0316146116b45760405162461bcd60e51b815260206004820152602c60248201527f46756e6374696f6e206d7573742062652063616c6c6564207468726f7567682060448201527f6163746976652070726f787900000000000000000000000000000000000000006064820152608401610bba565b6116bd82612ad9565b6113a482826001612ae1565b60006116d3610e88565b82106117475760405162461bcd60e51b815260206004820152602c60248201527f455243373231456e756d657261626c653a20676c6f62616c20696e646578206f60448201527f7574206f6620626f756e647300000000000000000000000000000000000000006064820152608401610bba565b5090565b6000306001600160a01b037f000000000000000000000000000000000000000000000000000000000000000016146117eb5760405162461bcd60e51b815260206004820152603860248201527f555550535570677261646561626c653a206d757374206e6f742062652063616c60448201527f6c6564207468726f7567682064656c656761746563616c6c00000000000000006064820152608401610bba565b507f360894a13ba1a3210667c828492db98dca3e2076cc3735a920a3ca505d382bbc90565b33600090815260c9602052604090205460ff166118955760405162461bcd60e51b815260206004820152602860248201527f436f6e74726f6c6c61626c653a2043616c6c6572206973206e6f74206120636f60448201527f6e74726f6c6c65720000000000000000000000000000000000000000000000006064820152608401610bba565b60d56113a4828261510c565b600054610100900460ff1661191e5760405162461bcd60e51b815260206004820152602b60248201527f496e697469616c697a61626c653a20636f6e7472616374206973206e6f74206960448201527f6e697469616c697a696e670000000000000000000000000000000000000000006064820152608401610bba565b33600090815260c960205260409020805460ff19166001179055611940612c81565b565b60008060008061195185612490565b92509250925080156119e2576040517f6352211e000000000000000000000000000000000000000000000000000000008152600481018390526001600160a01b03841690636352211e90602401602060405180830381865afa1580156119bb573d6000803e3d6000fd5b505050506040513d601f19601f820116820180604052508101906119df9190615056565b92505b50909392505050565b6119f483612865565b33803b611a2d576040517f80275d3a00000000000000000000000000000000000000000000000000000000815260040160405180910390fd5b604080518082019091528381526001600160a01b03821660208201526000611a54866114c0565b5190506080811015611ac057600086815260cf602090815260408220805460018082018355918452928290208551600290940201928355908401519101805473ffffffffffffffffffffffffffffffffffffffff19166001600160a01b03909216919091179055611af2565b6040517f98674b3500000000000000000000000000000000000000000000000000000000815260040160405180910390fd5b84836001600160a01b0316877fe65085e689b77b126ba0bac3b079aa8288f19f4d5445af11c76003f8ab3075dd84604051611b2f91815260200190565b60405180910390a4610b0a565b600081815260ce602090815260408083208054825181850281018501909352808352606094938490840182156115335760008481526020908190206040805180820190915260028502909101805482526001908101546001600160a01b03168284015290835290920191016114eb565b60006001600160a01b038216611bee576040517f7772286600000000000000000000000000000000000000000000000000000000815260040160405180910390fd5b506001600160a01b0316600090815260ca602052604090205490565b611c12612d06565b6119406000612d60565b606060d38054611c2b90615073565b80601f0160208091040260200160405190810160405280929190818152602001828054611c5790615073565b8015611ca45780601f10611c7957610100808354040283529160200191611ca4565b820191906000526020600020905b815481529060010190602001808311611c8757829003601f168201915b5050505050905090565b81611cb881612dbf565b610da58383612dff565b600061174782612865565b611cd681612e8d565b611d0c576040517f1fc5f61500000000000000000000000000000000000000000000000000000000815260040160405180910390fd5b600081815260cd60205260409020600101546001600160a01b031615611d5e576040517fc5a8d37100000000000000000000000000000000000000000000000000000000815260040160405180910390fd5b6000611d6d8260341c600f1690565b905060078114611da9576040517f1fc5f61500000000000000000000000000000000000000000000000000000000815260040160405180910390fd5b611db760d480546001019055565b611dc13083613004565b60d6546001600160a01b03166340c10f19336040517fffffffff0000000000000000000000000000000000000000000000000000000060e084901b1681526001600160a01b03909116600482015260248101859052604401600060405180830381600087803b158015611e3357600080fd5b505af1158015611e47573d6000803e3d6000fd5b505050600083815260d160205260409081902090518492507fd4878af30a4a4a71c10122662443bc90d3fe898ea245ce80d45bde68e3909a2991611e8a91615208565b60405180910390a25050565b6001600160a01b0382163303611ed8576040517f2dee66e400000000000000000000000000000000000000000000000000000000815260040160405180910390fd5b33600081815260cc602090815260408083206001600160a01b03871680855290835292819020805460ff191686151590811790915590519081529192917f17307eab39ab6107e8899845ad3d59bd9653f200f220920489ca2b5937696c31910160405180910390a35050565b611f4d82612865565b3360d6546040517f6352211e000000000000000000000000000000000000000000000000000000008152600481018590526001600160a01b039283169290911690636352211e90602401602060405180830381865afa158015611fb4573d6000803e3d6000fd5b505050506040513d601f19601f82011682018060405250810190611fd89190615056565b6001600160a01b031614612018576040517f507b884600000000000000000000000000000000000000000000000000000000815260040160405180910390fd5b3360d7546040517f6352211e000000000000000000000000000000000000000000000000000000008152600481018490526001600160a01b039283169290911690636352211e90602401602060405180830381865afa15801561207f573d6000803e3d6000fd5b505050506040513d601f19601f820116820180604052508101906120a39190615056565b6001600160a01b0316146120e3576040517f507b884600000000000000000000000000000000000000000000000000000000815260040160405180910390fd5b60d7546040517f20c38e2b000000000000000000000000000000000000000000000000000000008152600481018390526000916001600160a01b0316906320c38e2b90602401600060405180830381865afa158015612146573d6000803e3d6000fd5b505050506040513d6000823e601f3d908101601f1916820160405261216e91908101906152c2565b90506040516020016040516020818303038152906040528051906020012081805190602001200361219e57505050565b806040516020016121af9190615330565b60408051601f19818403018152918152600085815260d160205220906121d5908261510c565b50827fd4878af30a4a4a71c10122662443bc90d3fe898ea245ce80d45bde68e3909a2960d160008681526020019081526020016000206040516122189190615208565b60405180910390a2505050565b604080518082019091526000808252602082015281612243846114c0565b511161227b576040517f9136d24f00000000000000000000000000000000000000000000000000000000815260040160405180910390fd5b600083815260cf6020526040812080548490811061106c5761106c615293565b6000826122a781612511565b610dcc848461301e565b816122bb81612511565b6122c7858585856133b8565b5050505050565b60606122d982612865565b60006122e3613405565b90506000815111612303576040518060200160405280600081525061233e565b8061230d84613414565b600085815260d16020908152604091829020915161232e949392910161534c565b6040516020818303038152906040525b9392505050565b8761234f81612dbf565b61235f89898989898989896134d2565b505050505050505050565b612372612d06565b6001600160a01b038216600081815260c96020908152604091829020805460ff191685151590811790915591519182527f4c97694570a07277810af7e5669ffd5f6a2d6b74b6e9a274b8b870fd5114cf879101611e8a565b836123d481612dbf565b6122c7858585856136df565b6123e8612d06565b6001600160a01b0381166124645760405162461bcd60e51b815260206004820152602660248201527f4f776e61626c653a206e6577206f776e657220697320746865207a65726f206160448201527f64647265737300000000000000000000000000000000000000000000000000006064820152608401610bba565b807fb53127684a568b3173ae13b9f8a6016e243e63b6e8ee1178d6a717850b5d61035561137b81612d60565b600081815260cd60209081526040808320815180830190925280548252600101546001600160a01b031691810182905282918291906124fb576040517f89ba7e1000000000000000000000000000000000000000000000000000000000815260040160405180910390fd5b6020810151905190959094508415159350915050565b61251b338261384d565b61137b576040517f35d12e3f00000000000000000000000000000000000000000000000000000000815260040160405180910390fd5b60008061255d85612490565b5091509150866001600160a01b0316826001600160a01b0316146125ad576040517fe146af6f00000000000000000000000000000000000000000000000000000000815260040160405180910390fd5b6001600160a01b0386166125ed576040517fe3d91bfc00000000000000000000000000000000000000000000000000000000815260040160405180910390fd5b6001600160a01b0386163014801561260457508385145b1561263b576040517f5eeb0df000000000000000000000000000000000000000000000000000000000815260040160405180910390fd5b6001600160a01b0386163b61267c576040517f80275d3a00000000000000000000000000000000000000000000000000000000815260040160405180910390fd5b6040517f01ffc9a70000000000000000000000000000000000000000000000000000000081527f42b0e56f0000000000000000000000000000000000000000000000000000000060048201526001600160a01b038716906301ffc9a790602401602060405180830381865afa1580156126f9573d6000803e3d6000fd5b505050506040513d601f19601f8201168201806040525081019061271d919061541b565b612753576040517ff413cf9900000000000000000000000000000000000000000000000000000000815260040160405180910390fd5b61275e8587866138f0565b6001600160a01b038716600090815260ca60205260408120805460019290612787908490615467565b909155506127989050858588613a13565b6001600160a01b038616600090815260ca602052604081208054600192906127c190849061547a565b909155506127d59050828783878988613a76565b50505050505050565b600054610100900460ff1661285b5760405162461bcd60e51b815260206004820152602b60248201527f496e697469616c697a61626c653a20636f6e7472616374206973206e6f74206960448201527f6e697469616c697a696e670000000000000000000000000000000000000000006064820152608401610bba565b6113a48282613b94565b600081815260cd60205260409020600101546001600160a01b031661137b576040517f89ba7e1000000000000000000000000000000000000000000000000000000000815260040160405180910390fd5b60006128c182611942565b600083815260cb602090815260408083206001600160a01b0385811680865291909352818420805473ffffffffffffffffffffffffffffffffffffffff1916938916938417905590519394508593919290917f8c5be1e5ebec7d5bd14f71427d1e84f3dd0314c0f7b2291e5b200ac8c7c3b9259190a4505050565b60008061294883612490565b5091509150846001600160a01b0316826001600160a01b031614612998576040517fe146af6f00000000000000000000000000000000000000000000000000000000815260040160405180910390fd5b6001600160a01b0384166129d8576040517fe3d91bfc00000000000000000000000000000000000000000000000000000000815260040160405180910390fd5b6001600160a01b038516600090815260ca60205260408120805460019290612a01908490615467565b90915550612a13905083600086613a13565b6001600160a01b038416600090815260ca60205260408120805460019290612a3c90849061547a565b909155505060405183906001600160a01b0380871691908816907fddf252ad1be2c89b69c2b068fc378daa952ba7f163c4a11628f55a4df523b3ef90600090a482846001600160a01b0316836001600160a01b03167f04444026cefd1b05506559cab59d1b865ae3ba4ed2fe5c894f04e522776c552d846000604051612acc929190918252602082015260400190565b60405180910390a46122c7565b61137b612d06565b7f4910fdfa16fed3260ed0e7147f7cc6da11a60208b5b9406d12a635614ffd91435460ff1615612b1457610da583613c2a565b826001600160a01b03166352d1902d6040518163ffffffff1660e01b8152600401602060405180830381865afa925050508015612b6e575060408051601f3d908101601f19168201909252612b6b9181019061548d565b60015b612be05760405162461bcd60e51b815260206004820152602e60248201527f45524331393637557067726164653a206e657720696d706c656d656e7461746960448201527f6f6e206973206e6f7420555550530000000000000000000000000000000000006064820152608401610bba565b7f360894a13ba1a3210667c828492db98dca3e2076cc3735a920a3ca505d382bbc8114612c755760405162461bcd60e51b815260206004820152602960248201527f45524331393637557067726164653a20756e737570706f727465642070726f7860448201527f6961626c655555494400000000000000000000000000000000000000000000006064820152608401610bba565b50610da5838383613cf5565b600054610100900460ff16612cfe5760405162461bcd60e51b815260206004820152602b60248201527f496e697469616c697a61626c653a20636f6e7472616374206973206e6f74206960448201527f6e697469616c697a696e670000000000000000000000000000000000000000006064820152608401610bba565b611940613d1a565b6097546001600160a01b031633146119405760405162461bcd60e51b815260206004820181905260248201527f4f776e61626c653a2063616c6c6572206973206e6f7420746865206f776e65726044820152606401610bba565b609780546001600160a01b0383811673ffffffffffffffffffffffffffffffffffffffff19831681179093556040519116919082907f8be0079c531659141344cd1fd0a4f28419497f9722a3daafe3b4186f6b6457e090600090a35050565b612dc93382613da0565b61137b576040517f2728a9d000000000000000000000000000000000000000000000000000000000815260040160405180910390fd5b600082815260cf6020526040902054811015612e47576040517f8ac3cb1400000000000000000000000000000000000000000000000000000000815260040160405180910390fd5b600082815260cf60205260408120612e5e916149a1565b60405182907f8ac4a0d65950c3e40448afb2260e2e0ec36ea15644d9b39e37e85472e5f9445190600090a25050565b6000612e9c82603f1c60011690565b15612ea957506000919050565b6001612eb883603b1c600f1690565b14612ec557506000919050565b612ed28260381c60071690565b15612edf57506000919050565b6000612eee83602d1c607f1690565b9050607a811115612f025750600092915050565b6000612f118460341c600f1690565b90506007811080612f225750600f81115b15612f31575060009392505050565b600060015b828111612fb0576000612f498783613e1e565b905082158015612f5857508015155b15612f885760019250612f6a85613e45565b8015612f765750600181145b15612f88575060009695505050505050565b60078110612f9d575060009695505050505050565b5080612fa8816154a6565b915050612f36565b506000612fbe83600161547a565b90505b600f8111612ff8576007612fd58783613e1e565b14612fe65750600095945050505050565b80612ff0816154a6565b915050612fc1565b50600195945050505050565b6113a4828260405180602001604052806000815250613e6d565b600080600061302c85612490565b5091509150600061303c86611942565b6001600160a01b038416600090815260ca60205260408120805492935060019290919061306a908490615467565b909155506130759050565b6130806000876128b6565b600061308b87611b3c565b600088815260ce602052604081209192506130a691906149a1565b600087815260cf602052604081206130bd916149a1565b600087815260cb602090815260408083206001600160a01b03861684529091528120805473ffffffffffffffffffffffffffffffffffffffff1916905581518190815b818110156132fc5789831061318e5784818151811061312157613121615293565b60200260200101516020015185828151811061313f5761313f615293565b6020908102919091010151516040517f4cb93ad90000000000000000000000000000000000000000000000000000000081526001600160a01b0390921660048301526024820152604401610bba565b60d060008683815181106131a4576131a4615293565b6020026020010151602001516001600160a01b03166001600160a01b0316815260200190815260200160002060008683815181106131e4576131e4615293565b602002602001015160000151815260200190815260200160002060009055828a03935084818151811061321957613219615293565b6020026020010151602001516001600160a01b031663b390c0ab86838151811061324557613245615293565b60200260200101516000015160018761325e9190615467565b6040517fffffffff0000000000000000000000000000000000000000000000000000000060e085901b168152600481019290925260248201526044016020604051808303816000875af11580156132b9573d6000803e3d6000fd5b505050506040513d601f19601f820116820180604052508101906132dd919061548d565b6132e890600161547a565b6132f2908461547a565b9250600101613100565b5060008a815260cd6020526040808220828155600101805473ffffffffffffffffffffffffffffffffffffffff19169055518b91906001600160a01b038816907fddf252ad1be2c89b69c2b068fc378daa952ba7f163c4a11628f55a4df523b3ef908390a4604080518781526000602082018190528c9290916001600160a01b038b16917f04444026cefd1b05506559cab59d1b865ae3ba4ed2fe5c894f04e522776c552d910160405180910390a45098975050505050505050565b6133c384848461293c565b6133cf84848484613eba565b610ca0576040517fbcb5663700000000000000000000000000000000000000000000000000000000815260040160405180910390fd5b606060d58054611c2b90615073565b606060006134218361401c565b600101905060008167ffffffffffffffff81111561344157613441614a51565b6040519080825280601f01601f19166020018201604052801561346b576020820181803683370190505b5090508181016020015b7fffffffffffffffffffffffffffffffffffffffffffffffffffffffffffffffff017f3031323334353637383961626364656600000000000000000000000000000000600a86061a8153600a850494508461347557509392505050565b604080518082019091526000808252602082015282156134fd576134f68987612225565b905061350a565b6135078987610ff6565b90505b6135158186866140fe565b821561353857600089815260cf60205260409020613533908761415b565b613572565b6001600160a01b038516600090815260d06020908152604080832087845282528083208390558b835260ce9091529020613572908761415b565b6001600160a01b03881615613691578660000361360b576040517fb88d4fde0000000000000000000000000000000000000000000000000000000081526001600160a01b0386169063b88d4fde906135d49030908c90899088906004016154de565b600060405180830381600087803b1580156135ee57600080fd5b505af1158015613602573d6000803e3d6000fd5b50505050613691565b602081015181516040517f064c0a3a0000000000000000000000000000000000000000000000000000000081526001600160a01b039092169163064c0a3a9161365e9130918d918d90899060040161551a565b600060405180830381600087803b15801561367857600080fd5b505af115801561368c573d6000803e3d6000fd5b505050505b60408051878152841515602082015285916001600160a01b038816918c917f2bedee38cdb22411c14554191243c0e117c0088ddae3459876acd46a0fd53815910160405180910390a461235f565b826136e9856114c0565b5111613721576040517f9136d24f00000000000000000000000000000000000000000000000000000000815260040160405180910390fd5b600061372d8585612225565b905061373a8184846140fe565b6001600160a01b038316600090815260d06020908152604080832085845290915290205415613795576040517fff33650c00000000000000000000000000000000000000000000000000000000815260040160405180910390fd5b600085815260cf602052604090206137ad908561415b565b600085815260ce60209081526040808320805460018082018355918552838520865160029092020190815585840151908201805473ffffffffffffffffffffffffffffffffffffffff19166001600160a01b03928316179055871680855260d08452828520878652845293829020555186815284929188917f29486b9e2ae569b440933a9b1b421467306fa21f3dcad439c262910a634963a99101612acc565b600080600061385b84612490565b50915091508060001461387e57506001600160a01b038481169116149050610aed565b816001600160a01b0316856001600160a01b031614806138c357506001600160a01b03808316600090815260cc602090815260408083209389168352929052205460ff165b806138e75750846001600160a01b03166138dc85610ca6565b6001600160a01b0316145b95945050505050565b60005b60648110156139e0576000806000856001600160a01b031663fb25fb7a866040518263ffffffff1660e01b815260040161392f91815260200190565b606060405180830381865afa15801561394c573d6000803e3d6000fd5b505050506040513d601f19601f82011682018060405250810190613970919061555d565b925092509250806139845750505050505050565b6001600160a01b0383163014801561399b57508682145b156139d2576040517ff911968900000000000000000000000000000000000000000000000000000000815260040160405180910390fd5b5090935091506001016138f3565b506040517feb20c44200000000000000000000000000000000000000000000000000000000815260040160405180910390fd5b6040805180820182528381526001600160a01b038381166020808401918252600088815260cd90915293842092518355516001909201805473ffffffffffffffffffffffffffffffffffffffff191692909116919091179055610da590846128b6565b6040517f635490cc00000000000000000000000000000000000000000000000000000000815285906001600160a01b0382169063635490cc90613ac190879087908790600401615595565b600060405180830381600087803b158015613adb57600080fd5b505af1158015613aef573d6000803e3d6000fd5b5050505082866001600160a01b0316886001600160a01b03167fddf252ad1be2c89b69c2b068fc378daa952ba7f163c4a11628f55a4df523b3ef60405160405180910390a482866001600160a01b0316886001600160a01b03167f04444026cefd1b05506559cab59d1b865ae3ba4ed2fe5c894f04e522776c552d8888604051613b83929190918252602082015260400190565b60405180910390a450505050505050565b600054610100900460ff16613c115760405162461bcd60e51b815260206004820152602b60248201527f496e697469616c697a61626c653a20636f6e7472616374206973206e6f74206960448201527f6e697469616c697a696e670000000000000000000000000000000000000000006064820152608401610bba565b60d2613c1d838261510c565b5060d3610da5828261510c565b6001600160a01b0381163b613ca75760405162461bcd60e51b815260206004820152602d60248201527f455243313936373a206e657720696d706c656d656e746174696f6e206973206e60448201527f6f74206120636f6e7472616374000000000000000000000000000000000000006064820152608401610bba565b7f360894a13ba1a3210667c828492db98dca3e2076cc3735a920a3ca505d382bbc805473ffffffffffffffffffffffffffffffffffffffff19166001600160a01b0392909216919091179055565b613cfe8361424d565b600082511180613d0b5750805b15610da557610ca0838361428d565b600054610100900460ff16613d975760405162461bcd60e51b815260206004820152602b60248201527f496e697469616c697a61626c653a20636f6e7472616374206973206e6f74206960448201527f6e697469616c697a696e670000000000000000000000000000000000000000006064820152608401610bba565b61194033612d60565b600080613dac83611942565b9050806001600160a01b0316846001600160a01b03161480613df357506001600160a01b03808216600090815260cc602090815260408083209388168352929052205460ff165b80610dcc5750836001600160a01b0316613e0c84610ca6565b6001600160a01b031614949350505050565b600060076003613e2f84600f615467565b613e3991906155b4565b84901c16905092915050565b6000607a8210613e5757506000919050565b613e608261438f565b60ff166001149050919050565b613e77838361477d565b613e846000848484613eba565b610da5576040517fbcb5663700000000000000000000000000000000000000000000000000000000815260040160405180910390fd5b60006001600160a01b0384163b15614014576040517f150b7a020000000000000000000000000000000000000000000000000000000081526001600160a01b0385169063150b7a0290613f179033908990889088906004016154de565b6020604051808303816000875af1925050508015613f52575060408051601f3d908101601f19168201909252613f4f918101906155cb565b60015b613fc9573d808015613f80576040519150601f19603f3d011682016040523d82523d6000602084013e613f85565b606091505b508051600003613fc1576040517fbcb5663700000000000000000000000000000000000000000000000000000000815260040160405180910390fd5b805181602001fd5b7fffffffff00000000000000000000000000000000000000000000000000000000167f150b7a0200000000000000000000000000000000000000000000000000000000149050610dcc565b506001610dcc565b6000807a184f03e93ff9f4daa797ed6e38ed64bf6a1f0100000000000000008310614065577a184f03e93ff9f4daa797ed6e38ed64bf6a1f010000000000000000830492506040015b6d04ee2d6d415b85acef81000000008310614091576d04ee2d6d415b85acef8100000000830492506020015b662386f26fc1000083106140af57662386f26fc10000830492506010015b6305f5e10083106140c7576305f5e100830492506008015b61271083106140db57612710830492506004015b606483106140ed576064830492506002015b600a8310610aed5760010192915050565b82602001516001600160a01b0316826001600160a01b0316141580614124575082518114155b15610da5576040517f37d6ce9000000000000000000000000000000000000000000000000000000000815260040160405180910390fd5b8154829061416b90600190615467565b8154811061417b5761417b615293565b906000526020600020906002020182828154811061419b5761419b615293565b6000918252602090912082546002909202019081556001918201549101805473ffffffffffffffffffffffffffffffffffffffff19166001600160a01b0390921691909117905581548290806141f3576141f36155e8565b60008281526020812060027fffffffffffffffffffffffffffffffffffffffffffffffffffffffffffffffff90930192830201908155600101805473ffffffffffffffffffffffffffffffffffffffff1916905590555050565b61425681613c2a565b6040516001600160a01b038216907fbc7cd75a20ee27fd9adebab32041f755214dbc6bffa90cc0225b39da2e5c2d3b90600090a250565b60606001600160a01b0383163b61430c5760405162461bcd60e51b815260206004820152602660248201527f416464726573733a2064656c65676174652063616c6c20746f206e6f6e2d636f60448201527f6e747261637400000000000000000000000000000000000000000000000000006064820152608401610bba565b600080846001600160a01b0316846040516143279190615330565b600060405180830381855af49150503d8060008114614362576040519150601f19603f3d011682016040523d82523d6000602084013e614367565b606091505b50915091506138e782826040518060600160405280602781526020016156186027913961480d565b60408051610f40810182526000808252602082018190529181018290526060810182905260016080820181905260a0820183905260c0820183905260e08201839052610100820183905261012082018390526101408201839052610160820183905261018082018390526101a082018390526101c082018190526101e08201839052610200820183905261022082018390526102408201839052610260820183905261028082018390526102a082018390526102c082018390526102e08201839052610300820181905261032082018390526103408201839052610360820183905261038082018390526103a082018390526103c082018390526103e08201839052610400820183905261042082018390526104408201839052610460820183905261048082018390526104a082018390526104c082018190526104e08201839052610500820183905261052082018390526105408201839052610560820183905261058082018390526105a082018390526105c082018390526105e08201839052610600820183905261062082018190526106408201839052610660820183905261068082018390526106a082018390526106c082018390526106e08201839052610700820183905261072082018390526107408201819052610760820183905261078082018390526107a082018390526107c082018390526107e08201819052610800820183905261082082018390526108408201839052610860820183905261088082018390526108a082018390526108c082018390526108e08201839052610900820181905261092082018390526109408201839052610960820183905261098082018390526109a082018390526109c082018390526109e08201839052610a008201839052610a208201839052610a408201839052610a608201819052610a808201839052610aa08201839052610ac08201839052610ae08201839052610b008201839052610b208201839052610b408201839052610b608201839052610b808201839052610ba08201839052610bc08201839052610be08201839052610c008201839052610c208201819052610c408201839052610c608201839052610c808201839052610ca08201839052610cc08201839052610ce08201839052610d008201839052610d208201839052610d408201839052610d608201819052610d808201839052610da08201839052610dc08201839052610de08201839052610e008201839052610e208201839052610e408201839052610e608201839052610e808201839052610ea0820152610ec08101829052610ee08101829052610f008101829052610f2081018290528083607a811061477157614771615293565b60200201519392505050565b61478982826000614826565b60405181906001600160a01b038416906000907fddf252ad1be2c89b69c2b068fc378daa952ba7f163c4a11628f55a4df523b3ef908290a46040805160008082526020820181905283926001600160a01b038616927f04444026cefd1b05506559cab59d1b865ae3ba4ed2fe5c894f04e522776c552d910160405180910390a45050565b6060831561481c57508161233e565b61233e8383614977565b6001600160a01b038316614866576040517f25bd6bd300000000000000000000000000000000000000000000000000000000815260040160405180910390fd5b600082815260cd60205260409020600101546001600160a01b0316156148b8576040517fc5a8d37100000000000000000000000000000000000000000000000000000000815260040160405180910390fd5b816000036148f2576040517f238924d500000000000000000000000000000000000000000000000000000000815260040160405180910390fd5b6001600160a01b038316600090815260ca6020526040812080546001929061491b90849061547a565b90915550506040805180820182529182526001600160a01b039384166020808401918252600094855260cd905292209051815590516001909101805473ffffffffffffffffffffffffffffffffffffffff191691909216179055565b8151156149875781518083602001fd5b8060405162461bcd60e51b8152600401610bba9190614bf5565b508054600082556002029060005260206000209081019061137b91905b80821115611747576000815560018101805473ffffffffffffffffffffffffffffffffffffffff191690556002016149be565b7fffffffff000000000000000000000000000000000000000000000000000000008116811461137b57600080fd5b600060208284031215614a3157600080fd5b813561233e816149f1565b6001600160a01b038116811461137b57600080fd5b7f4e487b7100000000000000000000000000000000000000000000000000000000600052604160045260246000fd5b604051601f8201601f1916810167ffffffffffffffff81118282101715614aa957614aa9614a51565b604052919050565b600067ffffffffffffffff821115614acb57614acb614a51565b50601f01601f191660200190565b600082601f830112614aea57600080fd5b8135614afd614af882614ab1565b614a80565b818152846020838601011115614b1257600080fd5b816020850160208301376000918101602001919091529392505050565b600080600080600060a08688031215614b4757600080fd5b8535614b5281614a3c565b94506020860135614b6281614a3c565b93506040860135925060608601359150608086013567ffffffffffffffff811115614b8c57600080fd5b614b9888828901614ad9565b9150509295509295909350565b60005b83811015614bc0578181015183820152602001614ba8565b50506000910152565b60008151808452614be1816020860160208601614ba5565b601f01601f19169290920160200192915050565b60208152600061233e6020830184614bc9565b600080600060608486031215614c1d57600080fd5b833567ffffffffffffffff80821115614c3557600080fd5b614c4187838801614ad9565b94506020860135915080821115614c5757600080fd5b50614c6486828701614ad9565b9250506040840135614c7581614a3c565b809150509250925092565b600060208284031215614c9257600080fd5b5035919050565b60008060408385031215614cac57600080fd5b8235614cb781614a3c565b946020939093013593505050565b60008060008060808587031215614cdb57600080fd5b8435614ce681614a3c565b93506020850135614cf681614a3c565b925060408501359150606085013567ffffffffffffffff811115614d1957600080fd5b614d2587828801614ad9565b91505092959194509250565b600060208284031215614d4357600080fd5b813561233e81614a3c565b600080600060608486031215614d6357600080fd5b8335614d6e81614a3c565b92506020840135614d7e81614a3c565b929592945050506040919091013590565b60008060408385031215614da257600080fd5b50508035926020909101359150565b815181526020808301516001600160a01b03169082015260408101610aed565b60008060408385031215614de457600080fd5b8235614def81614a3c565b9150602083013567ffffffffffffffff811115614e0b57600080fd5b614e1785828601614ad9565b9150509250929050565b602080825282518282018190526000919060409081850190868401855b82811015614e7457614e64848351805182526020908101516001600160a01b0316910152565b9284019290850190600101614e3e565b5091979650505050505050565b600060208284031215614e9357600080fd5b813567ffffffffffffffff811115614eaa57600080fd5b610dcc84828501614ad9565b600080600060608486031215614ecb57600080fd5b8335925060208401359150604084013567ffffffffffffffff811115614ef057600080fd5b614efc86828701614ad9565b9150509250925092565b801515811461137b57600080fd5b60008060408385031215614f2757600080fd5b8235614f3281614a3c565b91506020830135614f4281614f06565b809150509250929050565b600080600080600080600080610100898b031215614f6a57600080fd5b883597506020890135614f7c81614a3c565b965060408901359550606089013594506080890135614f9a81614a3c565b935060a0890135925060c0890135614fb181614f06565b915060e089013567ffffffffffffffff811115614fcd57600080fd5b614fd98b828c01614ad9565b9150509295985092959890939650565b60008060008060808587031215614fff57600080fd5b8435935060208501359250604085013561501881614a3c565b9396929550929360600135925050565b6000806040838503121561503b57600080fd5b823561504681614a3c565b91506020830135614f4281614a3c565b60006020828403121561506857600080fd5b815161233e81614a3c565b600181811c9082168061508757607f821691505b6020821081036150c0577f4e487b7100000000000000000000000000000000000000000000000000000000600052602260045260246000fd5b50919050565b601f821115610da557600081815260208120601f850160051c810160208610156150ed5750805b601f850160051c820191505b81811015610b0a578281556001016150f9565b815167ffffffffffffffff81111561512657615126614a51565b61513a816151348454615073565b846150c6565b602080601f83116001811461518d57600084156151575750858301515b7fffffffffffffffffffffffffffffffffffffffffffffffffffffffffffffffff600386901b1c1916600185901b178555610b0a565b600085815260208120601f198616915b828110156151bc5788860151825594840194600190910190840161519d565b50858210156151f857878501517fffffffffffffffffffffffffffffffffffffffffffffffffffffffffffffffff600388901b60f8161c191681555b5050505050600190811b01905550565b600060208083526000845461521c81615073565b8084870152604060018084166000811461523d576001811461525757615285565b60ff198516838a01528284151560051b8a01019550615285565b896000528660002060005b8581101561527d5781548b8201860152908301908801615262565b8a0184019650505b509398975050505050505050565b7f4e487b7100000000000000000000000000000000000000000000000000000000600052603260045260246000fd5b6000602082840312156152d457600080fd5b815167ffffffffffffffff8111156152eb57600080fd5b8201601f810184136152fc57600080fd5b805161530a614af882614ab1565b81815285602083850101111561531f57600080fd5b6138e7826020830160208601614ba5565b60008251615342818460208701614ba5565b9190910192915050565b60008451602061535f8285838a01614ba5565b8551918401916153728184848a01614ba5565b7f3f6e616d653d0000000000000000000000000000000000000000000000000000920191825284546006906000906153a981615073565b600182811680156153c157600181146153da5761540a565b60ff19841686890152858315158402890101945061540a565b8a6000528660002060005b848110156154005781548a82018901529083019088016153e5565b5050858389010194505b50929b9a5050505050505050505050565b60006020828403121561542d57600080fd5b815161233e81614f06565b7f4e487b7100000000000000000000000000000000000000000000000000000000600052601160045260246000fd5b81810381811115610aed57610aed615438565b80820180821115610aed57610aed615438565b60006020828403121561549f57600080fd5b5051919050565b60007fffffffffffffffffffffffffffffffffffffffffffffffffffffffffffffffff82036154d7576154d7615438565b5060010190565b60006001600160a01b038087168352808616602084015250836040830152608060608301526155106080830184614bc9565b9695505050505050565b60006001600160a01b03808816835280871660208401525084604083015283606083015260a0608083015261555260a0830184614bc9565b979650505050505050565b60008060006060848603121561557257600080fd5b835161557d81614a3c565b602085015160408601519194509250614c7581614f06565b8381528260208201526060604082015260006138e76060830184614bc9565b8082028115828204841417610aed57610aed615438565b6000602082840312156155dd57600080fd5b815161233e816149f1565b7f4e487b7100000000000000000000000000000000000000000000000000000000600052603160045260246000fdfe416464726573733a206c6f772d6c6576656c2064656c65676174652063616c6c206661696c6564a26469706673582212201630ed695a0f4e54cc92ba0778e9b1cf1a6133ed68b11914e16cb525fb50916864736f6c63430008120033",
  "devdoc": {
    "events": {
      "AdminChanged(address,address)": {
        "details": "Emitted when the admin account has changed."
      },
      "Approval(address,address,uint256)": {
        "details": "Emitted when `owner` enables `approved` to manage the `tokenId` token."
      },
      "ApprovalForAll(address,address,bool)": {
        "details": "Emitted when `owner` enables or disables (`approved`) `operator` to manage all of its assets."
      },
      "BeaconUpgraded(address)": {
        "details": "Emitted when the beacon is changed."
      },
      "Initialized(uint8)": {
        "details": "Triggered when the contract has been initialized or reinitialized."
      },
      "Transfer(address,address,uint256)": {
        "details": "Emitted when `tokenId` token is transferred from `from` to `to`."
      },
      "Upgraded(address)": {
        "details": "Emitted when the implementation is upgraded."
      }
    },
    "kind": "dev",
    "methods": {
      "acceptChild(uint256,uint256,address,uint256)": {
        "details": "This moves the child token from parent token's pending child tokens array into the active child tokens  array.",
        "params": {
          "childAddress": "Address of the collection smart contract of the child token expected to be located at the  specified index of the given parent token's pending children array",
          "childId": "ID of the child token expected to be located at the specified index of the given parent token's  pending children array",
          "childIndex": "Index of a child tokem in the given parent's pending children array",
          "parentId": "ID of the parent token for which the child token is being accepted"
        }
      },
      "addChild(uint256,uint256,bytes)": {
        "details": "This adds the iichild token into the given parent token's pending child tokens array.You MUST NOT call this method directly. To add a a child to an NFT you must use either  `nestTransfer`, `nestMint` or `transferChild` to the NFT.Requirements:  - `ownerOf` on the child contract must resolve to the called contract.  - The pending array of the parent contract must not be full.",
        "params": {
          "childId": "ID of the new proposed child token",
          "data": "Additional data with no specified format",
          "parentId": "ID of the parent token to receive the new child token"
        }
      },
      "approve(address,uint256)": {
        "details": "Gives permission to `to` to transfer `tokenId` token to another account. The approval is cleared when the token is transferred. Only a single account can be approved at a time, so approving the zero address clears previous approvals. Requirements: - The caller must own the token or be an approved operator. - `tokenId` must exist. Emits an {Approval} event."
      },
      "balanceOf(address)": {
        "details": "Returns the number of tokens in ``owner``'s account."
      },
      "burn(uint256)": {
        "params": {
          "tokenId": "ID of the token to burn"
        }
      },
      "burn(uint256,uint256)": {
        "details": "When a token is burned, its children are recursively burned as well.The approvals are cleared when the token is burned.Requirements:  - `tokenId` must exist.Emits a {Transfer} event.",
        "params": {
          "maxChildrenBurns": "Maximum children to recursively burn",
          "tokenId": "ID of the token to burn"
        },
        "returns": {
          "_0": "uint256 The number of recursive burns it took to burn all of the children"
        }
      },
      "childIsInActive(address,uint256)": {
        "params": {
          "childAddress": "Address of the given token's collection smart contract",
          "childId": "ID of the child token being checked"
        },
        "returns": {
          "_0": "bool A boolean value signifying whether the given child token is included in an active child tokens array  of a token (`true`) or not (`false`)"
        }
      },
      "childOf(uint256,uint256)": {
        "details": "Returns a single Child struct locating at `index` of parent token's active child tokens array.The Child struct consists of the following values:  [      tokenId,      contractAddress  ]",
        "params": {
          "index": "Index of the child token in the parent token's active child tokens array",
          "parentId": "ID of the parent token for which the child is being retrieved"
        },
        "returns": {
          "_0": "struct A Child struct containing data about the specified child"
        }
      },
      "childrenOf(uint256)": {
        "details": "Returns array of Child structs existing for parent token.The Child struct consists of the following values:  [      tokenId,      contractAddress  ]",
        "params": {
          "parentId": "ID of the parent token for which to retrieve the active child tokens"
        },
        "returns": {
          "_0": "struct[] An array of Child structs containing the parent token's active child tokens"
        }
      },
      "directOwnerOf(uint256)": {
        "details": "In the event the NFT is owned by an externally owned account, `tokenId` will be `0`.",
        "params": {
          "tokenId": "ID of the token for which the immediate owner is being retrieved"
        },
        "returns": {
          "_0": "address Address of the immediate owner. If the token is owned by an externally owned account, its address  will be returned. If the token is owned by another token, the parent token's collection smart contract address  is returned",
          "_1": "uint256 Token ID of the immediate owner. If the immediate owner is an externally owned account, the value  should be `0`",
          "_2": "bool A boolean value signifying whether the immediate owner is a token (`true`) or not (`false`)"
        }
      },
      "getApproved(uint256)": {
        "details": "Returns the account approved for `tokenId` token. Requirements: - `tokenId` must exist."
      },
      "isApprovedForAll(address,address)": {
        "details": "Returns if the `operator` is allowed to manage all of the assets of `owner`. See {setApprovalForAll}"
      },
      "name()": {
        "details": "See {IERC721Metadata-name}."
      },
      "nestTransferFrom(address,address,uint256,uint256,bytes)": {
        "details": "The destination token MUST NOT be a child token of the token being transferred or one of its downstream  child tokens.",
        "params": {
          "destinationId": "ID of the token to receive the token being transferred",
          "from": "Address of the direct owner of the token to be transferred",
          "to": "Address of the receiving token's collection smart contract",
          "tokenId": "ID of the token being transferred"
        }
      },
      "onERC721Received(address,address,uint256,bytes)": {
        "details": "See {IERC721Receiver-onERC721Received}. Always returns `IERC721Receiver.onERC721Received.selector`."
      },
      "owner()": {
        "details": "Returns the address of the current owner."
      },
      "ownerOf(uint256)": {
        "details": "Root owner is always the externally owned account.If the given token is owned by another token, it will recursively query the parent tokens until reaching the  root owner.",
        "params": {
          "tokenId": "ID of the token for which the root owner is being retrieved"
        },
        "returns": {
          "_0": "address Address of the root owner of the given token"
        }
      },
      "pendingChildOf(uint256,uint256)": {
        "details": "Returns a single Child struct locating at `index` of parent token's active child tokens array.The Child struct consists of the following values:  [      tokenId,      contractAddress  ]",
        "params": {
          "index": "Index of the child token in the parent token's pending child tokens array",
          "parentId": "ID of the parent token for which the pending child token is being retrieved"
        },
        "returns": {
          "_0": "struct A Child struct containting data about the specified child"
        }
      },
      "pendingChildrenOf(uint256)": {
        "details": "Returns array of pending Child structs existing for given parent.The Child struct consists of the following values:  [      tokenId,      contractAddress  ]",
        "params": {
          "parentId": "ID of the parent token for which to retrieve the pending child tokens"
        },
        "returns": {
          "_0": "struct[] An array of Child structs containing the parent token's pending child tokens"
        }
      },
      "proxiableUUID()": {
        "details": "Implementation of the ERC1822 {proxiableUUID} function. This returns the storage slot used by the implementation. It is used to validate the implementation's compatibility when performing an upgrade. IMPORTANT: A proxy pointing at a proxiable contract should not be considered proxiable itself, because this risks bricking a proxy that upgrades to it, by delegating to itself until out of gas. Thus it is critical that this function revert if invoked through a proxy. This is guaranteed by the `notDelegated` modifier."
      },
      "rejectAllChildren(uint256,uint256)": {
        "details": "Removes the children from the pending array mapping.This does not update the ownership storage data on children. If necessary, ownership can be reclaimed by the  rootOwner of the previous parent.",
        "params": {
          "tokenId": "ID of the parent token for which to reject all of the pending tokens"
        }
      },
      "renounceOwnership()": {
        "details": "Leaves the contract without owner. It will not be possible to call `onlyOwner` functions anymore. Can only be called by the current owner. NOTE: Renouncing ownership will leave the contract without an owner, thereby removing any functionality that is only available to the owner."
      },
      "safeTransferFrom(address,address,uint256)": {
        "details": "Safely transfers `tokenId` token from `from` to `to`, checking first that contract recipients are aware of the ERC721 protocol to prevent tokens from being forever locked. Requirements: - `from` cannot be the zero address. - `to` cannot be the zero address. - `tokenId` token must exist and be owned by `from`. - If the caller is not `from`, it must have been allowed to move this token by either {approve} or {setApprovalForAll}. - If `to` refers to a smart contract, it must implement {IERC721Receiver-onERC721Received}, which is called upon a safe transfer. Emits a {Transfer} event."
      },
      "safeTransferFrom(address,address,uint256,bytes)": {
        "details": "Safely transfers `tokenId` token from `from` to `to`. Requirements: - `from` cannot be the zero address. - `to` cannot be the zero address. - `tokenId` token must exist and be owned by `from`. - If the caller is not `from`, it must be approved to move this token by either {approve} or {setApprovalForAll}. - If `to` refers to a smart contract, it must implement {IERC721Receiver-onERC721Received}, which is called upon a safe transfer. Emits a {Transfer} event."
      },
      "setApprovalForAll(address,bool)": {
        "details": "Approve or remove `operator` as an operator for the caller. Operators can call {transferFrom} or {safeTransferFrom} for any token owned by the caller. Requirements: - The `operator` cannot be the caller. Emits an {ApprovalForAll} event."
      },
      "supportsInterface(bytes4)": {
        "details": "See {IERC165-supportsInterface}."
      },
      "symbol()": {
        "details": "See {IERC721Metadata-symbol}."
      },
      "tokenByIndex(uint256)": {
        "details": "See {IERC721Enumerable-tokenByIndex}."
      },
      "tokenOfOwnerByIndex(address,uint256)": {
        "details": "See {IERC721Enumerable-tokenOfOwnerByIndex}."
      },
      "tokenURI(uint256)": {
        "details": "See {IERC721Metadata-tokenURI}."
      },
      "totalSupply()": {
        "details": "See {IERC721Enumerable-totalSupply}."
      },
      "transferChild(uint256,address,uint256,uint256,address,uint256,bool,bytes)": {
        "params": {
          "childAddress": "Address of the child token's collection smart contract.",
          "childId": "ID of the child token in its own collection smart contract.",
          "childIndex": "Index of a token we are transferring, in the array it belongs to (can be either active array or  pending array)",
          "data": "Additional data with no specified format, sent in call to `_to`",
          "destinationId": "ID of the token to receive this child token (MUST be 0 if the destination is not a token)",
          "isPending": "A boolean value indicating whether the child token being transferred is in the pending array of the  parent token (`true`) or in the active array (`false`)",
          "to": "Address to which to transfer the token to",
          "tokenId": "ID of the parent token from which the child token is being transferred"
        }
      },
      "transferFrom(address,address,uint256)": {
        "details": "Transfers `tokenId` token from `from` to `to`. WARNING: Note that the caller is responsible to confirm that the recipient is capable of receiving ERC721 or else they may be permanently lost. Usage of {safeTransferFrom} prevents loss, though the caller must understand this adds an external call which potentially creates a reentrancy vulnerability. Requirements: - `from` cannot be the zero address. - `to` cannot be the zero address. - `tokenId` token must be owned by `from`. - If the caller is not `from`, it must be approved to move this token by either {approve} or {setApprovalForAll}. Emits a {Transfer} event."
      },
      "transferOwnership(address)": {
        "details": "Transfers ownership of the contract to a new account (`newOwner`). Can only be called by the current owner."
      },
      "upgradeTo(address)": {
        "details": "Upgrade the implementation of the proxy to `newImplementation`. Calls {_authorizeUpgrade}. Emits an {Upgraded} event."
      },
      "upgradeToAndCall(address,bytes)": {
        "details": "Upgrade the implementation of the proxy to `newImplementation`, and subsequently execute the function call encoded in `data`. Calls {_authorizeUpgrade}. Emits an {Upgraded} event."
      }
    },
    "version": 1
  },
  "userdoc": {
    "kind": "user",
    "methods": {
      "acceptChild(uint256,uint256,address,uint256)": {
        "notice": "@notice Used to accept a pending child token for a given parent token."
      },
      "addChild(uint256,uint256,bytes)": {
        "notice": "Used to add a child token to a given parent token."
      },
      "burn(uint256)": {
        "notice": "Used to burn a given token."
      },
      "burn(uint256,uint256)": {
        "notice": "Used to burn a token."
      },
      "childIsInActive(address,uint256)": {
        "notice": "Used to verify that the given child tokwn is included in an active array of a token."
      },
      "childOf(uint256,uint256)": {
        "notice": "Used to retrieve a specific active child token for a given parent token."
      },
      "childrenOf(uint256)": {
        "notice": "Used to retrieve the active child tokens of a given parent token."
      },
      "directOwnerOf(uint256)": {
        "notice": "Used to retrieve the immediate owner of the given token."
      },
      "nestTransferFrom(address,address,uint256,uint256,bytes)": {
        "notice": "Used to transfer the token into another token."
      },
      "ownerOf(uint256)": {
        "notice": "Used to retrieve the root owner of the given token."
      },
      "pendingChildOf(uint256,uint256)": {
        "notice": "Used to retrieve a specific pending child token from a given parent token."
      },
      "pendingChildrenOf(uint256)": {
        "notice": "Used to retrieve the pending child tokens of a given parent token."
      },
      "rejectAllChildren(uint256,uint256)": {
        "notice": "Used to reject all pending children of a given parent token."
      },
      "transferChild(uint256,address,uint256,uint256,address,uint256,bool,bytes)": {
        "notice": "Used to transfer a child token from a given parent token."
      }
    },
    "version": 1
  },
  "storageLayout": {
    "storage": [
      {
        "astId": 534,
        "contract": "contracts/token/MEP1002Token.sol:ProxiedMEP1002Token",
        "label": "_initialized",
        "offset": 0,
        "slot": "0",
        "type": "t_uint8"
      },
      {
        "astId": 537,
        "contract": "contracts/token/MEP1002Token.sol:ProxiedMEP1002Token",
        "label": "_initializing",
        "offset": 1,
        "slot": "0",
        "type": "t_bool"
      },
      {
        "astId": 516,
        "contract": "contracts/token/MEP1002Token.sol:ProxiedMEP1002Token",
        "label": "__gap",
        "offset": 0,
        "slot": "1",
        "type": "t_array(t_uint256)50_storage"
      },
      {
        "astId": 831,
        "contract": "contracts/token/MEP1002Token.sol:ProxiedMEP1002Token",
        "label": "__gap",
        "offset": 0,
        "slot": "51",
        "type": "t_array(t_uint256)50_storage"
      },
      {
        "astId": 3390,
        "contract": "contracts/token/MEP1002Token.sol:ProxiedMEP1002Token",
        "label": "__gap",
        "offset": 0,
        "slot": "101",
        "type": "t_array(t_uint256)50_storage"
      },
      {
        "astId": 10,
        "contract": "contracts/token/MEP1002Token.sol:ProxiedMEP1002Token",
        "label": "_owner",
        "offset": 0,
        "slot": "151",
        "type": "t_address"
      },
      {
        "astId": 130,
        "contract": "contracts/token/MEP1002Token.sol:ProxiedMEP1002Token",
        "label": "__gap",
        "offset": 0,
        "slot": "152",
        "type": "t_array(t_uint256)49_storage"
      },
      {
        "astId": 5777,
        "contract": "contracts/token/MEP1002Token.sol:ProxiedMEP1002Token",
        "label": "controllers",
        "offset": 0,
        "slot": "201",
        "type": "t_mapping(t_address,t_bool)"
      },
      {
        "astId": 7759,
        "contract": "contracts/token/MEP1002Token.sol:ProxiedMEP1002Token",
        "label": "_balances",
        "offset": 0,
        "slot": "202",
        "type": "t_mapping(t_address,t_uint256)"
      },
      {
        "astId": 7765,
        "contract": "contracts/token/MEP1002Token.sol:ProxiedMEP1002Token",
        "label": "_tokenApprovals",
        "offset": 0,
        "slot": "203",
        "type": "t_mapping(t_uint256,t_mapping(t_address,t_address))"
      },
      {
        "astId": 7771,
        "contract": "contracts/token/MEP1002Token.sol:ProxiedMEP1002Token",
        "label": "_operatorApprovals",
        "offset": 0,
        "slot": "204",
        "type": "t_mapping(t_address,t_mapping(t_address,t_bool))"
      },
      {
        "astId": 7776,
        "contract": "contracts/token/MEP1002Token.sol:ProxiedMEP1002Token",
        "label": "_directOwners",
        "offset": 0,
        "slot": "205",
        "type": "t_mapping(t_uint256,t_struct(DirectOwner)7168_storage)"
      },
      {
        "astId": 7782,
        "contract": "contracts/token/MEP1002Token.sol:ProxiedMEP1002Token",
        "label": "_activeChildren",
        "offset": 0,
        "slot": "206",
        "type": "t_mapping(t_uint256,t_array(t_struct(Child)7221_storage)dyn_storage)"
      },
      {
        "astId": 7788,
        "contract": "contracts/token/MEP1002Token.sol:ProxiedMEP1002Token",
        "label": "_pendingChildren",
        "offset": 0,
        "slot": "207",
        "type": "t_mapping(t_uint256,t_array(t_struct(Child)7221_storage)dyn_storage)"
      },
      {
        "astId": 7794,
        "contract": "contracts/token/MEP1002Token.sol:ProxiedMEP1002Token",
        "label": "_childIsInActive",
        "offset": 0,
        "slot": "208",
        "type": "t_mapping(t_address,t_mapping(t_uint256,t_uint256))"
      },
      {
        "astId": 7798,
        "contract": "contracts/token/MEP1002Token.sol:ProxiedMEP1002Token",
        "label": "tokenNames",
        "offset": 0,
        "slot": "209",
        "type": "t_mapping(t_uint256,t_string_storage)"
      },
      {
        "astId": 7800,
        "contract": "contracts/token/MEP1002Token.sol:ProxiedMEP1002Token",
        "label": "_name",
        "offset": 0,
        "slot": "210",
        "type": "t_string_storage"
      },
      {
        "astId": 7802,
        "contract": "contracts/token/MEP1002Token.sol:ProxiedMEP1002Token",
        "label": "_symbol",
        "offset": 0,
        "slot": "211",
        "type": "t_string_storage"
      },
      {
        "astId": 7805,
        "contract": "contracts/token/MEP1002Token.sol:ProxiedMEP1002Token",
        "label": "_tokenIds",
        "offset": 0,
        "slot": "212",
        "type": "t_struct(Counter)5627_storage"
      },
      {
        "astId": 7807,
        "contract": "contracts/token/MEP1002Token.sol:ProxiedMEP1002Token",
        "label": "_baseUri",
        "offset": 0,
        "slot": "213",
        "type": "t_string_storage"
      },
      {
        "astId": 7809,
        "contract": "contracts/token/MEP1002Token.sol:ProxiedMEP1002Token",
        "label": "_namingToken",
        "offset": 0,
        "slot": "214",
        "type": "t_address"
      },
      {
        "astId": 7811,
        "contract": "contracts/token/MEP1002Token.sol:ProxiedMEP1002Token",
        "label": "_mnsToken",
        "offset": 0,
        "slot": "215",
        "type": "t_address"
      },
      {
        "astId": 10476,
        "contract": "contracts/token/MEP1002Token.sol:ProxiedMEP1002Token",
        "label": "__gap",
        "offset": 0,
        "slot": "216",
        "type": "t_array(t_uint256)35_storage"
      }
    ],
    "types": {
      "t_address": {
        "encoding": "inplace",
        "label": "address",
        "numberOfBytes": "20"
      },
      "t_array(t_struct(Child)7221_storage)dyn_storage": {
        "base": "t_struct(Child)7221_storage",
        "encoding": "dynamic_array",
        "label": "struct IERC6059.Child[]",
        "numberOfBytes": "32"
      },
      "t_array(t_uint256)35_storage": {
        "base": "t_uint256",
        "encoding": "inplace",
        "label": "uint256[35]",
        "numberOfBytes": "1120"
      },
      "t_array(t_uint256)49_storage": {
        "base": "t_uint256",
        "encoding": "inplace",
        "label": "uint256[49]",
        "numberOfBytes": "1568"
      },
      "t_array(t_uint256)50_storage": {
        "base": "t_uint256",
        "encoding": "inplace",
        "label": "uint256[50]",
        "numberOfBytes": "1600"
      },
      "t_bool": {
        "encoding": "inplace",
        "label": "bool",
        "numberOfBytes": "1"
      },
      "t_mapping(t_address,t_address)": {
        "encoding": "mapping",
        "key": "t_address",
        "label": "mapping(address => address)",
        "numberOfBytes": "32",
        "value": "t_address"
      },
      "t_mapping(t_address,t_bool)": {
        "encoding": "mapping",
        "key": "t_address",
        "label": "mapping(address => bool)",
        "numberOfBytes": "32",
        "value": "t_bool"
      },
      "t_mapping(t_address,t_mapping(t_address,t_bool))": {
        "encoding": "mapping",
        "key": "t_address",
        "label": "mapping(address => mapping(address => bool))",
        "numberOfBytes": "32",
        "value": "t_mapping(t_address,t_bool)"
      },
      "t_mapping(t_address,t_mapping(t_uint256,t_uint256))": {
        "encoding": "mapping",
        "key": "t_address",
        "label": "mapping(address => mapping(uint256 => uint256))",
        "numberOfBytes": "32",
        "value": "t_mapping(t_uint256,t_uint256)"
      },
      "t_mapping(t_address,t_uint256)": {
        "encoding": "mapping",
        "key": "t_address",
        "label": "mapping(address => uint256)",
        "numberOfBytes": "32",
        "value": "t_uint256"
      },
      "t_mapping(t_uint256,t_array(t_struct(Child)7221_storage)dyn_storage)": {
        "encoding": "mapping",
        "key": "t_uint256",
        "label": "mapping(uint256 => struct IERC6059.Child[])",
        "numberOfBytes": "32",
        "value": "t_array(t_struct(Child)7221_storage)dyn_storage"
      },
      "t_mapping(t_uint256,t_mapping(t_address,t_address))": {
        "encoding": "mapping",
        "key": "t_uint256",
        "label": "mapping(uint256 => mapping(address => address))",
        "numberOfBytes": "32",
        "value": "t_mapping(t_address,t_address)"
      },
      "t_mapping(t_uint256,t_string_storage)": {
        "encoding": "mapping",
        "key": "t_uint256",
        "label": "mapping(uint256 => string)",
        "numberOfBytes": "32",
        "value": "t_string_storage"
      },
      "t_mapping(t_uint256,t_struct(DirectOwner)7168_storage)": {
        "encoding": "mapping",
        "key": "t_uint256",
        "label": "mapping(uint256 => struct IERC6059.DirectOwner)",
        "numberOfBytes": "32",
        "value": "t_struct(DirectOwner)7168_storage"
      },
      "t_mapping(t_uint256,t_uint256)": {
        "encoding": "mapping",
        "key": "t_uint256",
        "label": "mapping(uint256 => uint256)",
        "numberOfBytes": "32",
        "value": "t_uint256"
      },
      "t_string_storage": {
        "encoding": "bytes",
        "label": "string",
        "numberOfBytes": "32"
      },
      "t_struct(Child)7221_storage": {
        "encoding": "inplace",
        "label": "struct IERC6059.Child",
        "members": [
          {
            "astId": 7218,
            "contract": "contracts/token/MEP1002Token.sol:ProxiedMEP1002Token",
            "label": "tokenId",
            "offset": 0,
            "slot": "0",
            "type": "t_uint256"
          },
          {
            "astId": 7220,
            "contract": "contracts/token/MEP1002Token.sol:ProxiedMEP1002Token",
            "label": "contractAddress",
            "offset": 0,
            "slot": "1",
            "type": "t_address"
          }
        ],
        "numberOfBytes": "64"
      },
      "t_struct(Counter)5627_storage": {
        "encoding": "inplace",
        "label": "struct Counters.Counter",
        "members": [
          {
            "astId": 5626,
            "contract": "contracts/token/MEP1002Token.sol:ProxiedMEP1002Token",
            "label": "_value",
            "offset": 0,
            "slot": "0",
            "type": "t_uint256"
          }
        ],
        "numberOfBytes": "32"
      },
      "t_struct(DirectOwner)7168_storage": {
        "encoding": "inplace",
        "label": "struct IERC6059.DirectOwner",
        "members": [
          {
            "astId": 7165,
            "contract": "contracts/token/MEP1002Token.sol:ProxiedMEP1002Token",
            "label": "tokenId",
            "offset": 0,
            "slot": "0",
            "type": "t_uint256"
          },
          {
            "astId": 7167,
            "contract": "contracts/token/MEP1002Token.sol:ProxiedMEP1002Token",
            "label": "ownerAddress",
            "offset": 0,
            "slot": "1",
            "type": "t_address"
          }
        ],
        "numberOfBytes": "64"
      },
      "t_uint256": {
        "encoding": "inplace",
        "label": "uint256",
        "numberOfBytes": "32"
      },
      "t_uint8": {
        "encoding": "inplace",
        "label": "uint8",
        "numberOfBytes": "1"
      }
    }
  }
}