{
  "address": "0x3885E44b7174f5795FA8059e2a7A28236286B2D9",
  "abi": [
    {
      "inputs": [],
      "name": "ChildAlreadyExists",
      "type": "error"
    },
    {
      "inputs": [],
      "name": "ChildIndexOutOfRange",
      "type": "error"
    },
    {
      "inputs": [],
      "name": "ERC721AddressZeroIsNotaValidOwner",
      "type": "error"
    },
    {
      "inputs": [],
      "name": "ERC721ApprovalToCurrentOwner",
      "type": "error"
    },
    {
      "inputs": [],
      "name": "ERC721ApproveCallerIsNotOwnerNorApprovedForAll",
      "type": "error"
    },
    {
      "inputs": [],
      "name": "ERC721ApproveToCaller",
      "type": "error"
    },
    {
      "inputs": [],
      "name": "ERC721InvalidTokenId",
      "type": "error"
    },
    {
      "inputs": [],
      "name": "ERC721MintToTheZeroAddress",
      "type": "error"
    },
    {
      "inputs": [],
      "name": "ERC721NotApprovedOrOwner",
      "type": "error"
    },
    {
      "inputs": [],
      "name": "ERC721TokenAlreadyMinted",
      "type": "error"
    },
    {
      "inputs": [],
      "name": "ERC721TransferFromIncorrectOwner",
      "type": "error"
    },
    {
      "inputs": [],
      "name": "ERC721TransferToNonReceiverImplementer",
      "type": "error"
    },
    {
      "inputs": [],
      "name": "ERC721TransferToTheZeroAddress",
      "type": "error"
    },
    {
      "inputs": [],
      "name": "IdZeroForbidden",
      "type": "error"
    },
    {
      "inputs": [],
      "name": "InvalidGeolocation",
      "type": "error"
    },
    {
      "inputs": [],
      "name": "IsNotContract",
      "type": "error"
    },
    {
      "inputs": [],
      "name": "MaxPendingChildrenReached",
      "type": "error"
    },
    {
      "inputs": [
        {
          "internalType": "address",
          "name": "childContract",
          "type": "address"
        },
        {
          "internalType": "uint256",
          "name": "childId",
          "type": "uint256"
        }
      ],
      "name": "MaxRecursiveBurnsReached",
      "type": "error"
    },
    {
      "inputs": [],
      "name": "NestableTooDeep",
      "type": "error"
    },
    {
      "inputs": [],
      "name": "NestableTransferToDescendant",
      "type": "error"
    },
    {
      "inputs": [],
      "name": "NestableTransferToNonNestableImplementer",
      "type": "error"
    },
    {
      "inputs": [],
      "name": "NestableTransferToSelf",
      "type": "error"
    },
    {
      "inputs": [],
      "name": "NoNamingPermission",
      "type": "error"
    },
    {
      "inputs": [],
      "name": "NotApprovedOrDirectOwner",
      "type": "error"
    },
    {
      "inputs": [],
      "name": "PendingChildIndexOutOfRange",
      "type": "error"
    },
    {
      "inputs": [],
      "name": "UnexpectedChildId",
      "type": "error"
    },
    {
      "inputs": [],
      "name": "UnexpectedNumberOfChildren",
      "type": "error"
    },
    {
      "anonymous": false,
      "inputs": [
        {
          "indexed": false,
          "internalType": "address",
          "name": "previousAdmin",
          "type": "address"
        },
        {
          "indexed": false,
          "internalType": "address",
          "name": "newAdmin",
          "type": "address"
        }
      ],
      "name": "AdminChanged",
      "type": "event"
    },
    {
      "anonymous": false,
      "inputs": [
        {
          "indexed": true,
          "internalType": "uint256",
          "name": "tokenId",
          "type": "uint256"
        }
      ],
      "name": "AllChildrenRejected",
      "type": "event"
    },
    {
      "anonymous": false,
      "inputs": [
        {
          "indexed": true,
          "internalType": "address",
          "name": "owner",
          "type": "address"
        },
        {
          "indexed": true,
          "internalType": "address",
          "name": "approved",
          "type": "address"
        },
        {
          "indexed": true,
          "internalType": "uint256",
          "name": "tokenId",
          "type": "uint256"
        }
      ],
      "name": "Approval",
      "type": "event"
    },
    {
      "anonymous": false,
      "inputs": [
        {
          "indexed": true,
          "internalType": "address",
          "name": "owner",
          "type": "address"
        },
        {
          "indexed": true,
          "internalType": "address",
          "name": "operator",
          "type": "address"
        },
        {
          "indexed": false,
          "internalType": "bool",
          "name": "approved",
          "type": "bool"
        }
      ],
      "name": "ApprovalForAll",
      "type": "event"
    },
    {
      "anonymous": false,
      "inputs": [
        {
          "indexed": true,
          "internalType": "address",
          "name": "beacon",
          "type": "address"
        }
      ],
      "name": "BeaconUpgraded",
      "type": "event"
    },
    {
      "anonymous": false,
      "inputs": [
        {
          "indexed": true,
          "internalType": "uint256",
          "name": "tokenId",
          "type": "uint256"
        },
        {
          "indexed": false,
          "internalType": "uint256",
          "name": "childIndex",
          "type": "uint256"
        },
        {
          "indexed": true,
          "internalType": "address",
          "name": "childAddress",
          "type": "address"
        },
        {
          "indexed": true,
          "internalType": "uint256",
          "name": "childId",
          "type": "uint256"
        }
      ],
      "name": "ChildAccepted",
      "type": "event"
    },
    {
      "anonymous": false,
      "inputs": [
        {
          "indexed": true,
          "internalType": "uint256",
          "name": "tokenId",
          "type": "uint256"
        },
        {
          "indexed": false,
          "internalType": "uint256",
          "name": "childIndex",
          "type": "uint256"
        },
        {
          "indexed": true,
          "internalType": "address",
          "name": "childAddress",
          "type": "address"
        },
        {
          "indexed": true,
          "internalType": "uint256",
          "name": "childId",
          "type": "uint256"
        }
      ],
      "name": "ChildProposed",
      "type": "event"
    },
    {
      "anonymous": false,
      "inputs": [
        {
          "indexed": true,
          "internalType": "uint256",
          "name": "tokenId",
          "type": "uint256"
        },
        {
          "indexed": false,
          "internalType": "uint256",
          "name": "childIndex",
          "type": "uint256"
        },
        {
          "indexed": true,
          "internalType": "address",
          "name": "childAddress",
          "type": "address"
        },
        {
          "indexed": true,
          "internalType": "uint256",
          "name": "childId",
          "type": "uint256"
        },
        {
          "indexed": false,
          "internalType": "bool",
          "name": "fromPending",
          "type": "bool"
        }
      ],
      "name": "ChildTransferred",
      "type": "event"
    },
    {
      "anonymous": false,
      "inputs": [
        {
          "indexed": true,
          "internalType": "address",
          "name": "controller",
          "type": "address"
        },
        {
          "indexed": false,
          "internalType": "bool",
          "name": "enabled",
          "type": "bool"
        }
      ],
      "name": "ControllerChanged",
      "type": "event"
    },
    {
      "anonymous": false,
      "inputs": [
        {
          "indexed": false,
          "internalType": "uint8",
          "name": "version",
          "type": "uint8"
        }
      ],
      "name": "Initialized",
      "type": "event"
    },
    {
      "anonymous": false,
      "inputs": [
        {
          "indexed": false,
          "internalType": "uint256",
          "name": "tokenId",
          "type": "uint256"
        },
        {
          "indexed": false,
          "internalType": "string",
          "name": "name",
          "type": "string"
        }
      ],
      "name": "MEP1002TokenUpdateName",
      "type": "event"
    },
    {
      "anonymous": false,
      "inputs": [
        {
          "indexed": true,
          "internalType": "address",
          "name": "from",
          "type": "address"
        },
        {
          "indexed": true,
          "internalType": "address",
          "name": "to",
          "type": "address"
        },
        {
          "indexed": false,
          "internalType": "uint256",
          "name": "fromTokenId",
          "type": "uint256"
        },
        {
          "indexed": false,
          "internalType": "uint256",
          "name": "toTokenId",
          "type": "uint256"
        },
        {
          "indexed": true,
          "internalType": "uint256",
          "name": "tokenId",
          "type": "uint256"
        }
      ],
      "name": "NestTransfer",
      "type": "event"
    },
    {
      "anonymous": false,
      "inputs": [
        {
          "indexed": true,
          "internalType": "address",
          "name": "previousOwner",
          "type": "address"
        },
        {
          "indexed": true,
          "internalType": "address",
          "name": "newOwner",
          "type": "address"
        }
      ],
      "name": "OwnershipTransferred",
      "type": "event"
    },
    {
      "anonymous": false,
      "inputs": [
        {
          "indexed": true,
          "internalType": "address",
          "name": "from",
          "type": "address"
        },
        {
          "indexed": true,
          "internalType": "address",
          "name": "to",
          "type": "address"
        },
        {
          "indexed": true,
          "internalType": "uint256",
          "name": "tokenId",
          "type": "uint256"
        }
      ],
      "name": "Transfer",
      "type": "event"
    },
    {
      "anonymous": false,
      "inputs": [
        {
          "indexed": true,
          "internalType": "address",
          "name": "implementation",
          "type": "address"
        }
      ],
      "name": "Upgraded",
      "type": "event"
    },
    {
      "inputs": [
        {
          "internalType": "address",
          "name": "_admin",
          "type": "address"
        }
      ],
      "name": "__Controllable_init",
      "outputs": [],
      "stateMutability": "nonpayable",
      "type": "function"
    },
    {
      "inputs": [
        {
          "internalType": "uint256",
          "name": "parentId",
          "type": "uint256"
        },
        {
          "internalType": "uint256",
          "name": "childIndex",
          "type": "uint256"
        },
        {
          "internalType": "address",
          "name": "childAddress",
          "type": "address"
        },
        {
          "internalType": "uint256",
          "name": "childId",
          "type": "uint256"
        }
      ],
      "name": "acceptChild",
      "outputs": [],
      "stateMutability": "nonpayable",
      "type": "function"
    },
    {
      "inputs": [
        {
          "internalType": "uint256",
          "name": "parentId",
          "type": "uint256"
        },
        {
          "internalType": "uint256",
          "name": "childId",
          "type": "uint256"
        },
        {
          "internalType": "bytes",
          "name": "data",
          "type": "bytes"
        }
      ],
      "name": "addChild",
      "outputs": [],
      "stateMutability": "nonpayable",
      "type": "function"
    },
    {
      "inputs": [
        {
          "internalType": "address",
          "name": "to",
          "type": "address"
        },
        {
          "internalType": "uint256",
          "name": "tokenId",
          "type": "uint256"
        }
      ],
      "name": "approve",
      "outputs": [],
      "stateMutability": "nonpayable",
      "type": "function"
    },
    {
      "inputs": [
        {
          "internalType": "address",
          "name": "owner",
          "type": "address"
        }
      ],
      "name": "balanceOf",
      "outputs": [
        {
          "internalType": "uint256",
          "name": "",
          "type": "uint256"
        }
      ],
      "stateMutability": "view",
      "type": "function"
    },
    {
      "inputs": [
        {
          "internalType": "uint256",
          "name": "tokenId",
          "type": "uint256"
        }
      ],
      "name": "burn",
      "outputs": [],
      "stateMutability": "nonpayable",
      "type": "function"
    },
    {
      "inputs": [
        {
          "internalType": "uint256",
          "name": "tokenId",
          "type": "uint256"
        },
        {
          "internalType": "uint256",
          "name": "maxChildrenBurns",
          "type": "uint256"
        }
      ],
      "name": "burn",
      "outputs": [
        {
          "internalType": "uint256",
          "name": "",
          "type": "uint256"
        }
      ],
      "stateMutability": "nonpayable",
      "type": "function"
    },
    {
      "inputs": [
        {
          "internalType": "address",
          "name": "childAddress",
          "type": "address"
        },
        {
          "internalType": "uint256",
          "name": "childId",
          "type": "uint256"
        }
      ],
      "name": "childIsInActive",
      "outputs": [
        {
          "internalType": "bool",
          "name": "",
          "type": "bool"
        }
      ],
      "stateMutability": "view",
      "type": "function"
    },
    {
      "inputs": [
        {
          "internalType": "uint256",
          "name": "parentId",
          "type": "uint256"
        },
        {
          "internalType": "uint256",
          "name": "index",
          "type": "uint256"
        }
      ],
      "name": "childOf",
      "outputs": [
        {
          "components": [
            {
              "internalType": "uint256",
              "name": "tokenId",
              "type": "uint256"
            },
            {
              "internalType": "address",
              "name": "contractAddress",
              "type": "address"
            }
          ],
          "internalType": "struct IERC6059.Child",
          "name": "",
          "type": "tuple"
        }
      ],
      "stateMutability": "view",
      "type": "function"
    },
    {
      "inputs": [
        {
          "internalType": "uint256",
          "name": "parentId",
          "type": "uint256"
        }
      ],
      "name": "childrenOf",
      "outputs": [
        {
          "components": [
            {
              "internalType": "uint256",
              "name": "tokenId",
              "type": "uint256"
            },
            {
              "internalType": "address",
              "name": "contractAddress",
              "type": "address"
            }
          ],
          "internalType": "struct IERC6059.Child[]",
          "name": "",
          "type": "tuple[]"
        }
      ],
      "stateMutability": "view",
      "type": "function"
    },
    {
      "inputs": [
        {
          "internalType": "address",
          "name": "",
          "type": "address"
        }
      ],
      "name": "controllers",
      "outputs": [
        {
          "internalType": "bool",
          "name": "",
          "type": "bool"
        }
      ],
      "stateMutability": "view",
      "type": "function"
    },
    {
      "inputs": [
        {
          "internalType": "uint256",
          "name": "tokenId",
          "type": "uint256"
        }
      ],
      "name": "directOwnerOf",
      "outputs": [
        {
          "internalType": "address",
          "name": "",
          "type": "address"
        },
        {
          "internalType": "uint256",
          "name": "",
          "type": "uint256"
        },
        {
          "internalType": "bool",
          "name": "",
          "type": "bool"
        }
      ],
      "stateMutability": "view",
      "type": "function"
    },
    {
      "inputs": [
        {
          "internalType": "uint256",
          "name": "tokenId",
          "type": "uint256"
        }
      ],
      "name": "geolocation",
      "outputs": [
        {
          "internalType": "uint256",
          "name": "",
          "type": "uint256"
        }
      ],
      "stateMutability": "view",
      "type": "function"
    },
    {
      "inputs": [
        {
          "internalType": "uint256",
          "name": "tokenId",
          "type": "uint256"
        }
      ],
      "name": "getApproved",
      "outputs": [
        {
          "internalType": "address",
          "name": "",
          "type": "address"
        }
      ],
      "stateMutability": "view",
      "type": "function"
    },
    {
      "inputs": [
        {
          "internalType": "string",
          "name": "name_",
          "type": "string"
        },
        {
          "internalType": "string",
          "name": "symbol_",
          "type": "string"
        },
        {
          "internalType": "address",
          "name": "namingTokenAddr",
          "type": "address"
        },
        {
          "internalType": "address",
          "name": "_admin",
          "type": "address"
        }
      ],
      "name": "initialize",
      "outputs": [],
      "stateMutability": "nonpayable",
      "type": "function"
    },
    {
      "inputs": [
        {
          "internalType": "address",
          "name": "owner",
          "type": "address"
        },
        {
          "internalType": "address",
          "name": "operator",
          "type": "address"
        }
      ],
      "name": "isApprovedForAll",
      "outputs": [
        {
          "internalType": "bool",
          "name": "",
          "type": "bool"
        }
      ],
      "stateMutability": "view",
      "type": "function"
    },
    {
      "inputs": [
        {
          "internalType": "uint256",
          "name": "geolocation_",
          "type": "uint256"
        }
      ],
      "name": "mint",
      "outputs": [],
      "stateMutability": "nonpayable",
      "type": "function"
    },
    {
      "inputs": [],
      "name": "name",
      "outputs": [
        {
          "internalType": "string",
          "name": "",
          "type": "string"
        }
      ],
      "stateMutability": "view",
      "type": "function"
    },
    {
      "inputs": [
        {
          "internalType": "address",
          "name": "from",
          "type": "address"
        },
        {
          "internalType": "address",
          "name": "to",
          "type": "address"
        },
        {
          "internalType": "uint256",
          "name": "tokenId",
          "type": "uint256"
        },
        {
          "internalType": "uint256",
          "name": "destinationId",
          "type": "uint256"
        },
        {
          "internalType": "bytes",
          "name": "data",
          "type": "bytes"
        }
      ],
      "name": "nestTransferFrom",
      "outputs": [],
      "stateMutability": "nonpayable",
      "type": "function"
    },
    {
      "inputs": [
        {
          "internalType": "address",
          "name": "",
          "type": "address"
        },
        {
          "internalType": "address",
          "name": "",
          "type": "address"
        },
        {
          "internalType": "uint256",
          "name": "",
          "type": "uint256"
        },
        {
          "internalType": "bytes",
          "name": "",
          "type": "bytes"
        }
      ],
      "name": "onERC721Received",
      "outputs": [
        {
          "internalType": "bytes4",
          "name": "",
          "type": "bytes4"
        }
      ],
      "stateMutability": "nonpayable",
      "type": "function"
    },
    {
      "inputs": [],
      "name": "owner",
      "outputs": [
        {
          "internalType": "address",
          "name": "",
          "type": "address"
        }
      ],
      "stateMutability": "view",
      "type": "function"
    },
    {
      "inputs": [
        {
          "internalType": "uint256",
          "name": "tokenId",
          "type": "uint256"
        }
      ],
      "name": "ownerOf",
      "outputs": [
        {
          "internalType": "address",
          "name": "",
          "type": "address"
        }
      ],
      "stateMutability": "view",
      "type": "function"
    },
    {
      "inputs": [
        {
          "internalType": "uint256",
          "name": "parentId",
          "type": "uint256"
        },
        {
          "internalType": "uint256",
          "name": "index",
          "type": "uint256"
        }
      ],
      "name": "pendingChildOf",
      "outputs": [
        {
          "components": [
            {
              "internalType": "uint256",
              "name": "tokenId",
              "type": "uint256"
            },
            {
              "internalType": "address",
              "name": "contractAddress",
              "type": "address"
            }
          ],
          "internalType": "struct IERC6059.Child",
          "name": "",
          "type": "tuple"
        }
      ],
      "stateMutability": "view",
      "type": "function"
    },
    {
      "inputs": [
        {
          "internalType": "uint256",
          "name": "parentId",
          "type": "uint256"
        }
      ],
      "name": "pendingChildrenOf",
      "outputs": [
        {
          "components": [
            {
              "internalType": "uint256",
              "name": "tokenId",
              "type": "uint256"
            },
            {
              "internalType": "address",
              "name": "contractAddress",
              "type": "address"
            }
          ],
          "internalType": "struct IERC6059.Child[]",
          "name": "",
          "type": "tuple[]"
        }
      ],
      "stateMutability": "view",
      "type": "function"
    },
    {
      "inputs": [],
      "name": "proxiableUUID",
      "outputs": [
        {
          "internalType": "bytes32",
          "name": "",
          "type": "bytes32"
        }
      ],
      "stateMutability": "view",
      "type": "function"
    },
    {
      "inputs": [
        {
          "internalType": "uint256",
          "name": "tokenId",
          "type": "uint256"
        },
        {
          "internalType": "uint256",
          "name": "maxRejections",
          "type": "uint256"
        }
      ],
      "name": "rejectAllChildren",
      "outputs": [],
      "stateMutability": "nonpayable",
      "type": "function"
    },
    {
      "inputs": [],
      "name": "renounceOwnership",
      "outputs": [],
      "stateMutability": "nonpayable",
      "type": "function"
    },
    {
      "inputs": [
        {
          "internalType": "uint256",
          "name": "geolocation_",
          "type": "uint256"
        }
      ],
      "name": "resetName",
      "outputs": [],
      "stateMutability": "nonpayable",
      "type": "function"
    },
    {
      "inputs": [
        {
          "internalType": "address",
          "name": "from",
          "type": "address"
        },
        {
          "internalType": "address",
          "name": "to",
          "type": "address"
        },
        {
          "internalType": "uint256",
          "name": "tokenId",
          "type": "uint256"
        }
      ],
      "name": "safeTransferFrom",
      "outputs": [],
      "stateMutability": "nonpayable",
      "type": "function"
    },
    {
      "inputs": [
        {
          "internalType": "address",
          "name": "from",
          "type": "address"
        },
        {
          "internalType": "address",
          "name": "to",
          "type": "address"
        },
        {
          "internalType": "uint256",
          "name": "tokenId",
          "type": "uint256"
        },
        {
          "internalType": "bytes",
          "name": "data",
          "type": "bytes"
        }
      ],
      "name": "safeTransferFrom",
      "outputs": [],
      "stateMutability": "nonpayable",
      "type": "function"
    },
    {
      "inputs": [
        {
          "internalType": "address",
          "name": "operator",
          "type": "address"
        },
        {
          "internalType": "bool",
          "name": "approved",
          "type": "bool"
        }
      ],
      "name": "setApprovalForAll",
      "outputs": [],
      "stateMutability": "nonpayable",
      "type": "function"
    },
    {
      "inputs": [
        {
          "internalType": "string",
          "name": "baseURI_",
          "type": "string"
        }
      ],
      "name": "setBaseURI",
      "outputs": [],
      "stateMutability": "nonpayable",
      "type": "function"
    },
    {
      "inputs": [
        {
          "internalType": "address",
          "name": "controller",
          "type": "address"
        },
        {
          "internalType": "bool",
          "name": "enabled",
          "type": "bool"
        }
      ],
      "name": "setController",
      "outputs": [],
      "stateMutability": "nonpayable",
      "type": "function"
    },
    {
      "inputs": [
        {
          "internalType": "address",
          "name": "mnsToken_",
          "type": "address"
        }
      ],
      "name": "setMNSToken",
      "outputs": [],
      "stateMutability": "nonpayable",
      "type": "function"
    },
    {
      "inputs": [
        {
          "internalType": "uint256",
          "name": "geolocation_",
          "type": "uint256"
        },
        {
          "internalType": "uint256",
          "name": "nameWrapperTokenId",
          "type": "uint256"
        }
      ],
      "name": "setName",
      "outputs": [],
      "stateMutability": "nonpayable",
      "type": "function"
    },
    {
      "inputs": [
        {
          "internalType": "address",
          "name": "namingTokenAddr",
          "type": "address"
        },
        {
          "internalType": "string",
          "name": "baseURI_",
          "type": "string"
        }
      ],
      "name": "setNamingToken",
      "outputs": [],
      "stateMutability": "nonpayable",
      "type": "function"
    },
    {
      "inputs": [
        {
          "internalType": "bytes4",
          "name": "interfaceId",
          "type": "bytes4"
        }
      ],
      "name": "supportsInterface",
      "outputs": [
        {
          "internalType": "bool",
          "name": "",
          "type": "bool"
        }
      ],
      "stateMutability": "view",
      "type": "function"
    },
    {
      "inputs": [],
      "name": "symbol",
      "outputs": [
        {
          "internalType": "string",
          "name": "",
          "type": "string"
        }
      ],
      "stateMutability": "view",
      "type": "function"
    },
    {
      "inputs": [
        {
          "internalType": "uint256",
          "name": "index",
          "type": "uint256"
        }
      ],
      "name": "tokenByIndex",
      "outputs": [
        {
          "internalType": "uint256",
          "name": "",
          "type": "uint256"
        }
      ],
      "stateMutability": "view",
      "type": "function"
    },
    {
      "inputs": [
        {
          "internalType": "uint256",
          "name": "",
          "type": "uint256"
        }
      ],
      "name": "tokenNames",
      "outputs": [
        {
          "internalType": "string",
          "name": "",
          "type": "string"
        }
      ],
      "stateMutability": "view",
      "type": "function"
    },
    {
      "inputs": [
        {
          "internalType": "address",
          "name": "owner",
          "type": "address"
        },
        {
          "internalType": "uint256",
          "name": "index",
          "type": "uint256"
        }
      ],
      "name": "tokenOfOwnerByIndex",
      "outputs": [
        {
          "internalType": "uint256",
          "name": "",
          "type": "uint256"
        }
      ],
      "stateMutability": "view",
      "type": "function"
    },
    {
      "inputs": [
        {
          "internalType": "uint256",
          "name": "tokenId",
          "type": "uint256"
        }
      ],
      "name": "tokenURI",
      "outputs": [
        {
          "internalType": "string",
          "name": "",
          "type": "string"
        }
      ],
      "stateMutability": "view",
      "type": "function"
    },
    {
      "inputs": [],
      "name": "totalSupply",
      "outputs": [
        {
          "internalType": "uint256",
          "name": "",
          "type": "uint256"
        }
      ],
      "stateMutability": "view",
      "type": "function"
    },
    {
      "inputs": [
        {
          "internalType": "uint256",
          "name": "tokenId",
          "type": "uint256"
        },
        {
          "internalType": "address",
          "name": "to",
          "type": "address"
        },
        {
          "internalType": "uint256",
          "name": "destinationId",
          "type": "uint256"
        },
        {
          "internalType": "uint256",
          "name": "childIndex",
          "type": "uint256"
        },
        {
          "internalType": "address",
          "name": "childAddress",
          "type": "address"
        },
        {
          "internalType": "uint256",
          "name": "childId",
          "type": "uint256"
        },
        {
          "internalType": "bool",
          "name": "isPending",
          "type": "bool"
        },
        {
          "internalType": "bytes",
          "name": "data",
          "type": "bytes"
        }
      ],
      "name": "transferChild",
      "outputs": [],
      "stateMutability": "nonpayable",
      "type": "function"
    },
    {
      "inputs": [
        {
          "internalType": "address",
          "name": "from",
          "type": "address"
        },
        {
          "internalType": "address",
          "name": "to",
          "type": "address"
        },
        {
          "internalType": "uint256",
          "name": "tokenId",
          "type": "uint256"
        }
      ],
      "name": "transferFrom",
      "outputs": [],
      "stateMutability": "nonpayable",
      "type": "function"
    },
    {
      "inputs": [
        {
          "internalType": "address",
          "name": "newOwner",
          "type": "address"
        }
      ],
      "name": "transferOwnership",
      "outputs": [],
      "stateMutability": "nonpayable",
      "type": "function"
    },
    {
      "inputs": [
        {
          "internalType": "address",
          "name": "newImplementation",
          "type": "address"
        }
      ],
      "name": "upgradeTo",
      "outputs": [],
      "stateMutability": "nonpayable",
      "type": "function"
    },
    {
      "inputs": [
        {
          "internalType": "address",
          "name": "newImplementation",
          "type": "address"
        },
        {
          "internalType": "bytes",
          "name": "data",
          "type": "bytes"
        }
      ],
      "name": "upgradeToAndCall",
      "outputs": [],
      "stateMutability": "payable",
      "type": "function"
    }
  ],
  "transactionHash": "0xa4f7b2d654825e295a840c437d6e4e3be0ef9e9f8707312c63525b1f9b13aabd",
  "args": [],
  "numDeployments": 2,
  "solcInputHash": "5765e6b923296c6dfe609fc3a6f925f5",
  "bytecode": "0x60a06040523060805234801561001457600080fd5b506080516158956200004d6000396000818161106b01528181611101015281816113c90152818161145f01526115d801526158956000f3fe6080604052600436106103135760003560e01c8063635490cc1161019a578063a868ec85116100e1578063defa80c31161008a578063e985e9c511610064578063e985e9c514610969578063f2fde38b146109b2578063fb25fb7a146109d257600080fd5b8063defa80c314610909578063e0dba60f14610929578063e97ceaa81461094957600080fd5b8063b88d4fde116100bb578063b88d4fde14610899578063c87b56dd146108b9578063da8c229e146108d957600080fd5b8063a868ec8514610839578063a898e36414610859578063b390c0ab1461087957600080fd5b806395d89b4111610143578063a0712d681161011d578063a0712d68146107d9578063a0fe0f51146107f9578063a22cb4651461081957600080fd5b806395d89b41146107845780639796133614610799578063a00e76dd146107b957600080fd5b8063715018a611610174578063715018a6146107315780638da5cb5b146107465780638f15b4141461076457600080fd5b8063635490cc146106d15780636f19951c146106f157806370a082311461071157600080fd5b8063310495ab1161025e57806344ec93441161020757806352d1902d116101e157806352d1902d1461067c57806355f804b3146106915780636352211e146106b157600080fd5b806344ec93441461061c5780634f1ef286146106495780634f6ccce71461065c57600080fd5b806342842e0e1161023857806342842e0e146105bc57806342966c68146105dc57806344150775146105fc57600080fd5b8063310495ab146105375780633659cfe6146105575780634182e4a31461057757600080fd5b806317af1318116102c05780632828adb21161029a5780632828adb2146104ca5780632f32f937146104ea5780632f745c591461051757600080fd5b806317af13181461046757806318160ddd1461048757806323b872dd146104aa57600080fd5b8063081812fc116102f1578063081812fc146103be578063095ea7b3146103f6578063150b7a021461041657600080fd5b806301ffc9a714610318578063064c0a3a1461034d57806306fdde031461036f575b600080fd5b34801561032457600080fd5b50610338610333366004614c1c565b610a19565b60405190151581526020015b60405180910390f35b34801561035957600080fd5b5061036d610368366004614d2c565b610afe565b005b34801561037b57600080fd5b5060408051808201909152600f81527f4d4550313030322048657861676f6e000000000000000000000000000000000060208201525b6040516103449190614df2565b3480156103ca57600080fd5b506103de6103d9366004614e05565b610b1d565b6040516001600160a01b039091168152602001610344565b34801561040257600080fd5b5061036d610411366004614e1e565b610b63565b34801561042257600080fd5b50610436610431366004614e4a565b610c21565b6040517fffffffff000000000000000000000000000000000000000000000000000000009091168152602001610344565b34801561047357600080fd5b5061036d610482366004614eb6565b610c4b565b34801561049357600080fd5b5061049c610d04565b604051908152602001610344565b3480156104b657600080fd5b5061036d6104c5366004614ed3565b610d14565b3480156104d657600080fd5b5061036d6104e5366004614e05565b610d2f565b3480156104f657600080fd5b5061050a610505366004614f14565b610e76565b6040516103449190614f36565b34801561052357600080fd5b5061049c610532366004614e1e565b610f28565b34801561054357600080fd5b506103b1610552366004614e05565b610fc7565b34801561056357600080fd5b5061036d610572366004614eb6565b611061565b34801561058357600080fd5b50610338610592366004614e1e565b6001600160a01b0391909116600090815260d0602090815260408083209383529290522054151590565b3480156105c857600080fd5b5061036d6105d7366004614ed3565b6111fe565b3480156105e857600080fd5b5061036d6105f7366004614e05565b611219565b34801561060857600080fd5b5061036d610617366004614f56565b611228565b34801561062857600080fd5b5061063c610637366004614e05565b611340565b6040516103449190614fa6565b61036d610657366004614f56565b6113bf565b34801561066857600080fd5b5061049c610677366004614e05565b611549565b34801561068857600080fd5b5061049c6115cb565b34801561069d57600080fd5b5061036d6106ac366004615006565b611690565b3480156106bd57600080fd5b506103de6106cc366004614e05565b611721565b3480156106dd57600080fd5b5061036d6106ec36600461503b565b6117ca565b3480156106fd57600080fd5b5061063c61070c366004614e05565b61191b565b34801561071d57600080fd5b5061049c61072c366004614eb6565b61198b565b34801561073d57600080fd5b5061036d6119e9565b34801561075257600080fd5b506033546001600160a01b03166103de565b34801561077057600080fd5b5061036d61077f36600461508b565b6119fd565b34801561079057600080fd5b506103b1611c37565b3480156107a557600080fd5b5061036d6107b4366004614f14565b611cc9565b3480156107c557600080fd5b5061049c6107d4366004614e05565b611cdd565b3480156107e557600080fd5b5061036d6107f4366004614e05565b611ce8565b34801561080557600080fd5b5061036d610814366004614eb6565b611eb1565b34801561082557600080fd5b5061036d610834366004615122565b611f93565b34801561084557600080fd5b5061036d610854366004614f14565b612041565b34801561086557600080fd5b5061050a610874366004614f14565b612320565b34801561088557600080fd5b5061049c610894366004614f14565b612396565b3480156108a557600080fd5b5061036d6108b4366004614e4a565b6123ac565b3480156108c557600080fd5b506103b16108d4366004614e05565b6123c9565b3480156108e557600080fd5b506103386108f4366004614eb6565b60656020526000908152604090205460ff1681565b34801561091557600080fd5b5061036d61092436600461515b565b612440565b34801561093557600080fd5b5061036d610944366004615122565b612465565b34801561095557600080fd5b5061036d6109643660046151f7565b612549565b34801561097557600080fd5b50610338610984366004615236565b6001600160a01b03918216600090815260cc6020908152604080832093909416825291909152205460ff1690565b3480156109be57600080fd5b5061036d6109cd366004614eb6565b61255f565b3480156109de57600080fd5b506109f26109ed366004614e05565b612610565b604080516001600160a01b0390941684526020840192909252151590820152606001610344565b60007fffffffff0000000000000000000000000000000000000000000000000000000082167f80ac58cd000000000000000000000000000000000000000000000000000000001480610aac57507fffffffff0000000000000000000000000000000000000000000000000000000082167f5b5e139f00000000000000000000000000000000000000000000000000000000145b80610af857507fffffffff0000000000000000000000000000000000000000000000000000000082167f42b0e56f00000000000000000000000000000000000000000000000000000000145b92915050565b82610b0881612691565b610b1586868686866126d1565b505050505050565b6000610b288261295e565b600082815260cb6020526040812090610b4084611721565b6001600160a01b0390811682526020820192909252604001600020541692915050565b6000610b6e82611721565b9050806001600160a01b0316836001600160a01b031603610bbb576040517f0591db6d00000000000000000000000000000000000000000000000000000000815260040160405180910390fd5b336001600160a01b03821614801590610bdb5750610bd98133610984565b155b15610c12576040517f982462b200000000000000000000000000000000000000000000000000000000815260040160405180910390fd5b610c1c83836129af565b505050565b7f150b7a02000000000000000000000000000000000000000000000000000000005b949350505050565b3360009081526065602052604090205460ff16610cd55760405162461bcd60e51b815260206004820152602860248201527f436f6e74726f6c6c61626c653a2043616c6c6572206973206e6f74206120636f60448201527f6e74726f6c6c657200000000000000000000000000000000000000000000000060648201526084015b60405180910390fd5b60d7805473ffffffffffffffffffffffffffffffffffffffff19166001600160a01b0392909216919091179055565b6000610d0f60d45490565b905090565b80610d1e81612691565b610d29848484612a35565b50505050565b610d388161295e565b3360d6546040517f6352211e000000000000000000000000000000000000000000000000000000008152600481018490526001600160a01b039283169290911690636352211e90602401602060405180830381865afa158015610d9f573d6000803e3d6000fd5b505050506040513d601f19601f82011682018060405250810190610dc39190615264565b6001600160a01b031614610e03576040517f507b884600000000000000000000000000000000000000000000000000000000815260040160405180910390fd5b6040805160208082018352600080835284815260d19091529190912090610e2a908261531a565b50600081815260d160205260409081902090517fd4878af30a4a4a71c10122662443bc90d3fe898ea245ce80d45bde68e3909a2991610e6b91849190615416565b60405180910390a150565b604080518082019091526000808252602082015281610e948461191b565b5111610ecc576040517fca755cc000000000000000000000000000000000000000000000000000000000815260040160405180910390fd5b600083815260ce60205260408120805484908110610eec57610eec6154a9565b60009182526020918290206040805180820190915260029092020180548252600101546001600160a01b03169181019190915291505092915050565b6000610f338361198b565b8210610fa75760405162461bcd60e51b815260206004820152602b60248201527f455243373231456e756d657261626c653a206f776e657220696e646578206f7560448201527f74206f6620626f756e64730000000000000000000000000000000000000000006064820152608401610ccc565b306001600160a01b03841603610fbe575080610af8565b50600092915050565b60d16020526000908152604090208054610fe090615281565b80601f016020809104026020016040519081016040528092919081815260200182805461100c90615281565b80156110595780601f1061102e57610100808354040283529160200191611059565b820191906000526020600020905b81548152906001019060200180831161103c57829003601f168201915b505050505081565b6001600160a01b037f00000000000000000000000000000000000000000000000000000000000000001630036110ff5760405162461bcd60e51b815260206004820152602c60248201527f46756e6374696f6e206d7573742062652063616c6c6564207468726f7567682060448201527f64656c656761746563616c6c00000000000000000000000000000000000000006064820152608401610ccc565b7f00000000000000000000000000000000000000000000000000000000000000006001600160a01b031661115a7f360894a13ba1a3210667c828492db98dca3e2076cc3735a920a3ca505d382bbc546001600160a01b031690565b6001600160a01b0316146111d65760405162461bcd60e51b815260206004820152602c60248201527f46756e6374696f6e206d7573742062652063616c6c6564207468726f7567682060448201527f6163746976652070726f787900000000000000000000000000000000000000006064820152608401610ccc565b6111df81612bd2565b604080516000808252602082019092526111fb91839190612bda565b50565b610c1c838383604051806020016040528060008152506123ac565b611224816000612396565b5050565b3360009081526065602052604090205460ff166112ad5760405162461bcd60e51b815260206004820152602860248201527f436f6e74726f6c6c61626c653a2043616c6c6572206973206e6f74206120636f60448201527f6e74726f6c6c65720000000000000000000000000000000000000000000000006064820152608401610ccc565b60d6805473ffffffffffffffffffffffffffffffffffffffff19166001600160a01b0384169081179091556040517f55f804b30000000000000000000000000000000000000000000000000000000081526355f804b390611312908490600401614df2565b600060405180830381600087803b15801561132c57600080fd5b505af1158015610b15573d6000803e3d6000fd5b600081815260cf60209081526040808320805482518185028101850190935280835260609493849084015b828210156113b35760008481526020908190206040805180820190915260028502909101805482526001908101546001600160a01b031682840152908352909201910161136b565b50929695505050505050565b6001600160a01b037f000000000000000000000000000000000000000000000000000000000000000016300361145d5760405162461bcd60e51b815260206004820152602c60248201527f46756e6374696f6e206d7573742062652063616c6c6564207468726f7567682060448201527f64656c656761746563616c6c00000000000000000000000000000000000000006064820152608401610ccc565b7f00000000000000000000000000000000000000000000000000000000000000006001600160a01b03166114b87f360894a13ba1a3210667c828492db98dca3e2076cc3735a920a3ca505d382bbc546001600160a01b031690565b6001600160a01b0316146115345760405162461bcd60e51b815260206004820152602c60248201527f46756e6374696f6e206d7573742062652063616c6c6564207468726f7567682060448201527f6163746976652070726f787900000000000000000000000000000000000000006064820152608401610ccc565b61153d82612bd2565b61122482826001612bda565b6000611553610d04565b82106115c75760405162461bcd60e51b815260206004820152602c60248201527f455243373231456e756d657261626c653a20676c6f62616c20696e646578206f60448201527f7574206f6620626f756e647300000000000000000000000000000000000000006064820152608401610ccc565b5090565b6000306001600160a01b037f0000000000000000000000000000000000000000000000000000000000000000161461166b5760405162461bcd60e51b815260206004820152603860248201527f555550535570677261646561626c653a206d757374206e6f742062652063616c60448201527f6c6564207468726f7567682064656c656761746563616c6c00000000000000006064820152608401610ccc565b507f360894a13ba1a3210667c828492db98dca3e2076cc3735a920a3ca505d382bbc90565b3360009081526065602052604090205460ff166117155760405162461bcd60e51b815260206004820152602860248201527f436f6e74726f6c6c61626c653a2043616c6c6572206973206e6f74206120636f60448201527f6e74726f6c6c65720000000000000000000000000000000000000000000000006064820152608401610ccc565b60d5611224828261531a565b60008060008061173085612610565b92509250925080156117c1576040517f6352211e000000000000000000000000000000000000000000000000000000008152600481018390526001600160a01b03841690636352211e90602401602060405180830381865afa15801561179a573d6000803e3d6000fd5b505050506040513d601f19601f820116820180604052508101906117be9190615264565b92505b50909392505050565b6117d38361295e565b33803b61180c576040517f80275d3a00000000000000000000000000000000000000000000000000000000815260040160405180910390fd5b604080518082019091528381526001600160a01b0382166020820152600061183386611340565b519050608081101561189f57600086815260cf602090815260408220805460018082018355918452928290208551600290940201928355908401519101805473ffffffffffffffffffffffffffffffffffffffff19166001600160a01b039092169190911790556118d1565b6040517f98674b3500000000000000000000000000000000000000000000000000000000815260040160405180910390fd5b84836001600160a01b0316877fe65085e689b77b126ba0bac3b079aa8288f19f4d5445af11c76003f8ab3075dd8460405161190e91815260200190565b60405180910390a4610b15565b600081815260ce602090815260408083208054825181850281018501909352808352606094938490840182156113b35760008481526020908190206040805180820190915260028502909101805482526001908101546001600160a01b031682840152908352909201910161136b565b60006001600160a01b0382166119cd576040517f7772286600000000000000000000000000000000000000000000000000000000815260040160405180910390fd5b506001600160a01b0316600090815260ca602052604090205490565b6119f1612d7a565b6119fb6000612dd4565b565b6000611a277fb53127684a568b3173ae13b9f8a6016e243e63b6e8ee1178d6a717850b5d61035490565b90506001600160a01b038116611a66576001600160a01b037fb53127684a568b3173ae13b9f8a6016e243e63b6e8ee1178d6a717850b5d610355611a7b565b336001600160a01b03821614611a7b57600080fd5b600054610100900460ff1615808015611a9b5750600054600160ff909116105b80611ab55750303b158015611ab5575060005460ff166001145b611b275760405162461bcd60e51b815260206004820152602e60248201527f496e697469616c697a61626c653a20636f6e747261637420697320616c72656160448201527f647920696e697469616c697a65640000000000000000000000000000000000006064820152608401610ccc565b6000805460ff191660011790558015611b6757600080547fffffffffffffffffffffffffffffffffffffffffffffffffffffffffffff00ff166101001790555b611b7083611eb1565b827fb53127684a568b3173ae13b9f8a6016e243e63b6e8ee1178d6a717850b5d610355611b9b612e33565b611ba58686612eb0565b60d6805473ffffffffffffffffffffffffffffffffffffffff19166001600160a01b0386161790558015610b1557600080547fffffffffffffffffffffffffffffffffffffffffffffffffffffffffffff00ff169055604051600181527f7f26b83ff96e1f2b6a682f133852f6798a09c465da95921460cefb38474024989060200160405180910390a1505050505050565b606060d38054611c4690615281565b80601f0160208091040260200160405190810160405280929190818152602001828054611c7290615281565b8015611cbf5780601f10611c9457610100808354040283529160200191611cbf565b820191906000526020600020905b815481529060010190602001808311611ca257829003601f168201915b5050505050905090565b81611cd381612f37565b610c1c8383612f77565b60006115c78261295e565b611cf181613005565b611d27576040517f1fc5f61500000000000000000000000000000000000000000000000000000000815260040160405180910390fd5b600081815260cd60205260409020600101546001600160a01b031615611d79576040517fc5a8d37100000000000000000000000000000000000000000000000000000000815260040160405180910390fd5b6000611d888260341c600f1690565b905060078114611dc4576040517f1fc5f61500000000000000000000000000000000000000000000000000000000815260040160405180910390fd5b611dd260d480546001019055565b611ddc308361317c565b60d6546001600160a01b03166340c10f19336040517fffffffff0000000000000000000000000000000000000000000000000000000060e084901b1681526001600160a01b03909116600482015260248101859052604401600060405180830381600087803b158015611e4e57600080fd5b505af1158015611e62573d6000803e3d6000fd5b505050600083815260d160205260409081902090517fd4878af30a4a4a71c10122662443bc90d3fe898ea245ce80d45bde68e3909a299250611ea5918591615416565b60405180910390a15050565b600054610100900460ff16611f2e5760405162461bcd60e51b815260206004820152602b60248201527f496e697469616c697a61626c653a20636f6e7472616374206973206e6f74206960448201527f6e697469616c697a696e670000000000000000000000000000000000000000006064820152608401610ccc565b611f36613196565b6001600160a01b038116600081815260656020908152604091829020805460ff1916600190811790915591519182527f4c97694570a07277810af7e5669ffd5f6a2d6b74b6e9a274b8b870fd5114cf87910160405180910390a250565b6001600160a01b0382163303611fd5576040517f2dee66e400000000000000000000000000000000000000000000000000000000815260040160405180910390fd5b33600081815260cc602090815260408083206001600160a01b03871680855290835292819020805460ff191686151590811790915590519081529192917f17307eab39ab6107e8899845ad3d59bd9653f200f220920489ca2b5937696c31910160405180910390a35050565b61204a8261295e565b3360d6546040517f6352211e000000000000000000000000000000000000000000000000000000008152600481018590526001600160a01b039283169290911690636352211e90602401602060405180830381865afa1580156120b1573d6000803e3d6000fd5b505050506040513d601f19601f820116820180604052508101906120d59190615264565b6001600160a01b031614612115576040517f507b884600000000000000000000000000000000000000000000000000000000815260040160405180910390fd5b3360d7546040517f6352211e000000000000000000000000000000000000000000000000000000008152600481018490526001600160a01b039283169290911690636352211e90602401602060405180830381865afa15801561217c573d6000803e3d6000fd5b505050506040513d601f19601f820116820180604052508101906121a09190615264565b6001600160a01b0316146121e0576040517f507b884600000000000000000000000000000000000000000000000000000000815260040160405180910390fd5b60d7546040517f20c38e2b000000000000000000000000000000000000000000000000000000008152600481018390526000916001600160a01b0316906320c38e2b90602401600060405180830381865afa158015612243573d6000803e3d6000fd5b505050506040513d6000823e601f3d908101601f1916820160405261226b91908101906154d8565b90506040516020016040516020818303038152906040528051906020012081805190602001200361229b57505050565b806040516020016122ac9190615546565b60408051601f19818403018152918152600085815260d160205220906122d2908261531a565b50600083815260d160205260409081902090517fd4878af30a4a4a71c10122662443bc90d3fe898ea245ce80d45bde68e3909a299161231391869190615416565b60405180910390a1505050565b60408051808201909152600080825260208201528161233e84611340565b5111612376576040517f9136d24f00000000000000000000000000000000000000000000000000000000815260040160405180910390fd5b600083815260cf60205260408120805484908110610eec57610eec6154a9565b6000826123a281612691565b610c43848461321b565b816123b681612691565b6123c2858585856135b5565b5050505050565b60606123d48261295e565b60006123de613602565b905060008151116123fe5760405180602001604052806000815250612439565b8061240884613611565b600085815260d1602090815260409182902091516124299493929101615562565b6040516020818303038152906040525b9392505050565b8761244a81612f37565b61245a89898989898989896136cf565b505050505050505050565b3360009081526065602052604090205460ff166124ea5760405162461bcd60e51b815260206004820152602860248201527f436f6e74726f6c6c61626c653a2043616c6c6572206973206e6f74206120636f60448201527f6e74726f6c6c65720000000000000000000000000000000000000000000000006064820152608401610ccc565b6001600160a01b038216600081815260656020908152604091829020805460ff191685151590811790915591519182527f4c97694570a07277810af7e5669ffd5f6a2d6b74b6e9a274b8b870fd5114cf87910160405180910390a25050565b8361255381612f37565b6123c2858585856138dc565b612567612d7a565b6001600160a01b0381166125e35760405162461bcd60e51b815260206004820152602660248201527f4f776e61626c653a206e6577206f776e657220697320746865207a65726f206160448201527f64647265737300000000000000000000000000000000000000000000000000006064820152608401610ccc565b6125ec81612dd4565b7fb53127684a568b3173ae13b9f8a6016e243e63b6e8ee1178d6a717850b5d610355565b600081815260cd60209081526040808320815180830190925280548252600101546001600160a01b0316918101829052829182919061267b576040517f89ba7e1000000000000000000000000000000000000000000000000000000000815260040160405180910390fd5b6020810151905190959094508415159350915050565b61269b3382613a4a565b6111fb576040517f35d12e3f00000000000000000000000000000000000000000000000000000000815260040160405180910390fd5b6000806126dd85612610565b5091509150866001600160a01b0316826001600160a01b03161461272d576040517fe146af6f00000000000000000000000000000000000000000000000000000000815260040160405180910390fd5b6001600160a01b03861661276d576040517fe3d91bfc00000000000000000000000000000000000000000000000000000000815260040160405180910390fd5b6001600160a01b0386163014801561278457508385145b156127bb576040517f5eeb0df000000000000000000000000000000000000000000000000000000000815260040160405180910390fd5b6001600160a01b0386163b6127fc576040517f80275d3a00000000000000000000000000000000000000000000000000000000815260040160405180910390fd5b6040517f01ffc9a70000000000000000000000000000000000000000000000000000000081527f42b0e56f0000000000000000000000000000000000000000000000000000000060048201526001600160a01b038716906301ffc9a790602401602060405180830381865afa158015612879573d6000803e3d6000fd5b505050506040513d601f19601f8201168201806040525081019061289d9190615631565b6128d3576040517ff413cf9900000000000000000000000000000000000000000000000000000000815260040160405180910390fd5b6128de858786613aed565b6001600160a01b038716600090815260ca6020526040812080546001929061290790849061567d565b909155506129189050858588613c10565b6001600160a01b038616600090815260ca60205260408120805460019290612941908490615690565b909155506129559050828783878988613c73565b50505050505050565b600081815260cd60205260409020600101546001600160a01b03166111fb576040517f89ba7e1000000000000000000000000000000000000000000000000000000000815260040160405180910390fd5b60006129ba82611721565b600083815260cb602090815260408083206001600160a01b0385811680865291909352818420805473ffffffffffffffffffffffffffffffffffffffff1916938916938417905590519394508593919290917f8c5be1e5ebec7d5bd14f71427d1e84f3dd0314c0f7b2291e5b200ac8c7c3b9259190a4505050565b600080612a4183612610565b5091509150846001600160a01b0316826001600160a01b031614612a91576040517fe146af6f00000000000000000000000000000000000000000000000000000000815260040160405180910390fd5b6001600160a01b038416612ad1576040517fe3d91bfc00000000000000000000000000000000000000000000000000000000815260040160405180910390fd5b6001600160a01b038516600090815260ca60205260408120805460019290612afa90849061567d565b90915550612b0c905083600086613c10565b6001600160a01b038416600090815260ca60205260408120805460019290612b35908490615690565b909155505060405183906001600160a01b0380871691908816907fddf252ad1be2c89b69c2b068fc378daa952ba7f163c4a11628f55a4df523b3ef90600090a482846001600160a01b0316836001600160a01b03167f04444026cefd1b05506559cab59d1b865ae3ba4ed2fe5c894f04e522776c552d846000604051612bc5929190918252602082015260400190565b60405180910390a46123c2565b6111fb612d7a565b7f4910fdfa16fed3260ed0e7147f7cc6da11a60208b5b9406d12a635614ffd91435460ff1615612c0d57610c1c83613d91565b826001600160a01b03166352d1902d6040518163ffffffff1660e01b8152600401602060405180830381865afa925050508015612c67575060408051601f3d908101601f19168201909252612c64918101906156a3565b60015b612cd95760405162461bcd60e51b815260206004820152602e60248201527f45524331393637557067726164653a206e657720696d706c656d656e7461746960448201527f6f6e206973206e6f7420555550530000000000000000000000000000000000006064820152608401610ccc565b7f360894a13ba1a3210667c828492db98dca3e2076cc3735a920a3ca505d382bbc8114612d6e5760405162461bcd60e51b815260206004820152602960248201527f45524331393637557067726164653a20756e737570706f727465642070726f7860448201527f6961626c655555494400000000000000000000000000000000000000000000006064820152608401610ccc565b50610c1c838383613e5c565b6033546001600160a01b031633146119fb5760405162461bcd60e51b815260206004820181905260248201527f4f776e61626c653a2063616c6c6572206973206e6f7420746865206f776e65726044820152606401610ccc565b603380546001600160a01b0383811673ffffffffffffffffffffffffffffffffffffffff19831681179093556040519116919082907f8be0079c531659141344cd1fd0a4f28419497f9722a3daafe3b4186f6b6457e090600090a35050565b600054610100900460ff166119fb5760405162461bcd60e51b815260206004820152602b60248201527f496e697469616c697a61626c653a20636f6e7472616374206973206e6f74206960448201527f6e697469616c697a696e670000000000000000000000000000000000000000006064820152608401610ccc565b600054610100900460ff16612f2d5760405162461bcd60e51b815260206004820152602b60248201527f496e697469616c697a61626c653a20636f6e7472616374206973206e6f74206960448201527f6e697469616c697a696e670000000000000000000000000000000000000000006064820152608401610ccc565b6112248282613e81565b612f413382613f17565b6111fb576040517f2728a9d000000000000000000000000000000000000000000000000000000000815260040160405180910390fd5b600082815260cf6020526040902054811015612fbf576040517f8ac3cb1400000000000000000000000000000000000000000000000000000000815260040160405180910390fd5b600082815260cf60205260408120612fd691614b9e565b60405182907f8ac4a0d65950c3e40448afb2260e2e0ec36ea15644d9b39e37e85472e5f9445190600090a25050565b600061301482603f1c60011690565b1561302157506000919050565b600161303083603b1c600f1690565b1461303d57506000919050565b61304a8260381c60071690565b1561305757506000919050565b600061306683602d1c607f1690565b9050607a81111561307a5750600092915050565b60006130898460341c600f1690565b9050600781108061309a5750600f81115b156130a9575060009392505050565b600060015b8281116131285760006130c18783613f95565b9050821580156130d057508015155b1561310057600192506130e285613fbc565b80156130ee5750600181145b15613100575060009695505050505050565b60078110613115575060009695505050505050565b5080613120816156bc565b9150506130ae565b506000613136836001615690565b90505b600f811161317057600761314d8783613f95565b1461315e5750600095945050505050565b80613168816156bc565b915050613139565b50600195945050505050565b611224828260405180602001604052806000815250613fe4565b600054610100900460ff166132135760405162461bcd60e51b815260206004820152602b60248201527f496e697469616c697a61626c653a20636f6e7472616374206973206e6f74206960448201527f6e697469616c697a696e670000000000000000000000000000000000000000006064820152608401610ccc565b6119fb614031565b600080600061322985612610565b5091509150600061323986611721565b6001600160a01b038416600090815260ca60205260408120805492935060019290919061326790849061567d565b909155506132729050565b61327d6000876129af565b60006132888761191b565b600088815260ce602052604081209192506132a39190614b9e565b600087815260cf602052604081206132ba91614b9e565b600087815260cb602090815260408083206001600160a01b03861684529091528120805473ffffffffffffffffffffffffffffffffffffffff1916905581518190815b818110156134f95789831061338b5784818151811061331e5761331e6154a9565b60200260200101516020015185828151811061333c5761333c6154a9565b6020908102919091010151516040517f4cb93ad90000000000000000000000000000000000000000000000000000000081526001600160a01b0390921660048301526024820152604401610ccc565b60d060008683815181106133a1576133a16154a9565b6020026020010151602001516001600160a01b03166001600160a01b0316815260200190815260200160002060008683815181106133e1576133e16154a9565b602002602001015160000151815260200190815260200160002060009055828a039350848181518110613416576134166154a9565b6020026020010151602001516001600160a01b031663b390c0ab868381518110613442576134426154a9565b60200260200101516000015160018761345b919061567d565b6040517fffffffff0000000000000000000000000000000000000000000000000000000060e085901b168152600481019290925260248201526044016020604051808303816000875af11580156134b6573d6000803e3d6000fd5b505050506040513d601f19601f820116820180604052508101906134da91906156a3565b6134e5906001615690565b6134ef9084615690565b92506001016132fd565b5060008a815260cd6020526040808220828155600101805473ffffffffffffffffffffffffffffffffffffffff19169055518b91906001600160a01b038816907fddf252ad1be2c89b69c2b068fc378daa952ba7f163c4a11628f55a4df523b3ef908390a4604080518781526000602082018190528c9290916001600160a01b038b16917f04444026cefd1b05506559cab59d1b865ae3ba4ed2fe5c894f04e522776c552d910160405180910390a45098975050505050505050565b6135c0848484612a35565b6135cc848484846140b7565b610d29576040517fbcb5663700000000000000000000000000000000000000000000000000000000815260040160405180910390fd5b606060d58054611c4690615281565b6060600061361e83614219565b600101905060008167ffffffffffffffff81111561363e5761363e614c4e565b6040519080825280601f01601f191660200182016040528015613668576020820181803683370190505b5090508181016020015b7fffffffffffffffffffffffffffffffffffffffffffffffffffffffffffffffff017f3031323334353637383961626364656600000000000000000000000000000000600a86061a8153600a850494508461367257509392505050565b604080518082019091526000808252602082015282156136fa576136f38987612320565b9050613707565b6137048987610e76565b90505b6137128186866142fb565b821561373557600089815260cf602052604090206137309087614358565b61376f565b6001600160a01b038516600090815260d06020908152604080832087845282528083208390558b835260ce909152902061376f9087614358565b6001600160a01b0388161561388e5786600003613808576040517fb88d4fde0000000000000000000000000000000000000000000000000000000081526001600160a01b0386169063b88d4fde906137d19030908c90899088906004016156f4565b600060405180830381600087803b1580156137eb57600080fd5b505af11580156137ff573d6000803e3d6000fd5b5050505061388e565b602081015181516040517f064c0a3a0000000000000000000000000000000000000000000000000000000081526001600160a01b039092169163064c0a3a9161385b9130918d918d908990600401615730565b600060405180830381600087803b15801561387557600080fd5b505af1158015613889573d6000803e3d6000fd5b505050505b60408051878152841515602082015285916001600160a01b038816918c917f2bedee38cdb22411c14554191243c0e117c0088ddae3459876acd46a0fd53815910160405180910390a461245a565b826138e685611340565b511161391e576040517f9136d24f00000000000000000000000000000000000000000000000000000000815260040160405180910390fd5b600061392a8585612320565b90506139378184846142fb565b6001600160a01b038316600090815260d06020908152604080832085845290915290205415613992576040517fff33650c00000000000000000000000000000000000000000000000000000000815260040160405180910390fd5b600085815260cf602052604090206139aa9085614358565b600085815260ce60209081526040808320805460018082018355918552838520865160029092020190815585840151908201805473ffffffffffffffffffffffffffffffffffffffff19166001600160a01b03928316179055871680855260d08452828520878652845293829020555186815284929188917f29486b9e2ae569b440933a9b1b421467306fa21f3dcad439c262910a634963a99101612bc5565b6000806000613a5884612610565b509150915080600014613a7b57506001600160a01b038481169116149050610af8565b816001600160a01b0316856001600160a01b03161480613ac057506001600160a01b03808316600090815260cc602090815260408083209389168352929052205460ff165b80613ae45750846001600160a01b0316613ad985610b1d565b6001600160a01b0316145b95945050505050565b60005b6064811015613bdd576000806000856001600160a01b031663fb25fb7a866040518263ffffffff1660e01b8152600401613b2c91815260200190565b606060405180830381865afa158015613b49573d6000803e3d6000fd5b505050506040513d601f19601f82011682018060405250810190613b6d9190615773565b92509250925080613b815750505050505050565b6001600160a01b03831630148015613b9857508682145b15613bcf576040517ff911968900000000000000000000000000000000000000000000000000000000815260040160405180910390fd5b509093509150600101613af0565b506040517feb20c44200000000000000000000000000000000000000000000000000000000815260040160405180910390fd5b6040805180820182528381526001600160a01b038381166020808401918252600088815260cd90915293842092518355516001909201805473ffffffffffffffffffffffffffffffffffffffff191692909116919091179055610c1c90846129af565b6040517f635490cc00000000000000000000000000000000000000000000000000000000815285906001600160a01b0382169063635490cc90613cbe908790879087906004016157b6565b600060405180830381600087803b158015613cd857600080fd5b505af1158015613cec573d6000803e3d6000fd5b5050505082866001600160a01b0316886001600160a01b03167fddf252ad1be2c89b69c2b068fc378daa952ba7f163c4a11628f55a4df523b3ef60405160405180910390a482866001600160a01b0316886001600160a01b03167f04444026cefd1b05506559cab59d1b865ae3ba4ed2fe5c894f04e522776c552d8888604051613d80929190918252602082015260400190565b60405180910390a450505050505050565b6001600160a01b0381163b613e0e5760405162461bcd60e51b815260206004820152602d60248201527f455243313936373a206e657720696d706c656d656e746174696f6e206973206e60448201527f6f74206120636f6e7472616374000000000000000000000000000000000000006064820152608401610ccc565b7f360894a13ba1a3210667c828492db98dca3e2076cc3735a920a3ca505d382bbc805473ffffffffffffffffffffffffffffffffffffffff19166001600160a01b0392909216919091179055565b613e658361444a565b600082511180613e725750805b15610c1c57610d29838361448a565b600054610100900460ff16613efe5760405162461bcd60e51b815260206004820152602b60248201527f496e697469616c697a61626c653a20636f6e7472616374206973206e6f74206960448201527f6e697469616c697a696e670000000000000000000000000000000000000000006064820152608401610ccc565b60d2613f0a838261531a565b5060d3610c1c828261531a565b600080613f2383611721565b9050806001600160a01b0316846001600160a01b03161480613f6a57506001600160a01b03808216600090815260cc602090815260408083209388168352929052205460ff165b80610c435750836001600160a01b0316613f8384610b1d565b6001600160a01b031614949350505050565b600060076003613fa684600f61567d565b613fb091906157d5565b84901c16905092915050565b6000607a8210613fce57506000919050565b613fd78261458c565b60ff166001149050919050565b613fee838361497a565b613ffb60008484846140b7565b610c1c576040517fbcb5663700000000000000000000000000000000000000000000000000000000815260040160405180910390fd5b600054610100900460ff166140ae5760405162461bcd60e51b815260206004820152602b60248201527f496e697469616c697a61626c653a20636f6e7472616374206973206e6f74206960448201527f6e697469616c697a696e670000000000000000000000000000000000000000006064820152608401610ccc565b6119fb33612dd4565b60006001600160a01b0384163b15614211576040517f150b7a020000000000000000000000000000000000000000000000000000000081526001600160a01b0385169063150b7a02906141149033908990889088906004016156f4565b6020604051808303816000875af192505050801561414f575060408051601f3d908101601f1916820190925261414c918101906157ec565b60015b6141c6573d80801561417d576040519150601f19603f3d011682016040523d82523d6000602084013e614182565b606091505b5080516000036141be576040517fbcb5663700000000000000000000000000000000000000000000000000000000815260040160405180910390fd5b805181602001fd5b7fffffffff00000000000000000000000000000000000000000000000000000000167f150b7a0200000000000000000000000000000000000000000000000000000000149050610c43565b506001610c43565b6000807a184f03e93ff9f4daa797ed6e38ed64bf6a1f0100000000000000008310614262577a184f03e93ff9f4daa797ed6e38ed64bf6a1f010000000000000000830492506040015b6d04ee2d6d415b85acef8100000000831061428e576d04ee2d6d415b85acef8100000000830492506020015b662386f26fc1000083106142ac57662386f26fc10000830492506010015b6305f5e10083106142c4576305f5e100830492506008015b61271083106142d857612710830492506004015b606483106142ea576064830492506002015b600a8310610af85760010192915050565b82602001516001600160a01b0316826001600160a01b0316141580614321575082518114155b15610c1c576040517f37d6ce9000000000000000000000000000000000000000000000000000000000815260040160405180910390fd5b815482906143689060019061567d565b81548110614378576143786154a9565b9060005260206000209060020201828281548110614398576143986154a9565b6000918252602090912082546002909202019081556001918201549101805473ffffffffffffffffffffffffffffffffffffffff19166001600160a01b0390921691909117905581548290806143f0576143f0615809565b60008281526020812060027fffffffffffffffffffffffffffffffffffffffffffffffffffffffffffffffff90930192830201908155600101805473ffffffffffffffffffffffffffffffffffffffff1916905590555050565b61445381613d91565b6040516001600160a01b038216907fbc7cd75a20ee27fd9adebab32041f755214dbc6bffa90cc0225b39da2e5c2d3b90600090a250565b60606001600160a01b0383163b6145095760405162461bcd60e51b815260206004820152602660248201527f416464726573733a2064656c65676174652063616c6c20746f206e6f6e2d636f60448201527f6e747261637400000000000000000000000000000000000000000000000000006064820152608401610ccc565b600080846001600160a01b0316846040516145249190615546565b600060405180830381855af49150503d806000811461455f576040519150601f19603f3d011682016040523d82523d6000602084013e614564565b606091505b5091509150613ae4828260405180606001604052806027815260200161583960279139614a0a565b60408051610f40810182526000808252602082018190529181018290526060810182905260016080820181905260a0820183905260c0820183905260e08201839052610100820183905261012082018390526101408201839052610160820183905261018082018390526101a082018390526101c082018190526101e08201839052610200820183905261022082018390526102408201839052610260820183905261028082018390526102a082018390526102c082018390526102e08201839052610300820181905261032082018390526103408201839052610360820183905261038082018390526103a082018390526103c082018390526103e08201839052610400820183905261042082018390526104408201839052610460820183905261048082018390526104a082018390526104c082018190526104e08201839052610500820183905261052082018390526105408201839052610560820183905261058082018390526105a082018390526105c082018390526105e08201839052610600820183905261062082018190526106408201839052610660820183905261068082018390526106a082018390526106c082018390526106e08201839052610700820183905261072082018390526107408201819052610760820183905261078082018390526107a082018390526107c082018390526107e08201819052610800820183905261082082018390526108408201839052610860820183905261088082018390526108a082018390526108c082018390526108e08201839052610900820181905261092082018390526109408201839052610960820183905261098082018390526109a082018390526109c082018390526109e08201839052610a008201839052610a208201839052610a408201839052610a608201819052610a808201839052610aa08201839052610ac08201839052610ae08201839052610b008201839052610b208201839052610b408201839052610b608201839052610b808201839052610ba08201839052610bc08201839052610be08201839052610c008201839052610c208201819052610c408201839052610c608201839052610c808201839052610ca08201839052610cc08201839052610ce08201839052610d008201839052610d208201839052610d408201839052610d608201819052610d808201839052610da08201839052610dc08201839052610de08201839052610e008201839052610e208201839052610e408201839052610e608201839052610e808201839052610ea0820152610ec08101829052610ee08101829052610f008101829052610f2081018290528083607a811061496e5761496e6154a9565b60200201519392505050565b61498682826000614a23565b60405181906001600160a01b038416906000907fddf252ad1be2c89b69c2b068fc378daa952ba7f163c4a11628f55a4df523b3ef908290a46040805160008082526020820181905283926001600160a01b038616927f04444026cefd1b05506559cab59d1b865ae3ba4ed2fe5c894f04e522776c552d910160405180910390a45050565b60608315614a19575081612439565b6124398383614b74565b6001600160a01b038316614a63576040517f25bd6bd300000000000000000000000000000000000000000000000000000000815260040160405180910390fd5b600082815260cd60205260409020600101546001600160a01b031615614ab5576040517fc5a8d37100000000000000000000000000000000000000000000000000000000815260040160405180910390fd5b81600003614aef576040517f238924d500000000000000000000000000000000000000000000000000000000815260040160405180910390fd5b6001600160a01b038316600090815260ca60205260408120805460019290614b18908490615690565b90915550506040805180820182529182526001600160a01b039384166020808401918252600094855260cd905292209051815590516001909101805473ffffffffffffffffffffffffffffffffffffffff191691909216179055565b815115614b845781518083602001fd5b8060405162461bcd60e51b8152600401610ccc9190614df2565b50805460008255600202906000526020600020908101906111fb91905b808211156115c7576000815560018101805473ffffffffffffffffffffffffffffffffffffffff19169055600201614bbb565b7fffffffff00000000000000000000000000000000000000000000000000000000811681146111fb57600080fd5b600060208284031215614c2e57600080fd5b813561243981614bee565b6001600160a01b03811681146111fb57600080fd5b7f4e487b7100000000000000000000000000000000000000000000000000000000600052604160045260246000fd5b604051601f8201601f1916810167ffffffffffffffff81118282101715614ca657614ca6614c4e565b604052919050565b600067ffffffffffffffff821115614cc857614cc8614c4e565b50601f01601f191660200190565b600082601f830112614ce757600080fd5b8135614cfa614cf582614cae565b614c7d565b818152846020838601011115614d0f57600080fd5b816020850160208301376000918101602001919091529392505050565b600080600080600060a08688031215614d4457600080fd5b8535614d4f81614c39565b94506020860135614d5f81614c39565b93506040860135925060608601359150608086013567ffffffffffffffff811115614d8957600080fd5b614d9588828901614cd6565b9150509295509295909350565b60005b83811015614dbd578181015183820152602001614da5565b50506000910152565b60008151808452614dde816020860160208601614da2565b601f01601f19169290920160200192915050565b6020815260006124396020830184614dc6565b600060208284031215614e1757600080fd5b5035919050565b60008060408385031215614e3157600080fd5b8235614e3c81614c39565b946020939093013593505050565b60008060008060808587031215614e6057600080fd5b8435614e6b81614c39565b93506020850135614e7b81614c39565b925060408501359150606085013567ffffffffffffffff811115614e9e57600080fd5b614eaa87828801614cd6565b91505092959194509250565b600060208284031215614ec857600080fd5b813561243981614c39565b600080600060608486031215614ee857600080fd5b8335614ef381614c39565b92506020840135614f0381614c39565b929592945050506040919091013590565b60008060408385031215614f2757600080fd5b50508035926020909101359150565b815181526020808301516001600160a01b03169082015260408101610af8565b60008060408385031215614f6957600080fd5b8235614f7481614c39565b9150602083013567ffffffffffffffff811115614f9057600080fd5b614f9c85828601614cd6565b9150509250929050565b602080825282518282018190526000919060409081850190868401855b82811015614ff957614fe9848351805182526020908101516001600160a01b0316910152565b9284019290850190600101614fc3565b5091979650505050505050565b60006020828403121561501857600080fd5b813567ffffffffffffffff81111561502f57600080fd5b610c4384828501614cd6565b60008060006060848603121561505057600080fd5b8335925060208401359150604084013567ffffffffffffffff81111561507557600080fd5b61508186828701614cd6565b9150509250925092565b600080600080608085870312156150a157600080fd5b843567ffffffffffffffff808211156150b957600080fd5b6150c588838901614cd6565b955060208701359150808211156150db57600080fd5b506150e887828801614cd6565b93505060408501356150f981614c39565b9150606085013561510981614c39565b939692955090935050565b80151581146111fb57600080fd5b6000806040838503121561513557600080fd5b823561514081614c39565b9150602083013561515081615114565b809150509250929050565b600080600080600080600080610100898b03121561517857600080fd5b88359750602089013561518a81614c39565b9650604089013595506060890135945060808901356151a881614c39565b935060a0890135925060c08901356151bf81615114565b915060e089013567ffffffffffffffff8111156151db57600080fd5b6151e78b828c01614cd6565b9150509295985092959890939650565b6000806000806080858703121561520d57600080fd5b8435935060208501359250604085013561522681614c39565b9396929550929360600135925050565b6000806040838503121561524957600080fd5b823561525481614c39565b9150602083013561515081614c39565b60006020828403121561527657600080fd5b815161243981614c39565b600181811c9082168061529557607f821691505b6020821081036152ce577f4e487b7100000000000000000000000000000000000000000000000000000000600052602260045260246000fd5b50919050565b601f821115610c1c57600081815260208120601f850160051c810160208610156152fb5750805b601f850160051c820191505b81811015610b1557828155600101615307565b815167ffffffffffffffff81111561533457615334614c4e565b615348816153428454615281565b846152d4565b602080601f83116001811461539b57600084156153655750858301515b7fffffffffffffffffffffffffffffffffffffffffffffffffffffffffffffffff600386901b1c1916600185901b178555610b15565b600085815260208120601f198616915b828110156153ca578886015182559484019460019091019084016153ab565b508582101561540657878501517fffffffffffffffffffffffffffffffffffffffffffffffffffffffffffffffff600388901b60f8161c191681555b5050505050600190811b01905550565b828152600060206040818401526000845461543081615281565b8060408701526060600180841660008114615452576001811461546c5761549a565b60ff198516838a01528284151560051b8a0101955061549a565b896000528660002060005b858110156154925781548b8201860152908301908801615477565b8a0184019650505b50939998505050505050505050565b7f4e487b7100000000000000000000000000000000000000000000000000000000600052603260045260246000fd5b6000602082840312156154ea57600080fd5b815167ffffffffffffffff81111561550157600080fd5b8201601f8101841361551257600080fd5b8051615520614cf582614cae565b81815285602083850101111561553557600080fd5b613ae4826020830160208601614da2565b60008251615558818460208701614da2565b9190910192915050565b6000845160206155758285838a01614da2565b8551918401916155888184848a01614da2565b7f3f6e616d653d0000000000000000000000000000000000000000000000000000920191825284546006906000906155bf81615281565b600182811680156155d757600181146155f057615620565b60ff198416868901528583151584028901019450615620565b8a6000528660002060005b848110156156165781548a82018901529083019088016155fb565b5050858389010194505b50929b9a5050505050505050505050565b60006020828403121561564357600080fd5b815161243981615114565b7f4e487b7100000000000000000000000000000000000000000000000000000000600052601160045260246000fd5b81810381811115610af857610af861564e565b80820180821115610af857610af861564e565b6000602082840312156156b557600080fd5b5051919050565b60007fffffffffffffffffffffffffffffffffffffffffffffffffffffffffffffffff82036156ed576156ed61564e565b5060010190565b60006001600160a01b038087168352808616602084015250836040830152608060608301526157266080830184614dc6565b9695505050505050565b60006001600160a01b03808816835280871660208401525084604083015283606083015260a0608083015261576860a0830184614dc6565b979650505050505050565b60008060006060848603121561578857600080fd5b835161579381614c39565b6020850151604086015191945092506157ab81615114565b809150509250925092565b838152826020820152606060408201526000613ae46060830184614dc6565b8082028115828204841417610af857610af861564e565b6000602082840312156157fe57600080fd5b815161243981614bee565b7f4e487b7100000000000000000000000000000000000000000000000000000000600052603160045260246000fdfe416464726573733a206c6f772d6c6576656c2064656c65676174652063616c6c206661696c6564a26469706673582212208c27dd72361b2673e7d5531c34e401def1991e2c68f185e37439a3b77bbde31564736f6c63430008120033",
  "devdoc": {
    "author": "MXCZKEvmTeam",
    "details": "This contract is hierarchy agnostic and can support an arbitrary number of nested levels up and down, as long as  gas limits allow it.",
    "events": {
      "AdminChanged(address,address)": {
        "details": "Emitted when the admin account has changed."
      },
      "Approval(address,address,uint256)": {
        "details": "Emitted when `owner` enables `approved` to manage the `tokenId` token."
      },
      "ApprovalForAll(address,address,bool)": {
        "details": "Emitted when `owner` enables or disables (`approved`) `operator` to manage all of its assets."
      },
      "BeaconUpgraded(address)": {
        "details": "Emitted when the beacon is changed."
      },
      "Initialized(uint8)": {
        "details": "Triggered when the contract has been initialized or reinitialized."
      },
      "Transfer(address,address,uint256)": {
        "details": "Emitted when `tokenId` token is transferred from `from` to `to`."
      },
      "Upgraded(address)": {
        "details": "Emitted when the implementation is upgraded."
      }
    },
    "kind": "dev",
    "methods": {
      "acceptChild(uint256,uint256,address,uint256)": {
        "details": "This moves the child token from parent token's pending child tokens array into the active child tokens  array.",
        "params": {
          "childAddress": "Address of the collection smart contract of the child token expected to be located at the  specified index of the given parent token's pending children array",
          "childId": "ID of the child token expected to be located at the specified index of the given parent token's  pending children array",
          "childIndex": "Index of a child tokem in the given parent's pending children array",
          "parentId": "ID of the parent token for which the child token is being accepted"
        }
      },
      "addChild(uint256,uint256,bytes)": {
        "details": "This adds the iichild token into the given parent token's pending child tokens array.You MUST NOT call this method directly. To add a a child to an NFT you must use either  `nestTransfer`, `nestMint` or `transferChild` to the NFT.Requirements:  - `ownerOf` on the child contract must resolve to the called contract.  - The pending array of the parent contract must not be full.",
        "params": {
          "childId": "ID of the new proposed child token",
          "data": "Additional data with no specified format",
          "parentId": "ID of the parent token to receive the new child token"
        }
      },
      "approve(address,uint256)": {
        "details": "Gives permission to `to` to transfer `tokenId` token to another account. The approval is cleared when the token is transferred. Only a single account can be approved at a time, so approving the zero address clears previous approvals. Requirements: - The caller must own the token or be an approved operator. - `tokenId` must exist. Emits an {Approval} event."
      },
      "balanceOf(address)": {
        "details": "Returns the number of tokens in ``owner``'s account."
      },
      "burn(uint256)": {
        "params": {
          "tokenId": "ID of the token to burn"
        }
      },
      "burn(uint256,uint256)": {
        "details": "When a token is burned, its children are recursively burned as well.The approvals are cleared when the token is burned.Requirements:  - `tokenId` must exist.Emits a {Transfer} event.",
        "params": {
          "maxChildrenBurns": "Maximum children to recursively burn",
          "tokenId": "ID of the token to burn"
        },
        "returns": {
          "_0": "uint256 The number of recursive burns it took to burn all of the children"
        }
      },
      "childIsInActive(address,uint256)": {
        "params": {
          "childAddress": "Address of the given token's collection smart contract",
          "childId": "ID of the child token being checked"
        },
        "returns": {
          "_0": "bool A boolean value signifying whether the given child token is included in an active child tokens array  of a token (`true`) or not (`false`)"
        }
      },
      "childOf(uint256,uint256)": {
        "details": "Returns a single Child struct locating at `index` of parent token's active child tokens array.The Child struct consists of the following values:  [      tokenId,      contractAddress  ]",
        "params": {
          "index": "Index of the child token in the parent token's active child tokens array",
          "parentId": "ID of the parent token for which the child is being retrieved"
        },
        "returns": {
          "_0": "struct A Child struct containing data about the specified child"
        }
      },
      "childrenOf(uint256)": {
        "details": "Returns array of Child structs existing for parent token.The Child struct consists of the following values:  [      tokenId,      contractAddress  ]",
        "params": {
          "parentId": "ID of the parent token for which to retrieve the active child tokens"
        },
        "returns": {
          "_0": "struct[] An array of Child structs containing the parent token's active child tokens"
        }
      },
      "directOwnerOf(uint256)": {
        "details": "In the event the NFT is owned by an externally owned account, `tokenId` will be `0`.",
        "params": {
          "tokenId": "ID of the token for which the immediate owner is being retrieved"
        },
        "returns": {
          "_0": "address Address of the immediate owner. If the token is owned by an externally owned account, its address  will be returned. If the token is owned by another token, the parent token's collection smart contract address  is returned",
          "_1": "uint256 Token ID of the immediate owner. If the immediate owner is an externally owned account, the value  should be `0`",
          "_2": "bool A boolean value signifying whether the immediate owner is a token (`true`) or not (`false`)"
        }
      },
      "getApproved(uint256)": {
        "details": "Returns the account approved for `tokenId` token. Requirements: - `tokenId` must exist."
      },
      "isApprovedForAll(address,address)": {
        "details": "Returns if the `operator` is allowed to manage all of the assets of `owner`. See {setApprovalForAll}"
      },
      "name()": {
        "details": "See {IERC721Metadata-name}."
      },
      "nestTransferFrom(address,address,uint256,uint256,bytes)": {
        "details": "The destination token MUST NOT be a child token of the token being transferred or one of its downstream  child tokens.",
        "params": {
          "destinationId": "ID of the token to receive the token being transferred",
          "from": "Address of the direct owner of the token to be transferred",
          "to": "Address of the receiving token's collection smart contract",
          "tokenId": "ID of the token being transferred"
        }
      },
      "onERC721Received(address,address,uint256,bytes)": {
        "details": "See {IERC721Receiver-onERC721Received}. Always returns `IERC721Receiver.onERC721Received.selector`."
      },
      "owner()": {
        "details": "Returns the address of the current owner."
      },
      "ownerOf(uint256)": {
        "details": "Root owner is always the externally owned account.If the given token is owned by another token, it will recursively query the parent tokens until reaching the  root owner.",
        "params": {
          "tokenId": "ID of the token for which the root owner is being retrieved"
        },
        "returns": {
          "_0": "address Address of the root owner of the given token"
        }
      },
      "pendingChildOf(uint256,uint256)": {
        "details": "Returns a single Child struct locating at `index` of parent token's active child tokens array.The Child struct consists of the following values:  [      tokenId,      contractAddress  ]",
        "params": {
          "index": "Index of the child token in the parent token's pending child tokens array",
          "parentId": "ID of the parent token for which the pending child token is being retrieved"
        },
        "returns": {
          "_0": "struct A Child struct containting data about the specified child"
        }
      },
      "pendingChildrenOf(uint256)": {
        "details": "Returns array of pending Child structs existing for given parent.The Child struct consists of the following values:  [      tokenId,      contractAddress  ]",
        "params": {
          "parentId": "ID of the parent token for which to retrieve the pending child tokens"
        },
        "returns": {
          "_0": "struct[] An array of Child structs containing the parent token's pending child tokens"
        }
      },
      "proxiableUUID()": {
        "details": "Implementation of the ERC1822 {proxiableUUID} function. This returns the storage slot used by the implementation. It is used to validate the implementation's compatibility when performing an upgrade. IMPORTANT: A proxy pointing at a proxiable contract should not be considered proxiable itself, because this risks bricking a proxy that upgrades to it, by delegating to itself until out of gas. Thus it is critical that this function revert if invoked through a proxy. This is guaranteed by the `notDelegated` modifier."
      },
      "rejectAllChildren(uint256,uint256)": {
        "details": "Removes the children from the pending array mapping.This does not update the ownership storage data on children. If necessary, ownership can be reclaimed by the  rootOwner of the previous parent.",
        "params": {
          "tokenId": "ID of the parent token for which to reject all of the pending tokens"
        }
      },
      "renounceOwnership()": {
        "details": "Leaves the contract without owner. It will not be possible to call `onlyOwner` functions anymore. Can only be called by the current owner. NOTE: Renouncing ownership will leave the contract without an owner, thereby removing any functionality that is only available to the owner."
      },
      "safeTransferFrom(address,address,uint256)": {
        "details": "Safely transfers `tokenId` token from `from` to `to`, checking first that contract recipients are aware of the ERC721 protocol to prevent tokens from being forever locked. Requirements: - `from` cannot be the zero address. - `to` cannot be the zero address. - `tokenId` token must exist and be owned by `from`. - If the caller is not `from`, it must have been allowed to move this token by either {approve} or {setApprovalForAll}. - If `to` refers to a smart contract, it must implement {IERC721Receiver-onERC721Received}, which is called upon a safe transfer. Emits a {Transfer} event."
      },
      "safeTransferFrom(address,address,uint256,bytes)": {
        "details": "Safely transfers `tokenId` token from `from` to `to`. Requirements: - `from` cannot be the zero address. - `to` cannot be the zero address. - `tokenId` token must exist and be owned by `from`. - If the caller is not `from`, it must be approved to move this token by either {approve} or {setApprovalForAll}. - If `to` refers to a smart contract, it must implement {IERC721Receiver-onERC721Received}, which is called upon a safe transfer. Emits a {Transfer} event."
      },
      "setApprovalForAll(address,bool)": {
        "details": "Approve or remove `operator` as an operator for the caller. Operators can call {transferFrom} or {safeTransferFrom} for any token owned by the caller. Requirements: - The `operator` cannot be the caller. Emits an {ApprovalForAll} event."
      },
      "supportsInterface(bytes4)": {
        "details": "See {IERC165-supportsInterface}."
      },
      "symbol()": {
        "details": "See {IERC721Metadata-symbol}."
      },
      "tokenByIndex(uint256)": {
        "details": "See {IERC721Enumerable-tokenByIndex}."
      },
      "tokenOfOwnerByIndex(address,uint256)": {
        "details": "See {IERC721Enumerable-tokenOfOwnerByIndex}."
      },
      "tokenURI(uint256)": {
        "details": "See {IERC721Metadata-tokenURI}."
      },
      "totalSupply()": {
        "details": "See {IERC721Enumerable-totalSupply}."
      },
      "transferChild(uint256,address,uint256,uint256,address,uint256,bool,bytes)": {
        "params": {
          "childAddress": "Address of the child token's collection smart contract.",
          "childId": "ID of the child token in its own collection smart contract.",
          "childIndex": "Index of a token we are transferring, in the array it belongs to (can be either active array or  pending array)",
          "data": "Additional data with no specified format, sent in call to `_to`",
          "destinationId": "ID of the token to receive this child token (MUST be 0 if the destination is not a token)",
          "isPending": "A boolean value indicating whether the child token being transferred is in the pending array of the  parent token (`true`) or in the active array (`false`)",
          "to": "Address to which to transfer the token to",
          "tokenId": "ID of the parent token from which the child token is being transferred"
        }
      },
      "transferFrom(address,address,uint256)": {
        "details": "Transfers `tokenId` token from `from` to `to`. WARNING: Note that the caller is responsible to confirm that the recipient is capable of receiving ERC721 or else they may be permanently lost. Usage of {safeTransferFrom} prevents loss, though the caller must understand this adds an external call which potentially creates a reentrancy vulnerability. Requirements: - `from` cannot be the zero address. - `to` cannot be the zero address. - `tokenId` token must be owned by `from`. - If the caller is not `from`, it must be approved to move this token by either {approve} or {setApprovalForAll}. Emits a {Transfer} event."
      },
      "transferOwnership(address)": {
        "details": "Transfers ownership of the contract to a new account (`newOwner`). Can only be called by the current owner."
      },
      "upgradeTo(address)": {
        "details": "Upgrade the implementation of the proxy to `newImplementation`. Calls {_authorizeUpgrade}. Emits an {Upgraded} event."
      },
      "upgradeToAndCall(address,bytes)": {
        "details": "Upgrade the implementation of the proxy to `newImplementation`, and subsequently execute the function call encoded in `data`. Calls {_authorizeUpgrade}. Emits an {Upgraded} event."
      }
    },
    "title": "NestableToken",
    "version": 1
  },
  "userdoc": {
    "kind": "user",
    "methods": {
      "acceptChild(uint256,uint256,address,uint256)": {
        "notice": "@notice Used to accept a pending child token for a given parent token."
      },
      "addChild(uint256,uint256,bytes)": {
        "notice": "Used to add a child token to a given parent token."
      },
      "burn(uint256)": {
        "notice": "Used to burn a given token."
      },
      "burn(uint256,uint256)": {
        "notice": "Used to burn a token."
      },
      "childIsInActive(address,uint256)": {
        "notice": "Used to verify that the given child tokwn is included in an active array of a token."
      },
      "childOf(uint256,uint256)": {
        "notice": "Used to retrieve a specific active child token for a given parent token."
      },
      "childrenOf(uint256)": {
        "notice": "Used to retrieve the active child tokens of a given parent token."
      },
      "directOwnerOf(uint256)": {
        "notice": "Used to retrieve the immediate owner of the given token."
      },
      "nestTransferFrom(address,address,uint256,uint256,bytes)": {
        "notice": "Used to transfer the token into another token."
      },
      "ownerOf(uint256)": {
        "notice": "Used to retrieve the root owner of the given token."
      },
      "pendingChildOf(uint256,uint256)": {
        "notice": "Used to retrieve a specific pending child token from a given parent token."
      },
      "pendingChildrenOf(uint256)": {
        "notice": "Used to retrieve the pending child tokens of a given parent token."
      },
      "rejectAllChildren(uint256,uint256)": {
        "notice": "Used to reject all pending children of a given parent token."
      },
      "transferChild(uint256,address,uint256,uint256,address,uint256,bool,bytes)": {
        "notice": "Used to transfer a child token from a given parent token."
      }
    },
    "notice": "Smart contract of the Nestable module.",
    "version": 1
  },
  "storageLayout": {
    "storage": [
      {
        "astId": 534,
        "contract": "contracts/token/MEP1002Token.sol:MEP1002Token",
        "label": "_initialized",
        "offset": 0,
        "slot": "0",
        "type": "t_uint8"
      },
      {
        "astId": 537,
        "contract": "contracts/token/MEP1002Token.sol:MEP1002Token",
        "label": "_initializing",
        "offset": 1,
        "slot": "0",
        "type": "t_bool"
      },
      {
        "astId": 1349,
        "contract": "contracts/token/MEP1002Token.sol:MEP1002Token",
        "label": "__gap",
        "offset": 0,
        "slot": "1",
        "type": "t_array(t_uint256)50_storage"
      },
      {
        "astId": 10,
        "contract": "contracts/token/MEP1002Token.sol:MEP1002Token",
        "label": "_owner",
        "offset": 0,
        "slot": "51",
        "type": "t_address"
      },
      {
        "astId": 130,
        "contract": "contracts/token/MEP1002Token.sol:MEP1002Token",
        "label": "__gap",
        "offset": 0,
        "slot": "52",
        "type": "t_array(t_uint256)49_storage"
      },
      {
        "astId": 2912,
        "contract": "contracts/token/MEP1002Token.sol:MEP1002Token",
        "label": "controllers",
        "offset": 0,
        "slot": "101",
        "type": "t_mapping(t_address,t_bool)"
      },
      {
        "astId": 516,
        "contract": "contracts/token/MEP1002Token.sol:MEP1002Token",
        "label": "__gap",
        "offset": 0,
        "slot": "102",
        "type": "t_array(t_uint256)50_storage"
      },
      {
        "astId": 831,
        "contract": "contracts/token/MEP1002Token.sol:MEP1002Token",
        "label": "__gap",
        "offset": 0,
        "slot": "152",
        "type": "t_array(t_uint256)50_storage"
      },
      {
        "astId": 4626,
        "contract": "contracts/token/MEP1002Token.sol:MEP1002Token",
        "label": "_balances",
        "offset": 0,
        "slot": "202",
        "type": "t_mapping(t_address,t_uint256)"
      },
      {
        "astId": 4632,
        "contract": "contracts/token/MEP1002Token.sol:MEP1002Token",
        "label": "_tokenApprovals",
        "offset": 0,
        "slot": "203",
        "type": "t_mapping(t_uint256,t_mapping(t_address,t_address))"
      },
      {
        "astId": 4638,
        "contract": "contracts/token/MEP1002Token.sol:MEP1002Token",
        "label": "_operatorApprovals",
        "offset": 0,
        "slot": "204",
        "type": "t_mapping(t_address,t_mapping(t_address,t_bool))"
      },
      {
        "astId": 4643,
        "contract": "contracts/token/MEP1002Token.sol:MEP1002Token",
        "label": "_directOwners",
        "offset": 0,
        "slot": "205",
        "type": "t_mapping(t_uint256,t_struct(DirectOwner)4275_storage)"
      },
      {
        "astId": 4649,
        "contract": "contracts/token/MEP1002Token.sol:MEP1002Token",
        "label": "_activeChildren",
        "offset": 0,
        "slot": "206",
        "type": "t_mapping(t_uint256,t_array(t_struct(Child)4328_storage)dyn_storage)"
      },
      {
        "astId": 4655,
        "contract": "contracts/token/MEP1002Token.sol:MEP1002Token",
        "label": "_pendingChildren",
        "offset": 0,
        "slot": "207",
        "type": "t_mapping(t_uint256,t_array(t_struct(Child)4328_storage)dyn_storage)"
      },
      {
        "astId": 4661,
        "contract": "contracts/token/MEP1002Token.sol:MEP1002Token",
        "label": "_childIsInActive",
        "offset": 0,
        "slot": "208",
        "type": "t_mapping(t_address,t_mapping(t_uint256,t_uint256))"
      },
      {
        "astId": 4665,
        "contract": "contracts/token/MEP1002Token.sol:MEP1002Token",
        "label": "tokenNames",
        "offset": 0,
        "slot": "209",
        "type": "t_mapping(t_uint256,t_string_storage)"
      },
      {
        "astId": 4667,
        "contract": "contracts/token/MEP1002Token.sol:MEP1002Token",
        "label": "_name",
        "offset": 0,
        "slot": "210",
        "type": "t_string_storage"
      },
      {
        "astId": 4669,
        "contract": "contracts/token/MEP1002Token.sol:MEP1002Token",
        "label": "_symbol",
        "offset": 0,
        "slot": "211",
        "type": "t_string_storage"
      },
      {
        "astId": 4672,
        "contract": "contracts/token/MEP1002Token.sol:MEP1002Token",
        "label": "_tokenIds",
        "offset": 0,
        "slot": "212",
        "type": "t_struct(Counter)2822_storage"
      },
      {
        "astId": 4674,
        "contract": "contracts/token/MEP1002Token.sol:MEP1002Token",
        "label": "_baseUri",
        "offset": 0,
        "slot": "213",
        "type": "t_string_storage"
      },
      {
        "astId": 4676,
        "contract": "contracts/token/MEP1002Token.sol:MEP1002Token",
        "label": "_namingToken",
        "offset": 0,
        "slot": "214",
        "type": "t_address"
      },
      {
        "astId": 4678,
        "contract": "contracts/token/MEP1002Token.sol:MEP1002Token",
        "label": "_mnsToken",
        "offset": 0,
        "slot": "215",
        "type": "t_address"
      },
      {
        "astId": 7361,
        "contract": "contracts/token/MEP1002Token.sol:MEP1002Token",
        "label": "__gap",
        "offset": 0,
        "slot": "216",
        "type": "t_array(t_uint256)34_storage"
      }
    ],
    "types": {
      "t_address": {
        "encoding": "inplace",
        "label": "address",
        "numberOfBytes": "20"
      },
      "t_array(t_struct(Child)4328_storage)dyn_storage": {
        "base": "t_struct(Child)4328_storage",
        "encoding": "dynamic_array",
        "label": "struct IERC6059.Child[]",
        "numberOfBytes": "32"
      },
      "t_array(t_uint256)34_storage": {
        "base": "t_uint256",
        "encoding": "inplace",
        "label": "uint256[34]",
        "numberOfBytes": "1088"
      },
      "t_array(t_uint256)49_storage": {
        "base": "t_uint256",
        "encoding": "inplace",
        "label": "uint256[49]",
        "numberOfBytes": "1568"
      },
      "t_array(t_uint256)50_storage": {
        "base": "t_uint256",
        "encoding": "inplace",
        "label": "uint256[50]",
        "numberOfBytes": "1600"
      },
      "t_bool": {
        "encoding": "inplace",
        "label": "bool",
        "numberOfBytes": "1"
      },
      "t_mapping(t_address,t_address)": {
        "encoding": "mapping",
        "key": "t_address",
        "label": "mapping(address => address)",
        "numberOfBytes": "32",
        "value": "t_address"
      },
      "t_mapping(t_address,t_bool)": {
        "encoding": "mapping",
        "key": "t_address",
        "label": "mapping(address => bool)",
        "numberOfBytes": "32",
        "value": "t_bool"
      },
      "t_mapping(t_address,t_mapping(t_address,t_bool))": {
        "encoding": "mapping",
        "key": "t_address",
        "label": "mapping(address => mapping(address => bool))",
        "numberOfBytes": "32",
        "value": "t_mapping(t_address,t_bool)"
      },
      "t_mapping(t_address,t_mapping(t_uint256,t_uint256))": {
        "encoding": "mapping",
        "key": "t_address",
        "label": "mapping(address => mapping(uint256 => uint256))",
        "numberOfBytes": "32",
        "value": "t_mapping(t_uint256,t_uint256)"
      },
      "t_mapping(t_address,t_uint256)": {
        "encoding": "mapping",
        "key": "t_address",
        "label": "mapping(address => uint256)",
        "numberOfBytes": "32",
        "value": "t_uint256"
      },
      "t_mapping(t_uint256,t_array(t_struct(Child)4328_storage)dyn_storage)": {
        "encoding": "mapping",
        "key": "t_uint256",
        "label": "mapping(uint256 => struct IERC6059.Child[])",
        "numberOfBytes": "32",
        "value": "t_array(t_struct(Child)4328_storage)dyn_storage"
      },
      "t_mapping(t_uint256,t_mapping(t_address,t_address))": {
        "encoding": "mapping",
        "key": "t_uint256",
        "label": "mapping(uint256 => mapping(address => address))",
        "numberOfBytes": "32",
        "value": "t_mapping(t_address,t_address)"
      },
      "t_mapping(t_uint256,t_string_storage)": {
        "encoding": "mapping",
        "key": "t_uint256",
        "label": "mapping(uint256 => string)",
        "numberOfBytes": "32",
        "value": "t_string_storage"
      },
      "t_mapping(t_uint256,t_struct(DirectOwner)4275_storage)": {
        "encoding": "mapping",
        "key": "t_uint256",
        "label": "mapping(uint256 => struct IERC6059.DirectOwner)",
        "numberOfBytes": "32",
        "value": "t_struct(DirectOwner)4275_storage"
      },
      "t_mapping(t_uint256,t_uint256)": {
        "encoding": "mapping",
        "key": "t_uint256",
        "label": "mapping(uint256 => uint256)",
        "numberOfBytes": "32",
        "value": "t_uint256"
      },
      "t_string_storage": {
        "encoding": "bytes",
        "label": "string",
        "numberOfBytes": "32"
      },
      "t_struct(Child)4328_storage": {
        "encoding": "inplace",
        "label": "struct IERC6059.Child",
        "members": [
          {
            "astId": 4325,
            "contract": "contracts/token/MEP1002Token.sol:MEP1002Token",
            "label": "tokenId",
            "offset": 0,
            "slot": "0",
            "type": "t_uint256"
          },
          {
            "astId": 4327,
            "contract": "contracts/token/MEP1002Token.sol:MEP1002Token",
            "label": "contractAddress",
            "offset": 0,
            "slot": "1",
            "type": "t_address"
          }
        ],
        "numberOfBytes": "64"
      },
      "t_struct(Counter)2822_storage": {
        "encoding": "inplace",
        "label": "struct Counters.Counter",
        "members": [
          {
            "astId": 2821,
            "contract": "contracts/token/MEP1002Token.sol:MEP1002Token",
            "label": "_value",
            "offset": 0,
            "slot": "0",
            "type": "t_uint256"
          }
        ],
        "numberOfBytes": "32"
      },
      "t_struct(DirectOwner)4275_storage": {
        "encoding": "inplace",
        "label": "struct IERC6059.DirectOwner",
        "members": [
          {
            "astId": 4272,
            "contract": "contracts/token/MEP1002Token.sol:MEP1002Token",
            "label": "tokenId",
            "offset": 0,
            "slot": "0",
            "type": "t_uint256"
          },
          {
            "astId": 4274,
            "contract": "contracts/token/MEP1002Token.sol:MEP1002Token",
            "label": "ownerAddress",
            "offset": 0,
            "slot": "1",
            "type": "t_address"
          }
        ],
        "numberOfBytes": "64"
      },
      "t_uint256": {
        "encoding": "inplace",
        "label": "uint256",
        "numberOfBytes": "32"
      },
      "t_uint8": {
        "encoding": "inplace",
        "label": "uint8",
        "numberOfBytes": "1"
      }
    }
  }
}