{
  "address": "0x172EB62a4Cab82735d9615666B5Da583bfDBfD19",
  "abi": [
    {
      "inputs": [],
      "name": "AlreadyInsertOtherSlot",
      "type": "error"
    },
    {
      "inputs": [],
      "name": "ERC721InvalidTokenId",
      "type": "error"
    },
    {
      "inputs": [],
      "name": "ERC721NotApprovedOrOwner",
      "type": "error"
    },
    {
      "inputs": [],
      "name": "ERC721TokenAlreadyMinted",
      "type": "error"
    },
    {
      "inputs": [],
      "name": "ExceedSlotLimit",
      "type": "error"
    },
    {
      "inputs": [],
      "name": "InsufficientFee",
      "type": "error"
    },
    {
      "inputs": [],
      "name": "NoDebt",
      "type": "error"
    },
    {
      "inputs": [],
      "name": "NoNamingPermission",
      "type": "error"
    },
    {
      "inputs": [],
      "name": "NotCorrectSlotIndex",
      "type": "error"
    },
    {
      "inputs": [],
      "name": "ProofProverLessThanRequired",
      "type": "error"
    },
    {
      "inputs": [],
      "name": "SNCodeNotAllow",
      "type": "error"
    },
    {
      "inputs": [],
      "name": "SlotAlreadyUsed",
      "type": "error"
    },
    {
      "inputs": [],
      "name": "StatusNotAllow",
      "type": "error"
    },
    {
      "anonymous": false,
      "inputs": [
        {
          "indexed": false,
          "internalType": "address",
          "name": "previousAdmin",
          "type": "address"
        },
        {
          "indexed": false,
          "internalType": "address",
          "name": "newAdmin",
          "type": "address"
        }
      ],
      "name": "AdminChanged",
      "type": "event"
    },
    {
      "anonymous": false,
      "inputs": [
        {
          "indexed": true,
          "internalType": "address",
          "name": "owner",
          "type": "address"
        },
        {
          "indexed": true,
          "internalType": "address",
          "name": "approved",
          "type": "address"
        },
        {
          "indexed": true,
          "internalType": "uint256",
          "name": "tokenId",
          "type": "uint256"
        }
      ],
      "name": "Approval",
      "type": "event"
    },
    {
      "anonymous": false,
      "inputs": [
        {
          "indexed": true,
          "internalType": "address",
          "name": "owner",
          "type": "address"
        },
        {
          "indexed": true,
          "internalType": "address",
          "name": "operator",
          "type": "address"
        },
        {
          "indexed": false,
          "internalType": "bool",
          "name": "approved",
          "type": "bool"
        }
      ],
      "name": "ApprovalForAll",
      "type": "event"
    },
    {
      "anonymous": false,
      "inputs": [
        {
          "indexed": true,
          "internalType": "address",
          "name": "beacon",
          "type": "address"
        }
      ],
      "name": "BeaconUpgraded",
      "type": "event"
    },
    {
      "anonymous": false,
      "inputs": [
        {
          "indexed": true,
          "internalType": "address",
          "name": "controller",
          "type": "address"
        },
        {
          "indexed": false,
          "internalType": "bool",
          "name": "enabled",
          "type": "bool"
        }
      ],
      "name": "ControllerChanged",
      "type": "event"
    },
    {
      "anonymous": false,
      "inputs": [
        {
          "indexed": false,
          "internalType": "uint8",
          "name": "version",
          "type": "uint8"
        }
      ],
      "name": "Initialized",
      "type": "event"
    },
    {
      "anonymous": false,
      "inputs": [
        {
          "indexed": true,
          "internalType": "uint256",
          "name": "MEP1002TokenId",
          "type": "uint256"
        },
        {
          "indexed": true,
          "internalType": "uint256",
          "name": "MEP1004TokenId",
          "type": "uint256"
        },
        {
          "indexed": true,
          "internalType": "uint256",
          "name": "slotIndex",
          "type": "uint256"
        },
        {
          "indexed": false,
          "internalType": "uint256",
          "name": "SNCodeType",
          "type": "uint256"
        }
      ],
      "name": "InsertToMEP1002Slot",
      "type": "event"
    },
    {
      "anonymous": false,
      "inputs": [
        {
          "indexed": true,
          "internalType": "uint256",
          "name": "tokenId",
          "type": "uint256"
        },
        {
          "indexed": false,
          "internalType": "string",
          "name": "name",
          "type": "string"
        }
      ],
      "name": "MEP1004TokenUpdateName",
      "type": "event"
    },
    {
      "anonymous": false,
      "inputs": [
        {
          "indexed": true,
          "internalType": "uint256",
          "name": "MEP1002TokenId",
          "type": "uint256"
        },
        {
          "indexed": false,
          "internalType": "string",
          "name": "item",
          "type": "string"
        },
        {
          "components": [
            {
              "internalType": "uint256",
              "name": "MEP1002TokenId",
              "type": "uint256"
            },
            {
              "internalType": "uint256[]",
              "name": "MEP1004TokenIds",
              "type": "uint256[]"
            },
            {
              "internalType": "string",
              "name": "item",
              "type": "string"
            },
            {
              "internalType": "uint256",
              "name": "timestamp",
              "type": "uint256"
            }
          ],
          "indexed": false,
          "internalType": "struct IMEP1004.LocationProof",
          "name": "locationProof",
          "type": "tuple"
        }
      ],
      "name": "NewLocationProof",
      "type": "event"
    },
    {
      "anonymous": false,
      "inputs": [
        {
          "indexed": true,
          "internalType": "address",
          "name": "previousOwner",
          "type": "address"
        },
        {
          "indexed": true,
          "internalType": "address",
          "name": "newOwner",
          "type": "address"
        }
      ],
      "name": "OwnershipTransferred",
      "type": "event"
    },
    {
      "anonymous": false,
      "inputs": [
        {
          "indexed": true,
          "internalType": "uint256",
          "name": "MEP1002TokenId",
          "type": "uint256"
        },
        {
          "indexed": true,
          "internalType": "uint256",
          "name": "MEP1004TokenId",
          "type": "uint256"
        },
        {
          "indexed": true,
          "internalType": "uint256",
          "name": "slotIndex",
          "type": "uint256"
        },
        {
          "indexed": false,
          "internalType": "uint256",
          "name": "SNCodeType",
          "type": "uint256"
        }
      ],
      "name": "RemoveFromMEP1002Slot",
      "type": "event"
    },
    {
      "anonymous": false,
      "inputs": [
        {
          "indexed": true,
          "internalType": "address",
          "name": "from",
          "type": "address"
        },
        {
          "indexed": true,
          "internalType": "address",
          "name": "to",
          "type": "address"
        },
        {
          "indexed": true,
          "internalType": "uint256",
          "name": "tokenId",
          "type": "uint256"
        }
      ],
      "name": "Transfer",
      "type": "event"
    },
    {
      "anonymous": false,
      "inputs": [
        {
          "indexed": true,
          "internalType": "address",
          "name": "implementation",
          "type": "address"
        }
      ],
      "name": "Upgraded",
      "type": "event"
    },
    {
      "inputs": [
        {
          "internalType": "uint256",
          "name": "_MEP1002TokenId",
          "type": "uint256"
        },
        {
          "internalType": "uint256[]",
          "name": "_MEP1004TokenIds",
          "type": "uint256[]"
        },
        {
          "internalType": "string",
          "name": "_item",
          "type": "string"
        }
      ],
      "name": "LocationProofs",
      "outputs": [],
      "stateMutability": "nonpayable",
      "type": "function"
    },
    {
      "inputs": [
        {
          "internalType": "address",
          "name": "_admin",
          "type": "address"
        }
      ],
      "name": "__Controllable_init",
      "outputs": [],
      "stateMutability": "nonpayable",
      "type": "function"
    },
    {
      "inputs": [
        {
          "internalType": "address",
          "name": "to",
          "type": "address"
        },
        {
          "internalType": "uint256",
          "name": "tokenId",
          "type": "uint256"
        }
      ],
      "name": "approve",
      "outputs": [],
      "stateMutability": "nonpayable",
      "type": "function"
    },
    {
      "inputs": [
        {
          "internalType": "address",
          "name": "owner",
          "type": "address"
        }
      ],
      "name": "balanceOf",
      "outputs": [
        {
          "internalType": "uint256",
          "name": "",
          "type": "uint256"
        }
      ],
      "stateMutability": "view",
      "type": "function"
    },
    {
      "inputs": [
        {
          "internalType": "address",
          "name": "",
          "type": "address"
        }
      ],
      "name": "controllers",
      "outputs": [
        {
          "internalType": "bool",
          "name": "",
          "type": "bool"
        }
      ],
      "stateMutability": "view",
      "type": "function"
    },
    {
      "inputs": [
        {
          "internalType": "uint256",
          "name": "tokenId",
          "type": "uint256"
        }
      ],
      "name": "getApproved",
      "outputs": [
        {
          "internalType": "address",
          "name": "",
          "type": "address"
        }
      ],
      "stateMutability": "view",
      "type": "function"
    },
    {
      "inputs": [],
      "name": "getBalance",
      "outputs": [
        {
          "internalType": "uint256",
          "name": "",
          "type": "uint256"
        }
      ],
      "stateMutability": "view",
      "type": "function"
    },
    {
      "inputs": [],
      "name": "getExitFee",
      "outputs": [
        {
          "internalType": "uint256",
          "name": "",
          "type": "uint256"
        }
      ],
      "stateMutability": "view",
      "type": "function"
    },
    {
      "inputs": [
        {
          "internalType": "string",
          "name": "_item",
          "type": "string"
        },
        {
          "internalType": "uint256",
          "name": "_index",
          "type": "uint256"
        },
        {
          "internalType": "uint256",
          "name": "_batchSize",
          "type": "uint256"
        }
      ],
      "name": "getLocationProofs",
      "outputs": [
        {
          "components": [
            {
              "internalType": "uint256",
              "name": "MEP1002TokenId",
              "type": "uint256"
            },
            {
              "internalType": "uint256[]",
              "name": "MEP1004TokenIds",
              "type": "uint256[]"
            },
            {
              "internalType": "string",
              "name": "item",
              "type": "string"
            },
            {
              "internalType": "uint256",
              "name": "timestamp",
              "type": "uint256"
            }
          ],
          "internalType": "struct IMEP1004.LocationProof[]",
          "name": "",
          "type": "tuple[]"
        }
      ],
      "stateMutability": "view",
      "type": "function"
    },
    {
      "inputs": [
        {
          "internalType": "uint256",
          "name": "_tokenId",
          "type": "uint256"
        }
      ],
      "name": "getSNCode",
      "outputs": [
        {
          "internalType": "string",
          "name": "",
          "type": "string"
        }
      ],
      "stateMutability": "view",
      "type": "function"
    },
    {
      "inputs": [
        {
          "internalType": "uint256",
          "name": "_tokenId",
          "type": "uint256"
        }
      ],
      "name": "getStatus",
      "outputs": [
        {
          "internalType": "uint256",
          "name": "",
          "type": "uint256"
        }
      ],
      "stateMutability": "view",
      "type": "function"
    },
    {
      "inputs": [
        {
          "internalType": "string",
          "name": "name_",
          "type": "string"
        },
        {
          "internalType": "string",
          "name": "symbol_",
          "type": "string"
        },
        {
          "internalType": "address",
          "name": "_admin",
          "type": "address"
        }
      ],
      "name": "initialize",
      "outputs": [],
      "stateMutability": "nonpayable",
      "type": "function"
    },
    {
      "inputs": [
        {
          "internalType": "uint256",
          "name": "_tokenId",
          "type": "uint256"
        },
        {
          "internalType": "uint256",
          "name": "_mep1002Id",
          "type": "uint256"
        },
        {
          "internalType": "uint256",
          "name": "_slotIndex",
          "type": "uint256"
        }
      ],
      "name": "insertToMEP1002Slot",
      "outputs": [],
      "stateMutability": "nonpayable",
      "type": "function"
    },
    {
      "inputs": [
        {
          "internalType": "address",
          "name": "owner",
          "type": "address"
        },
        {
          "internalType": "address",
          "name": "operator",
          "type": "address"
        }
      ],
      "name": "isApprovedForAll",
      "outputs": [
        {
          "internalType": "bool",
          "name": "",
          "type": "bool"
        }
      ],
      "stateMutability": "view",
      "type": "function"
    },
    {
      "inputs": [
        {
          "internalType": "string",
          "name": "_item",
          "type": "string"
        }
      ],
      "name": "latestLocationProofs",
      "outputs": [
        {
          "components": [
            {
              "internalType": "uint256",
              "name": "MEP1002TokenId",
              "type": "uint256"
            },
            {
              "internalType": "uint256[]",
              "name": "MEP1004TokenIds",
              "type": "uint256[]"
            },
            {
              "internalType": "string",
              "name": "item",
              "type": "string"
            },
            {
              "internalType": "uint256",
              "name": "timestamp",
              "type": "uint256"
            }
          ],
          "internalType": "struct IMEP1004.LocationProof",
          "name": "",
          "type": "tuple"
        }
      ],
      "stateMutability": "view",
      "type": "function"
    },
    {
      "inputs": [
        {
          "internalType": "address",
          "name": "to",
          "type": "address"
        },
        {
          "internalType": "string",
          "name": "_SNCode",
          "type": "string"
        }
      ],
      "name": "mint",
      "outputs": [],
      "stateMutability": "nonpayable",
      "type": "function"
    },
    {
      "inputs": [],
      "name": "name",
      "outputs": [
        {
          "internalType": "string",
          "name": "",
          "type": "string"
        }
      ],
      "stateMutability": "view",
      "type": "function"
    },
    {
      "inputs": [
        {
          "internalType": "uint256",
          "name": "_mep1002Id",
          "type": "uint256"
        }
      ],
      "name": "numInsertedSlots",
      "outputs": [
        {
          "internalType": "uint256[]",
          "name": "",
          "type": "uint256[]"
        }
      ],
      "stateMutability": "view",
      "type": "function"
    },
    {
      "inputs": [],
      "name": "owner",
      "outputs": [
        {
          "internalType": "address",
          "name": "",
          "type": "address"
        }
      ],
      "stateMutability": "view",
      "type": "function"
    },
    {
      "inputs": [
        {
          "internalType": "uint256",
          "name": "tokenId",
          "type": "uint256"
        }
      ],
      "name": "ownerOf",
      "outputs": [
        {
          "internalType": "address",
          "name": "",
          "type": "address"
        }
      ],
      "stateMutability": "view",
      "type": "function"
    },
    {
      "inputs": [
        {
          "internalType": "uint256",
          "name": "_tokenId",
          "type": "uint256"
        }
      ],
      "name": "payExitFee",
      "outputs": [],
      "stateMutability": "payable",
      "type": "function"
    },
    {
      "inputs": [],
      "name": "proxiableUUID",
      "outputs": [
        {
          "internalType": "bytes32",
          "name": "",
          "type": "bytes32"
        }
      ],
      "stateMutability": "view",
      "type": "function"
    },
    {
      "inputs": [
        {
          "internalType": "uint256",
          "name": "_tokenId",
          "type": "uint256"
        },
        {
          "internalType": "uint256",
          "name": "_mep1002Id",
          "type": "uint256"
        },
        {
          "internalType": "uint256",
          "name": "_slotIndex",
          "type": "uint256"
        }
      ],
      "name": "removeFromMEP1002Slot",
      "outputs": [],
      "stateMutability": "payable",
      "type": "function"
    },
    {
      "inputs": [
        {
          "internalType": "uint256",
          "name": "_tokenId",
          "type": "uint256"
        },
        {
          "internalType": "uint256",
          "name": "_mep1002Id",
          "type": "uint256"
        },
        {
          "internalType": "uint256",
          "name": "_slotIndex",
          "type": "uint256"
        }
      ],
      "name": "removeFromMEP1002SlotAdmin",
      "outputs": [],
      "stateMutability": "nonpayable",
      "type": "function"
    },
    {
      "inputs": [],
      "name": "renounceOwnership",
      "outputs": [],
      "stateMutability": "nonpayable",
      "type": "function"
    },
    {
      "inputs": [
        {
          "internalType": "uint256",
          "name": "_tokenId",
          "type": "uint256"
        }
      ],
      "name": "resetName",
      "outputs": [],
      "stateMutability": "nonpayable",
      "type": "function"
    },
    {
      "inputs": [
        {
          "internalType": "address",
          "name": "from",
          "type": "address"
        },
        {
          "internalType": "address",
          "name": "to",
          "type": "address"
        },
        {
          "internalType": "uint256",
          "name": "tokenId",
          "type": "uint256"
        }
      ],
      "name": "safeTransferFrom",
      "outputs": [],
      "stateMutability": "nonpayable",
      "type": "function"
    },
    {
      "inputs": [
        {
          "internalType": "address",
          "name": "from",
          "type": "address"
        },
        {
          "internalType": "address",
          "name": "to",
          "type": "address"
        },
        {
          "internalType": "uint256",
          "name": "tokenId",
          "type": "uint256"
        },
        {
          "internalType": "bytes",
          "name": "data",
          "type": "bytes"
        }
      ],
      "name": "safeTransferFrom",
      "outputs": [],
      "stateMutability": "nonpayable",
      "type": "function"
    },
    {
      "inputs": [
        {
          "internalType": "address",
          "name": "operator",
          "type": "address"
        },
        {
          "internalType": "bool",
          "name": "approved",
          "type": "bool"
        }
      ],
      "name": "setApprovalForAll",
      "outputs": [],
      "stateMutability": "nonpayable",
      "type": "function"
    },
    {
      "inputs": [
        {
          "internalType": "string",
          "name": "baseURI_",
          "type": "string"
        }
      ],
      "name": "setBaseURI",
      "outputs": [],
      "stateMutability": "nonpayable",
      "type": "function"
    },
    {
      "inputs": [
        {
          "internalType": "address",
          "name": "controller",
          "type": "address"
        },
        {
          "internalType": "bool",
          "name": "enabled",
          "type": "bool"
        }
      ],
      "name": "setController",
      "outputs": [],
      "stateMutability": "nonpayable",
      "type": "function"
    },
    {
      "inputs": [
        {
          "internalType": "uint256",
          "name": "exitFee_",
          "type": "uint256"
        }
      ],
      "name": "setExitFee",
      "outputs": [],
      "stateMutability": "nonpayable",
      "type": "function"
    },
    {
      "inputs": [
        {
          "internalType": "address",
          "name": "MEP1002Addr_",
          "type": "address"
        }
      ],
      "name": "setMEP1002Addr",
      "outputs": [],
      "stateMutability": "nonpayable",
      "type": "function"
    },
    {
      "inputs": [
        {
          "internalType": "address",
          "name": "mnsToken_",
          "type": "address"
        }
      ],
      "name": "setMNSToken",
      "outputs": [],
      "stateMutability": "nonpayable",
      "type": "function"
    },
    {
      "inputs": [
        {
          "internalType": "uint256",
          "name": "_tokenId",
          "type": "uint256"
        },
        {
          "internalType": "uint256",
          "name": "_nameWrapperTokenId",
          "type": "uint256"
        }
      ],
      "name": "setName",
      "outputs": [],
      "stateMutability": "nonpayable",
      "type": "function"
    },
    {
      "inputs": [
        {
          "internalType": "uint256[]",
          "name": "slotLimits_",
          "type": "uint256[]"
        }
      ],
      "name": "setSlotLimit",
      "outputs": [],
      "stateMutability": "nonpayable",
      "type": "function"
    },
    {
      "inputs": [],
      "name": "slotLimits",
      "outputs": [
        {
          "internalType": "uint256[]",
          "name": "",
          "type": "uint256[]"
        }
      ],
      "stateMutability": "view",
      "type": "function"
    },
    {
      "inputs": [
        {
          "internalType": "bytes4",
          "name": "interfaceId",
          "type": "bytes4"
        }
      ],
      "name": "supportsInterface",
      "outputs": [
        {
          "internalType": "bool",
          "name": "",
          "type": "bool"
        }
      ],
      "stateMutability": "view",
      "type": "function"
    },
    {
      "inputs": [],
      "name": "symbol",
      "outputs": [
        {
          "internalType": "string",
          "name": "",
          "type": "string"
        }
      ],
      "stateMutability": "view",
      "type": "function"
    },
    {
      "inputs": [
        {
          "internalType": "uint256",
          "name": "index",
          "type": "uint256"
        }
      ],
      "name": "tokenByIndex",
      "outputs": [
        {
          "internalType": "uint256",
          "name": "",
          "type": "uint256"
        }
      ],
      "stateMutability": "view",
      "type": "function"
    },
    {
      "inputs": [
        {
          "internalType": "uint256",
          "name": "_tokenId",
          "type": "uint256"
        }
      ],
      "name": "tokenNames",
      "outputs": [
        {
          "internalType": "string",
          "name": "",
          "type": "string"
        }
      ],
      "stateMutability": "view",
      "type": "function"
    },
    {
      "inputs": [
        {
          "internalType": "address",
          "name": "owner",
          "type": "address"
        },
        {
          "internalType": "uint256",
          "name": "index",
          "type": "uint256"
        }
      ],
      "name": "tokenOfOwnerByIndex",
      "outputs": [
        {
          "internalType": "uint256",
          "name": "",
          "type": "uint256"
        }
      ],
      "stateMutability": "view",
      "type": "function"
    },
    {
      "inputs": [
        {
          "internalType": "uint256",
          "name": "_tokenId",
          "type": "uint256"
        }
      ],
      "name": "tokenURI",
      "outputs": [
        {
          "internalType": "string",
          "name": "",
          "type": "string"
        }
      ],
      "stateMutability": "view",
      "type": "function"
    },
    {
      "inputs": [],
      "name": "totalSupply",
      "outputs": [
        {
          "internalType": "uint256",
          "name": "",
          "type": "uint256"
        }
      ],
      "stateMutability": "view",
      "type": "function"
    },
    {
      "inputs": [
        {
          "internalType": "address",
          "name": "from",
          "type": "address"
        },
        {
          "internalType": "address",
          "name": "to",
          "type": "address"
        },
        {
          "internalType": "uint256",
          "name": "tokenId",
          "type": "uint256"
        }
      ],
      "name": "transferFrom",
      "outputs": [],
      "stateMutability": "nonpayable",
      "type": "function"
    },
    {
      "inputs": [
        {
          "internalType": "address",
          "name": "newOwner",
          "type": "address"
        }
      ],
      "name": "transferOwnership",
      "outputs": [],
      "stateMutability": "nonpayable",
      "type": "function"
    },
    {
      "inputs": [
        {
          "internalType": "address",
          "name": "newImplementation",
          "type": "address"
        }
      ],
      "name": "upgradeTo",
      "outputs": [],
      "stateMutability": "nonpayable",
      "type": "function"
    },
    {
      "inputs": [
        {
          "internalType": "address",
          "name": "newImplementation",
          "type": "address"
        },
        {
          "internalType": "bytes",
          "name": "data",
          "type": "bytes"
        }
      ],
      "name": "upgradeToAndCall",
      "outputs": [],
      "stateMutability": "payable",
      "type": "function"
    },
    {
      "inputs": [
        {
          "internalType": "uint256",
          "name": "_tokenId",
          "type": "uint256"
        }
      ],
      "name": "whereSlot",
      "outputs": [
        {
          "internalType": "uint256[3]",
          "name": "",
          "type": "uint256[3]"
        }
      ],
      "stateMutability": "view",
      "type": "function"
    },
    {
      "inputs": [],
      "name": "withdrawal",
      "outputs": [],
      "stateMutability": "nonpayable",
      "type": "function"
    }
  ],
  "transactionHash": "0xb8dff1650dd3e409dcb4f51741b962fe87388e7b46599f4fc383433151a9ae31",
  "args": [],
  "numDeployments": 3,
  "solcInputHash": "31e86350016b0cc3c5cec83c61c71655",
  "bytecode": "0x60a06040523060805234801561001457600080fd5b506080516159a36200004d600039600081816111c60152818161125c015281816117860152818161181c01526119d901526159a36000f3fe6080604052600436106103295760003560e01c80636895395c116101a5578063a868ec85116100ec578063da8c229e11610095578063e985e9c51161006f578063e985e9c51461090e578063ecb0116a14610957578063ee0d1e591461096d578063f2fde38b1461098257600080fd5b8063da8c229e1461089e578063e0dba60f146108ce578063e5a583a9146108ee57600080fd5b8063c87b56dd116100c6578063c87b56dd14610849578063d0def52114610869578063d4e932921461088957600080fd5b8063a868ec85146107f6578063af3aa12a14610816578063b88d4fde1461082957600080fd5b80638dcc21571161014e5780639f4480aa116101285780639f4480aa14610796578063a0fe0f51146107b6578063a22cb465146107d657600080fd5b80638dcc21571461073457806395a667671461075457806395d89b411461078157600080fd5b8063715018a61161017f578063715018a6146106ee57806389aadd39146107035780638da5cb5b1461071657600080fd5b80636895395c1461068e578063707b0379146106ae57806370a08231146106ce57600080fd5b8063310495ab116102745780634f6ccce71161021d57806355f804b3116101f757806355f804b3146105f35780635c622a0e146106135780635fdaedf4146106415780636352211e1461066e57600080fd5b80634f6ccce71461059e57806352021704146105be57806352d1902d146105de57600080fd5b806342842e0e1161024e57806342842e0e1461053e578063429f90011461055e5780634f1ef2861461058b57600080fd5b8063310495ab146104de5780633659cfe6146104fe57806337ef0a881461051e57600080fd5b806317af1318116102d6578063259f6c45116102b0578063259f6c45146104715780632828adb21461049e5780632f745c59146104be57600080fd5b806317af13181461041c57806318160ddd1461043c57806323b872dd1461045157600080fd5b8063081812fc11610307578063081812fc146103a7578063095ea7b3146103df57806312065fe0146103ff57600080fd5b806301ffc9a71461032e57806306fdde0314610363578063077f224a14610385575b600080fd5b34801561033a57600080fd5b5061034e610349366004614d76565b6109a2565b60405190151581526020015b60405180910390f35b34801561036f57600080fd5b506103786109fe565b60405161035a9190614de3565b34801561039157600080fd5b506103a56103a0366004614ee9565b610a90565b005b3480156103b357600080fd5b506103c76103c2366004614f61565b610cdb565b6040516001600160a01b03909116815260200161035a565b3480156103eb57600080fd5b506103a56103fa366004614f7a565b610d02565b34801561040b57600080fd5b50475b60405190815260200161035a565b34801561042857600080fd5b506103a5610437366004614fa6565b610e33565b34801561044857600080fd5b5060995461040e565b34801561045d57600080fd5b506103a561046c366004614fc3565b610ef3565b34801561047d57600080fd5b5061049161048c366004614f61565b610f7b565b60405161035a9190615004565b3480156104aa57600080fd5b506103a56104b9366004614f61565b610fc5565b3480156104ca57600080fd5b5061040e6104d9366004614f7a565b61107b565b3480156104ea57600080fd5b506103786104f9366004614f61565b611123565b34801561050a57600080fd5b506103a5610519366004614fa6565b6111bc565b34801561052a57600080fd5b506103a56105393660046150b5565b611359565b34801561054a57600080fd5b506103a5610559366004614fc3565b6115bc565b34801561056a57600080fd5b5061057e610579366004615122565b6115d7565b60405161035a91906151e1565b6103a56105993660046151f4565b61177c565b3480156105aa57600080fd5b5061040e6105b9366004614f61565b61190a565b3480156105ca57600080fd5b506103786105d9366004614f61565b6119ae565b3480156105ea57600080fd5b5061040e6119cc565b3480156105ff57600080fd5b506103a561060e366004615122565b611a91565b34801561061f57600080fd5b5061040e61062e366004614f61565b6000908152610164602052604090205490565b34801561064d57600080fd5b5061066161065c366004614f61565b611b23565b60405161035a9190615244565b34801561067a57600080fd5b506103c7610689366004614f61565b611c21565b34801561069a57600080fd5b506103a56106a9366004614fa6565b611c86565b3480156106ba57600080fd5b506103a56106c9366004615257565b611d46565b3480156106da57600080fd5b5061040e6106e9366004614fa6565b6121a7565b3480156106fa57600080fd5b506103a5612241565b6103a5610711366004614f61565b612255565b34801561072257600080fd5b5060c9546001600160a01b03166103c7565b34801561074057600080fd5b506103a561074f366004615257565b61232c565b34801561076057600080fd5b5061077461076f366004615283565b61252e565b60405161035a91906152d1565b34801561078d57600080fd5b506103786128c0565b3480156107a257600080fd5b506103a56107b1366004615351565b6128cf565b3480156107c257600080fd5b506103a56107d1366004614fa6565b612968565b3480156107e257600080fd5b506103a56107f1366004615386565b612a44565b34801561080257600080fd5b506103a56108113660046153c4565b612a4f565b6103a5610824366004615257565b612c81565b34801561083557600080fd5b506103a56108443660046153e6565b612e35565b34801561085557600080fd5b50610378610864366004614f61565b612ec2565b34801561087557600080fd5b506103a56108843660046151f4565b612f39565b34801561089557600080fd5b506103a56130be565b3480156108aa57600080fd5b5061034e6108b9366004614fa6565b60fb6020526000908152604090205460ff1681565b3480156108da57600080fd5b506103a56108e9366004615386565b61316f565b3480156108fa57600080fd5b506103a5610909366004614f61565b613253565b34801561091a57600080fd5b5061034e610929366004615452565b6001600160a01b039182166000908152606a6020908152604080832093909416825291909152205460ff1690565b34801561096357600080fd5b5061016a5461040e565b34801561097957600080fd5b506106616132de565b34801561098e57600080fd5b506103a561099d366004614fa6565b613336565b60007fffffffff0000000000000000000000000000000000000000000000000000000082167f780e9d630000000000000000000000000000000000000000000000000000000014806109f857506109f8826133e7565b92915050565b606060658054610a0d90615480565b80601f0160208091040260200160405190810160405280929190818152602001828054610a3990615480565b8015610a865780601f10610a5b57610100808354040283529160200191610a86565b820191906000526020600020905b815481529060010190602001808311610a6957829003601f168201915b5050505050905090565b6000610aba7fb53127684a568b3173ae13b9f8a6016e243e63b6e8ee1178d6a717850b5d61035490565b90506001600160a01b038116610af9576001600160a01b037fb53127684a568b3173ae13b9f8a6016e243e63b6e8ee1178d6a717850b5d610355610b0e565b336001600160a01b03821614610b0e57600080fd5b600054610100900460ff1615808015610b2e5750600054600160ff909116105b80610b485750303b158015610b48575060005460ff166001145b610bbf5760405162461bcd60e51b815260206004820152602e60248201527f496e697469616c697a61626c653a20636f6e747261637420697320616c72656160448201527f647920696e697469616c697a656400000000000000000000000000000000000060648201526084015b60405180910390fd5b6000805460ff191660011790558015610bff57600080547fffffffffffffffffffffffffffffffffffffffffffffffffffffffffffff00ff166101001790555b610c0883612968565b7fb53127684a568b3173ae13b9f8a6016e243e63b6e8ee1178d6a717850b5d610383905560408051808201909152600a815260326020820152610c5090610169906002614c2b565b506802b5e3af16b188000061016a55610c676134ca565b610c718585613547565b8015610cd457600080547fffffffffffffffffffffffffffffffffffffffffffffffffffffffffffff00ff169055604051600181527f7f26b83ff96e1f2b6a682f133852f6798a09c465da95921460cefb38474024989060200160405180910390a15b5050505050565b6000610ce6826135ce565b506000908152606960205260409020546001600160a01b031690565b6000610d0d82611c21565b9050806001600160a01b0316836001600160a01b031603610d965760405162461bcd60e51b815260206004820152602160248201527f4552433732313a20617070726f76616c20746f2063757272656e74206f776e6560448201527f72000000000000000000000000000000000000000000000000000000000000006064820152608401610bb6565b336001600160a01b0382161480610db25750610db28133610929565b610e245760405162461bcd60e51b815260206004820152603d60248201527f4552433732313a20617070726f76652063616c6c6572206973206e6f7420746f60448201527f6b656e206f776e6572206f7220617070726f76656420666f7220616c6c0000006064820152608401610bb6565b610e2e8383613632565b505050565b33600090815260fb602052604090205460ff16610eb85760405162461bcd60e51b815260206004820152602860248201527f436f6e74726f6c6c61626c653a2043616c6c6572206973206e6f74206120636f60448201527f6e74726f6c6c65720000000000000000000000000000000000000000000000006064820152608401610bb6565b61016780547fffffffffffffffffffffffff0000000000000000000000000000000000000000166001600160a01b0392909216919091179055565b610efe335b826136b8565b610f705760405162461bcd60e51b815260206004820152602d60248201527f4552433732313a2063616c6c6572206973206e6f7420746f6b656e206f776e6560448201527f72206f7220617070726f766564000000000000000000000000000000000000006064820152608401610bb6565b610e2e838383613737565b610f83614c7b565b6000828152610163602052604090819020815160608101928390529160039082845b815481526020019060010190808311610fa5575b50505050509050919050565b610fce33610ef8565b611004576040517f2728a9d000000000000000000000000000000000000000000000000000000000815260040160405180910390fd5b60408051602080820183526000808352848152610165909152919091209061102c9082615521565b50807fa694c601536edf73c60319b0f41192d00bf834d6a2da065dc208ce671aa204c4610165600084815260200190815260200160002060405161107091906155e1565b60405180910390a250565b6000611086836121a7565b82106110fa5760405162461bcd60e51b815260206004820152602b60248201527f455243373231456e756d657261626c653a206f776e657220696e646578206f7560448201527f74206f6620626f756e64730000000000000000000000000000000000000000006064820152608401610bb6565b506001600160a01b03919091166000908152609760209081526040808320938352929052205490565b60008181526101656020526040902080546060919061114190615480565b80601f016020809104026020016040519081016040528092919081815260200182805461116d90615480565b8015610fb95780601f1061118f57610100808354040283529160200191610fb9565b820191906000526020600020905b81548152906001019060200180831161119d5750939695505050505050565b6001600160a01b037f000000000000000000000000000000000000000000000000000000000000000016300361125a5760405162461bcd60e51b815260206004820152602c60248201527f46756e6374696f6e206d7573742062652063616c6c6564207468726f7567682060448201527f64656c656761746563616c6c00000000000000000000000000000000000000006064820152608401610bb6565b7f00000000000000000000000000000000000000000000000000000000000000006001600160a01b03166112b57f360894a13ba1a3210667c828492db98dca3e2076cc3735a920a3ca505d382bbc546001600160a01b031690565b6001600160a01b0316146113315760405162461bcd60e51b815260206004820152602c60248201527f46756e6374696f6e206d7573742062652063616c6c6564207468726f7567682060448201527f6163746976652070726f787900000000000000000000000000000000000000006064820152608401610bb6565b61133a81613985565b604080516000808252602082019092526113569183919061398d565b50565b33600090815260fb602052604090205460ff166113de5760405162461bcd60e51b815260206004820152602860248201527f436f6e74726f6c6c61626c653a2043616c6c6572206973206e6f74206120636f60448201527f6e74726f6c6c65720000000000000000000000000000000000000000000000006064820152608401610bb6565b610168546040517f6352211e000000000000000000000000000000000000000000000000000000008152600481018590526001600160a01b03909116908190636352211e90602401602060405180830381865afa158015611443573d6000803e3d6000fd5b505050506040513d601f19601f82011682018060405250810190611467919061566c565b6001600160a01b0316146114a7576040517f89ba7e1000000000000000000000000000000000000000000000000000000000815260040160405180910390fd5b6003825110156114e3576040517f60dcf25500000000000000000000000000000000000000000000000000000000815260040160405180910390fd5b6040805160808101825284815260208101849052808201839052426060820152905161016090611514908490615689565b9081526040516020918190038201902080546001808201835560009283529183902084516004909202019081558383015180518594929361155a93908501920190614c99565b506040820151600282019061156f9082615521565b50606082015181600301555050837f2e98898a19e958501663f92bcca1fbcd2d69778c64868d0e845c09cf4d0b20ca83836040516115ae9291906156a5565b60405180910390a250505050565b610e2e83838360405180602001604052806000815250612e35565b6116026040518060800160405280600081526020016060815260200160608152602001600081525090565b610160826040516116139190615689565b90815260200160405180910390206001610160846040516116349190615689565b9081526040519081900360200190205461164e91906156f9565b8154811061165e5761165e61570c565b906000526020600020906004020160405180608001604052908160008201548152602001600182018054806020026020016040519081016040528092919081815260200182805480156116d057602002820191906000526020600020905b8154815260200190600101908083116116bc575b505050505081526020016002820180546116e990615480565b80601f016020809104026020016040519081016040528092919081815260200182805461171590615480565b80156117625780601f1061173757610100808354040283529160200191611762565b820191906000526020600020905b81548152906001019060200180831161174557829003601f168201915b505050505081526020016003820154815250509050919050565b6001600160a01b037f000000000000000000000000000000000000000000000000000000000000000016300361181a5760405162461bcd60e51b815260206004820152602c60248201527f46756e6374696f6e206d7573742062652063616c6c6564207468726f7567682060448201527f64656c656761746563616c6c00000000000000000000000000000000000000006064820152608401610bb6565b7f00000000000000000000000000000000000000000000000000000000000000006001600160a01b03166118757f360894a13ba1a3210667c828492db98dca3e2076cc3735a920a3ca505d382bbc546001600160a01b031690565b6001600160a01b0316146118f15760405162461bcd60e51b815260206004820152602c60248201527f46756e6374696f6e206d7573742062652063616c6c6564207468726f7567682060448201527f6163746976652070726f787900000000000000000000000000000000000000006064820152608401610bb6565b6118fa82613985565b6119068282600161398d565b5050565b600061191560995490565b82106119895760405162461bcd60e51b815260206004820152602c60248201527f455243373231456e756d657261626c653a20676c6f62616c20696e646578206f60448201527f7574206f6620626f756e647300000000000000000000000000000000000000006064820152608401610bb6565b6099828154811061199c5761199c61570c565b90600052602060002001549050919050565b60008181526101616020526040902080546060919061114190615480565b6000306001600160a01b037f00000000000000000000000000000000000000000000000000000000000000001614611a6c5760405162461bcd60e51b815260206004820152603860248201527f555550535570677261646561626c653a206d757374206e6f742062652063616c60448201527f6c6564207468726f7567682064656c656761746563616c6c00000000000000006064820152608401610bb6565b507f360894a13ba1a3210667c828492db98dca3e2076cc3735a920a3ca505d382bbc90565b33600090815260fb602052604090205460ff16611b165760405162461bcd60e51b815260206004820152602860248201527f436f6e74726f6c6c61626c653a2043616c6c6572206973206e6f74206120636f60448201527f6e74726f6c6c65720000000000000000000000000000000000000000000000006064820152608401610bb6565b6101666119068282615521565b6101695460609060009067ffffffffffffffff811115611b4557611b45614df6565b604051908082528060200260200182016040528015611b6e578160200160208202803683370190505b50905060005b61016954811015611c1a5760005b61016954811015611c07576000858152610162602090815260408083208584529091528120805483908110611bb957611bb961570c565b90600052602060002001541115611bf557828281518110611bdc57611bdc61570c565b602002602001018051809190611bf19061573b565b9052505b80611bff8161573b565b915050611b82565b5080611c128161573b565b915050611b74565b5092915050565b6000818152606760205260408120546001600160a01b0316806109f85760405162461bcd60e51b815260206004820152601860248201527f4552433732313a20696e76616c696420746f6b656e20494400000000000000006044820152606401610bb6565b33600090815260fb602052604090205460ff16611d0b5760405162461bcd60e51b815260206004820152602860248201527f436f6e74726f6c6c61626c653a2043616c6c6572206973206e6f74206120636f60448201527f6e74726f6c6c65720000000000000000000000000000000000000000000000006064820152608401610bb6565b61016880547fffffffffffffffffffffffff0000000000000000000000000000000000000000166001600160a01b0392909216919091179055565b611d51335b846136b8565b611d87576040517f2728a9d000000000000000000000000000000000000000000000000000000000815260040160405180910390fd5b610168546040517f6352211e000000000000000000000000000000000000000000000000000000008152600481018490526001600160a01b03909116908190636352211e90602401602060405180830381865afa158015611dec573d6000803e3d6000fd5b505050506040513d601f19601f82011682018060405250810190611e10919061566c565b6001600160a01b031614611e50576040517f89ba7e1000000000000000000000000000000000000000000000000000000000815260040160405180910390fd5b6000838152610161602052604081208054611ef29190611e6f90615480565b80601f0160208091040260200160405190810160405280929190818152602001828054611e9b90615480565b8015611ee85780601f10611ebd57610100808354040283529160200191611ee8565b820191906000526020600020905b815481529060010190602001808311611ecb57829003601f168201915b5050505050613b2d565b90506000198103611f2f576040517f9a67e0a900000000000000000000000000000000000000000000000000000000815260040160405180910390fd5b6101698181548110611f4357611f4361570c565b90600052602060002001548210611f86576040517fcd5141ab00000000000000000000000000000000000000000000000000000000815260040160405180910390fd5b6000848152610163602052604090205415611fcd576040517fc6198ccc00000000000000000000000000000000000000000000000000000000815260040160405180910390fd5b600083815261016260209081526040808320848452909152812054900361207d5761016981815481106120025761200261570c565b906000526020600020015467ffffffffffffffff81111561202557612025614df6565b60405190808252806020026020018201604052801561204e578160200160208202803683370190505b506000848152610162602090815260408083208584528252909120825161207b9391929190910190614c99565b505b60008381526101626020908152604080832084845290915281208054849081106120a9576120a961570c565b906000526020600020015411156120ec576040517fb56d9ea300000000000000000000000000000000000000000000000000000000815260040160405180910390fd5b6120f584613bed565b60008381526101626020908152604080832084845290915290208054859190849081106121245761212461570c565b6000918252602080832090910192909255604080516060810182528681528084018590528082018690528783526101639093529020612164916003614cd4565b508184847fa9ed834f1ee1816d4ead1b5aa79103b66c8037b7dbe5d0fd1c94a386115724b78460405161219991815260200190565b60405180910390a450505050565b60006001600160a01b0382166122255760405162461bcd60e51b815260206004820152602960248201527f4552433732313a2061646472657373207a65726f206973206e6f74206120766160448201527f6c6964206f776e657200000000000000000000000000000000000000000000006064820152608401610bb6565b506001600160a01b031660009081526068602052604090205490565b612249613c34565b6122536000613c8e565b565b61225e33610ef8565b612294576040517f2728a9d000000000000000000000000000000000000000000000000000000000815260040160405180910390fd5b600081815261016460205260409020546001146122dd576040517f11a3fbc600000000000000000000000000000000000000000000000000000000815260040160405180910390fd5b61016a5434101561231a576040517f025dbdd400000000000000000000000000000000000000000000000000000000815260040160405180910390fd5b60009081526101646020526040812055565b33600090815260fb602052604090205460ff166123b15760405162461bcd60e51b815260206004820152602860248201527f436f6e74726f6c6c61626c653a2043616c6c6572206973206e6f74206120636f60448201527f6e74726f6c6c65720000000000000000000000000000000000000000000000006064820152608401610bb6565b60008381526101616020526040812080546123d09190611e6f90615480565b9050600019810361240d576040517f9a67e0a900000000000000000000000000000000000000000000000000000000815260040160405180910390fd5b600083815261016260209081526040808320848452909152902080548591908490811061243c5761243c61570c565b90600052602060002001541461247e576040517f188a12d800000000000000000000000000000000000000000000000000000000815260040160405180910390fd5b60008381526101626020908152604080832084845290915281208054849081106124aa576124aa61570c565b60009182526020808320909101929092558581526101648252604080822060019055805160608101825282815280840183905280820183905287835261016390935290206124f9916003614d01565b508184847f16ea7ce6a4d526a8710d917a4773ee2e6de1e9dfaa405acb8b97da84185eb1b58460405161219991815260200190565b60606000829050610160856040516125469190615689565b9081526040519081900360200190205484106125b95760408051600080825260208201909252906125b0565b61259d6040518060800160405280600081526020016060815260200160608152602001600081525090565b8152602001906001900390816125725790505b509150506128b9565b83610160866040516125cb9190615689565b908152604051908190036020019020546125e591906156f9565b83111561261b5783610160866040516125fe9190615689565b9081526040519081900360200190205461261891906156f9565b90505b8060000361267f5760408051600080825260208201909252906125b0565b6126646040518060800160405280600081526020016060815260200160608152602001600081525090565b815260200190600190039081612639579050509150506128b9565b60008167ffffffffffffffff81111561269a5761269a614df6565b6040519080825280602002602001820160405280156126f657816020015b6126e36040518060800160405280600081526020016060815260200160608152602001600081525090565b8152602001906001900390816126b85790505b50905060005b848110801561272a5750610160876040516127179190615689565b9081526040519081900360200190205486105b156128b457610160876040516127409190615689565b9081526020016040518091039020868154811061275f5761275f61570c565b906000526020600020906004020160405180608001604052908160008201548152602001600182018054806020026020016040519081016040528092919081815260200182805480156127d157602002820191906000526020600020905b8154815260200190600101908083116127bd575b505050505081526020016002820180546127ea90615480565b80601f016020809104026020016040519081016040528092919081815260200182805461281690615480565b80156128635780601f1061283857610100808354040283529160200191612863565b820191906000526020600020905b81548152906001019060200180831161284657829003601f168201915b505050505081526020016003820154815250508282815181106128885761288861570c565b6020026020010181905250808061289e9061573b565b91505085806128ac9061573b565b9650506126fc565b509150505b9392505050565b606060668054610a0d90615480565b33600090815260fb602052604090205460ff166129545760405162461bcd60e51b815260206004820152602860248201527f436f6e74726f6c6c61626c653a2043616c6c6572206973206e6f74206120636f60448201527f6e74726f6c6c65720000000000000000000000000000000000000000000000006064820152608401610bb6565b805161190690610169906020840190614c99565b600054610100900460ff166129e55760405162461bcd60e51b815260206004820152602b60248201527f496e697469616c697a61626c653a20636f6e7472616374206973206e6f74206960448201527f6e697469616c697a696e670000000000000000000000000000000000000000006064820152608401610bb6565b6129ed613cf8565b6001600160a01b038116600081815260fb6020908152604091829020805460ff1916600190811790915591519182527f4c97694570a07277810af7e5669ffd5f6a2d6b74b6e9a274b8b870fd5114cf879101611070565b611906338383613d7d565b612a5a335b836136b8565b612a90576040517f2728a9d000000000000000000000000000000000000000000000000000000000815260040160405180910390fd5b33610167546040517f6352211e000000000000000000000000000000000000000000000000000000008152600481018490526001600160a01b039283169290911690636352211e90602401602060405180830381865afa158015612af8573d6000803e3d6000fd5b505050506040513d601f19601f82011682018060405250810190612b1c919061566c565b6001600160a01b031614612b5c576040517f507b884600000000000000000000000000000000000000000000000000000000815260040160405180910390fd5b610167546040517f20c38e2b000000000000000000000000000000000000000000000000000000008152600481018390526000916001600160a01b0316906320c38e2b90602401600060405180830381865afa158015612bc0573d6000803e3d6000fd5b505050506040513d6000823e601f3d908101601f19168201604052612be89190810190615755565b90508051600003612bf857505050565b80604051602001612c099190615689565b60408051601f1981840301815291815260008581526101656020522090612c309082615521565b50827fa694c601536edf73c60319b0f41192d00bf834d6a2da065dc208ce671aa204c46101656000868152602001908152602001600020604051612c7491906155e1565b60405180910390a2505050565b612c8a33611d4b565b612cc0576040517f2728a9d000000000000000000000000000000000000000000000000000000000815260040160405180910390fd5b6000838152610161602052604081208054612cdf9190611e6f90615480565b90506000198103612d1c576040517f9a67e0a900000000000000000000000000000000000000000000000000000000815260040160405180910390fd5b6000838152610162602090815260408083208484529091529020805485919084908110612d4b57612d4b61570c565b906000526020600020015414612d8d576040517f188a12d800000000000000000000000000000000000000000000000000000000815260040160405180910390fd5b61016a543414612dc9576040517f025dbdd400000000000000000000000000000000000000000000000000000000815260040160405180910390fd5b6000838152610162602090815260408083208484529091528120805484908110612df557612df561570c565b60009182526020808320909101929092556040805160608101825282815280840183905280820183905287835261016390935290206124f9916003614d01565b612e3e33612a54565b612eb05760405162461bcd60e51b815260206004820152602d60248201527f4552433732313a2063616c6c6572206973206e6f7420746f6b656e206f776e6560448201527f72206f7220617070726f766564000000000000000000000000000000000000006064820152608401610bb6565b612ebc84848484613e4b565b50505050565b6060612ecd826135ce565b6000612ed7613ed4565b90506000815111612ef757604051806020016040528060008152506128b9565b80612f0184613ee4565b600085815261016560209081526040918290209151612f2394939291016157c3565b6040516020818303038152906040529392505050565b33600090815260fb602052604090205460ff16612fbe5760405162461bcd60e51b815260206004820152602860248201527f436f6e74726f6c6c61626c653a2043616c6c6572206973206e6f74206120636f60448201527f6e74726f6c6c65720000000000000000000000000000000000000000000000006064820152608401610bb6565b8051600003612ff9576040517fc5a8d37100000000000000000000000000000000000000000000000000000000815260040160405180910390fd5b80516020820120613021816000908152606760205260409020546001600160a01b0316151590565b15613058576040517fc5a8d37100000000000000000000000000000000000000000000000000000000815260040160405180910390fd5b60001961306483613b2d565b0361309b576040517f9a67e0a900000000000000000000000000000000000000000000000000000000815260040160405180910390fd5b6130a58382613f84565b600081815261016160205260409020612ebc8382615521565b33600090815260fb602052604090205460ff166131435760405162461bcd60e51b815260206004820152602860248201527f436f6e74726f6c6c61626c653a2043616c6c6572206973206e6f74206120636f60448201527f6e74726f6c6c65720000000000000000000000000000000000000000000000006064820152608401610bb6565b60405133904780156108fc02916000818181858888f19350505050158015611356573d6000803e3d6000fd5b33600090815260fb602052604090205460ff166131f45760405162461bcd60e51b815260206004820152602860248201527f436f6e74726f6c6c61626c653a2043616c6c6572206973206e6f74206120636f60448201527f6e74726f6c6c65720000000000000000000000000000000000000000000000006064820152608401610bb6565b6001600160a01b038216600081815260fb6020908152604091829020805460ff191685151590811790915591519182527f4c97694570a07277810af7e5669ffd5f6a2d6b74b6e9a274b8b870fd5114cf87910160405180910390a25050565b33600090815260fb602052604090205460ff166132d85760405162461bcd60e51b815260206004820152602860248201527f436f6e74726f6c6c61626c653a2043616c6c6572206973206e6f74206120636f60448201527f6e74726f6c6c65720000000000000000000000000000000000000000000000006064820152608401610bb6565b61016a55565b6060610169805480602002602001604051908101604052809291908181526020018280548015610a8657602002820191906000526020600020905b815481526020019060010190808311613319575050505050905090565b61333e613c34565b6001600160a01b0381166133ba5760405162461bcd60e51b815260206004820152602660248201527f4f776e61626c653a206e6577206f776e657220697320746865207a65726f206160448201527f64647265737300000000000000000000000000000000000000000000000000006064820152608401610bb6565b6133c381613c8e565b7fb53127684a568b3173ae13b9f8a6016e243e63b6e8ee1178d6a717850b5d610355565b60007fffffffff0000000000000000000000000000000000000000000000000000000082167f80ac58cd00000000000000000000000000000000000000000000000000000000148061347a57507fffffffff0000000000000000000000000000000000000000000000000000000082167f5b5e139f00000000000000000000000000000000000000000000000000000000145b806109f857507f01ffc9a7000000000000000000000000000000000000000000000000000000007fffffffff000000000000000000000000000000000000000000000000000000008316146109f8565b600054610100900460ff166122535760405162461bcd60e51b815260206004820152602b60248201527f496e697469616c697a61626c653a20636f6e7472616374206973206e6f74206960448201527f6e697469616c697a696e670000000000000000000000000000000000000000006064820152608401610bb6565b600054610100900460ff166135c45760405162461bcd60e51b815260206004820152602b60248201527f496e697469616c697a61626c653a20636f6e7472616374206973206e6f74206960448201527f6e697469616c697a696e670000000000000000000000000000000000000000006064820152608401610bb6565b6119068282613f9e565b6000818152606760205260409020546001600160a01b03166113565760405162461bcd60e51b815260206004820152601860248201527f4552433732313a20696e76616c696420746f6b656e20494400000000000000006044820152606401610bb6565b600081815260696020526040902080547fffffffffffffffffffffffff0000000000000000000000000000000000000000166001600160a01b038416908117909155819061367f82611c21565b6001600160a01b03167f8c5be1e5ebec7d5bd14f71427d1e84f3dd0314c0f7b2291e5b200ac8c7c3b92560405160405180910390a45050565b6000806136c483611c21565b9050806001600160a01b0316846001600160a01b0316148061370b57506001600160a01b038082166000908152606a602090815260408083209388168352929052205460ff165b8061372f5750836001600160a01b031661372484610cdb565b6001600160a01b0316145b949350505050565b826001600160a01b031661374a82611c21565b6001600160a01b0316146137c65760405162461bcd60e51b815260206004820152602560248201527f4552433732313a207472616e736665722066726f6d20696e636f72726563742060448201527f6f776e65720000000000000000000000000000000000000000000000000000006064820152608401610bb6565b6001600160a01b0382166138415760405162461bcd60e51b8152602060048201526024808201527f4552433732313a207472616e7366657220746f20746865207a65726f2061646460448201527f72657373000000000000000000000000000000000000000000000000000000006064820152608401610bb6565b61384e8383836001614034565b826001600160a01b031661386182611c21565b6001600160a01b0316146138dd5760405162461bcd60e51b815260206004820152602560248201527f4552433732313a207472616e736665722066726f6d20696e636f72726563742060448201527f6f776e65720000000000000000000000000000000000000000000000000000006064820152608401610bb6565b600081815260696020908152604080832080547fffffffffffffffffffffffff00000000000000000000000000000000000000009081169091556001600160a01b0387811680865260688552838620805460001901905590871680865283862080546001019055868652606790945282852080549092168417909155905184937fddf252ad1be2c89b69c2b068fc378daa952ba7f163c4a11628f55a4df523b3ef91a4505050565b611356613c34565b7f4910fdfa16fed3260ed0e7147f7cc6da11a60208b5b9406d12a635614ffd91435460ff16156139c057610e2e83614169565b826001600160a01b03166352d1902d6040518163ffffffff1660e01b8152600401602060405180830381865afa925050508015613a1a575060408051601f3d908101601f19168201909252613a1791810190615892565b60015b613a8c5760405162461bcd60e51b815260206004820152602e60248201527f45524331393637557067726164653a206e657720696d706c656d656e7461746960448201527f6f6e206973206e6f7420555550530000000000000000000000000000000000006064820152608401610bb6565b7f360894a13ba1a3210667c828492db98dca3e2076cc3735a920a3ca505d382bbc8114613b215760405162461bcd60e51b815260206004820152602960248201527f45524331393637557067726164653a20756e737570706f727465642070726f7860448201527f6961626c655555494400000000000000000000000000000000000000000000006064820152608401610bb6565b50610e2e83838361423f565b60408051808201909152600381527f4d325800000000000000000000000000000000000000000000000000000000006020820152600090829082613b718383614264565b90506000198114613b8757506000949350505050565b60408051808201909152600381527f4e454f000000000000000000000000000000000000000000000000000000000060208201526000613bc78583614264565b90506000198114613bdf575060019695505050505050565b506000199695505050505050565b6000818152610164602052604090205415611356576040517fce006bf600000000000000000000000000000000000000000000000000000000815260040160405180910390fd5b60c9546001600160a01b031633146122535760405162461bcd60e51b815260206004820181905260248201527f4f776e61626c653a2063616c6c6572206973206e6f7420746865206f776e65726044820152606401610bb6565b60c980546001600160a01b038381167fffffffffffffffffffffffff0000000000000000000000000000000000000000831681179093556040519116919082907f8be0079c531659141344cd1fd0a4f28419497f9722a3daafe3b4186f6b6457e090600090a35050565b600054610100900460ff16613d755760405162461bcd60e51b815260206004820152602b60248201527f496e697469616c697a61626c653a20636f6e7472616374206973206e6f74206960448201527f6e697469616c697a696e670000000000000000000000000000000000000000006064820152608401610bb6565b6122536143cf565b816001600160a01b0316836001600160a01b031603613dde5760405162461bcd60e51b815260206004820152601960248201527f4552433732313a20617070726f766520746f2063616c6c6572000000000000006044820152606401610bb6565b6001600160a01b038381166000818152606a6020908152604080832094871680845294825291829020805460ff191686151590811790915591519182527f17307eab39ab6107e8899845ad3d59bd9653f200f220920489ca2b5937696c31910160405180910390a3505050565b613e56848484613737565b613e6284848484614455565b612ebc5760405162461bcd60e51b815260206004820152603260248201527f4552433732313a207472616e7366657220746f206e6f6e20455243373231526560448201527f63656976657220696d706c656d656e74657200000000000000000000000000006064820152608401610bb6565b60606101668054610a0d90615480565b60606000613ef1836145f6565b600101905060008167ffffffffffffffff811115613f1157613f11614df6565b6040519080825280601f01601f191660200182016040528015613f3b576020820181803683370190505b5090508181016020015b600019017f3031323334353637383961626364656600000000000000000000000000000000600a86061a8153600a8504945084613f4557509392505050565b6119068282604051806020016040528060008152506146d8565b600054610100900460ff1661401b5760405162461bcd60e51b815260206004820152602b60248201527f496e697469616c697a61626c653a20636f6e7472616374206973206e6f74206960448201527f6e697469616c697a696e670000000000000000000000000000000000000000006064820152608401610bb6565b60656140278382615521565b506066610e2e8282615521565b60018111156140ab5760405162461bcd60e51b815260206004820152603560248201527f455243373231456e756d657261626c653a20636f6e736563757469766520747260448201527f616e7366657273206e6f7420737570706f7274656400000000000000000000006064820152608401610bb6565b816001600160a01b0385166141075761410281609980546000838152609a60205260408120829055600182018355919091527f72a152ddfb8e864297c917af52ea6c1c68aead0fee1a62673fcc7e0c94979d000155565b61412a565b836001600160a01b0316856001600160a01b03161461412a5761412a8582614761565b6001600160a01b03841661414657614141816147fe565b610cd4565b846001600160a01b0316846001600160a01b031614610cd457610cd484826148ad565b6001600160a01b0381163b6141e65760405162461bcd60e51b815260206004820152602d60248201527f455243313936373a206e657720696d706c656d656e746174696f6e206973206e60448201527f6f74206120636f6e7472616374000000000000000000000000000000000000006064820152608401610bb6565b7f360894a13ba1a3210667c828492db98dca3e2076cc3735a920a3ca505d382bbc80547fffffffffffffffffffffffff0000000000000000000000000000000000000000166001600160a01b0392909216919091179055565b614248836148f1565b6000825111806142555750805b15610e2e57612ebc8383614931565b60008251825111156142de5760405162461bcd60e51b815260206004820152602c60248201527f43616e6e6f742066696e642061206c6f6e67657220737472696e6720696e206160448201527f2073686f72746572206f6e6500000000000000000000000000000000000000006064820152608401610bb6565b6000805b835185516142f091906156f9565b82116143c35750600060015b845182101561439f578482815181106143175761431761570c565b01602001517fff00000000000000000000000000000000000000000000000000000000000000168661434984866158ab565b815181106143595761435961570c565b01602001517fff00000000000000000000000000000000000000000000000000000000000000161461438d5750600061439f565b816143978161573b565b9250506142fc565b80156143b0578293505050506109f8565b50816143bb8161573b565b9250506142e2565b50600019949350505050565b600054610100900460ff1661444c5760405162461bcd60e51b815260206004820152602b60248201527f496e697469616c697a61626c653a20636f6e7472616374206973206e6f74206960448201527f6e697469616c697a696e670000000000000000000000000000000000000000006064820152608401610bb6565b61225333613c8e565b60006001600160a01b0384163b156145eb576040517f150b7a020000000000000000000000000000000000000000000000000000000081526001600160a01b0385169063150b7a02906144b29033908990889088906004016158be565b6020604051808303816000875af19250505080156144ed575060408051601f3d908101601f191682019092526144ea918101906158fa565b60015b6145a0573d80801561451b576040519150601f19603f3d011682016040523d82523d6000602084013e614520565b606091505b5080516000036145985760405162461bcd60e51b815260206004820152603260248201527f4552433732313a207472616e7366657220746f206e6f6e20455243373231526560448201527f63656976657220696d706c656d656e74657200000000000000000000000000006064820152608401610bb6565b805181602001fd5b7fffffffff00000000000000000000000000000000000000000000000000000000167f150b7a020000000000000000000000000000000000000000000000000000000014905061372f565b506001949350505050565b6000807a184f03e93ff9f4daa797ed6e38ed64bf6a1f010000000000000000831061463f577a184f03e93ff9f4daa797ed6e38ed64bf6a1f010000000000000000830492506040015b6d04ee2d6d415b85acef8100000000831061466b576d04ee2d6d415b85acef8100000000830492506020015b662386f26fc10000831061468957662386f26fc10000830492506010015b6305f5e10083106146a1576305f5e100830492506008015b61271083106146b557612710830492506004015b606483106146c7576064830492506002015b600a83106109f85760010192915050565b6146e28383614a3c565b6146ef6000848484614455565b610e2e5760405162461bcd60e51b815260206004820152603260248201527f4552433732313a207472616e7366657220746f206e6f6e20455243373231526560448201527f63656976657220696d706c656d656e74657200000000000000000000000000006064820152608401610bb6565b6000600161476e846121a7565b61477891906156f9565b6000838152609860205260409020549091508082146147cb576001600160a01b03841660009081526097602090815260408083208584528252808320548484528184208190558352609890915290208190555b5060009182526098602090815260408084208490556001600160a01b039094168352609781528383209183525290812055565b609954600090614810906001906156f9565b6000838152609a6020526040812054609980549394509092849081106148385761483861570c565b9060005260206000200154905080609983815481106148595761485961570c565b6000918252602080832090910192909255828152609a9091526040808220849055858252812055609980548061489157614891615917565b6001900381819060005260206000200160009055905550505050565b60006148b8836121a7565b6001600160a01b039093166000908152609760209081526040808320868452825280832085905593825260989052919091209190915550565b6148fa81614169565b6040516001600160a01b038216907fbc7cd75a20ee27fd9adebab32041f755214dbc6bffa90cc0225b39da2e5c2d3b90600090a250565b60606001600160a01b0383163b6149b05760405162461bcd60e51b815260206004820152602660248201527f416464726573733a2064656c65676174652063616c6c20746f206e6f6e2d636f60448201527f6e747261637400000000000000000000000000000000000000000000000000006064820152608401610bb6565b600080846001600160a01b0316846040516149cb9190615689565b600060405180830381855af49150503d8060008114614a06576040519150601f19603f3d011682016040523d82523d6000602084013e614a0b565b606091505b5091509150614a33828260405180606001604052806027815260200161594760279139614bed565b95945050505050565b6001600160a01b038216614a925760405162461bcd60e51b815260206004820181905260248201527f4552433732313a206d696e7420746f20746865207a65726f20616464726573736044820152606401610bb6565b6000818152606760205260409020546001600160a01b031615614af75760405162461bcd60e51b815260206004820152601c60248201527f4552433732313a20746f6b656e20616c7265616479206d696e746564000000006044820152606401610bb6565b614b05600083836001614034565b6000818152606760205260409020546001600160a01b031615614b6a5760405162461bcd60e51b815260206004820152601c60248201527f4552433732313a20746f6b656e20616c7265616479206d696e746564000000006044820152606401610bb6565b6001600160a01b038216600081815260686020908152604080832080546001019055848352606790915280822080547fffffffffffffffffffffffff0000000000000000000000000000000000000000168417905551839291907fddf252ad1be2c89b69c2b068fc378daa952ba7f163c4a11628f55a4df523b3ef908290a45050565b60608315614bfc5750816128b9565b6128b98383815115614c115781518083602001fd5b8060405162461bcd60e51b8152600401610bb69190614de3565b828054828255906000526020600020908101928215614c6b579160200282015b82811115614c6b578251829060ff16905591602001919060010190614c4b565b50614c77929150614d33565b5090565b60405180606001604052806003906020820280368337509192915050565b828054828255906000526020600020908101928215614c6b579160200282015b82811115614c6b578251825591602001919060010190614cb9565b8260038101928215614c6b5791602002820182811115614c6b578251825591602001919060010190614cb9565b8260038101928215614c6b5791602002820182811115614c6b578251829060ff16905591602001919060010190614c4b565b5b80821115614c775760008155600101614d34565b7fffffffff000000000000000000000000000000000000000000000000000000008116811461135657600080fd5b600060208284031215614d8857600080fd5b81356128b981614d48565b60005b83811015614dae578181015183820152602001614d96565b50506000910152565b60008151808452614dcf816020860160208601614d93565b601f01601f19169290920160200192915050565b6020815260006128b96020830184614db7565b7f4e487b7100000000000000000000000000000000000000000000000000000000600052604160045260246000fd5b604051601f8201601f1916810167ffffffffffffffff81118282101715614e4e57614e4e614df6565b604052919050565b600067ffffffffffffffff821115614e7057614e70614df6565b50601f01601f191660200190565b600082601f830112614e8f57600080fd5b8135614ea2614e9d82614e56565b614e25565b818152846020838601011115614eb757600080fd5b816020850160208301376000918101602001919091529392505050565b6001600160a01b038116811461135657600080fd5b600080600060608486031215614efe57600080fd5b833567ffffffffffffffff80821115614f1657600080fd5b614f2287838801614e7e565b94506020860135915080821115614f3857600080fd5b50614f4586828701614e7e565b9250506040840135614f5681614ed4565b809150509250925092565b600060208284031215614f7357600080fd5b5035919050565b60008060408385031215614f8d57600080fd5b8235614f9881614ed4565b946020939093013593505050565b600060208284031215614fb857600080fd5b81356128b981614ed4565b600080600060608486031215614fd857600080fd5b8335614fe381614ed4565b92506020840135614ff381614ed4565b929592945050506040919091013590565b60608101818360005b600381101561502c57815183526020928301929091019060010161500d565b50505092915050565b600082601f83011261504657600080fd5b8135602067ffffffffffffffff82111561506257615062614df6565b8160051b615071828201614e25565b928352848101820192828101908785111561508b57600080fd5b83870192505b848310156150aa57823582529183019190830190615091565b979650505050505050565b6000806000606084860312156150ca57600080fd5b83359250602084013567ffffffffffffffff808211156150e957600080fd5b6150f587838801615035565b9350604086013591508082111561510b57600080fd5b5061511886828701614e7e565b9150509250925092565b60006020828403121561513457600080fd5b813567ffffffffffffffff81111561514b57600080fd5b61372f84828501614e7e565b600081518084526020808501945080840160005b838110156151875781518752958201959082019060010161516b565b509495945050505050565b8051825260006020820151608060208501526151b16080850182615157565b9050604083015184820360408601526151ca8282614db7565b915050606083015160608501528091505092915050565b6020815260006128b96020830184615192565b6000806040838503121561520757600080fd5b823561521281614ed4565b9150602083013567ffffffffffffffff81111561522e57600080fd5b61523a85828601614e7e565b9150509250929050565b6020815260006128b96020830184615157565b60008060006060848603121561526c57600080fd5b505081359360208301359350604090920135919050565b60008060006060848603121561529857600080fd5b833567ffffffffffffffff8111156152af57600080fd5b6152bb86828701614e7e565b9660208601359650604090950135949350505050565b6000602080830181845280855180835260408601915060408160051b870101925083870160005b82811015615344577fffffffffffffffffffffffffffffffffffffffffffffffffffffffffffffffc0888603018452615332858351615192565b945092850192908501906001016152f8565b5092979650505050505050565b60006020828403121561536357600080fd5b813567ffffffffffffffff81111561537a57600080fd5b61372f84828501615035565b6000806040838503121561539957600080fd5b82356153a481614ed4565b9150602083013580151581146153b957600080fd5b809150509250929050565b600080604083850312156153d757600080fd5b50508035926020909101359150565b600080600080608085870312156153fc57600080fd5b843561540781614ed4565b9350602085013561541781614ed4565b925060408501359150606085013567ffffffffffffffff81111561543a57600080fd5b61544687828801614e7e565b91505092959194509250565b6000806040838503121561546557600080fd5b823561547081614ed4565b915060208301356153b981614ed4565b600181811c9082168061549457607f821691505b6020821081036154cd577f4e487b7100000000000000000000000000000000000000000000000000000000600052602260045260246000fd5b50919050565b601f821115610e2e57600081815260208120601f850160051c810160208610156154fa5750805b601f850160051c820191505b8181101561551957828155600101615506565b505050505050565b815167ffffffffffffffff81111561553b5761553b614df6565b61554f816155498454615480565b846154d3565b602080601f831160018114615584576000841561556c5750858301515b600019600386901b1c1916600185901b178555615519565b600085815260208120601f198616915b828110156155b357888601518255948401946001909101908401615594565b50858210156155d15787850151600019600388901b60f8161c191681555b5050505050600190811b01905550565b60006020808352600084546155f581615480565b8084870152604060018084166000811461561657600181146156305761565e565b60ff198516838a01528284151560051b8a0101955061565e565b896000528660002060005b858110156156565781548b820186015290830190880161563b565b8a0184019650505b509398975050505050505050565b60006020828403121561567e57600080fd5b81516128b981614ed4565b6000825161569b818460208701614d93565b9190910192915050565b6040815260006156b86040830185614db7565b8281036020840152614a338185615192565b7f4e487b7100000000000000000000000000000000000000000000000000000000600052601160045260246000fd5b818103818111156109f8576109f86156ca565b7f4e487b7100000000000000000000000000000000000000000000000000000000600052603260045260246000fd5b6000600019820361574e5761574e6156ca565b5060010190565b60006020828403121561576757600080fd5b815167ffffffffffffffff81111561577e57600080fd5b8201601f8101841361578f57600080fd5b805161579d614e9d82614e56565b8181528560208385010111156157b257600080fd5b614a33826020830160208601614d93565b6000845160206157d68285838a01614d93565b8551918401916157e98184848a01614d93565b7f3f6e616d653d00000000000000000000000000000000000000000000000000009201918252845460069060009061582081615480565b60018281168015615838576001811461585157615881565b60ff198416868901528583151584028901019450615881565b8a6000528660002060005b848110156158775781548a820189015290830190880161585c565b5050858389010194505b50929b9a5050505050505050505050565b6000602082840312156158a457600080fd5b5051919050565b808201808211156109f8576109f86156ca565b60006001600160a01b038087168352808616602084015250836040830152608060608301526158f06080830184614db7565b9695505050505050565b60006020828403121561590c57600080fd5b81516128b981614d48565b7f4e487b7100000000000000000000000000000000000000000000000000000000600052603160045260246000fdfe416464726573733a206c6f772d6c6576656c2064656c65676174652063616c6c206661696c6564a2646970667358221220a0ffc09e042b154ef4346017a770f233b3b530044de5d4145627cc4bf39f34ae64736f6c63430008120033",
  "devdoc": {
    "events": {
      "AdminChanged(address,address)": {
        "details": "Emitted when the admin account has changed."
      },
      "Approval(address,address,uint256)": {
        "details": "Emitted when `owner` enables `approved` to manage the `tokenId` token."
      },
      "ApprovalForAll(address,address,bool)": {
        "details": "Emitted when `owner` enables or disables (`approved`) `operator` to manage all of its assets."
      },
      "BeaconUpgraded(address)": {
        "details": "Emitted when the beacon is changed."
      },
      "Initialized(uint8)": {
        "details": "Triggered when the contract has been initialized or reinitialized."
      },
      "Transfer(address,address,uint256)": {
        "details": "Emitted when `tokenId` token is transferred from `from` to `to`."
      },
      "Upgraded(address)": {
        "details": "Emitted when the implementation is upgraded."
      }
    },
    "kind": "dev",
    "methods": {
      "LocationProofs(uint256,uint256[],string)": {
        "details": "Submit the location proofs of anything."
      },
      "approve(address,uint256)": {
        "details": "See {IERC721-approve}."
      },
      "balanceOf(address)": {
        "details": "See {IERC721-balanceOf}."
      },
      "getApproved(uint256)": {
        "details": "See {IERC721-getApproved}."
      },
      "getLocationProofs(string,uint256,uint256)": {
        "details": "get the recent location proofs of anything."
      },
      "getStatus(uint256)": {
        "details": "Returns the status of the token."
      },
      "insertToMEP1002Slot(uint256,uint256,uint256)": {
        "details": "Inserts the MEP1004 token to the specified slot within a MEP1002 token."
      },
      "isApprovedForAll(address,address)": {
        "details": "See {IERC721-isApprovedForAll}."
      },
      "latestLocationProofs(string)": {
        "details": "get the latest location proofs of anything."
      },
      "name()": {
        "details": "See {IERC721Metadata-name}."
      },
      "numInsertedSlots(uint256)": {
        "details": "Returns the number of slots inserted with the MEP1004 token in the specified MEP1002 token."
      },
      "owner()": {
        "details": "Returns the address of the current owner."
      },
      "ownerOf(uint256)": {
        "details": "See {IERC721-ownerOf}."
      },
      "proxiableUUID()": {
        "details": "Implementation of the ERC1822 {proxiableUUID} function. This returns the storage slot used by the implementation. It is used to validate the implementation's compatibility when performing an upgrade. IMPORTANT: A proxy pointing at a proxiable contract should not be considered proxiable itself, because this risks bricking a proxy that upgrades to it, by delegating to itself until out of gas. Thus it is critical that this function revert if invoked through a proxy. This is guaranteed by the `notDelegated` modifier."
      },
      "removeFromMEP1002Slot(uint256,uint256,uint256)": {
        "details": "Removes the MEP1004 token from the specified slot within a MEP1002 token."
      },
      "renounceOwnership()": {
        "details": "Leaves the contract without owner. It will not be possible to call `onlyOwner` functions anymore. Can only be called by the current owner. NOTE: Renouncing ownership will leave the contract without an owner, thereby removing any functionality that is only available to the owner."
      },
      "safeTransferFrom(address,address,uint256)": {
        "details": "See {IERC721-safeTransferFrom}."
      },
      "safeTransferFrom(address,address,uint256,bytes)": {
        "details": "See {IERC721-safeTransferFrom}."
      },
      "setApprovalForAll(address,bool)": {
        "details": "See {IERC721-setApprovalForAll}."
      },
      "slotLimits()": {
        "details": "Returns the limit number of slots that can be inserted with the MEP1002 token."
      },
      "supportsInterface(bytes4)": {
        "details": "See {IERC165-supportsInterface}."
      },
      "symbol()": {
        "details": "See {IERC721Metadata-symbol}."
      },
      "tokenByIndex(uint256)": {
        "details": "See {IERC721Enumerable-tokenByIndex}."
      },
      "tokenOfOwnerByIndex(address,uint256)": {
        "details": "See {IERC721Enumerable-tokenOfOwnerByIndex}."
      },
      "tokenURI(uint256)": {
        "details": "See {IERC721Metadata-tokenURI}."
      },
      "totalSupply()": {
        "details": "See {IERC721Enumerable-totalSupply}."
      },
      "transferFrom(address,address,uint256)": {
        "details": "See {IERC721-transferFrom}."
      },
      "transferOwnership(address)": {
        "details": "Transfers ownership of the contract to a new account (`newOwner`). Can only be called by the current owner."
      },
      "upgradeTo(address)": {
        "details": "Upgrade the implementation of the proxy to `newImplementation`. Calls {_authorizeUpgrade}. Emits an {Upgraded} event."
      },
      "upgradeToAndCall(address,bytes)": {
        "details": "Upgrade the implementation of the proxy to `newImplementation`, and subsequently execute the function call encoded in `data`. Calls {_authorizeUpgrade}. Emits an {Upgraded} event."
      },
      "whereSlot(uint256)": {
        "details": "search the MEP1004 token in the specified slot within a MEP1002 token."
      }
    },
    "version": 1
  },
  "userdoc": {
    "kind": "user",
    "methods": {},
    "version": 1
  },
  "storageLayout": {
    "storage": [
      {
        "astId": 534,
        "contract": "contracts/token/MEP1004Token.sol:MEP1004Token",
        "label": "_initialized",
        "offset": 0,
        "slot": "0",
        "type": "t_uint8"
      },
      {
        "astId": 537,
        "contract": "contracts/token/MEP1004Token.sol:MEP1004Token",
        "label": "_initializing",
        "offset": 1,
        "slot": "0",
        "type": "t_bool"
      },
      {
        "astId": 2675,
        "contract": "contracts/token/MEP1004Token.sol:MEP1004Token",
        "label": "__gap",
        "offset": 0,
        "slot": "1",
        "type": "t_array(t_uint256)50_storage"
      },
      {
        "astId": 2954,
        "contract": "contracts/token/MEP1004Token.sol:MEP1004Token",
        "label": "__gap",
        "offset": 0,
        "slot": "51",
        "type": "t_array(t_uint256)50_storage"
      },
      {
        "astId": 861,
        "contract": "contracts/token/MEP1004Token.sol:MEP1004Token",
        "label": "_name",
        "offset": 0,
        "slot": "101",
        "type": "t_string_storage"
      },
      {
        "astId": 863,
        "contract": "contracts/token/MEP1004Token.sol:MEP1004Token",
        "label": "_symbol",
        "offset": 0,
        "slot": "102",
        "type": "t_string_storage"
      },
      {
        "astId": 867,
        "contract": "contracts/token/MEP1004Token.sol:MEP1004Token",
        "label": "_owners",
        "offset": 0,
        "slot": "103",
        "type": "t_mapping(t_uint256,t_address)"
      },
      {
        "astId": 871,
        "contract": "contracts/token/MEP1004Token.sol:MEP1004Token",
        "label": "_balances",
        "offset": 0,
        "slot": "104",
        "type": "t_mapping(t_address,t_uint256)"
      },
      {
        "astId": 875,
        "contract": "contracts/token/MEP1004Token.sol:MEP1004Token",
        "label": "_tokenApprovals",
        "offset": 0,
        "slot": "105",
        "type": "t_mapping(t_uint256,t_address)"
      },
      {
        "astId": 881,
        "contract": "contracts/token/MEP1004Token.sol:MEP1004Token",
        "label": "_operatorApprovals",
        "offset": 0,
        "slot": "106",
        "type": "t_mapping(t_address,t_mapping(t_address,t_bool))"
      },
      {
        "astId": 1783,
        "contract": "contracts/token/MEP1004Token.sol:MEP1004Token",
        "label": "__gap",
        "offset": 0,
        "slot": "107",
        "type": "t_array(t_uint256)44_storage"
      },
      {
        "astId": 1948,
        "contract": "contracts/token/MEP1004Token.sol:MEP1004Token",
        "label": "_ownedTokens",
        "offset": 0,
        "slot": "151",
        "type": "t_mapping(t_address,t_mapping(t_uint256,t_uint256))"
      },
      {
        "astId": 1952,
        "contract": "contracts/token/MEP1004Token.sol:MEP1004Token",
        "label": "_ownedTokensIndex",
        "offset": 0,
        "slot": "152",
        "type": "t_mapping(t_uint256,t_uint256)"
      },
      {
        "astId": 1955,
        "contract": "contracts/token/MEP1004Token.sol:MEP1004Token",
        "label": "_allTokens",
        "offset": 0,
        "slot": "153",
        "type": "t_array(t_uint256)dyn_storage"
      },
      {
        "astId": 1959,
        "contract": "contracts/token/MEP1004Token.sol:MEP1004Token",
        "label": "_allTokensIndex",
        "offset": 0,
        "slot": "154",
        "type": "t_mapping(t_uint256,t_uint256)"
      },
      {
        "astId": 2291,
        "contract": "contracts/token/MEP1004Token.sol:MEP1004Token",
        "label": "__gap",
        "offset": 0,
        "slot": "155",
        "type": "t_array(t_uint256)46_storage"
      },
      {
        "astId": 10,
        "contract": "contracts/token/MEP1004Token.sol:MEP1004Token",
        "label": "_owner",
        "offset": 0,
        "slot": "201",
        "type": "t_address"
      },
      {
        "astId": 130,
        "contract": "contracts/token/MEP1004Token.sol:MEP1004Token",
        "label": "__gap",
        "offset": 0,
        "slot": "202",
        "type": "t_array(t_uint256)49_storage"
      },
      {
        "astId": 4238,
        "contract": "contracts/token/MEP1004Token.sol:MEP1004Token",
        "label": "controllers",
        "offset": 0,
        "slot": "251",
        "type": "t_mapping(t_address,t_bool)"
      },
      {
        "astId": 516,
        "contract": "contracts/token/MEP1004Token.sol:MEP1004Token",
        "label": "__gap",
        "offset": 0,
        "slot": "252",
        "type": "t_array(t_uint256)50_storage"
      },
      {
        "astId": 831,
        "contract": "contracts/token/MEP1004Token.sol:MEP1004Token",
        "label": "__gap",
        "offset": 0,
        "slot": "302",
        "type": "t_array(t_uint256)50_storage"
      },
      {
        "astId": 8909,
        "contract": "contracts/token/MEP1004Token.sol:MEP1004Token",
        "label": "_locationProofs",
        "offset": 0,
        "slot": "352",
        "type": "t_mapping(t_string_memory_ptr,t_array(t_struct(LocationProof)5816_storage)dyn_storage)"
      },
      {
        "astId": 8913,
        "contract": "contracts/token/MEP1004Token.sol:MEP1004Token",
        "label": "_SNCodes",
        "offset": 0,
        "slot": "353",
        "type": "t_mapping(t_uint256,t_string_storage)"
      },
      {
        "astId": 8920,
        "contract": "contracts/token/MEP1004Token.sol:MEP1004Token",
        "label": "_MEP1002Slot",
        "offset": 0,
        "slot": "354",
        "type": "t_mapping(t_uint256,t_mapping(t_uint256,t_array(t_uint256)dyn_storage))"
      },
      {
        "astId": 8926,
        "contract": "contracts/token/MEP1004Token.sol:MEP1004Token",
        "label": "_whereSlot",
        "offset": 0,
        "slot": "355",
        "type": "t_mapping(t_uint256,t_array(t_uint256)3_storage)"
      },
      {
        "astId": 8930,
        "contract": "contracts/token/MEP1004Token.sol:MEP1004Token",
        "label": "_MEP1004Status",
        "offset": 0,
        "slot": "356",
        "type": "t_mapping(t_uint256,t_uint256)"
      },
      {
        "astId": 8934,
        "contract": "contracts/token/MEP1004Token.sol:MEP1004Token",
        "label": "_MEP1004TokenNames",
        "offset": 0,
        "slot": "357",
        "type": "t_mapping(t_uint256,t_string_storage)"
      },
      {
        "astId": 8936,
        "contract": "contracts/token/MEP1004Token.sol:MEP1004Token",
        "label": "_baseUri",
        "offset": 0,
        "slot": "358",
        "type": "t_string_storage"
      },
      {
        "astId": 8938,
        "contract": "contracts/token/MEP1004Token.sol:MEP1004Token",
        "label": "_mnsToken",
        "offset": 0,
        "slot": "359",
        "type": "t_address"
      },
      {
        "astId": 8940,
        "contract": "contracts/token/MEP1004Token.sol:MEP1004Token",
        "label": "_MEP1002Addr",
        "offset": 0,
        "slot": "360",
        "type": "t_address"
      },
      {
        "astId": 8943,
        "contract": "contracts/token/MEP1004Token.sol:MEP1004Token",
        "label": "_slotLimits",
        "offset": 0,
        "slot": "361",
        "type": "t_array(t_uint256)dyn_storage"
      },
      {
        "astId": 8945,
        "contract": "contracts/token/MEP1004Token.sol:MEP1004Token",
        "label": "_exitFee",
        "offset": 0,
        "slot": "362",
        "type": "t_uint256"
      },
      {
        "astId": 10166,
        "contract": "contracts/token/MEP1004Token.sol:MEP1004Token",
        "label": "__gap",
        "offset": 0,
        "slot": "363",
        "type": "t_array(t_uint256)39_storage"
      }
    ],
    "types": {
      "t_address": {
        "encoding": "inplace",
        "label": "address",
        "numberOfBytes": "20"
      },
      "t_array(t_struct(LocationProof)5816_storage)dyn_storage": {
        "base": "t_struct(LocationProof)5816_storage",
        "encoding": "dynamic_array",
        "label": "struct IMEP1004.LocationProof[]",
        "numberOfBytes": "32"
      },
      "t_array(t_uint256)39_storage": {
        "base": "t_uint256",
        "encoding": "inplace",
        "label": "uint256[39]",
        "numberOfBytes": "1248"
      },
      "t_array(t_uint256)3_storage": {
        "base": "t_uint256",
        "encoding": "inplace",
        "label": "uint256[3]",
        "numberOfBytes": "96"
      },
      "t_array(t_uint256)44_storage": {
        "base": "t_uint256",
        "encoding": "inplace",
        "label": "uint256[44]",
        "numberOfBytes": "1408"
      },
      "t_array(t_uint256)46_storage": {
        "base": "t_uint256",
        "encoding": "inplace",
        "label": "uint256[46]",
        "numberOfBytes": "1472"
      },
      "t_array(t_uint256)49_storage": {
        "base": "t_uint256",
        "encoding": "inplace",
        "label": "uint256[49]",
        "numberOfBytes": "1568"
      },
      "t_array(t_uint256)50_storage": {
        "base": "t_uint256",
        "encoding": "inplace",
        "label": "uint256[50]",
        "numberOfBytes": "1600"
      },
      "t_array(t_uint256)dyn_storage": {
        "base": "t_uint256",
        "encoding": "dynamic_array",
        "label": "uint256[]",
        "numberOfBytes": "32"
      },
      "t_bool": {
        "encoding": "inplace",
        "label": "bool",
        "numberOfBytes": "1"
      },
      "t_mapping(t_address,t_bool)": {
        "encoding": "mapping",
        "key": "t_address",
        "label": "mapping(address => bool)",
        "numberOfBytes": "32",
        "value": "t_bool"
      },
      "t_mapping(t_address,t_mapping(t_address,t_bool))": {
        "encoding": "mapping",
        "key": "t_address",
        "label": "mapping(address => mapping(address => bool))",
        "numberOfBytes": "32",
        "value": "t_mapping(t_address,t_bool)"
      },
      "t_mapping(t_address,t_mapping(t_uint256,t_uint256))": {
        "encoding": "mapping",
        "key": "t_address",
        "label": "mapping(address => mapping(uint256 => uint256))",
        "numberOfBytes": "32",
        "value": "t_mapping(t_uint256,t_uint256)"
      },
      "t_mapping(t_address,t_uint256)": {
        "encoding": "mapping",
        "key": "t_address",
        "label": "mapping(address => uint256)",
        "numberOfBytes": "32",
        "value": "t_uint256"
      },
      "t_mapping(t_string_memory_ptr,t_array(t_struct(LocationProof)5816_storage)dyn_storage)": {
        "encoding": "mapping",
        "key": "t_string_memory_ptr",
        "label": "mapping(string => struct IMEP1004.LocationProof[])",
        "numberOfBytes": "32",
        "value": "t_array(t_struct(LocationProof)5816_storage)dyn_storage"
      },
      "t_mapping(t_uint256,t_address)": {
        "encoding": "mapping",
        "key": "t_uint256",
        "label": "mapping(uint256 => address)",
        "numberOfBytes": "32",
        "value": "t_address"
      },
      "t_mapping(t_uint256,t_array(t_uint256)3_storage)": {
        "encoding": "mapping",
        "key": "t_uint256",
        "label": "mapping(uint256 => uint256[3])",
        "numberOfBytes": "32",
        "value": "t_array(t_uint256)3_storage"
      },
      "t_mapping(t_uint256,t_array(t_uint256)dyn_storage)": {
        "encoding": "mapping",
        "key": "t_uint256",
        "label": "mapping(uint256 => uint256[])",
        "numberOfBytes": "32",
        "value": "t_array(t_uint256)dyn_storage"
      },
      "t_mapping(t_uint256,t_mapping(t_uint256,t_array(t_uint256)dyn_storage))": {
        "encoding": "mapping",
        "key": "t_uint256",
        "label": "mapping(uint256 => mapping(uint256 => uint256[]))",
        "numberOfBytes": "32",
        "value": "t_mapping(t_uint256,t_array(t_uint256)dyn_storage)"
      },
      "t_mapping(t_uint256,t_string_storage)": {
        "encoding": "mapping",
        "key": "t_uint256",
        "label": "mapping(uint256 => string)",
        "numberOfBytes": "32",
        "value": "t_string_storage"
      },
      "t_mapping(t_uint256,t_uint256)": {
        "encoding": "mapping",
        "key": "t_uint256",
        "label": "mapping(uint256 => uint256)",
        "numberOfBytes": "32",
        "value": "t_uint256"
      },
      "t_string_memory_ptr": {
        "encoding": "bytes",
        "label": "string",
        "numberOfBytes": "32"
      },
      "t_string_storage": {
        "encoding": "bytes",
        "label": "string",
        "numberOfBytes": "32"
      },
      "t_struct(LocationProof)5816_storage": {
        "encoding": "inplace",
        "label": "struct IMEP1004.LocationProof",
        "members": [
          {
            "astId": 5808,
            "contract": "contracts/token/MEP1004Token.sol:MEP1004Token",
            "label": "MEP1002TokenId",
            "offset": 0,
            "slot": "0",
            "type": "t_uint256"
          },
          {
            "astId": 5811,
            "contract": "contracts/token/MEP1004Token.sol:MEP1004Token",
            "label": "MEP1004TokenIds",
            "offset": 0,
            "slot": "1",
            "type": "t_array(t_uint256)dyn_storage"
          },
          {
            "astId": 5813,
            "contract": "contracts/token/MEP1004Token.sol:MEP1004Token",
            "label": "item",
            "offset": 0,
            "slot": "2",
            "type": "t_string_storage"
          },
          {
            "astId": 5815,
            "contract": "contracts/token/MEP1004Token.sol:MEP1004Token",
            "label": "timestamp",
            "offset": 0,
            "slot": "3",
            "type": "t_uint256"
          }
        ],
        "numberOfBytes": "128"
      },
      "t_uint256": {
        "encoding": "inplace",
        "label": "uint256",
        "numberOfBytes": "32"
      },
      "t_uint8": {
        "encoding": "inplace",
        "label": "uint8",
        "numberOfBytes": "1"
      }
    }
  }
}