{
  "address": "0x346dA5Ba8baB95584FEb10a0E9B1C94b87eC07BE",
  "abi": [
    {
      "inputs": [],
      "name": "AlreadyInsertOtherSlot",
      "type": "error"
    },
    {
      "inputs": [],
      "name": "ERC721InvalidTokenId",
      "type": "error"
    },
    {
      "inputs": [],
      "name": "ERC721NotApprovedOrOwner",
      "type": "error"
    },
    {
      "inputs": [],
      "name": "ERC721TokenAlreadyMinted",
      "type": "error"
    },
    {
      "inputs": [],
      "name": "ExceedSlotLimit",
      "type": "error"
    },
    {
      "inputs": [],
      "name": "InsufficientFee",
      "type": "error"
    },
    {
      "inputs": [],
      "name": "NoDebt",
      "type": "error"
    },
    {
      "inputs": [],
      "name": "NoNamingPermission",
      "type": "error"
    },
    {
      "inputs": [],
      "name": "NotCorrectSlotIndex",
      "type": "error"
    },
    {
      "inputs": [],
      "name": "ProofProverLessThanRequired",
      "type": "error"
    },
    {
      "inputs": [],
      "name": "SNCodeNotAllow",
      "type": "error"
    },
    {
      "inputs": [],
      "name": "SlotAlreadyUsed",
      "type": "error"
    },
    {
      "inputs": [],
      "name": "StatusNotAllow",
      "type": "error"
    },
    {
      "anonymous": false,
      "inputs": [
        {
          "indexed": false,
          "internalType": "address",
          "name": "previousAdmin",
          "type": "address"
        },
        {
          "indexed": false,
          "internalType": "address",
          "name": "newAdmin",
          "type": "address"
        }
      ],
      "name": "AdminChanged",
      "type": "event"
    },
    {
      "anonymous": false,
      "inputs": [
        {
          "indexed": true,
          "internalType": "address",
          "name": "owner",
          "type": "address"
        },
        {
          "indexed": true,
          "internalType": "address",
          "name": "approved",
          "type": "address"
        },
        {
          "indexed": true,
          "internalType": "uint256",
          "name": "tokenId",
          "type": "uint256"
        }
      ],
      "name": "Approval",
      "type": "event"
    },
    {
      "anonymous": false,
      "inputs": [
        {
          "indexed": true,
          "internalType": "address",
          "name": "owner",
          "type": "address"
        },
        {
          "indexed": true,
          "internalType": "address",
          "name": "operator",
          "type": "address"
        },
        {
          "indexed": false,
          "internalType": "bool",
          "name": "approved",
          "type": "bool"
        }
      ],
      "name": "ApprovalForAll",
      "type": "event"
    },
    {
      "anonymous": false,
      "inputs": [
        {
          "indexed": true,
          "internalType": "address",
          "name": "beacon",
          "type": "address"
        }
      ],
      "name": "BeaconUpgraded",
      "type": "event"
    },
    {
      "anonymous": false,
      "inputs": [
        {
          "indexed": true,
          "internalType": "address",
          "name": "controller",
          "type": "address"
        },
        {
          "indexed": false,
          "internalType": "bool",
          "name": "enabled",
          "type": "bool"
        }
      ],
      "name": "ControllerChanged",
      "type": "event"
    },
    {
      "anonymous": false,
      "inputs": [
        {
          "indexed": false,
          "internalType": "uint8",
          "name": "version",
          "type": "uint8"
        }
      ],
      "name": "Initialized",
      "type": "event"
    },
    {
      "anonymous": false,
      "inputs": [
        {
          "indexed": true,
          "internalType": "uint256",
          "name": "MEP1002TokenId",
          "type": "uint256"
        },
        {
          "indexed": true,
          "internalType": "uint256",
          "name": "MEP1004TokenId",
          "type": "uint256"
        },
        {
          "indexed": true,
          "internalType": "uint256",
          "name": "slotIndex",
          "type": "uint256"
        },
        {
          "indexed": false,
          "internalType": "uint256",
          "name": "SNCodeType",
          "type": "uint256"
        }
      ],
      "name": "InsertToMEP1002Slot",
      "type": "event"
    },
    {
      "anonymous": false,
      "inputs": [
        {
          "indexed": true,
          "internalType": "uint256",
          "name": "tokenId",
          "type": "uint256"
        },
        {
          "indexed": false,
          "internalType": "string",
          "name": "name",
          "type": "string"
        }
      ],
      "name": "MEP1004TokenUpdateName",
      "type": "event"
    },
    {
      "anonymous": false,
      "inputs": [
        {
          "indexed": true,
          "internalType": "uint256",
          "name": "MEP1002TokenId",
          "type": "uint256"
        },
        {
          "indexed": false,
          "internalType": "string",
          "name": "item",
          "type": "string"
        },
        {
          "components": [
            {
              "internalType": "uint256",
              "name": "MEP1002TokenId",
              "type": "uint256"
            },
            {
              "internalType": "uint256[]",
              "name": "MEP1004TokenIds",
              "type": "uint256[]"
            },
            {
              "internalType": "string",
              "name": "item",
              "type": "string"
            },
            {
              "internalType": "uint256",
              "name": "timestamp",
              "type": "uint256"
            }
          ],
          "indexed": false,
          "internalType": "struct IMEP1004.LocationProof",
          "name": "locationProof",
          "type": "tuple"
        }
      ],
      "name": "NewLocationProof",
      "type": "event"
    },
    {
      "anonymous": false,
      "inputs": [
        {
          "indexed": true,
          "internalType": "address",
          "name": "previousOwner",
          "type": "address"
        },
        {
          "indexed": true,
          "internalType": "address",
          "name": "newOwner",
          "type": "address"
        }
      ],
      "name": "OwnershipTransferred",
      "type": "event"
    },
    {
      "anonymous": false,
      "inputs": [
        {
          "indexed": true,
          "internalType": "uint256",
          "name": "MEP1002TokenId",
          "type": "uint256"
        },
        {
          "indexed": true,
          "internalType": "uint256",
          "name": "MEP1004TokenId",
          "type": "uint256"
        },
        {
          "indexed": true,
          "internalType": "uint256",
          "name": "slotIndex",
          "type": "uint256"
        },
        {
          "indexed": false,
          "internalType": "uint256",
          "name": "SNCodeType",
          "type": "uint256"
        }
      ],
      "name": "RemoveFromMEP1002Slot",
      "type": "event"
    },
    {
      "anonymous": false,
      "inputs": [
        {
          "indexed": true,
          "internalType": "address",
          "name": "from",
          "type": "address"
        },
        {
          "indexed": true,
          "internalType": "address",
          "name": "to",
          "type": "address"
        },
        {
          "indexed": true,
          "internalType": "uint256",
          "name": "tokenId",
          "type": "uint256"
        }
      ],
      "name": "Transfer",
      "type": "event"
    },
    {
      "anonymous": false,
      "inputs": [
        {
          "indexed": true,
          "internalType": "address",
          "name": "implementation",
          "type": "address"
        }
      ],
      "name": "Upgraded",
      "type": "event"
    },
    {
      "inputs": [
        {
          "internalType": "uint256",
          "name": "_MEP1002TokenId",
          "type": "uint256"
        },
        {
          "internalType": "uint256[]",
          "name": "_MEP1004TokenIds",
          "type": "uint256[]"
        },
        {
          "internalType": "string",
          "name": "_item",
          "type": "string"
        }
      ],
      "name": "LocationProofs",
      "outputs": [],
      "stateMutability": "nonpayable",
      "type": "function"
    },
    {
      "inputs": [
        {
          "internalType": "address",
          "name": "_admin",
          "type": "address"
        }
      ],
      "name": "__Controllable_init",
      "outputs": [],
      "stateMutability": "nonpayable",
      "type": "function"
    },
    {
      "inputs": [
        {
          "internalType": "address",
          "name": "to",
          "type": "address"
        },
        {
          "internalType": "uint256",
          "name": "tokenId",
          "type": "uint256"
        }
      ],
      "name": "approve",
      "outputs": [],
      "stateMutability": "nonpayable",
      "type": "function"
    },
    {
      "inputs": [
        {
          "internalType": "address",
          "name": "owner",
          "type": "address"
        }
      ],
      "name": "balanceOf",
      "outputs": [
        {
          "internalType": "uint256",
          "name": "",
          "type": "uint256"
        }
      ],
      "stateMutability": "view",
      "type": "function"
    },
    {
      "inputs": [
        {
          "internalType": "address",
          "name": "",
          "type": "address"
        }
      ],
      "name": "controllers",
      "outputs": [
        {
          "internalType": "bool",
          "name": "",
          "type": "bool"
        }
      ],
      "stateMutability": "view",
      "type": "function"
    },
    {
      "inputs": [
        {
          "internalType": "uint256",
          "name": "tokenId",
          "type": "uint256"
        }
      ],
      "name": "getApproved",
      "outputs": [
        {
          "internalType": "address",
          "name": "",
          "type": "address"
        }
      ],
      "stateMutability": "view",
      "type": "function"
    },
    {
      "inputs": [],
      "name": "getBalance",
      "outputs": [
        {
          "internalType": "uint256",
          "name": "",
          "type": "uint256"
        }
      ],
      "stateMutability": "view",
      "type": "function"
    },
    {
      "inputs": [],
      "name": "getExitFee",
      "outputs": [
        {
          "internalType": "uint256",
          "name": "",
          "type": "uint256"
        }
      ],
      "stateMutability": "view",
      "type": "function"
    },
    {
      "inputs": [
        {
          "internalType": "string",
          "name": "_item",
          "type": "string"
        },
        {
          "internalType": "uint256",
          "name": "_index",
          "type": "uint256"
        },
        {
          "internalType": "uint256",
          "name": "_batchSize",
          "type": "uint256"
        }
      ],
      "name": "getLocationProofs",
      "outputs": [
        {
          "components": [
            {
              "internalType": "uint256",
              "name": "MEP1002TokenId",
              "type": "uint256"
            },
            {
              "internalType": "uint256[]",
              "name": "MEP1004TokenIds",
              "type": "uint256[]"
            },
            {
              "internalType": "string",
              "name": "item",
              "type": "string"
            },
            {
              "internalType": "uint256",
              "name": "timestamp",
              "type": "uint256"
            }
          ],
          "internalType": "struct IMEP1004.LocationProof[]",
          "name": "",
          "type": "tuple[]"
        }
      ],
      "stateMutability": "view",
      "type": "function"
    },
    {
      "inputs": [
        {
          "internalType": "uint256",
          "name": "_tokenId",
          "type": "uint256"
        }
      ],
      "name": "getSNCode",
      "outputs": [
        {
          "internalType": "string",
          "name": "",
          "type": "string"
        }
      ],
      "stateMutability": "view",
      "type": "function"
    },
    {
      "inputs": [
        {
          "internalType": "uint256",
          "name": "_tokenId",
          "type": "uint256"
        }
      ],
      "name": "getStatus",
      "outputs": [
        {
          "internalType": "uint256",
          "name": "",
          "type": "uint256"
        }
      ],
      "stateMutability": "view",
      "type": "function"
    },
    {
      "inputs": [
        {
          "internalType": "string",
          "name": "_SNCode",
          "type": "string"
        }
      ],
      "name": "getTokenId",
      "outputs": [
        {
          "internalType": "uint256",
          "name": "",
          "type": "uint256"
        }
      ],
      "stateMutability": "view",
      "type": "function"
    },
    {
      "inputs": [
        {
          "internalType": "string",
          "name": "name_",
          "type": "string"
        },
        {
          "internalType": "string",
          "name": "symbol_",
          "type": "string"
        },
        {
          "internalType": "address",
          "name": "_admin",
          "type": "address"
        }
      ],
      "name": "initialize",
      "outputs": [],
      "stateMutability": "nonpayable",
      "type": "function"
    },
    {
      "inputs": [
        {
          "internalType": "uint256",
          "name": "_tokenId",
          "type": "uint256"
        },
        {
          "internalType": "uint256",
          "name": "_mep1002Id",
          "type": "uint256"
        },
        {
          "internalType": "uint256",
          "name": "_slotIndex",
          "type": "uint256"
        }
      ],
      "name": "insertToMEP1002Slot",
      "outputs": [],
      "stateMutability": "nonpayable",
      "type": "function"
    },
    {
      "inputs": [
        {
          "internalType": "address",
          "name": "owner",
          "type": "address"
        },
        {
          "internalType": "address",
          "name": "operator",
          "type": "address"
        }
      ],
      "name": "isApprovedForAll",
      "outputs": [
        {
          "internalType": "bool",
          "name": "",
          "type": "bool"
        }
      ],
      "stateMutability": "view",
      "type": "function"
    },
    {
      "inputs": [
        {
          "internalType": "string",
          "name": "_item",
          "type": "string"
        }
      ],
      "name": "latestLocationProofs",
      "outputs": [
        {
          "components": [
            {
              "internalType": "uint256",
              "name": "MEP1002TokenId",
              "type": "uint256"
            },
            {
              "internalType": "uint256[]",
              "name": "MEP1004TokenIds",
              "type": "uint256[]"
            },
            {
              "internalType": "string",
              "name": "item",
              "type": "string"
            },
            {
              "internalType": "uint256",
              "name": "timestamp",
              "type": "uint256"
            }
          ],
          "internalType": "struct IMEP1004.LocationProof",
          "name": "",
          "type": "tuple"
        }
      ],
      "stateMutability": "view",
      "type": "function"
    },
    {
      "inputs": [
        {
          "internalType": "address",
          "name": "to",
          "type": "address"
        },
        {
          "internalType": "string",
          "name": "_SNCode",
          "type": "string"
        }
      ],
      "name": "mint",
      "outputs": [],
      "stateMutability": "nonpayable",
      "type": "function"
    },
    {
      "inputs": [],
      "name": "name",
      "outputs": [
        {
          "internalType": "string",
          "name": "",
          "type": "string"
        }
      ],
      "stateMutability": "view",
      "type": "function"
    },
    {
      "inputs": [
        {
          "internalType": "uint256",
          "name": "_mep1002Id",
          "type": "uint256"
        }
      ],
      "name": "numInsertedSlots",
      "outputs": [
        {
          "internalType": "uint256[]",
          "name": "",
          "type": "uint256[]"
        }
      ],
      "stateMutability": "view",
      "type": "function"
    },
    {
      "inputs": [],
      "name": "owner",
      "outputs": [
        {
          "internalType": "address",
          "name": "",
          "type": "address"
        }
      ],
      "stateMutability": "view",
      "type": "function"
    },
    {
      "inputs": [
        {
          "internalType": "uint256",
          "name": "tokenId",
          "type": "uint256"
        }
      ],
      "name": "ownerOf",
      "outputs": [
        {
          "internalType": "address",
          "name": "",
          "type": "address"
        }
      ],
      "stateMutability": "view",
      "type": "function"
    },
    {
      "inputs": [
        {
          "internalType": "uint256",
          "name": "_tokenId",
          "type": "uint256"
        }
      ],
      "name": "payExitFee",
      "outputs": [],
      "stateMutability": "payable",
      "type": "function"
    },
    {
      "inputs": [],
      "name": "proxiableUUID",
      "outputs": [
        {
          "internalType": "bytes32",
          "name": "",
          "type": "bytes32"
        }
      ],
      "stateMutability": "view",
      "type": "function"
    },
    {
      "inputs": [
        {
          "internalType": "uint256",
          "name": "_tokenId",
          "type": "uint256"
        },
        {
          "internalType": "uint256",
          "name": "_mep1002Id",
          "type": "uint256"
        },
        {
          "internalType": "uint256",
          "name": "_slotIndex",
          "type": "uint256"
        }
      ],
      "name": "removeFromMEP1002Slot",
      "outputs": [],
      "stateMutability": "payable",
      "type": "function"
    },
    {
      "inputs": [
        {
          "internalType": "uint256",
          "name": "_tokenId",
          "type": "uint256"
        },
        {
          "internalType": "uint256",
          "name": "_mep1002Id",
          "type": "uint256"
        },
        {
          "internalType": "uint256",
          "name": "_slotIndex",
          "type": "uint256"
        }
      ],
      "name": "removeFromMEP1002SlotAdmin",
      "outputs": [],
      "stateMutability": "nonpayable",
      "type": "function"
    },
    {
      "inputs": [],
      "name": "renounceOwnership",
      "outputs": [],
      "stateMutability": "nonpayable",
      "type": "function"
    },
    {
      "inputs": [
        {
          "internalType": "uint256",
          "name": "_tokenId",
          "type": "uint256"
        }
      ],
      "name": "resetName",
      "outputs": [],
      "stateMutability": "nonpayable",
      "type": "function"
    },
    {
      "inputs": [
        {
          "internalType": "address",
          "name": "from",
          "type": "address"
        },
        {
          "internalType": "address",
          "name": "to",
          "type": "address"
        },
        {
          "internalType": "uint256",
          "name": "tokenId",
          "type": "uint256"
        }
      ],
      "name": "safeTransferFrom",
      "outputs": [],
      "stateMutability": "nonpayable",
      "type": "function"
    },
    {
      "inputs": [
        {
          "internalType": "address",
          "name": "from",
          "type": "address"
        },
        {
          "internalType": "address",
          "name": "to",
          "type": "address"
        },
        {
          "internalType": "uint256",
          "name": "tokenId",
          "type": "uint256"
        },
        {
          "internalType": "bytes",
          "name": "data",
          "type": "bytes"
        }
      ],
      "name": "safeTransferFrom",
      "outputs": [],
      "stateMutability": "nonpayable",
      "type": "function"
    },
    {
      "inputs": [
        {
          "internalType": "address",
          "name": "operator",
          "type": "address"
        },
        {
          "internalType": "bool",
          "name": "approved",
          "type": "bool"
        }
      ],
      "name": "setApprovalForAll",
      "outputs": [],
      "stateMutability": "nonpayable",
      "type": "function"
    },
    {
      "inputs": [
        {
          "internalType": "string",
          "name": "baseURI_",
          "type": "string"
        }
      ],
      "name": "setBaseURI",
      "outputs": [],
      "stateMutability": "nonpayable",
      "type": "function"
    },
    {
      "inputs": [
        {
          "internalType": "address",
          "name": "controller",
          "type": "address"
        },
        {
          "internalType": "bool",
          "name": "enabled",
          "type": "bool"
        }
      ],
      "name": "setController",
      "outputs": [],
      "stateMutability": "nonpayable",
      "type": "function"
    },
    {
      "inputs": [
        {
          "internalType": "uint256",
          "name": "exitFee_",
          "type": "uint256"
        }
      ],
      "name": "setExitFee",
      "outputs": [],
      "stateMutability": "nonpayable",
      "type": "function"
    },
    {
      "inputs": [
        {
          "internalType": "address",
          "name": "MEP1002Addr_",
          "type": "address"
        }
      ],
      "name": "setMEP1002Addr",
      "outputs": [],
      "stateMutability": "nonpayable",
      "type": "function"
    },
    {
      "inputs": [
        {
          "internalType": "address",
          "name": "mnsToken_",
          "type": "address"
        }
      ],
      "name": "setMNSToken",
      "outputs": [],
      "stateMutability": "nonpayable",
      "type": "function"
    },
    {
      "inputs": [
        {
          "internalType": "uint256",
          "name": "_tokenId",
          "type": "uint256"
        },
        {
          "internalType": "uint256",
          "name": "_nameWrapperTokenId",
          "type": "uint256"
        }
      ],
      "name": "setName",
      "outputs": [],
      "stateMutability": "nonpayable",
      "type": "function"
    },
    {
      "inputs": [
        {
          "internalType": "uint256[]",
          "name": "slotLimits_",
          "type": "uint256[]"
        }
      ],
      "name": "setSlotLimit",
      "outputs": [],
      "stateMutability": "nonpayable",
      "type": "function"
    },
    {
      "inputs": [],
      "name": "slotLimits",
      "outputs": [
        {
          "internalType": "uint256[]",
          "name": "",
          "type": "uint256[]"
        }
      ],
      "stateMutability": "view",
      "type": "function"
    },
    {
      "inputs": [
        {
          "internalType": "bytes4",
          "name": "interfaceId",
          "type": "bytes4"
        }
      ],
      "name": "supportsInterface",
      "outputs": [
        {
          "internalType": "bool",
          "name": "",
          "type": "bool"
        }
      ],
      "stateMutability": "view",
      "type": "function"
    },
    {
      "inputs": [],
      "name": "symbol",
      "outputs": [
        {
          "internalType": "string",
          "name": "",
          "type": "string"
        }
      ],
      "stateMutability": "view",
      "type": "function"
    },
    {
      "inputs": [
        {
          "internalType": "uint256",
          "name": "index",
          "type": "uint256"
        }
      ],
      "name": "tokenByIndex",
      "outputs": [
        {
          "internalType": "uint256",
          "name": "",
          "type": "uint256"
        }
      ],
      "stateMutability": "view",
      "type": "function"
    },
    {
      "inputs": [
        {
          "internalType": "uint256",
          "name": "_tokenId",
          "type": "uint256"
        }
      ],
      "name": "tokenNames",
      "outputs": [
        {
          "internalType": "string",
          "name": "",
          "type": "string"
        }
      ],
      "stateMutability": "view",
      "type": "function"
    },
    {
      "inputs": [
        {
          "internalType": "address",
          "name": "owner",
          "type": "address"
        },
        {
          "internalType": "uint256",
          "name": "index",
          "type": "uint256"
        }
      ],
      "name": "tokenOfOwnerByIndex",
      "outputs": [
        {
          "internalType": "uint256",
          "name": "",
          "type": "uint256"
        }
      ],
      "stateMutability": "view",
      "type": "function"
    },
    {
      "inputs": [
        {
          "internalType": "uint256",
          "name": "_tokenId",
          "type": "uint256"
        }
      ],
      "name": "tokenURI",
      "outputs": [
        {
          "internalType": "string",
          "name": "",
          "type": "string"
        }
      ],
      "stateMutability": "view",
      "type": "function"
    },
    {
      "inputs": [],
      "name": "totalSupply",
      "outputs": [
        {
          "internalType": "uint256",
          "name": "",
          "type": "uint256"
        }
      ],
      "stateMutability": "view",
      "type": "function"
    },
    {
      "inputs": [
        {
          "internalType": "address",
          "name": "from",
          "type": "address"
        },
        {
          "internalType": "address",
          "name": "to",
          "type": "address"
        },
        {
          "internalType": "uint256",
          "name": "tokenId",
          "type": "uint256"
        }
      ],
      "name": "transferFrom",
      "outputs": [],
      "stateMutability": "nonpayable",
      "type": "function"
    },
    {
      "inputs": [
        {
          "internalType": "address",
          "name": "newOwner",
          "type": "address"
        }
      ],
      "name": "transferOwnership",
      "outputs": [],
      "stateMutability": "nonpayable",
      "type": "function"
    },
    {
      "inputs": [
        {
          "internalType": "address",
          "name": "newImplementation",
          "type": "address"
        }
      ],
      "name": "upgradeTo",
      "outputs": [],
      "stateMutability": "nonpayable",
      "type": "function"
    },
    {
      "inputs": [
        {
          "internalType": "address",
          "name": "newImplementation",
          "type": "address"
        },
        {
          "internalType": "bytes",
          "name": "data",
          "type": "bytes"
        }
      ],
      "name": "upgradeToAndCall",
      "outputs": [],
      "stateMutability": "payable",
      "type": "function"
    },
    {
      "inputs": [
        {
          "internalType": "uint256",
          "name": "_tokenId",
          "type": "uint256"
        }
      ],
      "name": "whereSlot",
      "outputs": [
        {
          "internalType": "uint256[3]",
          "name": "",
          "type": "uint256[3]"
        }
      ],
      "stateMutability": "view",
      "type": "function"
    },
    {
      "inputs": [],
      "name": "withdrawal",
      "outputs": [],
      "stateMutability": "nonpayable",
      "type": "function"
    }
  ],
  "transactionHash": "0x6ff815966964a0c574308ec6199629424bb0c1e5da6ce5af53b1048752365251",
  "args": [],
  "numDeployments": 4,
  "solcInputHash": "8ffd7a597a9146e8166deb42cf479a8f",
  "bytecode": "0x60a06040523060805234801561001457600080fd5b50608051615a536200004d6000396000818161121a015281816112b0015281816117da015281816118700152611a2d0152615a536000f3fe6080604052600436106103345760003560e01c80636352211e116101b0578063a868ec85116100ec578063da8c229e11610095578063e985e9c51161006f578063e985e9c514610939578063ecb0116a14610982578063ee0d1e5914610998578063f2fde38b146109ad57600080fd5b8063da8c229e146108c9578063e0dba60f146108f9578063e5a583a91461091957600080fd5b8063c87b56dd116100c6578063c87b56dd14610874578063d0def52114610894578063d4e93292146108b457600080fd5b8063a868ec8514610821578063af3aa12a14610841578063b88d4fde1461085457600080fd5b80638da5cb5b1161015957806395d89b411161013357806395d89b41146107ac5780639f4480aa146107c1578063a0fe0f51146107e1578063a22cb4651461080157600080fd5b80638da5cb5b146107415780638dcc21571461075f57806395a667671461077f57600080fd5b806370a082311161018a57806370a08231146106f9578063715018a61461071957806389aadd391461072e57600080fd5b80636352211e146106995780636895395c146106b9578063707b0379146106d957600080fd5b80632f745c591161027f5780634f1ef2861161022857806352d1902d1161020257806352d1902d1461060957806355f804b31461061e5780635c622a0e1461063e5780635fdaedf41461066c57600080fd5b80634f1ef286146105b65780634f6ccce7146105c957806352021704146105e957600080fd5b806337ef0a881161025957806337ef0a881461054957806342842e0e14610569578063429f90011461058957600080fd5b80632f745c59146104e9578063310495ab146105095780633659cfe61461052957600080fd5b806317af1318116102e157806323b872dd116102bb57806323b872dd1461047c578063259f6c451461049c5780632828adb2146104c957600080fd5b806317af13181461042757806318160ddd146104475780631e7663bc1461045c57600080fd5b8063081812fc11610312578063081812fc146103b2578063095ea7b3146103ea57806312065fe01461040a57600080fd5b806301ffc9a71461033957806306fdde031461036e578063077f224a14610390575b600080fd5b34801561034557600080fd5b50610359610354366004614e26565b6109cd565b60405190151581526020015b60405180910390f35b34801561037a57600080fd5b50610383610a29565b6040516103659190614e93565b34801561039c57600080fd5b506103b06103ab366004614f99565b610abb565b005b3480156103be57600080fd5b506103d26103cd366004615011565b610d06565b6040516001600160a01b039091168152602001610365565b3480156103f657600080fd5b506103b061040536600461502a565b610d2d565b34801561041657600080fd5b50475b604051908152602001610365565b34801561043357600080fd5b506103b0610442366004615056565b610e5e565b34801561045357600080fd5b50609954610419565b34801561046857600080fd5b50610419610477366004615073565b610f1e565b34801561048857600080fd5b506103b06104973660046150a8565b610f47565b3480156104a857600080fd5b506104bc6104b7366004615011565b610fcf565b60405161036591906150e9565b3480156104d557600080fd5b506103b06104e4366004615011565b611019565b3480156104f557600080fd5b5061041961050436600461502a565b6110cf565b34801561051557600080fd5b50610383610524366004615011565b611177565b34801561053557600080fd5b506103b0610544366004615056565b611210565b34801561055557600080fd5b506103b061056436600461519a565b6113ad565b34801561057557600080fd5b506103b06105843660046150a8565b611610565b34801561059557600080fd5b506105a96105a4366004615073565b61162b565b6040516103659190615291565b6103b06105c43660046152a4565b6117d0565b3480156105d557600080fd5b506104196105e4366004615011565b61195e565b3480156105f557600080fd5b50610383610604366004615011565b611a02565b34801561061557600080fd5b50610419611a20565b34801561062a57600080fd5b506103b0610639366004615073565b611ae5565b34801561064a57600080fd5b50610419610659366004615011565b6000908152610164602052604090205490565b34801561067857600080fd5b5061068c610687366004615011565b611b77565b60405161036591906152f4565b3480156106a557600080fd5b506103d26106b4366004615011565b611c75565b3480156106c557600080fd5b506103b06106d4366004615056565b611cda565b3480156106e557600080fd5b506103b06106f4366004615307565b611d9a565b34801561070557600080fd5b50610419610714366004615056565b6121fb565b34801561072557600080fd5b506103b0612295565b6103b061073c366004615011565b6122a9565b34801561074d57600080fd5b5060c9546001600160a01b03166103d2565b34801561076b57600080fd5b506103b061077a366004615307565b612380565b34801561078b57600080fd5b5061079f61079a366004615333565b612582565b6040516103659190615381565b3480156107b857600080fd5b50610383612914565b3480156107cd57600080fd5b506103b06107dc366004615401565b612923565b3480156107ed57600080fd5b506103b06107fc366004615056565b6129bc565b34801561080d57600080fd5b506103b061081c366004615436565b612a98565b34801561082d57600080fd5b506103b061083c366004615474565b612aa3565b6103b061084f366004615307565b612cd5565b34801561086057600080fd5b506103b061086f366004615496565b612e89565b34801561088057600080fd5b5061038361088f366004615011565b612f16565b3480156108a057600080fd5b506103b06108af3660046152a4565b612f8d565b3480156108c057600080fd5b506103b061316e565b3480156108d557600080fd5b506103596108e4366004615056565b60fb6020526000908152604090205460ff1681565b34801561090557600080fd5b506103b0610914366004615436565b61321f565b34801561092557600080fd5b506103b0610934366004615011565b613303565b34801561094557600080fd5b50610359610954366004615502565b6001600160a01b039182166000908152606a6020908152604080832093909416825291909152205460ff1690565b34801561098e57600080fd5b5061016a54610419565b3480156109a457600080fd5b5061068c61338e565b3480156109b957600080fd5b506103b06109c8366004615056565b6133e6565b60007fffffffff0000000000000000000000000000000000000000000000000000000082167f780e9d63000000000000000000000000000000000000000000000000000000001480610a235750610a2382613497565b92915050565b606060658054610a3890615530565b80601f0160208091040260200160405190810160405280929190818152602001828054610a6490615530565b8015610ab15780601f10610a8657610100808354040283529160200191610ab1565b820191906000526020600020905b815481529060010190602001808311610a9457829003601f168201915b5050505050905090565b6000610ae57fb53127684a568b3173ae13b9f8a6016e243e63b6e8ee1178d6a717850b5d61035490565b90506001600160a01b038116610b24576001600160a01b037fb53127684a568b3173ae13b9f8a6016e243e63b6e8ee1178d6a717850b5d610355610b39565b336001600160a01b03821614610b3957600080fd5b600054610100900460ff1615808015610b595750600054600160ff909116105b80610b735750303b158015610b73575060005460ff166001145b610bea5760405162461bcd60e51b815260206004820152602e60248201527f496e697469616c697a61626c653a20636f6e747261637420697320616c72656160448201527f647920696e697469616c697a656400000000000000000000000000000000000060648201526084015b60405180910390fd5b6000805460ff191660011790558015610c2a57600080547fffffffffffffffffffffffffffffffffffffffffffffffffffffffffffff00ff166101001790555b610c33836129bc565b7fb53127684a568b3173ae13b9f8a6016e243e63b6e8ee1178d6a717850b5d610383905560408051808201909152600a815260326020820152610c7b90610169906002614cdb565b506802b5e3af16b188000061016a55610c9261357a565b610c9c85856135f7565b8015610cff57600080547fffffffffffffffffffffffffffffffffffffffffffffffffffffffffffff00ff169055604051600181527f7f26b83ff96e1f2b6a682f133852f6798a09c465da95921460cefb38474024989060200160405180910390a15b5050505050565b6000610d118261367e565b506000908152606960205260409020546001600160a01b031690565b6000610d3882611c75565b9050806001600160a01b0316836001600160a01b031603610dc15760405162461bcd60e51b815260206004820152602160248201527f4552433732313a20617070726f76616c20746f2063757272656e74206f776e6560448201527f72000000000000000000000000000000000000000000000000000000000000006064820152608401610be1565b336001600160a01b0382161480610ddd5750610ddd8133610954565b610e4f5760405162461bcd60e51b815260206004820152603d60248201527f4552433732313a20617070726f76652063616c6c6572206973206e6f7420746f60448201527f6b656e206f776e6572206f7220617070726f76656420666f7220616c6c0000006064820152608401610be1565b610e5983836136e2565b505050565b33600090815260fb602052604090205460ff16610ee35760405162461bcd60e51b815260206004820152602860248201527f436f6e74726f6c6c61626c653a2043616c6c6572206973206e6f74206120636f60448201527f6e74726f6c6c65720000000000000000000000000000000000000000000000006064820152608401610be1565b61016780547fffffffffffffffffffffffff0000000000000000000000000000000000000000166001600160a01b0392909216919091179055565b600061016c82604051610f319190615583565b9081526020016040518091039020549050919050565b610f52335b82613768565b610fc45760405162461bcd60e51b815260206004820152602d60248201527f4552433732313a2063616c6c6572206973206e6f7420746f6b656e206f776e6560448201527f72206f7220617070726f766564000000000000000000000000000000000000006064820152608401610be1565b610e598383836137e7565b610fd7614d2b565b6000828152610163602052604090819020815160608101928390529160039082845b815481526020019060010190808311610ff9575b50505050509050919050565b61102233610f4c565b611058576040517f2728a9d000000000000000000000000000000000000000000000000000000000815260040160405180910390fd5b60408051602080820183526000808352848152610165909152919091209061108090826155ed565b50807fa694c601536edf73c60319b0f41192d00bf834d6a2da065dc208ce671aa204c461016560008481526020019081526020016000206040516110c491906156ad565b60405180910390a250565b60006110da836121fb565b821061114e5760405162461bcd60e51b815260206004820152602b60248201527f455243373231456e756d657261626c653a206f776e657220696e646578206f7560448201527f74206f6620626f756e64730000000000000000000000000000000000000000006064820152608401610be1565b506001600160a01b03919091166000908152609760209081526040808320938352929052205490565b60008181526101656020526040902080546060919061119590615530565b80601f01602080910402602001604051908101604052809291908181526020018280546111c190615530565b801561100d5780601f106111e35761010080835404028352916020019161100d565b820191906000526020600020905b8154815290600101906020018083116111f15750939695505050505050565b6001600160a01b037f00000000000000000000000000000000000000000000000000000000000000001630036112ae5760405162461bcd60e51b815260206004820152602c60248201527f46756e6374696f6e206d7573742062652063616c6c6564207468726f7567682060448201527f64656c656761746563616c6c00000000000000000000000000000000000000006064820152608401610be1565b7f00000000000000000000000000000000000000000000000000000000000000006001600160a01b03166113097f360894a13ba1a3210667c828492db98dca3e2076cc3735a920a3ca505d382bbc546001600160a01b031690565b6001600160a01b0316146113855760405162461bcd60e51b815260206004820152602c60248201527f46756e6374696f6e206d7573742062652063616c6c6564207468726f7567682060448201527f6163746976652070726f787900000000000000000000000000000000000000006064820152608401610be1565b61138e81613a35565b604080516000808252602082019092526113aa91839190613a3d565b50565b33600090815260fb602052604090205460ff166114325760405162461bcd60e51b815260206004820152602860248201527f436f6e74726f6c6c61626c653a2043616c6c6572206973206e6f74206120636f60448201527f6e74726f6c6c65720000000000000000000000000000000000000000000000006064820152608401610be1565b610168546040517f6352211e000000000000000000000000000000000000000000000000000000008152600481018590526001600160a01b03909116908190636352211e90602401602060405180830381865afa158015611497573d6000803e3d6000fd5b505050506040513d601f19601f820116820180604052508101906114bb9190615738565b6001600160a01b0316146114fb576040517f89ba7e1000000000000000000000000000000000000000000000000000000000815260040160405180910390fd5b600382511015611537576040517f60dcf25500000000000000000000000000000000000000000000000000000000815260040160405180910390fd5b6040805160808101825284815260208101849052808201839052426060820152905161016090611568908490615583565b908152604051602091819003820190208054600180820183556000928352918390208451600490920201908155838301518051859492936115ae93908501920190614d49565b50604082015160028201906115c390826155ed565b50606082015181600301555050837f2e98898a19e958501663f92bcca1fbcd2d69778c64868d0e845c09cf4d0b20ca8383604051611602929190615755565b60405180910390a250505050565b610e5983838360405180602001604052806000815250612e89565b6116566040518060800160405280600081526020016060815260200160608152602001600081525090565b610160826040516116679190615583565b90815260200160405180910390206001610160846040516116889190615583565b908152604051908190036020019020546116a291906157a9565b815481106116b2576116b26157bc565b9060005260206000209060040201604051806080016040529081600082015481526020016001820180548060200260200160405190810160405280929190818152602001828054801561172457602002820191906000526020600020905b815481526020019060010190808311611710575b5050505050815260200160028201805461173d90615530565b80601f016020809104026020016040519081016040528092919081815260200182805461176990615530565b80156117b65780601f1061178b576101008083540402835291602001916117b6565b820191906000526020600020905b81548152906001019060200180831161179957829003601f168201915b505050505081526020016003820154815250509050919050565b6001600160a01b037f000000000000000000000000000000000000000000000000000000000000000016300361186e5760405162461bcd60e51b815260206004820152602c60248201527f46756e6374696f6e206d7573742062652063616c6c6564207468726f7567682060448201527f64656c656761746563616c6c00000000000000000000000000000000000000006064820152608401610be1565b7f00000000000000000000000000000000000000000000000000000000000000006001600160a01b03166118c97f360894a13ba1a3210667c828492db98dca3e2076cc3735a920a3ca505d382bbc546001600160a01b031690565b6001600160a01b0316146119455760405162461bcd60e51b815260206004820152602c60248201527f46756e6374696f6e206d7573742062652063616c6c6564207468726f7567682060448201527f6163746976652070726f787900000000000000000000000000000000000000006064820152608401610be1565b61194e82613a35565b61195a82826001613a3d565b5050565b600061196960995490565b82106119dd5760405162461bcd60e51b815260206004820152602c60248201527f455243373231456e756d657261626c653a20676c6f62616c20696e646578206f60448201527f7574206f6620626f756e647300000000000000000000000000000000000000006064820152608401610be1565b609982815481106119f0576119f06157bc565b90600052602060002001549050919050565b60008181526101616020526040902080546060919061119590615530565b6000306001600160a01b037f00000000000000000000000000000000000000000000000000000000000000001614611ac05760405162461bcd60e51b815260206004820152603860248201527f555550535570677261646561626c653a206d757374206e6f742062652063616c60448201527f6c6564207468726f7567682064656c656761746563616c6c00000000000000006064820152608401610be1565b507f360894a13ba1a3210667c828492db98dca3e2076cc3735a920a3ca505d382bbc90565b33600090815260fb602052604090205460ff16611b6a5760405162461bcd60e51b815260206004820152602860248201527f436f6e74726f6c6c61626c653a2043616c6c6572206973206e6f74206120636f60448201527f6e74726f6c6c65720000000000000000000000000000000000000000000000006064820152608401610be1565b61016661195a82826155ed565b6101695460609060009067ffffffffffffffff811115611b9957611b99614ea6565b604051908082528060200260200182016040528015611bc2578160200160208202803683370190505b50905060005b61016954811015611c6e5760005b61016954811015611c5b576000858152610162602090815260408083208584529091528120805483908110611c0d57611c0d6157bc565b90600052602060002001541115611c4957828281518110611c3057611c306157bc565b602002602001018051809190611c45906157eb565b9052505b80611c53816157eb565b915050611bd6565b5080611c66816157eb565b915050611bc8565b5092915050565b6000818152606760205260408120546001600160a01b031680610a235760405162461bcd60e51b815260206004820152601860248201527f4552433732313a20696e76616c696420746f6b656e20494400000000000000006044820152606401610be1565b33600090815260fb602052604090205460ff16611d5f5760405162461bcd60e51b815260206004820152602860248201527f436f6e74726f6c6c61626c653a2043616c6c6572206973206e6f74206120636f60448201527f6e74726f6c6c65720000000000000000000000000000000000000000000000006064820152608401610be1565b61016880547fffffffffffffffffffffffff0000000000000000000000000000000000000000166001600160a01b0392909216919091179055565b611da5335b84613768565b611ddb576040517f2728a9d000000000000000000000000000000000000000000000000000000000815260040160405180910390fd5b610168546040517f6352211e000000000000000000000000000000000000000000000000000000008152600481018490526001600160a01b03909116908190636352211e90602401602060405180830381865afa158015611e40573d6000803e3d6000fd5b505050506040513d601f19601f82011682018060405250810190611e649190615738565b6001600160a01b031614611ea4576040517f89ba7e1000000000000000000000000000000000000000000000000000000000815260040160405180910390fd5b6000838152610161602052604081208054611f469190611ec390615530565b80601f0160208091040260200160405190810160405280929190818152602001828054611eef90615530565b8015611f3c5780601f10611f1157610100808354040283529160200191611f3c565b820191906000526020600020905b815481529060010190602001808311611f1f57829003601f168201915b5050505050613bdd565b90506000198103611f83576040517f9a67e0a900000000000000000000000000000000000000000000000000000000815260040160405180910390fd5b6101698181548110611f9757611f976157bc565b90600052602060002001548210611fda576040517fcd5141ab00000000000000000000000000000000000000000000000000000000815260040160405180910390fd5b6000848152610163602052604090205415612021576040517fc6198ccc00000000000000000000000000000000000000000000000000000000815260040160405180910390fd5b60008381526101626020908152604080832084845290915281205490036120d1576101698181548110612056576120566157bc565b906000526020600020015467ffffffffffffffff81111561207957612079614ea6565b6040519080825280602002602001820160405280156120a2578160200160208202803683370190505b50600084815261016260209081526040808320858452825290912082516120cf9391929190910190614d49565b505b60008381526101626020908152604080832084845290915281208054849081106120fd576120fd6157bc565b90600052602060002001541115612140576040517fb56d9ea300000000000000000000000000000000000000000000000000000000815260040160405180910390fd5b61214984613c9d565b6000838152610162602090815260408083208484529091529020805485919084908110612178576121786157bc565b60009182526020808320909101929092556040805160608101825286815280840185905280820186905287835261016390935290206121b8916003614d84565b508184847fa9ed834f1ee1816d4ead1b5aa79103b66c8037b7dbe5d0fd1c94a386115724b7846040516121ed91815260200190565b60405180910390a450505050565b60006001600160a01b0382166122795760405162461bcd60e51b815260206004820152602960248201527f4552433732313a2061646472657373207a65726f206973206e6f74206120766160448201527f6c6964206f776e657200000000000000000000000000000000000000000000006064820152608401610be1565b506001600160a01b031660009081526068602052604090205490565b61229d613ce4565b6122a76000613d3e565b565b6122b233610f4c565b6122e8576040517f2728a9d000000000000000000000000000000000000000000000000000000000815260040160405180910390fd5b60008181526101646020526040902054600114612331576040517f11a3fbc600000000000000000000000000000000000000000000000000000000815260040160405180910390fd5b61016a5434101561236e576040517f025dbdd400000000000000000000000000000000000000000000000000000000815260040160405180910390fd5b60009081526101646020526040812055565b33600090815260fb602052604090205460ff166124055760405162461bcd60e51b815260206004820152602860248201527f436f6e74726f6c6c61626c653a2043616c6c6572206973206e6f74206120636f60448201527f6e74726f6c6c65720000000000000000000000000000000000000000000000006064820152608401610be1565b60008381526101616020526040812080546124249190611ec390615530565b90506000198103612461576040517f9a67e0a900000000000000000000000000000000000000000000000000000000815260040160405180910390fd5b6000838152610162602090815260408083208484529091529020805485919084908110612490576124906157bc565b9060005260206000200154146124d2576040517f188a12d800000000000000000000000000000000000000000000000000000000815260040160405180910390fd5b60008381526101626020908152604080832084845290915281208054849081106124fe576124fe6157bc565b600091825260208083209091019290925585815261016482526040808220600190558051606081018252828152808401839052808201839052878352610163909352902061254d916003614db1565b508184847f16ea7ce6a4d526a8710d917a4773ee2e6de1e9dfaa405acb8b97da84185eb1b5846040516121ed91815260200190565b606060008290506101608560405161259a9190615583565b90815260405190819003602001902054841061260d576040805160008082526020820190925290612604565b6125f16040518060800160405280600081526020016060815260200160608152602001600081525090565b8152602001906001900390816125c65790505b5091505061290d565b836101608660405161261f9190615583565b9081526040519081900360200190205461263991906157a9565b83111561266f5783610160866040516126529190615583565b9081526040519081900360200190205461266c91906157a9565b90505b806000036126d3576040805160008082526020820190925290612604565b6126b86040518060800160405280600081526020016060815260200160608152602001600081525090565b81526020019060019003908161268d5790505091505061290d565b60008167ffffffffffffffff8111156126ee576126ee614ea6565b60405190808252806020026020018201604052801561274a57816020015b6127376040518060800160405280600081526020016060815260200160608152602001600081525090565b81526020019060019003908161270c5790505b50905060005b848110801561277e57506101608760405161276b9190615583565b9081526040519081900360200190205486105b1561290857610160876040516127949190615583565b908152602001604051809103902086815481106127b3576127b36157bc565b9060005260206000209060040201604051806080016040529081600082015481526020016001820180548060200260200160405190810160405280929190818152602001828054801561282557602002820191906000526020600020905b815481526020019060010190808311612811575b5050505050815260200160028201805461283e90615530565b80601f016020809104026020016040519081016040528092919081815260200182805461286a90615530565b80156128b75780601f1061288c576101008083540402835291602001916128b7565b820191906000526020600020905b81548152906001019060200180831161289a57829003601f168201915b505050505081526020016003820154815250508282815181106128dc576128dc6157bc565b602002602001018190525080806128f2906157eb565b9150508580612900906157eb565b965050612750565b509150505b9392505050565b606060668054610a3890615530565b33600090815260fb602052604090205460ff166129a85760405162461bcd60e51b815260206004820152602860248201527f436f6e74726f6c6c61626c653a2043616c6c6572206973206e6f74206120636f60448201527f6e74726f6c6c65720000000000000000000000000000000000000000000000006064820152608401610be1565b805161195a90610169906020840190614d49565b600054610100900460ff16612a395760405162461bcd60e51b815260206004820152602b60248201527f496e697469616c697a61626c653a20636f6e7472616374206973206e6f74206960448201527f6e697469616c697a696e670000000000000000000000000000000000000000006064820152608401610be1565b612a41613da8565b6001600160a01b038116600081815260fb6020908152604091829020805460ff1916600190811790915591519182527f4c97694570a07277810af7e5669ffd5f6a2d6b74b6e9a274b8b870fd5114cf8791016110c4565b61195a338383613e2d565b612aae335b83613768565b612ae4576040517f2728a9d000000000000000000000000000000000000000000000000000000000815260040160405180910390fd5b33610167546040517f6352211e000000000000000000000000000000000000000000000000000000008152600481018490526001600160a01b039283169290911690636352211e90602401602060405180830381865afa158015612b4c573d6000803e3d6000fd5b505050506040513d601f19601f82011682018060405250810190612b709190615738565b6001600160a01b031614612bb0576040517f507b884600000000000000000000000000000000000000000000000000000000815260040160405180910390fd5b610167546040517f20c38e2b000000000000000000000000000000000000000000000000000000008152600481018390526000916001600160a01b0316906320c38e2b90602401600060405180830381865afa158015612c14573d6000803e3d6000fd5b505050506040513d6000823e601f3d908101601f19168201604052612c3c9190810190615805565b90508051600003612c4c57505050565b80604051602001612c5d9190615583565b60408051601f1981840301815291815260008581526101656020522090612c8490826155ed565b50827fa694c601536edf73c60319b0f41192d00bf834d6a2da065dc208ce671aa204c46101656000868152602001908152602001600020604051612cc891906156ad565b60405180910390a2505050565b612cde33611d9f565b612d14576040517f2728a9d000000000000000000000000000000000000000000000000000000000815260040160405180910390fd5b6000838152610161602052604081208054612d339190611ec390615530565b90506000198103612d70576040517f9a67e0a900000000000000000000000000000000000000000000000000000000815260040160405180910390fd5b6000838152610162602090815260408083208484529091529020805485919084908110612d9f57612d9f6157bc565b906000526020600020015414612de1576040517f188a12d800000000000000000000000000000000000000000000000000000000815260040160405180910390fd5b61016a543414612e1d576040517f025dbdd400000000000000000000000000000000000000000000000000000000815260040160405180910390fd5b6000838152610162602090815260408083208484529091528120805484908110612e4957612e496157bc565b600091825260208083209091019290925560408051606081018252828152808401839052808201839052878352610163909352902061254d916003614db1565b612e9233612aa8565b612f045760405162461bcd60e51b815260206004820152602d60248201527f4552433732313a2063616c6c6572206973206e6f7420746f6b656e206f776e6560448201527f72206f7220617070726f766564000000000000000000000000000000000000006064820152608401610be1565b612f1084848484613efb565b50505050565b6060612f218261367e565b6000612f2b613f84565b90506000815111612f4b576040518060200160405280600081525061290d565b80612f5584613f94565b600085815261016560209081526040918290209151612f779493929101615873565b6040516020818303038152906040529392505050565b33600090815260fb602052604090205460ff166130125760405162461bcd60e51b815260206004820152602860248201527f436f6e74726f6c6c61626c653a2043616c6c6572206973206e6f74206120636f60448201527f6e74726f6c6c65720000000000000000000000000000000000000000000000006064820152608401610be1565b805160000361304d576040517fc5a8d37100000000000000000000000000000000000000000000000000000000815260040160405180910390fd5b600061305961016b5490565b9050806000036130785761307261016b80546001019055565b5061016b545b61308761016b80546001019055565b61016c826040516130989190615583565b9081526020016040518091039020546000146130e0576040517fc5a8d37100000000000000000000000000000000000000000000000000000000815260040160405180910390fd5b6000196130ec83613bdd565b03613123576040517f9a67e0a900000000000000000000000000000000000000000000000000000000815260040160405180910390fd5b61312d8382614034565b60008181526101616020526040902061314683826155ed565b508061016c836040516131599190615583565b90815260405190819003602001902055505050565b33600090815260fb602052604090205460ff166131f35760405162461bcd60e51b815260206004820152602860248201527f436f6e74726f6c6c61626c653a2043616c6c6572206973206e6f74206120636f60448201527f6e74726f6c6c65720000000000000000000000000000000000000000000000006064820152608401610be1565b60405133904780156108fc02916000818181858888f193505050501580156113aa573d6000803e3d6000fd5b33600090815260fb602052604090205460ff166132a45760405162461bcd60e51b815260206004820152602860248201527f436f6e74726f6c6c61626c653a2043616c6c6572206973206e6f74206120636f60448201527f6e74726f6c6c65720000000000000000000000000000000000000000000000006064820152608401610be1565b6001600160a01b038216600081815260fb6020908152604091829020805460ff191685151590811790915591519182527f4c97694570a07277810af7e5669ffd5f6a2d6b74b6e9a274b8b870fd5114cf87910160405180910390a25050565b33600090815260fb602052604090205460ff166133885760405162461bcd60e51b815260206004820152602860248201527f436f6e74726f6c6c61626c653a2043616c6c6572206973206e6f74206120636f60448201527f6e74726f6c6c65720000000000000000000000000000000000000000000000006064820152608401610be1565b61016a55565b6060610169805480602002602001604051908101604052809291908181526020018280548015610ab157602002820191906000526020600020905b8154815260200190600101908083116133c9575050505050905090565b6133ee613ce4565b6001600160a01b03811661346a5760405162461bcd60e51b815260206004820152602660248201527f4f776e61626c653a206e6577206f776e657220697320746865207a65726f206160448201527f64647265737300000000000000000000000000000000000000000000000000006064820152608401610be1565b61347381613d3e565b7fb53127684a568b3173ae13b9f8a6016e243e63b6e8ee1178d6a717850b5d610355565b60007fffffffff0000000000000000000000000000000000000000000000000000000082167f80ac58cd00000000000000000000000000000000000000000000000000000000148061352a57507fffffffff0000000000000000000000000000000000000000000000000000000082167f5b5e139f00000000000000000000000000000000000000000000000000000000145b80610a2357507f01ffc9a7000000000000000000000000000000000000000000000000000000007fffffffff00000000000000000000000000000000000000000000000000000000831614610a23565b600054610100900460ff166122a75760405162461bcd60e51b815260206004820152602b60248201527f496e697469616c697a61626c653a20636f6e7472616374206973206e6f74206960448201527f6e697469616c697a696e670000000000000000000000000000000000000000006064820152608401610be1565b600054610100900460ff166136745760405162461bcd60e51b815260206004820152602b60248201527f496e697469616c697a61626c653a20636f6e7472616374206973206e6f74206960448201527f6e697469616c697a696e670000000000000000000000000000000000000000006064820152608401610be1565b61195a828261404e565b6000818152606760205260409020546001600160a01b03166113aa5760405162461bcd60e51b815260206004820152601860248201527f4552433732313a20696e76616c696420746f6b656e20494400000000000000006044820152606401610be1565b600081815260696020526040902080547fffffffffffffffffffffffff0000000000000000000000000000000000000000166001600160a01b038416908117909155819061372f82611c75565b6001600160a01b03167f8c5be1e5ebec7d5bd14f71427d1e84f3dd0314c0f7b2291e5b200ac8c7c3b92560405160405180910390a45050565b60008061377483611c75565b9050806001600160a01b0316846001600160a01b031614806137bb57506001600160a01b038082166000908152606a602090815260408083209388168352929052205460ff165b806137df5750836001600160a01b03166137d484610d06565b6001600160a01b0316145b949350505050565b826001600160a01b03166137fa82611c75565b6001600160a01b0316146138765760405162461bcd60e51b815260206004820152602560248201527f4552433732313a207472616e736665722066726f6d20696e636f72726563742060448201527f6f776e65720000000000000000000000000000000000000000000000000000006064820152608401610be1565b6001600160a01b0382166138f15760405162461bcd60e51b8152602060048201526024808201527f4552433732313a207472616e7366657220746f20746865207a65726f2061646460448201527f72657373000000000000000000000000000000000000000000000000000000006064820152608401610be1565b6138fe83838360016140e4565b826001600160a01b031661391182611c75565b6001600160a01b03161461398d5760405162461bcd60e51b815260206004820152602560248201527f4552433732313a207472616e736665722066726f6d20696e636f72726563742060448201527f6f776e65720000000000000000000000000000000000000000000000000000006064820152608401610be1565b600081815260696020908152604080832080547fffffffffffffffffffffffff00000000000000000000000000000000000000009081169091556001600160a01b0387811680865260688552838620805460001901905590871680865283862080546001019055868652606790945282852080549092168417909155905184937fddf252ad1be2c89b69c2b068fc378daa952ba7f163c4a11628f55a4df523b3ef91a4505050565b6113aa613ce4565b7f4910fdfa16fed3260ed0e7147f7cc6da11a60208b5b9406d12a635614ffd91435460ff1615613a7057610e5983614219565b826001600160a01b03166352d1902d6040518163ffffffff1660e01b8152600401602060405180830381865afa925050508015613aca575060408051601f3d908101601f19168201909252613ac791810190615942565b60015b613b3c5760405162461bcd60e51b815260206004820152602e60248201527f45524331393637557067726164653a206e657720696d706c656d656e7461746960448201527f6f6e206973206e6f7420555550530000000000000000000000000000000000006064820152608401610be1565b7f360894a13ba1a3210667c828492db98dca3e2076cc3735a920a3ca505d382bbc8114613bd15760405162461bcd60e51b815260206004820152602960248201527f45524331393637557067726164653a20756e737570706f727465642070726f7860448201527f6961626c655555494400000000000000000000000000000000000000000000006064820152608401610be1565b50610e598383836142ef565b60408051808201909152600381527f4d325800000000000000000000000000000000000000000000000000000000006020820152600090829082613c218383614314565b90506000198114613c3757506000949350505050565b60408051808201909152600381527f4e454f000000000000000000000000000000000000000000000000000000000060208201526000613c778583614314565b90506000198114613c8f575060019695505050505050565b506000199695505050505050565b60008181526101646020526040902054156113aa576040517fce006bf600000000000000000000000000000000000000000000000000000000815260040160405180910390fd5b60c9546001600160a01b031633146122a75760405162461bcd60e51b815260206004820181905260248201527f4f776e61626c653a2063616c6c6572206973206e6f7420746865206f776e65726044820152606401610be1565b60c980546001600160a01b038381167fffffffffffffffffffffffff0000000000000000000000000000000000000000831681179093556040519116919082907f8be0079c531659141344cd1fd0a4f28419497f9722a3daafe3b4186f6b6457e090600090a35050565b600054610100900460ff16613e255760405162461bcd60e51b815260206004820152602b60248201527f496e697469616c697a61626c653a20636f6e7472616374206973206e6f74206960448201527f6e697469616c697a696e670000000000000000000000000000000000000000006064820152608401610be1565b6122a761447f565b816001600160a01b0316836001600160a01b031603613e8e5760405162461bcd60e51b815260206004820152601960248201527f4552433732313a20617070726f766520746f2063616c6c6572000000000000006044820152606401610be1565b6001600160a01b038381166000818152606a6020908152604080832094871680845294825291829020805460ff191686151590811790915591519182527f17307eab39ab6107e8899845ad3d59bd9653f200f220920489ca2b5937696c31910160405180910390a3505050565b613f068484846137e7565b613f1284848484614505565b612f105760405162461bcd60e51b815260206004820152603260248201527f4552433732313a207472616e7366657220746f206e6f6e20455243373231526560448201527f63656976657220696d706c656d656e74657200000000000000000000000000006064820152608401610be1565b60606101668054610a3890615530565b60606000613fa1836146a6565b600101905060008167ffffffffffffffff811115613fc157613fc1614ea6565b6040519080825280601f01601f191660200182016040528015613feb576020820181803683370190505b5090508181016020015b600019017f3031323334353637383961626364656600000000000000000000000000000000600a86061a8153600a8504945084613ff557509392505050565b61195a828260405180602001604052806000815250614788565b600054610100900460ff166140cb5760405162461bcd60e51b815260206004820152602b60248201527f496e697469616c697a61626c653a20636f6e7472616374206973206e6f74206960448201527f6e697469616c697a696e670000000000000000000000000000000000000000006064820152608401610be1565b60656140d783826155ed565b506066610e5982826155ed565b600181111561415b5760405162461bcd60e51b815260206004820152603560248201527f455243373231456e756d657261626c653a20636f6e736563757469766520747260448201527f616e7366657273206e6f7420737570706f7274656400000000000000000000006064820152608401610be1565b816001600160a01b0385166141b7576141b281609980546000838152609a60205260408120829055600182018355919091527f72a152ddfb8e864297c917af52ea6c1c68aead0fee1a62673fcc7e0c94979d000155565b6141da565b836001600160a01b0316856001600160a01b0316146141da576141da8582614811565b6001600160a01b0384166141f6576141f1816148ae565b610cff565b846001600160a01b0316846001600160a01b031614610cff57610cff848261495d565b6001600160a01b0381163b6142965760405162461bcd60e51b815260206004820152602d60248201527f455243313936373a206e657720696d706c656d656e746174696f6e206973206e60448201527f6f74206120636f6e7472616374000000000000000000000000000000000000006064820152608401610be1565b7f360894a13ba1a3210667c828492db98dca3e2076cc3735a920a3ca505d382bbc80547fffffffffffffffffffffffff0000000000000000000000000000000000000000166001600160a01b0392909216919091179055565b6142f8836149a1565b6000825111806143055750805b15610e5957612f1083836149e1565b600082518251111561438e5760405162461bcd60e51b815260206004820152602c60248201527f43616e6e6f742066696e642061206c6f6e67657220737472696e6720696e206160448201527f2073686f72746572206f6e6500000000000000000000000000000000000000006064820152608401610be1565b6000805b835185516143a091906157a9565b82116144735750600060015b845182101561444f578482815181106143c7576143c76157bc565b01602001517fff0000000000000000000000000000000000000000000000000000000000000016866143f9848661595b565b81518110614409576144096157bc565b01602001517fff00000000000000000000000000000000000000000000000000000000000000161461443d5750600061444f565b81614447816157eb565b9250506143ac565b801561446057829350505050610a23565b508161446b816157eb565b925050614392565b50600019949350505050565b600054610100900460ff166144fc5760405162461bcd60e51b815260206004820152602b60248201527f496e697469616c697a61626c653a20636f6e7472616374206973206e6f74206960448201527f6e697469616c697a696e670000000000000000000000000000000000000000006064820152608401610be1565b6122a733613d3e565b60006001600160a01b0384163b1561469b576040517f150b7a020000000000000000000000000000000000000000000000000000000081526001600160a01b0385169063150b7a029061456290339089908890889060040161596e565b6020604051808303816000875af192505050801561459d575060408051601f3d908101601f1916820190925261459a918101906159aa565b60015b614650573d8080156145cb576040519150601f19603f3d011682016040523d82523d6000602084013e6145d0565b606091505b5080516000036146485760405162461bcd60e51b815260206004820152603260248201527f4552433732313a207472616e7366657220746f206e6f6e20455243373231526560448201527f63656976657220696d706c656d656e74657200000000000000000000000000006064820152608401610be1565b805181602001fd5b7fffffffff00000000000000000000000000000000000000000000000000000000167f150b7a02000000000000000000000000000000000000000000000000000000001490506137df565b506001949350505050565b6000807a184f03e93ff9f4daa797ed6e38ed64bf6a1f01000000000000000083106146ef577a184f03e93ff9f4daa797ed6e38ed64bf6a1f010000000000000000830492506040015b6d04ee2d6d415b85acef8100000000831061471b576d04ee2d6d415b85acef8100000000830492506020015b662386f26fc10000831061473957662386f26fc10000830492506010015b6305f5e1008310614751576305f5e100830492506008015b612710831061476557612710830492506004015b60648310614777576064830492506002015b600a8310610a235760010192915050565b6147928383614aec565b61479f6000848484614505565b610e595760405162461bcd60e51b815260206004820152603260248201527f4552433732313a207472616e7366657220746f206e6f6e20455243373231526560448201527f63656976657220696d706c656d656e74657200000000000000000000000000006064820152608401610be1565b6000600161481e846121fb565b61482891906157a9565b60008381526098602052604090205490915080821461487b576001600160a01b03841660009081526097602090815260408083208584528252808320548484528184208190558352609890915290208190555b5060009182526098602090815260408084208490556001600160a01b039094168352609781528383209183525290812055565b6099546000906148c0906001906157a9565b6000838152609a6020526040812054609980549394509092849081106148e8576148e86157bc565b906000526020600020015490508060998381548110614909576149096157bc565b6000918252602080832090910192909255828152609a90915260408082208490558582528120556099805480614941576149416159c7565b6001900381819060005260206000200160009055905550505050565b6000614968836121fb565b6001600160a01b039093166000908152609760209081526040808320868452825280832085905593825260989052919091209190915550565b6149aa81614219565b6040516001600160a01b038216907fbc7cd75a20ee27fd9adebab32041f755214dbc6bffa90cc0225b39da2e5c2d3b90600090a250565b60606001600160a01b0383163b614a605760405162461bcd60e51b815260206004820152602660248201527f416464726573733a2064656c65676174652063616c6c20746f206e6f6e2d636f60448201527f6e747261637400000000000000000000000000000000000000000000000000006064820152608401610be1565b600080846001600160a01b031684604051614a7b9190615583565b600060405180830381855af49150503d8060008114614ab6576040519150601f19603f3d011682016040523d82523d6000602084013e614abb565b606091505b5091509150614ae382826040518060600160405280602781526020016159f760279139614c9d565b95945050505050565b6001600160a01b038216614b425760405162461bcd60e51b815260206004820181905260248201527f4552433732313a206d696e7420746f20746865207a65726f20616464726573736044820152606401610be1565b6000818152606760205260409020546001600160a01b031615614ba75760405162461bcd60e51b815260206004820152601c60248201527f4552433732313a20746f6b656e20616c7265616479206d696e746564000000006044820152606401610be1565b614bb56000838360016140e4565b6000818152606760205260409020546001600160a01b031615614c1a5760405162461bcd60e51b815260206004820152601c60248201527f4552433732313a20746f6b656e20616c7265616479206d696e746564000000006044820152606401610be1565b6001600160a01b038216600081815260686020908152604080832080546001019055848352606790915280822080547fffffffffffffffffffffffff0000000000000000000000000000000000000000168417905551839291907fddf252ad1be2c89b69c2b068fc378daa952ba7f163c4a11628f55a4df523b3ef908290a45050565b60608315614cac57508161290d565b61290d8383815115614cc15781518083602001fd5b8060405162461bcd60e51b8152600401610be19190614e93565b828054828255906000526020600020908101928215614d1b579160200282015b82811115614d1b578251829060ff16905591602001919060010190614cfb565b50614d27929150614de3565b5090565b60405180606001604052806003906020820280368337509192915050565b828054828255906000526020600020908101928215614d1b579160200282015b82811115614d1b578251825591602001919060010190614d69565b8260038101928215614d1b5791602002820182811115614d1b578251825591602001919060010190614d69565b8260038101928215614d1b5791602002820182811115614d1b578251829060ff16905591602001919060010190614cfb565b5b80821115614d275760008155600101614de4565b7fffffffff00000000000000000000000000000000000000000000000000000000811681146113aa57600080fd5b600060208284031215614e3857600080fd5b813561290d81614df8565b60005b83811015614e5e578181015183820152602001614e46565b50506000910152565b60008151808452614e7f816020860160208601614e43565b601f01601f19169290920160200192915050565b60208152600061290d6020830184614e67565b7f4e487b7100000000000000000000000000000000000000000000000000000000600052604160045260246000fd5b604051601f8201601f1916810167ffffffffffffffff81118282101715614efe57614efe614ea6565b604052919050565b600067ffffffffffffffff821115614f2057614f20614ea6565b50601f01601f191660200190565b600082601f830112614f3f57600080fd5b8135614f52614f4d82614f06565b614ed5565b818152846020838601011115614f6757600080fd5b816020850160208301376000918101602001919091529392505050565b6001600160a01b03811681146113aa57600080fd5b600080600060608486031215614fae57600080fd5b833567ffffffffffffffff80821115614fc657600080fd5b614fd287838801614f2e565b94506020860135915080821115614fe857600080fd5b50614ff586828701614f2e565b925050604084013561500681614f84565b809150509250925092565b60006020828403121561502357600080fd5b5035919050565b6000806040838503121561503d57600080fd5b823561504881614f84565b946020939093013593505050565b60006020828403121561506857600080fd5b813561290d81614f84565b60006020828403121561508557600080fd5b813567ffffffffffffffff81111561509c57600080fd5b6137df84828501614f2e565b6000806000606084860312156150bd57600080fd5b83356150c881614f84565b925060208401356150d881614f84565b929592945050506040919091013590565b60608101818360005b60038110156151115781518352602092830192909101906001016150f2565b50505092915050565b600082601f83011261512b57600080fd5b8135602067ffffffffffffffff82111561514757615147614ea6565b8160051b615156828201614ed5565b928352848101820192828101908785111561517057600080fd5b83870192505b8483101561518f57823582529183019190830190615176565b979650505050505050565b6000806000606084860312156151af57600080fd5b83359250602084013567ffffffffffffffff808211156151ce57600080fd5b6151da8783880161511a565b935060408601359150808211156151f057600080fd5b506151fd86828701614f2e565b9150509250925092565b600081518084526020808501945080840160005b838110156152375781518752958201959082019060010161521b565b509495945050505050565b8051825260006020820151608060208501526152616080850182615207565b90506040830151848203604086015261527a8282614e67565b915050606083015160608501528091505092915050565b60208152600061290d6020830184615242565b600080604083850312156152b757600080fd5b82356152c281614f84565b9150602083013567ffffffffffffffff8111156152de57600080fd5b6152ea85828601614f2e565b9150509250929050565b60208152600061290d6020830184615207565b60008060006060848603121561531c57600080fd5b505081359360208301359350604090920135919050565b60008060006060848603121561534857600080fd5b833567ffffffffffffffff81111561535f57600080fd5b61536b86828701614f2e565b9660208601359650604090950135949350505050565b6000602080830181845280855180835260408601915060408160051b870101925083870160005b828110156153f4577fffffffffffffffffffffffffffffffffffffffffffffffffffffffffffffffc08886030184526153e2858351615242565b945092850192908501906001016153a8565b5092979650505050505050565b60006020828403121561541357600080fd5b813567ffffffffffffffff81111561542a57600080fd5b6137df8482850161511a565b6000806040838503121561544957600080fd5b823561545481614f84565b91506020830135801515811461546957600080fd5b809150509250929050565b6000806040838503121561548757600080fd5b50508035926020909101359150565b600080600080608085870312156154ac57600080fd5b84356154b781614f84565b935060208501356154c781614f84565b925060408501359150606085013567ffffffffffffffff8111156154ea57600080fd5b6154f687828801614f2e565b91505092959194509250565b6000806040838503121561551557600080fd5b823561552081614f84565b9150602083013561546981614f84565b600181811c9082168061554457607f821691505b60208210810361557d577f4e487b7100000000000000000000000000000000000000000000000000000000600052602260045260246000fd5b50919050565b60008251615595818460208701614e43565b9190910192915050565b601f821115610e5957600081815260208120601f850160051c810160208610156155c65750805b601f850160051c820191505b818110156155e5578281556001016155d2565b505050505050565b815167ffffffffffffffff81111561560757615607614ea6565b61561b816156158454615530565b8461559f565b602080601f83116001811461565057600084156156385750858301515b600019600386901b1c1916600185901b1785556155e5565b600085815260208120601f198616915b8281101561567f57888601518255948401946001909101908401615660565b508582101561569d5787850151600019600388901b60f8161c191681555b5050505050600190811b01905550565b60006020808352600084546156c181615530565b808487015260406001808416600081146156e257600181146156fc5761572a565b60ff198516838a01528284151560051b8a0101955061572a565b896000528660002060005b858110156157225781548b8201860152908301908801615707565b8a0184019650505b509398975050505050505050565b60006020828403121561574a57600080fd5b815161290d81614f84565b6040815260006157686040830185614e67565b8281036020840152614ae38185615242565b7f4e487b7100000000000000000000000000000000000000000000000000000000600052601160045260246000fd5b81810381811115610a2357610a2361577a565b7f4e487b7100000000000000000000000000000000000000000000000000000000600052603260045260246000fd5b600060001982036157fe576157fe61577a565b5060010190565b60006020828403121561581757600080fd5b815167ffffffffffffffff81111561582e57600080fd5b8201601f8101841361583f57600080fd5b805161584d614f4d82614f06565b81815285602083850101111561586257600080fd5b614ae3826020830160208601614e43565b6000845160206158868285838a01614e43565b8551918401916158998184848a01614e43565b7f3f6e616d653d0000000000000000000000000000000000000000000000000000920191825284546006906000906158d081615530565b600182811680156158e8576001811461590157615931565b60ff198416868901528583151584028901019450615931565b8a6000528660002060005b848110156159275781548a820189015290830190880161590c565b5050858389010194505b50929b9a5050505050505050505050565b60006020828403121561595457600080fd5b5051919050565b80820180821115610a2357610a2361577a565b60006001600160a01b038087168352808616602084015250836040830152608060608301526159a06080830184614e67565b9695505050505050565b6000602082840312156159bc57600080fd5b815161290d81614df8565b7f4e487b7100000000000000000000000000000000000000000000000000000000600052603160045260246000fdfe416464726573733a206c6f772d6c6576656c2064656c65676174652063616c6c206661696c6564a2646970667358221220432fe1118bec753f93f2732d711324782a3234e0cc8be3b1ac85d171cb7feb2c64736f6c63430008120033",
  "devdoc": {
    "events": {
      "AdminChanged(address,address)": {
        "details": "Emitted when the admin account has changed."
      },
      "Approval(address,address,uint256)": {
        "details": "Emitted when `owner` enables `approved` to manage the `tokenId` token."
      },
      "ApprovalForAll(address,address,bool)": {
        "details": "Emitted when `owner` enables or disables (`approved`) `operator` to manage all of its assets."
      },
      "BeaconUpgraded(address)": {
        "details": "Emitted when the beacon is changed."
      },
      "Initialized(uint8)": {
        "details": "Triggered when the contract has been initialized or reinitialized."
      },
      "Transfer(address,address,uint256)": {
        "details": "Emitted when `tokenId` token is transferred from `from` to `to`."
      },
      "Upgraded(address)": {
        "details": "Emitted when the implementation is upgraded."
      }
    },
    "kind": "dev",
    "methods": {
      "LocationProofs(uint256,uint256[],string)": {
        "details": "Submit the location proofs of anything."
      },
      "approve(address,uint256)": {
        "details": "See {IERC721-approve}."
      },
      "balanceOf(address)": {
        "details": "See {IERC721-balanceOf}."
      },
      "getApproved(uint256)": {
        "details": "See {IERC721-getApproved}."
      },
      "getLocationProofs(string,uint256,uint256)": {
        "details": "get the recent location proofs of anything."
      },
      "getStatus(uint256)": {
        "details": "Returns the status of the token."
      },
      "insertToMEP1002Slot(uint256,uint256,uint256)": {
        "details": "Inserts the MEP1004 token to the specified slot within a MEP1002 token."
      },
      "isApprovedForAll(address,address)": {
        "details": "See {IERC721-isApprovedForAll}."
      },
      "latestLocationProofs(string)": {
        "details": "get the latest location proofs of anything."
      },
      "name()": {
        "details": "See {IERC721Metadata-name}."
      },
      "numInsertedSlots(uint256)": {
        "details": "Returns the number of slots inserted with the MEP1004 token in the specified MEP1002 token."
      },
      "owner()": {
        "details": "Returns the address of the current owner."
      },
      "ownerOf(uint256)": {
        "details": "See {IERC721-ownerOf}."
      },
      "proxiableUUID()": {
        "details": "Implementation of the ERC1822 {proxiableUUID} function. This returns the storage slot used by the implementation. It is used to validate the implementation's compatibility when performing an upgrade. IMPORTANT: A proxy pointing at a proxiable contract should not be considered proxiable itself, because this risks bricking a proxy that upgrades to it, by delegating to itself until out of gas. Thus it is critical that this function revert if invoked through a proxy. This is guaranteed by the `notDelegated` modifier."
      },
      "removeFromMEP1002Slot(uint256,uint256,uint256)": {
        "details": "Removes the MEP1004 token from the specified slot within a MEP1002 token."
      },
      "renounceOwnership()": {
        "details": "Leaves the contract without owner. It will not be possible to call `onlyOwner` functions anymore. Can only be called by the current owner. NOTE: Renouncing ownership will leave the contract without an owner, thereby removing any functionality that is only available to the owner."
      },
      "safeTransferFrom(address,address,uint256)": {
        "details": "See {IERC721-safeTransferFrom}."
      },
      "safeTransferFrom(address,address,uint256,bytes)": {
        "details": "See {IERC721-safeTransferFrom}."
      },
      "setApprovalForAll(address,bool)": {
        "details": "See {IERC721-setApprovalForAll}."
      },
      "slotLimits()": {
        "details": "Returns the limit number of slots that can be inserted with the MEP1002 token."
      },
      "supportsInterface(bytes4)": {
        "details": "See {IERC165-supportsInterface}."
      },
      "symbol()": {
        "details": "See {IERC721Metadata-symbol}."
      },
      "tokenByIndex(uint256)": {
        "details": "See {IERC721Enumerable-tokenByIndex}."
      },
      "tokenOfOwnerByIndex(address,uint256)": {
        "details": "See {IERC721Enumerable-tokenOfOwnerByIndex}."
      },
      "tokenURI(uint256)": {
        "details": "See {IERC721Metadata-tokenURI}."
      },
      "totalSupply()": {
        "details": "See {IERC721Enumerable-totalSupply}."
      },
      "transferFrom(address,address,uint256)": {
        "details": "See {IERC721-transferFrom}."
      },
      "transferOwnership(address)": {
        "details": "Transfers ownership of the contract to a new account (`newOwner`). Can only be called by the current owner."
      },
      "upgradeTo(address)": {
        "details": "Upgrade the implementation of the proxy to `newImplementation`. Calls {_authorizeUpgrade}. Emits an {Upgraded} event."
      },
      "upgradeToAndCall(address,bytes)": {
        "details": "Upgrade the implementation of the proxy to `newImplementation`, and subsequently execute the function call encoded in `data`. Calls {_authorizeUpgrade}. Emits an {Upgraded} event."
      },
      "whereSlot(uint256)": {
        "details": "search the MEP1004 token in the specified slot within a MEP1002 token."
      }
    },
    "version": 1
  },
  "userdoc": {
    "kind": "user",
    "methods": {},
    "version": 1
  },
  "storageLayout": {
    "storage": [
      {
        "astId": 534,
        "contract": "contracts/token/MEP1004Token.sol:MEP1004Token",
        "label": "_initialized",
        "offset": 0,
        "slot": "0",
        "type": "t_uint8"
      },
      {
        "astId": 537,
        "contract": "contracts/token/MEP1004Token.sol:MEP1004Token",
        "label": "_initializing",
        "offset": 1,
        "slot": "0",
        "type": "t_bool"
      },
      {
        "astId": 2675,
        "contract": "contracts/token/MEP1004Token.sol:MEP1004Token",
        "label": "__gap",
        "offset": 0,
        "slot": "1",
        "type": "t_array(t_uint256)50_storage"
      },
      {
        "astId": 2954,
        "contract": "contracts/token/MEP1004Token.sol:MEP1004Token",
        "label": "__gap",
        "offset": 0,
        "slot": "51",
        "type": "t_array(t_uint256)50_storage"
      },
      {
        "astId": 861,
        "contract": "contracts/token/MEP1004Token.sol:MEP1004Token",
        "label": "_name",
        "offset": 0,
        "slot": "101",
        "type": "t_string_storage"
      },
      {
        "astId": 863,
        "contract": "contracts/token/MEP1004Token.sol:MEP1004Token",
        "label": "_symbol",
        "offset": 0,
        "slot": "102",
        "type": "t_string_storage"
      },
      {
        "astId": 867,
        "contract": "contracts/token/MEP1004Token.sol:MEP1004Token",
        "label": "_owners",
        "offset": 0,
        "slot": "103",
        "type": "t_mapping(t_uint256,t_address)"
      },
      {
        "astId": 871,
        "contract": "contracts/token/MEP1004Token.sol:MEP1004Token",
        "label": "_balances",
        "offset": 0,
        "slot": "104",
        "type": "t_mapping(t_address,t_uint256)"
      },
      {
        "astId": 875,
        "contract": "contracts/token/MEP1004Token.sol:MEP1004Token",
        "label": "_tokenApprovals",
        "offset": 0,
        "slot": "105",
        "type": "t_mapping(t_uint256,t_address)"
      },
      {
        "astId": 881,
        "contract": "contracts/token/MEP1004Token.sol:MEP1004Token",
        "label": "_operatorApprovals",
        "offset": 0,
        "slot": "106",
        "type": "t_mapping(t_address,t_mapping(t_address,t_bool))"
      },
      {
        "astId": 1783,
        "contract": "contracts/token/MEP1004Token.sol:MEP1004Token",
        "label": "__gap",
        "offset": 0,
        "slot": "107",
        "type": "t_array(t_uint256)44_storage"
      },
      {
        "astId": 1948,
        "contract": "contracts/token/MEP1004Token.sol:MEP1004Token",
        "label": "_ownedTokens",
        "offset": 0,
        "slot": "151",
        "type": "t_mapping(t_address,t_mapping(t_uint256,t_uint256))"
      },
      {
        "astId": 1952,
        "contract": "contracts/token/MEP1004Token.sol:MEP1004Token",
        "label": "_ownedTokensIndex",
        "offset": 0,
        "slot": "152",
        "type": "t_mapping(t_uint256,t_uint256)"
      },
      {
        "astId": 1955,
        "contract": "contracts/token/MEP1004Token.sol:MEP1004Token",
        "label": "_allTokens",
        "offset": 0,
        "slot": "153",
        "type": "t_array(t_uint256)dyn_storage"
      },
      {
        "astId": 1959,
        "contract": "contracts/token/MEP1004Token.sol:MEP1004Token",
        "label": "_allTokensIndex",
        "offset": 0,
        "slot": "154",
        "type": "t_mapping(t_uint256,t_uint256)"
      },
      {
        "astId": 2291,
        "contract": "contracts/token/MEP1004Token.sol:MEP1004Token",
        "label": "__gap",
        "offset": 0,
        "slot": "155",
        "type": "t_array(t_uint256)46_storage"
      },
      {
        "astId": 10,
        "contract": "contracts/token/MEP1004Token.sol:MEP1004Token",
        "label": "_owner",
        "offset": 0,
        "slot": "201",
        "type": "t_address"
      },
      {
        "astId": 130,
        "contract": "contracts/token/MEP1004Token.sol:MEP1004Token",
        "label": "__gap",
        "offset": 0,
        "slot": "202",
        "type": "t_array(t_uint256)49_storage"
      },
      {
        "astId": 4166,
        "contract": "contracts/token/MEP1004Token.sol:MEP1004Token",
        "label": "controllers",
        "offset": 0,
        "slot": "251",
        "type": "t_mapping(t_address,t_bool)"
      },
      {
        "astId": 516,
        "contract": "contracts/token/MEP1004Token.sol:MEP1004Token",
        "label": "__gap",
        "offset": 0,
        "slot": "252",
        "type": "t_array(t_uint256)50_storage"
      },
      {
        "astId": 831,
        "contract": "contracts/token/MEP1004Token.sol:MEP1004Token",
        "label": "__gap",
        "offset": 0,
        "slot": "302",
        "type": "t_array(t_uint256)50_storage"
      },
      {
        "astId": 5114,
        "contract": "contracts/token/MEP1004Token.sol:MEP1004Token",
        "label": "_locationProofs",
        "offset": 0,
        "slot": "352",
        "type": "t_mapping(t_string_memory_ptr,t_array(t_struct(LocationProof)4899_storage)dyn_storage)"
      },
      {
        "astId": 5118,
        "contract": "contracts/token/MEP1004Token.sol:MEP1004Token",
        "label": "_SNCodes",
        "offset": 0,
        "slot": "353",
        "type": "t_mapping(t_uint256,t_string_storage)"
      },
      {
        "astId": 5125,
        "contract": "contracts/token/MEP1004Token.sol:MEP1004Token",
        "label": "_MEP1002Slot",
        "offset": 0,
        "slot": "354",
        "type": "t_mapping(t_uint256,t_mapping(t_uint256,t_array(t_uint256)dyn_storage))"
      },
      {
        "astId": 5131,
        "contract": "contracts/token/MEP1004Token.sol:MEP1004Token",
        "label": "_whereSlot",
        "offset": 0,
        "slot": "355",
        "type": "t_mapping(t_uint256,t_array(t_uint256)3_storage)"
      },
      {
        "astId": 5135,
        "contract": "contracts/token/MEP1004Token.sol:MEP1004Token",
        "label": "_MEP1004Status",
        "offset": 0,
        "slot": "356",
        "type": "t_mapping(t_uint256,t_uint256)"
      },
      {
        "astId": 5139,
        "contract": "contracts/token/MEP1004Token.sol:MEP1004Token",
        "label": "_MEP1004TokenNames",
        "offset": 0,
        "slot": "357",
        "type": "t_mapping(t_uint256,t_string_storage)"
      },
      {
        "astId": 5141,
        "contract": "contracts/token/MEP1004Token.sol:MEP1004Token",
        "label": "_baseUri",
        "offset": 0,
        "slot": "358",
        "type": "t_string_storage"
      },
      {
        "astId": 5143,
        "contract": "contracts/token/MEP1004Token.sol:MEP1004Token",
        "label": "_mnsToken",
        "offset": 0,
        "slot": "359",
        "type": "t_address"
      },
      {
        "astId": 5145,
        "contract": "contracts/token/MEP1004Token.sol:MEP1004Token",
        "label": "_MEP1002Addr",
        "offset": 0,
        "slot": "360",
        "type": "t_address"
      },
      {
        "astId": 5148,
        "contract": "contracts/token/MEP1004Token.sol:MEP1004Token",
        "label": "_slotLimits",
        "offset": 0,
        "slot": "361",
        "type": "t_array(t_uint256)dyn_storage"
      },
      {
        "astId": 5150,
        "contract": "contracts/token/MEP1004Token.sol:MEP1004Token",
        "label": "_exitFee",
        "offset": 0,
        "slot": "362",
        "type": "t_uint256"
      },
      {
        "astId": 5153,
        "contract": "contracts/token/MEP1004Token.sol:MEP1004Token",
        "label": "_tokenIds",
        "offset": 0,
        "slot": "363",
        "type": "t_struct(Counter)4076_storage"
      },
      {
        "astId": 5157,
        "contract": "contracts/token/MEP1004Token.sol:MEP1004Token",
        "label": "_SNCodeTokenIds",
        "offset": 0,
        "slot": "364",
        "type": "t_mapping(t_string_memory_ptr,t_uint256)"
      },
      {
        "astId": 6413,
        "contract": "contracts/token/MEP1004Token.sol:MEP1004Token",
        "label": "__gap",
        "offset": 0,
        "slot": "365",
        "type": "t_array(t_uint256)37_storage"
      }
    ],
    "types": {
      "t_address": {
        "encoding": "inplace",
        "label": "address",
        "numberOfBytes": "20"
      },
      "t_array(t_struct(LocationProof)4899_storage)dyn_storage": {
        "base": "t_struct(LocationProof)4899_storage",
        "encoding": "dynamic_array",
        "label": "struct IMEP1004.LocationProof[]",
        "numberOfBytes": "32"
      },
      "t_array(t_uint256)37_storage": {
        "base": "t_uint256",
        "encoding": "inplace",
        "label": "uint256[37]",
        "numberOfBytes": "1184"
      },
      "t_array(t_uint256)3_storage": {
        "base": "t_uint256",
        "encoding": "inplace",
        "label": "uint256[3]",
        "numberOfBytes": "96"
      },
      "t_array(t_uint256)44_storage": {
        "base": "t_uint256",
        "encoding": "inplace",
        "label": "uint256[44]",
        "numberOfBytes": "1408"
      },
      "t_array(t_uint256)46_storage": {
        "base": "t_uint256",
        "encoding": "inplace",
        "label": "uint256[46]",
        "numberOfBytes": "1472"
      },
      "t_array(t_uint256)49_storage": {
        "base": "t_uint256",
        "encoding": "inplace",
        "label": "uint256[49]",
        "numberOfBytes": "1568"
      },
      "t_array(t_uint256)50_storage": {
        "base": "t_uint256",
        "encoding": "inplace",
        "label": "uint256[50]",
        "numberOfBytes": "1600"
      },
      "t_array(t_uint256)dyn_storage": {
        "base": "t_uint256",
        "encoding": "dynamic_array",
        "label": "uint256[]",
        "numberOfBytes": "32"
      },
      "t_bool": {
        "encoding": "inplace",
        "label": "bool",
        "numberOfBytes": "1"
      },
      "t_mapping(t_address,t_bool)": {
        "encoding": "mapping",
        "key": "t_address",
        "label": "mapping(address => bool)",
        "numberOfBytes": "32",
        "value": "t_bool"
      },
      "t_mapping(t_address,t_mapping(t_address,t_bool))": {
        "encoding": "mapping",
        "key": "t_address",
        "label": "mapping(address => mapping(address => bool))",
        "numberOfBytes": "32",
        "value": "t_mapping(t_address,t_bool)"
      },
      "t_mapping(t_address,t_mapping(t_uint256,t_uint256))": {
        "encoding": "mapping",
        "key": "t_address",
        "label": "mapping(address => mapping(uint256 => uint256))",
        "numberOfBytes": "32",
        "value": "t_mapping(t_uint256,t_uint256)"
      },
      "t_mapping(t_address,t_uint256)": {
        "encoding": "mapping",
        "key": "t_address",
        "label": "mapping(address => uint256)",
        "numberOfBytes": "32",
        "value": "t_uint256"
      },
      "t_mapping(t_string_memory_ptr,t_array(t_struct(LocationProof)4899_storage)dyn_storage)": {
        "encoding": "mapping",
        "key": "t_string_memory_ptr",
        "label": "mapping(string => struct IMEP1004.LocationProof[])",
        "numberOfBytes": "32",
        "value": "t_array(t_struct(LocationProof)4899_storage)dyn_storage"
      },
      "t_mapping(t_string_memory_ptr,t_uint256)": {
        "encoding": "mapping",
        "key": "t_string_memory_ptr",
        "label": "mapping(string => uint256)",
        "numberOfBytes": "32",
        "value": "t_uint256"
      },
      "t_mapping(t_uint256,t_address)": {
        "encoding": "mapping",
        "key": "t_uint256",
        "label": "mapping(uint256 => address)",
        "numberOfBytes": "32",
        "value": "t_address"
      },
      "t_mapping(t_uint256,t_array(t_uint256)3_storage)": {
        "encoding": "mapping",
        "key": "t_uint256",
        "label": "mapping(uint256 => uint256[3])",
        "numberOfBytes": "32",
        "value": "t_array(t_uint256)3_storage"
      },
      "t_mapping(t_uint256,t_array(t_uint256)dyn_storage)": {
        "encoding": "mapping",
        "key": "t_uint256",
        "label": "mapping(uint256 => uint256[])",
        "numberOfBytes": "32",
        "value": "t_array(t_uint256)dyn_storage"
      },
      "t_mapping(t_uint256,t_mapping(t_uint256,t_array(t_uint256)dyn_storage))": {
        "encoding": "mapping",
        "key": "t_uint256",
        "label": "mapping(uint256 => mapping(uint256 => uint256[]))",
        "numberOfBytes": "32",
        "value": "t_mapping(t_uint256,t_array(t_uint256)dyn_storage)"
      },
      "t_mapping(t_uint256,t_string_storage)": {
        "encoding": "mapping",
        "key": "t_uint256",
        "label": "mapping(uint256 => string)",
        "numberOfBytes": "32",
        "value": "t_string_storage"
      },
      "t_mapping(t_uint256,t_uint256)": {
        "encoding": "mapping",
        "key": "t_uint256",
        "label": "mapping(uint256 => uint256)",
        "numberOfBytes": "32",
        "value": "t_uint256"
      },
      "t_string_memory_ptr": {
        "encoding": "bytes",
        "label": "string",
        "numberOfBytes": "32"
      },
      "t_string_storage": {
        "encoding": "bytes",
        "label": "string",
        "numberOfBytes": "32"
      },
      "t_struct(Counter)4076_storage": {
        "encoding": "inplace",
        "label": "struct Counters.Counter",
        "members": [
          {
            "astId": 4075,
            "contract": "contracts/token/MEP1004Token.sol:MEP1004Token",
            "label": "_value",
            "offset": 0,
            "slot": "0",
            "type": "t_uint256"
          }
        ],
        "numberOfBytes": "32"
      },
      "t_struct(LocationProof)4899_storage": {
        "encoding": "inplace",
        "label": "struct IMEP1004.LocationProof",
        "members": [
          {
            "astId": 4891,
            "contract": "contracts/token/MEP1004Token.sol:MEP1004Token",
            "label": "MEP1002TokenId",
            "offset": 0,
            "slot": "0",
            "type": "t_uint256"
          },
          {
            "astId": 4894,
            "contract": "contracts/token/MEP1004Token.sol:MEP1004Token",
            "label": "MEP1004TokenIds",
            "offset": 0,
            "slot": "1",
            "type": "t_array(t_uint256)dyn_storage"
          },
          {
            "astId": 4896,
            "contract": "contracts/token/MEP1004Token.sol:MEP1004Token",
            "label": "item",
            "offset": 0,
            "slot": "2",
            "type": "t_string_storage"
          },
          {
            "astId": 4898,
            "contract": "contracts/token/MEP1004Token.sol:MEP1004Token",
            "label": "timestamp",
            "offset": 0,
            "slot": "3",
            "type": "t_uint256"
          }
        ],
        "numberOfBytes": "128"
      },
      "t_uint256": {
        "encoding": "inplace",
        "label": "uint256",
        "numberOfBytes": "32"
      },
      "t_uint8": {
        "encoding": "inplace",
        "label": "uint8",
        "numberOfBytes": "1"
      }
    }
  }
}