{
  "address": "0x162eB059021346BBC58eE228dC5367fcaf193F31",
  "abi": [
    {
      "anonymous": false,
      "inputs": [
        {
          "indexed": false,
          "internalType": "address",
          "name": "previousAdmin",
          "type": "address"
        },
        {
          "indexed": false,
          "internalType": "address",
          "name": "newAdmin",
          "type": "address"
        }
      ],
      "name": "AdminChanged",
      "type": "event"
    },
    {
      "anonymous": false,
      "inputs": [
        {
          "indexed": true,
          "internalType": "address",
          "name": "owner",
          "type": "address"
        },
        {
          "indexed": true,
          "internalType": "address",
          "name": "approved",
          "type": "address"
        },
        {
          "indexed": true,
          "internalType": "uint256",
          "name": "tokenId",
          "type": "uint256"
        }
      ],
      "name": "Approval",
      "type": "event"
    },
    {
      "anonymous": false,
      "inputs": [
        {
          "indexed": true,
          "internalType": "address",
          "name": "owner",
          "type": "address"
        },
        {
          "indexed": true,
          "internalType": "address",
          "name": "operator",
          "type": "address"
        },
        {
          "indexed": false,
          "internalType": "bool",
          "name": "approved",
          "type": "bool"
        }
      ],
      "name": "ApprovalForAll",
      "type": "event"
    },
    {
      "anonymous": false,
      "inputs": [
        {
          "indexed": true,
          "internalType": "address",
          "name": "beacon",
          "type": "address"
        }
      ],
      "name": "BeaconUpgraded",
      "type": "event"
    },
    {
      "anonymous": false,
      "inputs": [
        {
          "indexed": true,
          "internalType": "address",
          "name": "controller",
          "type": "address"
        },
        {
          "indexed": false,
          "internalType": "bool",
          "name": "enabled",
          "type": "bool"
        }
      ],
      "name": "ControllerChanged",
      "type": "event"
    },
    {
      "anonymous": false,
      "inputs": [
        {
          "indexed": false,
          "internalType": "uint8",
          "name": "version",
          "type": "uint8"
        }
      ],
      "name": "Initialized",
      "type": "event"
    },
    {
      "anonymous": false,
      "inputs": [
        {
          "indexed": true,
          "internalType": "address",
          "name": "previousOwner",
          "type": "address"
        },
        {
          "indexed": true,
          "internalType": "address",
          "name": "newOwner",
          "type": "address"
        }
      ],
      "name": "OwnershipTransferred",
      "type": "event"
    },
    {
      "anonymous": false,
      "inputs": [
        {
          "indexed": true,
          "internalType": "address",
          "name": "from",
          "type": "address"
        },
        {
          "indexed": true,
          "internalType": "address",
          "name": "to",
          "type": "address"
        },
        {
          "indexed": true,
          "internalType": "uint256",
          "name": "tokenId",
          "type": "uint256"
        }
      ],
      "name": "Transfer",
      "type": "event"
    },
    {
      "anonymous": false,
      "inputs": [
        {
          "indexed": true,
          "internalType": "address",
          "name": "implementation",
          "type": "address"
        }
      ],
      "name": "Upgraded",
      "type": "event"
    },
    {
      "inputs": [],
      "name": "__Controllable_init",
      "outputs": [],
      "stateMutability": "nonpayable",
      "type": "function"
    },
    {
      "inputs": [
        {
          "internalType": "address",
          "name": "to",
          "type": "address"
        },
        {
          "internalType": "uint256",
          "name": "tokenId",
          "type": "uint256"
        }
      ],
      "name": "approve",
      "outputs": [],
      "stateMutability": "nonpayable",
      "type": "function"
    },
    {
      "inputs": [
        {
          "internalType": "address",
          "name": "owner",
          "type": "address"
        }
      ],
      "name": "balanceOf",
      "outputs": [
        {
          "internalType": "uint256",
          "name": "",
          "type": "uint256"
        }
      ],
      "stateMutability": "view",
      "type": "function"
    },
    {
      "inputs": [
        {
          "internalType": "address",
          "name": "",
          "type": "address"
        }
      ],
      "name": "controllers",
      "outputs": [
        {
          "internalType": "bool",
          "name": "",
          "type": "bool"
        }
      ],
      "stateMutability": "view",
      "type": "function"
    },
    {
      "inputs": [
        {
          "internalType": "uint256",
          "name": "tokenId",
          "type": "uint256"
        }
      ],
      "name": "getApproved",
      "outputs": [
        {
          "internalType": "address",
          "name": "",
          "type": "address"
        }
      ],
      "stateMutability": "view",
      "type": "function"
    },
    {
      "inputs": [
        {
          "internalType": "string",
          "name": "name_",
          "type": "string"
        },
        {
          "internalType": "string",
          "name": "symbol_",
          "type": "string"
        }
      ],
      "name": "initialize",
      "outputs": [],
      "stateMutability": "nonpayable",
      "type": "function"
    },
    {
      "inputs": [
        {
          "internalType": "address",
          "name": "owner",
          "type": "address"
        },
        {
          "internalType": "address",
          "name": "operator",
          "type": "address"
        }
      ],
      "name": "isApprovedForAll",
      "outputs": [
        {
          "internalType": "bool",
          "name": "",
          "type": "bool"
        }
      ],
      "stateMutability": "view",
      "type": "function"
    },
    {
      "inputs": [
        {
          "internalType": "address",
          "name": "to",
          "type": "address"
        },
        {
          "internalType": "uint256",
          "name": "tokenId",
          "type": "uint256"
        }
      ],
      "name": "mint",
      "outputs": [],
      "stateMutability": "nonpayable",
      "type": "function"
    },
    {
      "inputs": [],
      "name": "name",
      "outputs": [
        {
          "internalType": "string",
          "name": "",
          "type": "string"
        }
      ],
      "stateMutability": "view",
      "type": "function"
    },
    {
      "inputs": [],
      "name": "owner",
      "outputs": [
        {
          "internalType": "address",
          "name": "",
          "type": "address"
        }
      ],
      "stateMutability": "view",
      "type": "function"
    },
    {
      "inputs": [
        {
          "internalType": "uint256",
          "name": "tokenId",
          "type": "uint256"
        }
      ],
      "name": "ownerOf",
      "outputs": [
        {
          "internalType": "address",
          "name": "",
          "type": "address"
        }
      ],
      "stateMutability": "view",
      "type": "function"
    },
    {
      "inputs": [],
      "name": "proxiableUUID",
      "outputs": [
        {
          "internalType": "bytes32",
          "name": "",
          "type": "bytes32"
        }
      ],
      "stateMutability": "view",
      "type": "function"
    },
    {
      "inputs": [],
      "name": "renounceOwnership",
      "outputs": [],
      "stateMutability": "nonpayable",
      "type": "function"
    },
    {
      "inputs": [
        {
          "internalType": "address",
          "name": "from",
          "type": "address"
        },
        {
          "internalType": "address",
          "name": "to",
          "type": "address"
        },
        {
          "internalType": "uint256",
          "name": "tokenId",
          "type": "uint256"
        }
      ],
      "name": "safeTransferFrom",
      "outputs": [],
      "stateMutability": "nonpayable",
      "type": "function"
    },
    {
      "inputs": [
        {
          "internalType": "address",
          "name": "from",
          "type": "address"
        },
        {
          "internalType": "address",
          "name": "to",
          "type": "address"
        },
        {
          "internalType": "uint256",
          "name": "tokenId",
          "type": "uint256"
        },
        {
          "internalType": "bytes",
          "name": "data",
          "type": "bytes"
        }
      ],
      "name": "safeTransferFrom",
      "outputs": [],
      "stateMutability": "nonpayable",
      "type": "function"
    },
    {
      "inputs": [
        {
          "internalType": "address",
          "name": "operator",
          "type": "address"
        },
        {
          "internalType": "bool",
          "name": "approved",
          "type": "bool"
        }
      ],
      "name": "setApprovalForAll",
      "outputs": [],
      "stateMutability": "nonpayable",
      "type": "function"
    },
    {
      "inputs": [
        {
          "internalType": "string",
          "name": "baseURI_",
          "type": "string"
        }
      ],
      "name": "setBaseURI",
      "outputs": [],
      "stateMutability": "nonpayable",
      "type": "function"
    },
    {
      "inputs": [
        {
          "internalType": "address",
          "name": "controller",
          "type": "address"
        },
        {
          "internalType": "bool",
          "name": "enabled",
          "type": "bool"
        }
      ],
      "name": "setController",
      "outputs": [],
      "stateMutability": "nonpayable",
      "type": "function"
    },
    {
      "inputs": [
        {
          "internalType": "bytes4",
          "name": "interfaceId",
          "type": "bytes4"
        }
      ],
      "name": "supportsInterface",
      "outputs": [
        {
          "internalType": "bool",
          "name": "",
          "type": "bool"
        }
      ],
      "stateMutability": "view",
      "type": "function"
    },
    {
      "inputs": [],
      "name": "symbol",
      "outputs": [
        {
          "internalType": "string",
          "name": "",
          "type": "string"
        }
      ],
      "stateMutability": "view",
      "type": "function"
    },
    {
      "inputs": [
        {
          "internalType": "uint256",
          "name": "index",
          "type": "uint256"
        }
      ],
      "name": "tokenByIndex",
      "outputs": [
        {
          "internalType": "uint256",
          "name": "",
          "type": "uint256"
        }
      ],
      "stateMutability": "view",
      "type": "function"
    },
    {
      "inputs": [
        {
          "internalType": "address",
          "name": "owner",
          "type": "address"
        },
        {
          "internalType": "uint256",
          "name": "index",
          "type": "uint256"
        }
      ],
      "name": "tokenOfOwnerByIndex",
      "outputs": [
        {
          "internalType": "uint256",
          "name": "",
          "type": "uint256"
        }
      ],
      "stateMutability": "view",
      "type": "function"
    },
    {
      "inputs": [
        {
          "internalType": "uint256",
          "name": "tokenId",
          "type": "uint256"
        }
      ],
      "name": "tokenURI",
      "outputs": [
        {
          "internalType": "string",
          "name": "",
          "type": "string"
        }
      ],
      "stateMutability": "view",
      "type": "function"
    },
    {
      "inputs": [],
      "name": "totalSupply",
      "outputs": [
        {
          "internalType": "uint256",
          "name": "",
          "type": "uint256"
        }
      ],
      "stateMutability": "view",
      "type": "function"
    },
    {
      "inputs": [
        {
          "internalType": "address",
          "name": "from",
          "type": "address"
        },
        {
          "internalType": "address",
          "name": "to",
          "type": "address"
        },
        {
          "internalType": "uint256",
          "name": "tokenId",
          "type": "uint256"
        }
      ],
      "name": "transferFrom",
      "outputs": [],
      "stateMutability": "nonpayable",
      "type": "function"
    },
    {
      "inputs": [
        {
          "internalType": "address",
          "name": "newOwner",
          "type": "address"
        }
      ],
      "name": "transferOwnership",
      "outputs": [],
      "stateMutability": "nonpayable",
      "type": "function"
    },
    {
      "inputs": [
        {
          "internalType": "address",
          "name": "newImplementation",
          "type": "address"
        }
      ],
      "name": "upgradeTo",
      "outputs": [],
      "stateMutability": "nonpayable",
      "type": "function"
    },
    {
      "inputs": [
        {
          "internalType": "address",
          "name": "newImplementation",
          "type": "address"
        },
        {
          "internalType": "bytes",
          "name": "data",
          "type": "bytes"
        }
      ],
      "name": "upgradeToAndCall",
      "outputs": [],
      "stateMutability": "payable",
      "type": "function"
    }
  ],
  "transactionHash": "0xd2b6a8974b270a5db015b471cdeea68958378732347d1a86ab70e77f1c8ba53f",
  "args": [],
  "numDeployments": 1,
  "solcInputHash": "1e681f8f1beb3cab82a54bea91dc7695",
  "bytecode": "0x60a06040523060805234801561001457600080fd5b506080516131d361004c600039600081816108f20152818161098801528181610cc001528181610d560152610ef301526131d36000f3fe6080604052600436106101b75760003560e01c806355f804b3116100ec578063a22cb4651161008a578063da8c229e11610064578063da8c229e146104b2578063e0dba60f146104e2578063e985e9c514610502578063f2fde38b1461054c57600080fd5b8063a22cb46514610452578063b88d4fde14610472578063c87b56dd1461049257600080fd5b806370a08231116100c657806370a08231146103ea578063715018a61461040a5780638da5cb5b1461041f57806395d89b411461043d57600080fd5b806355f804b3146103955780635d79343d146103b55780636352211e146103ca57600080fd5b80633659cfe6116101595780634cd88b76116101335780634cd88b761461032d5780634f1ef2861461034d5780634f6ccce71461036057806352d1902d1461038057600080fd5b80633659cfe6146102cd57806340c10f19146102ed57806342842e0e1461030d57600080fd5b8063095ea7b311610195578063095ea7b31461024b57806318160ddd1461026d57806323b872dd1461028d5780632f745c59146102ad57600080fd5b806301ffc9a7146101bc57806306fdde03146101f1578063081812fc14610213575b600080fd5b3480156101c857600080fd5b506101dc6101d7366004612a84565b61056c565b60405190151581526020015b60405180910390f35b3480156101fd57600080fd5b506102066105c8565b6040516101e89190612b0f565b34801561021f57600080fd5b5061023361022e366004612b22565b61065a565b6040516001600160a01b0390911681526020016101e8565b34801561025757600080fd5b5061026b610266366004612b57565b610682565b005b34801561027957600080fd5b50610130545b6040519081526020016101e8565b34801561029957600080fd5b5061026b6102a8366004612b81565b6107b8565b3480156102b957600080fd5b5061027f6102c8366004612b57565b61083f565b3480156102d957600080fd5b5061026b6102e8366004612bbd565b6108e8565b3480156102f957600080fd5b5061026b610308366004612b57565b610a85565b34801561031957600080fd5b5061026b610328366004612b81565b610b18565b34801561033957600080fd5b5061026b610348366004612cb2565b610b33565b61026b61035b366004612d16565b610cb6565b34801561036c57600080fd5b5061027f61037b366004612b22565b610e40565b34801561038c57600080fd5b5061027f610ee6565b3480156103a157600080fd5b5061026b6103b0366004612d5a565b610fab565b3480156103c157600080fd5b5061026b61103d565b3480156103d657600080fd5b506102336103e5366004612b22565b6110fc565b3480156103f657600080fd5b5061027f610405366004612bbd565b611161565b34801561041657600080fd5b5061026b6111fb565b34801561042b57600080fd5b506097546001600160a01b0316610233565b34801561044957600080fd5b5061020661120d565b34801561045e57600080fd5b5061026b61046d366004612d8f565b61121c565b34801561047e57600080fd5b5061026b61048d366004612dcb565b611227565b34801561049e57600080fd5b506102066104ad366004612b22565b6112b5565b3480156104be57600080fd5b506101dc6104cd366004612bbd565b60c96020526000908152604090205460ff1681565b3480156104ee57600080fd5b5061026b6104fd366004612d8f565b61131c565b34801561050e57600080fd5b506101dc61051d366004612e33565b6001600160a01b0391821660009081526101016020908152604080832093909416825291909152205460ff1690565b34801561055857600080fd5b5061026b610567366004612bbd565b6113a1565b60007fffffffff0000000000000000000000000000000000000000000000000000000082167f780e9d630000000000000000000000000000000000000000000000000000000014806105c257506105c282611451565b92915050565b606060fc80546105d790612e66565b80601f016020809104026020016040519081016040528092919081815260200182805461060390612e66565b80156106505780601f1061062557610100808354040283529160200191610650565b820191906000526020600020905b81548152906001019060200180831161063357829003601f168201915b5050505050905090565b600061066582611534565b50600090815261010060205260409020546001600160a01b031690565b600061068d826110fc565b9050806001600160a01b0316836001600160a01b03160361071b5760405162461bcd60e51b815260206004820152602160248201527f4552433732313a20617070726f76616c20746f2063757272656e74206f776e6560448201527f720000000000000000000000000000000000000000000000000000000000000060648201526084015b60405180910390fd5b336001600160a01b03821614806107375750610737813361051d565b6107a95760405162461bcd60e51b815260206004820152603d60248201527f4552433732313a20617070726f76652063616c6c6572206973206e6f7420746f60448201527f6b656e206f776e6572206f7220617070726f76656420666f7220616c6c0000006064820152608401610712565b6107b38383611598565b505050565b6107c2338261161f565b6108345760405162461bcd60e51b815260206004820152602d60248201527f4552433732313a2063616c6c6572206973206e6f7420746f6b656e206f776e6560448201527f72206f7220617070726f766564000000000000000000000000000000000000006064820152608401610712565b6107b383838361169f565b600061084a83611161565b82106108be5760405162461bcd60e51b815260206004820152602b60248201527f455243373231456e756d657261626c653a206f776e657220696e646578206f7560448201527f74206f6620626f756e64730000000000000000000000000000000000000000006064820152608401610712565b506001600160a01b0391909116600090815261012e60209081526040808320938352929052205490565b6001600160a01b037f00000000000000000000000000000000000000000000000000000000000000001630036109865760405162461bcd60e51b815260206004820152602c60248201527f46756e6374696f6e206d7573742062652063616c6c6564207468726f7567682060448201527f64656c656761746563616c6c00000000000000000000000000000000000000006064820152608401610712565b7f00000000000000000000000000000000000000000000000000000000000000006001600160a01b03166109e17f360894a13ba1a3210667c828492db98dca3e2076cc3735a920a3ca505d382bbc546001600160a01b031690565b6001600160a01b031614610a5d5760405162461bcd60e51b815260206004820152602c60248201527f46756e6374696f6e206d7573742062652063616c6c6564207468726f7567682060448201527f6163746976652070726f787900000000000000000000000000000000000000006064820152608401610712565b610a668161190c565b60408051600080825260208201909252610a8291839190611914565b50565b33600090815260c9602052604090205460ff16610b0a5760405162461bcd60e51b815260206004820152602860248201527f436f6e74726f6c6c61626c653a2043616c6c6572206973206e6f74206120636f60448201527f6e74726f6c6c65720000000000000000000000000000000000000000000000006064820152608401610712565b610b148282611ad2565b5050565b6107b383838360405180602001604052806000815250611227565b600054610100900460ff1615808015610b535750600054600160ff909116105b80610b6d5750303b158015610b6d575060005460ff166001145b610bdf5760405162461bcd60e51b815260206004820152602e60248201527f496e697469616c697a61626c653a20636f6e747261637420697320616c72656160448201527f647920696e697469616c697a65640000000000000000000000000000000000006064820152608401610712565b600080547fffffffffffffffffffffffffffffffffffffffffffffffffffffffffffffff001660011790558015610c3d57600080547fffffffffffffffffffffffffffffffffffffffffffffffffffffffffffff00ff166101001790555b610c4561103d565b610c4f8383611aec565b80156107b357600080547fffffffffffffffffffffffffffffffffffffffffffffffffffffffffffff00ff169055604051600181527f7f26b83ff96e1f2b6a682f133852f6798a09c465da95921460cefb38474024989060200160405180910390a1505050565b6001600160a01b037f0000000000000000000000000000000000000000000000000000000000000000163003610d545760405162461bcd60e51b815260206004820152602c60248201527f46756e6374696f6e206d7573742062652063616c6c6564207468726f7567682060448201527f64656c656761746563616c6c00000000000000000000000000000000000000006064820152608401610712565b7f00000000000000000000000000000000000000000000000000000000000000006001600160a01b0316610daf7f360894a13ba1a3210667c828492db98dca3e2076cc3735a920a3ca505d382bbc546001600160a01b031690565b6001600160a01b031614610e2b5760405162461bcd60e51b815260206004820152602c60248201527f46756e6374696f6e206d7573742062652063616c6c6564207468726f7567682060448201527f6163746976652070726f787900000000000000000000000000000000000000006064820152608401610712565b610e348261190c565b610b1482826001611914565b6000610e4c6101305490565b8210610ec05760405162461bcd60e51b815260206004820152602c60248201527f455243373231456e756d657261626c653a20676c6f62616c20696e646578206f60448201527f7574206f6620626f756e647300000000000000000000000000000000000000006064820152608401610712565b6101308281548110610ed457610ed4612eb9565b90600052602060002001549050919050565b6000306001600160a01b037f00000000000000000000000000000000000000000000000000000000000000001614610f865760405162461bcd60e51b815260206004820152603860248201527f555550535570677261646561626c653a206d757374206e6f742062652063616c60448201527f6c6564207468726f7567682064656c656761746563616c6c00000000000000006064820152608401610712565b507f360894a13ba1a3210667c828492db98dca3e2076cc3735a920a3ca505d382bbc90565b33600090815260c9602052604090205460ff166110305760405162461bcd60e51b815260206004820152602860248201527f436f6e74726f6c6c61626c653a2043616c6c6572206973206e6f74206120636f60448201527f6e74726f6c6c65720000000000000000000000000000000000000000000000006064820152608401610712565b610160610b148282612f36565b600054610100900460ff166110ba5760405162461bcd60e51b815260206004820152602b60248201527f496e697469616c697a61626c653a20636f6e7472616374206973206e6f74206960448201527f6e697469616c697a696e670000000000000000000000000000000000000000006064820152608401610712565b33600090815260c96020526040902080547fffffffffffffffffffffffffffffffffffffffffffffffffffffffffffffff001660011790556110fa611b73565b565b600081815260fe60205260408120546001600160a01b0316806105c25760405162461bcd60e51b815260206004820152601860248201527f4552433732313a20696e76616c696420746f6b656e20494400000000000000006044820152606401610712565b60006001600160a01b0382166111df5760405162461bcd60e51b815260206004820152602960248201527f4552433732313a2061646472657373207a65726f206973206e6f74206120766160448201527f6c6964206f776e657200000000000000000000000000000000000000000000006064820152608401610712565b506001600160a01b0316600090815260ff602052604090205490565b611203611bf8565b6110fa6000611c52565b606060fd80546105d790612e66565b610b14338383611cbc565b611231338361161f565b6112a35760405162461bcd60e51b815260206004820152602d60248201527f4552433732313a2063616c6c6572206973206e6f7420746f6b656e206f776e6560448201527f72206f7220617070726f766564000000000000000000000000000000000000006064820152608401610712565b6112af84848484611da9565b50505050565b60606112c082611534565b60006112ca611e32565b905060008151116112ea5760405180602001604052806000815250611315565b806112f484611e42565b604051602001611305929190613050565b6040516020818303038152906040525b9392505050565b611324611bf8565b6001600160a01b038216600081815260c9602090815260409182902080547fffffffffffffffffffffffffffffffffffffffffffffffffffffffffffffff001685151590811790915591519182527f4c97694570a07277810af7e5669ffd5f6a2d6b74b6e9a274b8b870fd5114cf87910160405180910390a25050565b6113a9611bf8565b6001600160a01b0381166114255760405162461bcd60e51b815260206004820152602660248201527f4f776e61626c653a206e6577206f776e657220697320746865207a65726f206160448201527f64647265737300000000000000000000000000000000000000000000000000006064820152608401610712565b807fb53127684a568b3173ae13b9f8a6016e243e63b6e8ee1178d6a717850b5d610355610a8281611c52565b60007fffffffff0000000000000000000000000000000000000000000000000000000082167f80ac58cd0000000000000000000000000000000000000000000000000000000014806114e457507fffffffff0000000000000000000000000000000000000000000000000000000082167f5b5e139f00000000000000000000000000000000000000000000000000000000145b806105c257507f01ffc9a7000000000000000000000000000000000000000000000000000000007fffffffff000000000000000000000000000000000000000000000000000000008316146105c2565b600081815260fe60205260409020546001600160a01b0316610a825760405162461bcd60e51b815260206004820152601860248201527f4552433732313a20696e76616c696420746f6b656e20494400000000000000006044820152606401610712565b60008181526101006020526040902080547fffffffffffffffffffffffff0000000000000000000000000000000000000000166001600160a01b03841690811790915581906115e6826110fc565b6001600160a01b03167f8c5be1e5ebec7d5bd14f71427d1e84f3dd0314c0f7b2291e5b200ac8c7c3b92560405160405180910390a45050565b60008061162b836110fc565b9050806001600160a01b0316846001600160a01b0316148061167357506001600160a01b038082166000908152610101602090815260408083209388168352929052205460ff165b806116975750836001600160a01b031661168c8461065a565b6001600160a01b0316145b949350505050565b826001600160a01b03166116b2826110fc565b6001600160a01b03161461172e5760405162461bcd60e51b815260206004820152602560248201527f4552433732313a207472616e736665722066726f6d20696e636f72726563742060448201527f6f776e65720000000000000000000000000000000000000000000000000000006064820152608401610712565b6001600160a01b0382166117a95760405162461bcd60e51b8152602060048201526024808201527f4552433732313a207472616e7366657220746f20746865207a65726f2061646460448201527f72657373000000000000000000000000000000000000000000000000000000006064820152608401610712565b6117b68383836001611f00565b826001600160a01b03166117c9826110fc565b6001600160a01b0316146118455760405162461bcd60e51b815260206004820152602560248201527f4552433732313a207472616e736665722066726f6d20696e636f72726563742060448201527f6f776e65720000000000000000000000000000000000000000000000000000006064820152608401610712565b60008181526101006020908152604080832080547fffffffffffffffffffffffff00000000000000000000000000000000000000009081169091556001600160a01b0387811680865260ff855283862080547fffffffffffffffffffffffffffffffffffffffffffffffffffffffffffffffff0190559087168086528386208054600101905586865260fe90945282852080549092168417909155905184937fddf252ad1be2c89b69c2b068fc378daa952ba7f163c4a11628f55a4df523b3ef91a4505050565b610a82611bf8565b7f4910fdfa16fed3260ed0e7147f7cc6da11a60208b5b9406d12a635614ffd91435460ff1615611947576107b38361203e565b826001600160a01b03166352d1902d6040518163ffffffff1660e01b8152600401602060405180830381865afa9250505080156119bf575060408051601f3d9081017fffffffffffffffffffffffffffffffffffffffffffffffffffffffffffffffe01682019092526119bc9181019061307f565b60015b611a315760405162461bcd60e51b815260206004820152602e60248201527f45524331393637557067726164653a206e657720696d706c656d656e7461746960448201527f6f6e206973206e6f7420555550530000000000000000000000000000000000006064820152608401610712565b7f360894a13ba1a3210667c828492db98dca3e2076cc3735a920a3ca505d382bbc8114611ac65760405162461bcd60e51b815260206004820152602960248201527f45524331393637557067726164653a20756e737570706f727465642070726f7860448201527f6961626c655555494400000000000000000000000000000000000000000000006064820152608401610712565b506107b3838383612114565b610b14828260405180602001604052806000815250612139565b600054610100900460ff16611b695760405162461bcd60e51b815260206004820152602b60248201527f496e697469616c697a61626c653a20636f6e7472616374206973206e6f74206960448201527f6e697469616c697a696e670000000000000000000000000000000000000000006064820152608401610712565b610b1482826121c2565b600054610100900460ff16611bf05760405162461bcd60e51b815260206004820152602b60248201527f496e697469616c697a61626c653a20636f6e7472616374206973206e6f74206960448201527f6e697469616c697a696e670000000000000000000000000000000000000000006064820152608401610712565b6110fa612258565b6097546001600160a01b031633146110fa5760405162461bcd60e51b815260206004820181905260248201527f4f776e61626c653a2063616c6c6572206973206e6f7420746865206f776e65726044820152606401610712565b609780546001600160a01b038381167fffffffffffffffffffffffff0000000000000000000000000000000000000000831681179093556040519116919082907f8be0079c531659141344cd1fd0a4f28419497f9722a3daafe3b4186f6b6457e090600090a35050565b816001600160a01b0316836001600160a01b031603611d1d5760405162461bcd60e51b815260206004820152601960248201527f4552433732313a20617070726f766520746f2063616c6c6572000000000000006044820152606401610712565b6001600160a01b038381166000818152610101602090815260408083209487168084529482529182902080547fffffffffffffffffffffffffffffffffffffffffffffffffffffffffffffff001686151590811790915591519182527f17307eab39ab6107e8899845ad3d59bd9653f200f220920489ca2b5937696c31910160405180910390a3505050565b611db484848461169f565b611dc0848484846122de565b6112af5760405162461bcd60e51b815260206004820152603260248201527f4552433732313a207472616e7366657220746f206e6f6e20455243373231526560448201527f63656976657220696d706c656d656e74657200000000000000000000000000006064820152608401610712565b606061016080546105d790612e66565b60606000611e4f8361249d565b600101905060008167ffffffffffffffff811115611e6f57611e6f612bd8565b6040519080825280601f01601f191660200182016040528015611e99576020820181803683370190505b5090508181016020015b7fffffffffffffffffffffffffffffffffffffffffffffffffffffffffffffffff017f3031323334353637383961626364656600000000000000000000000000000000600a86061a8153600a8504945084611ea357509392505050565b6001811115611f775760405162461bcd60e51b815260206004820152603560248201527f455243373231456e756d657261626c653a20636f6e736563757469766520747260448201527f616e7366657273206e6f7420737570706f7274656400000000000000000000006064820152608401610712565b816001600160a01b038516611fd557611fd0816101308054600083815261013160205260408120829055600182018355919091527f2f605e086faac1d93117bbfbc18835d434e9405fadc1ca66faf4b864746daf340155565b611ff8565b836001600160a01b0316856001600160a01b031614611ff857611ff8858261257f565b6001600160a01b0384166120145761200f81612621565b612037565b846001600160a01b0316846001600160a01b0316146120375761203784826126d6565b5050505050565b6001600160a01b0381163b6120bb5760405162461bcd60e51b815260206004820152602d60248201527f455243313936373a206e657720696d706c656d656e746174696f6e206973206e60448201527f6f74206120636f6e7472616374000000000000000000000000000000000000006064820152608401610712565b7f360894a13ba1a3210667c828492db98dca3e2076cc3735a920a3ca505d382bbc80547fffffffffffffffffffffffff0000000000000000000000000000000000000000166001600160a01b0392909216919091179055565b61211d8361271c565b60008251118061212a5750805b156107b3576112af838361275c565b6121438383612867565b61215060008484846122de565b6107b35760405162461bcd60e51b815260206004820152603260248201527f4552433732313a207472616e7366657220746f206e6f6e20455243373231526560448201527f63656976657220696d706c656d656e74657200000000000000000000000000006064820152608401610712565b600054610100900460ff1661223f5760405162461bcd60e51b815260206004820152602b60248201527f496e697469616c697a61626c653a20636f6e7472616374206973206e6f74206960448201527f6e697469616c697a696e670000000000000000000000000000000000000000006064820152608401610712565b60fc61224b8382612f36565b5060fd6107b38282612f36565b600054610100900460ff166122d55760405162461bcd60e51b815260206004820152602b60248201527f496e697469616c697a61626c653a20636f6e7472616374206973206e6f74206960448201527f6e697469616c697a696e670000000000000000000000000000000000000000006064820152608401610712565b6110fa33611c52565b60006001600160a01b0384163b15612492576040517f150b7a020000000000000000000000000000000000000000000000000000000081526001600160a01b0385169063150b7a029061233b903390899088908890600401613098565b6020604051808303816000875af1925050508015612394575060408051601f3d9081017fffffffffffffffffffffffffffffffffffffffffffffffffffffffffffffffe0168201909252612391918101906130d4565b60015b612447573d8080156123c2576040519150601f19603f3d011682016040523d82523d6000602084013e6123c7565b606091505b50805160000361243f5760405162461bcd60e51b815260206004820152603260248201527f4552433732313a207472616e7366657220746f206e6f6e20455243373231526560448201527f63656976657220696d706c656d656e74657200000000000000000000000000006064820152608401610712565b805181602001fd5b7fffffffff00000000000000000000000000000000000000000000000000000000167f150b7a0200000000000000000000000000000000000000000000000000000000149050611697565b506001949350505050565b6000807a184f03e93ff9f4daa797ed6e38ed64bf6a1f01000000000000000083106124e6577a184f03e93ff9f4daa797ed6e38ed64bf6a1f010000000000000000830492506040015b6d04ee2d6d415b85acef81000000008310612512576d04ee2d6d415b85acef8100000000830492506020015b662386f26fc10000831061253057662386f26fc10000830492506010015b6305f5e1008310612548576305f5e100830492506008015b612710831061255c57612710830492506004015b6064831061256e576064830492506002015b600a83106105c25760010192915050565b6000600161258c84611161565b61259691906130f1565b600083815261012f60205260409020549091508082146125ec576001600160a01b038416600090815261012e60209081526040808320858452825280832054848452818420819055835261012f90915290208190555b50600091825261012f602090815260408084208490556001600160a01b03909416835261012e81528383209183525290812055565b61013054600090612634906001906130f1565b60008381526101316020526040812054610130805493945090928490811061265e5761265e612eb9565b9060005260206000200154905080610130838154811061268057612680612eb9565b600091825260208083209091019290925582815261013190915260408082208490558582528120556101308054806126ba576126ba61312b565b6001900381819060005260206000200160009055905550505050565b60006126e183611161565b6001600160a01b03909316600090815261012e60209081526040808320868452825280832085905593825261012f9052919091209190915550565b6127258161203e565b6040516001600160a01b038216907fbc7cd75a20ee27fd9adebab32041f755214dbc6bffa90cc0225b39da2e5c2d3b90600090a250565b60606001600160a01b0383163b6127db5760405162461bcd60e51b815260206004820152602660248201527f416464726573733a2064656c65676174652063616c6c20746f206e6f6e2d636f60448201527f6e747261637400000000000000000000000000000000000000000000000000006064820152608401610712565b600080846001600160a01b0316846040516127f6919061315a565b600060405180830381855af49150503d8060008114612831576040519150601f19603f3d011682016040523d82523d6000602084013e612836565b606091505b509150915061285e828260405180606001604052806027815260200161317760279139612a18565b95945050505050565b6001600160a01b0382166128bd5760405162461bcd60e51b815260206004820181905260248201527f4552433732313a206d696e7420746f20746865207a65726f20616464726573736044820152606401610712565b600081815260fe60205260409020546001600160a01b0316156129225760405162461bcd60e51b815260206004820152601c60248201527f4552433732313a20746f6b656e20616c7265616479206d696e746564000000006044820152606401610712565b612930600083836001611f00565b600081815260fe60205260409020546001600160a01b0316156129955760405162461bcd60e51b815260206004820152601c60248201527f4552433732313a20746f6b656e20616c7265616479206d696e746564000000006044820152606401610712565b6001600160a01b038216600081815260ff602090815260408083208054600101905584835260fe90915280822080547fffffffffffffffffffffffff0000000000000000000000000000000000000000168417905551839291907fddf252ad1be2c89b69c2b068fc378daa952ba7f163c4a11628f55a4df523b3ef908290a45050565b60608315612a27575081611315565b6113158383815115612a3c5781518083602001fd5b8060405162461bcd60e51b81526004016107129190612b0f565b7fffffffff0000000000000000000000000000000000000000000000000000000081168114610a8257600080fd5b600060208284031215612a9657600080fd5b813561131581612a56565b60005b83811015612abc578181015183820152602001612aa4565b50506000910152565b60008151808452612add816020860160208601612aa1565b601f017fffffffffffffffffffffffffffffffffffffffffffffffffffffffffffffffe0169290920160200192915050565b6020815260006113156020830184612ac5565b600060208284031215612b3457600080fd5b5035919050565b80356001600160a01b0381168114612b5257600080fd5b919050565b60008060408385031215612b6a57600080fd5b612b7383612b3b565b946020939093013593505050565b600080600060608486031215612b9657600080fd5b612b9f84612b3b565b9250612bad60208501612b3b565b9150604084013590509250925092565b600060208284031215612bcf57600080fd5b61131582612b3b565b7f4e487b7100000000000000000000000000000000000000000000000000000000600052604160045260246000fd5b600082601f830112612c1857600080fd5b813567ffffffffffffffff80821115612c3357612c33612bd8565b604051601f83017fffffffffffffffffffffffffffffffffffffffffffffffffffffffffffffffe0908116603f01168101908282118183101715612c7957612c79612bd8565b81604052838152866020858801011115612c9257600080fd5b836020870160208301376000602085830101528094505050505092915050565b60008060408385031215612cc557600080fd5b823567ffffffffffffffff80821115612cdd57600080fd5b612ce986838701612c07565b93506020850135915080821115612cff57600080fd5b50612d0c85828601612c07565b9150509250929050565b60008060408385031215612d2957600080fd5b612d3283612b3b565b9150602083013567ffffffffffffffff811115612d4e57600080fd5b612d0c85828601612c07565b600060208284031215612d6c57600080fd5b813567ffffffffffffffff811115612d8357600080fd5b61169784828501612c07565b60008060408385031215612da257600080fd5b612dab83612b3b565b915060208301358015158114612dc057600080fd5b809150509250929050565b60008060008060808587031215612de157600080fd5b612dea85612b3b565b9350612df860208601612b3b565b925060408501359150606085013567ffffffffffffffff811115612e1b57600080fd5b612e2787828801612c07565b91505092959194509250565b60008060408385031215612e4657600080fd5b612e4f83612b3b565b9150612e5d60208401612b3b565b90509250929050565b600181811c90821680612e7a57607f821691505b602082108103612eb3577f4e487b7100000000000000000000000000000000000000000000000000000000600052602260045260246000fd5b50919050565b7f4e487b7100000000000000000000000000000000000000000000000000000000600052603260045260246000fd5b601f8211156107b357600081815260208120601f850160051c81016020861015612f0f5750805b601f850160051c820191505b81811015612f2e57828155600101612f1b565b505050505050565b815167ffffffffffffffff811115612f5057612f50612bd8565b612f6481612f5e8454612e66565b84612ee8565b602080601f831160018114612fb75760008415612f815750858301515b7fffffffffffffffffffffffffffffffffffffffffffffffffffffffffffffffff600386901b1c1916600185901b178555612f2e565b6000858152602081207fffffffffffffffffffffffffffffffffffffffffffffffffffffffffffffffe08616915b8281101561300457888601518255948401946001909101908401612fe5565b508582101561304057878501517fffffffffffffffffffffffffffffffffffffffffffffffffffffffffffffffff600388901b60f8161c191681555b5050505050600190811b01905550565b60008351613062818460208801612aa1565b835190830190613076818360208801612aa1565b01949350505050565b60006020828403121561309157600080fd5b5051919050565b60006001600160a01b038087168352808616602084015250836040830152608060608301526130ca6080830184612ac5565b9695505050505050565b6000602082840312156130e657600080fd5b815161131581612a56565b818103818111156105c2577f4e487b7100000000000000000000000000000000000000000000000000000000600052601160045260246000fd5b7f4e487b7100000000000000000000000000000000000000000000000000000000600052603160045260246000fd5b6000825161316c818460208701612aa1565b919091019291505056fe416464726573733a206c6f772d6c6576656c2064656c65676174652063616c6c206661696c6564a2646970667358221220e21451ce832db5f6187ab08687c99f760585f8487ad7f8b892fd56b9d058055964736f6c63430008120033",
  "devdoc": {
    "events": {
      "AdminChanged(address,address)": {
        "details": "Emitted when the admin account has changed."
      },
      "Approval(address,address,uint256)": {
        "details": "Emitted when `owner` enables `approved` to manage the `tokenId` token."
      },
      "ApprovalForAll(address,address,bool)": {
        "details": "Emitted when `owner` enables or disables (`approved`) `operator` to manage all of its assets."
      },
      "BeaconUpgraded(address)": {
        "details": "Emitted when the beacon is changed."
      },
      "Initialized(uint8)": {
        "details": "Triggered when the contract has been initialized or reinitialized."
      },
      "Transfer(address,address,uint256)": {
        "details": "Emitted when `tokenId` token is transferred from `from` to `to`."
      },
      "Upgraded(address)": {
        "details": "Emitted when the implementation is upgraded."
      }
    },
    "kind": "dev",
    "methods": {
      "approve(address,uint256)": {
        "details": "See {IERC721-approve}."
      },
      "balanceOf(address)": {
        "details": "See {IERC721-balanceOf}."
      },
      "getApproved(uint256)": {
        "details": "See {IERC721-getApproved}."
      },
      "isApprovedForAll(address,address)": {
        "details": "See {IERC721-isApprovedForAll}."
      },
      "name()": {
        "details": "See {IERC721Metadata-name}."
      },
      "owner()": {
        "details": "Returns the address of the current owner."
      },
      "ownerOf(uint256)": {
        "details": "See {IERC721-ownerOf}."
      },
      "proxiableUUID()": {
        "details": "Implementation of the ERC1822 {proxiableUUID} function. This returns the storage slot used by the implementation. It is used to validate the implementation's compatibility when performing an upgrade. IMPORTANT: A proxy pointing at a proxiable contract should not be considered proxiable itself, because this risks bricking a proxy that upgrades to it, by delegating to itself until out of gas. Thus it is critical that this function revert if invoked through a proxy. This is guaranteed by the `notDelegated` modifier."
      },
      "renounceOwnership()": {
        "details": "Leaves the contract without owner. It will not be possible to call `onlyOwner` functions anymore. Can only be called by the current owner. NOTE: Renouncing ownership will leave the contract without an owner, thereby removing any functionality that is only available to the owner."
      },
      "safeTransferFrom(address,address,uint256)": {
        "details": "See {IERC721-safeTransferFrom}."
      },
      "safeTransferFrom(address,address,uint256,bytes)": {
        "details": "See {IERC721-safeTransferFrom}."
      },
      "setApprovalForAll(address,bool)": {
        "details": "See {IERC721-setApprovalForAll}."
      },
      "supportsInterface(bytes4)": {
        "details": "See {IERC165-supportsInterface}."
      },
      "symbol()": {
        "details": "See {IERC721Metadata-symbol}."
      },
      "tokenByIndex(uint256)": {
        "details": "See {IERC721Enumerable-tokenByIndex}."
      },
      "tokenOfOwnerByIndex(address,uint256)": {
        "details": "See {IERC721Enumerable-tokenOfOwnerByIndex}."
      },
      "tokenURI(uint256)": {
        "details": "See {IERC721Metadata-tokenURI}."
      },
      "totalSupply()": {
        "details": "See {IERC721Enumerable-totalSupply}."
      },
      "transferFrom(address,address,uint256)": {
        "details": "See {IERC721-transferFrom}."
      },
      "transferOwnership(address)": {
        "details": "Transfers ownership of the contract to a new account (`newOwner`). Can only be called by the current owner."
      },
      "upgradeTo(address)": {
        "details": "Upgrade the implementation of the proxy to `newImplementation`. Calls {_authorizeUpgrade}. Emits an {Upgraded} event."
      },
      "upgradeToAndCall(address,bytes)": {
        "details": "Upgrade the implementation of the proxy to `newImplementation`, and subsequently execute the function call encoded in `data`. Calls {_authorizeUpgrade}. Emits an {Upgraded} event."
      }
    },
    "version": 1
  },
  "userdoc": {
    "kind": "user",
    "methods": {},
    "version": 1
  },
  "storageLayout": {
    "storage": [
      {
        "astId": 534,
        "contract": "contracts/token/MEP1002NamingToken.sol:ProxiedMEP1002NamingToken",
        "label": "_initialized",
        "offset": 0,
        "slot": "0",
        "type": "t_uint8"
      },
      {
        "astId": 537,
        "contract": "contracts/token/MEP1002NamingToken.sol:ProxiedMEP1002NamingToken",
        "label": "_initializing",
        "offset": 1,
        "slot": "0",
        "type": "t_bool"
      },
      {
        "astId": 516,
        "contract": "contracts/token/MEP1002NamingToken.sol:ProxiedMEP1002NamingToken",
        "label": "__gap",
        "offset": 0,
        "slot": "1",
        "type": "t_array(t_uint256)50_storage"
      },
      {
        "astId": 831,
        "contract": "contracts/token/MEP1002NamingToken.sol:ProxiedMEP1002NamingToken",
        "label": "__gap",
        "offset": 0,
        "slot": "51",
        "type": "t_array(t_uint256)50_storage"
      },
      {
        "astId": 3390,
        "contract": "contracts/token/MEP1002NamingToken.sol:ProxiedMEP1002NamingToken",
        "label": "__gap",
        "offset": 0,
        "slot": "101",
        "type": "t_array(t_uint256)50_storage"
      },
      {
        "astId": 10,
        "contract": "contracts/token/MEP1002NamingToken.sol:ProxiedMEP1002NamingToken",
        "label": "_owner",
        "offset": 0,
        "slot": "151",
        "type": "t_address"
      },
      {
        "astId": 130,
        "contract": "contracts/token/MEP1002NamingToken.sol:ProxiedMEP1002NamingToken",
        "label": "__gap",
        "offset": 0,
        "slot": "152",
        "type": "t_array(t_uint256)49_storage"
      },
      {
        "astId": 8251,
        "contract": "contracts/token/MEP1002NamingToken.sol:ProxiedMEP1002NamingToken",
        "label": "controllers",
        "offset": 0,
        "slot": "201",
        "type": "t_mapping(t_address,t_bool)"
      },
      {
        "astId": 3669,
        "contract": "contracts/token/MEP1002NamingToken.sol:ProxiedMEP1002NamingToken",
        "label": "__gap",
        "offset": 0,
        "slot": "202",
        "type": "t_array(t_uint256)50_storage"
      },
      {
        "astId": 1576,
        "contract": "contracts/token/MEP1002NamingToken.sol:ProxiedMEP1002NamingToken",
        "label": "_name",
        "offset": 0,
        "slot": "252",
        "type": "t_string_storage"
      },
      {
        "astId": 1578,
        "contract": "contracts/token/MEP1002NamingToken.sol:ProxiedMEP1002NamingToken",
        "label": "_symbol",
        "offset": 0,
        "slot": "253",
        "type": "t_string_storage"
      },
      {
        "astId": 1582,
        "contract": "contracts/token/MEP1002NamingToken.sol:ProxiedMEP1002NamingToken",
        "label": "_owners",
        "offset": 0,
        "slot": "254",
        "type": "t_mapping(t_uint256,t_address)"
      },
      {
        "astId": 1586,
        "contract": "contracts/token/MEP1002NamingToken.sol:ProxiedMEP1002NamingToken",
        "label": "_balances",
        "offset": 0,
        "slot": "255",
        "type": "t_mapping(t_address,t_uint256)"
      },
      {
        "astId": 1590,
        "contract": "contracts/token/MEP1002NamingToken.sol:ProxiedMEP1002NamingToken",
        "label": "_tokenApprovals",
        "offset": 0,
        "slot": "256",
        "type": "t_mapping(t_uint256,t_address)"
      },
      {
        "astId": 1596,
        "contract": "contracts/token/MEP1002NamingToken.sol:ProxiedMEP1002NamingToken",
        "label": "_operatorApprovals",
        "offset": 0,
        "slot": "257",
        "type": "t_mapping(t_address,t_mapping(t_address,t_bool))"
      },
      {
        "astId": 2498,
        "contract": "contracts/token/MEP1002NamingToken.sol:ProxiedMEP1002NamingToken",
        "label": "__gap",
        "offset": 0,
        "slot": "258",
        "type": "t_array(t_uint256)44_storage"
      },
      {
        "astId": 2663,
        "contract": "contracts/token/MEP1002NamingToken.sol:ProxiedMEP1002NamingToken",
        "label": "_ownedTokens",
        "offset": 0,
        "slot": "302",
        "type": "t_mapping(t_address,t_mapping(t_uint256,t_uint256))"
      },
      {
        "astId": 2667,
        "contract": "contracts/token/MEP1002NamingToken.sol:ProxiedMEP1002NamingToken",
        "label": "_ownedTokensIndex",
        "offset": 0,
        "slot": "303",
        "type": "t_mapping(t_uint256,t_uint256)"
      },
      {
        "astId": 2670,
        "contract": "contracts/token/MEP1002NamingToken.sol:ProxiedMEP1002NamingToken",
        "label": "_allTokens",
        "offset": 0,
        "slot": "304",
        "type": "t_array(t_uint256)dyn_storage"
      },
      {
        "astId": 2674,
        "contract": "contracts/token/MEP1002NamingToken.sol:ProxiedMEP1002NamingToken",
        "label": "_allTokensIndex",
        "offset": 0,
        "slot": "305",
        "type": "t_mapping(t_uint256,t_uint256)"
      },
      {
        "astId": 3006,
        "contract": "contracts/token/MEP1002NamingToken.sol:ProxiedMEP1002NamingToken",
        "label": "__gap",
        "offset": 0,
        "slot": "306",
        "type": "t_array(t_uint256)46_storage"
      },
      {
        "astId": 11278,
        "contract": "contracts/token/MEP1002NamingToken.sol:ProxiedMEP1002NamingToken",
        "label": "_baseUri",
        "offset": 0,
        "slot": "352",
        "type": "t_string_storage"
      },
      {
        "astId": 11336,
        "contract": "contracts/token/MEP1002NamingToken.sol:ProxiedMEP1002NamingToken",
        "label": "__gap",
        "offset": 0,
        "slot": "353",
        "type": "t_array(t_uint256)49_storage"
      }
    ],
    "types": {
      "t_address": {
        "encoding": "inplace",
        "label": "address",
        "numberOfBytes": "20"
      },
      "t_array(t_uint256)44_storage": {
        "base": "t_uint256",
        "encoding": "inplace",
        "label": "uint256[44]",
        "numberOfBytes": "1408"
      },
      "t_array(t_uint256)46_storage": {
        "base": "t_uint256",
        "encoding": "inplace",
        "label": "uint256[46]",
        "numberOfBytes": "1472"
      },
      "t_array(t_uint256)49_storage": {
        "base": "t_uint256",
        "encoding": "inplace",
        "label": "uint256[49]",
        "numberOfBytes": "1568"
      },
      "t_array(t_uint256)50_storage": {
        "base": "t_uint256",
        "encoding": "inplace",
        "label": "uint256[50]",
        "numberOfBytes": "1600"
      },
      "t_array(t_uint256)dyn_storage": {
        "base": "t_uint256",
        "encoding": "dynamic_array",
        "label": "uint256[]",
        "numberOfBytes": "32"
      },
      "t_bool": {
        "encoding": "inplace",
        "label": "bool",
        "numberOfBytes": "1"
      },
      "t_mapping(t_address,t_bool)": {
        "encoding": "mapping",
        "key": "t_address",
        "label": "mapping(address => bool)",
        "numberOfBytes": "32",
        "value": "t_bool"
      },
      "t_mapping(t_address,t_mapping(t_address,t_bool))": {
        "encoding": "mapping",
        "key": "t_address",
        "label": "mapping(address => mapping(address => bool))",
        "numberOfBytes": "32",
        "value": "t_mapping(t_address,t_bool)"
      },
      "t_mapping(t_address,t_mapping(t_uint256,t_uint256))": {
        "encoding": "mapping",
        "key": "t_address",
        "label": "mapping(address => mapping(uint256 => uint256))",
        "numberOfBytes": "32",
        "value": "t_mapping(t_uint256,t_uint256)"
      },
      "t_mapping(t_address,t_uint256)": {
        "encoding": "mapping",
        "key": "t_address",
        "label": "mapping(address => uint256)",
        "numberOfBytes": "32",
        "value": "t_uint256"
      },
      "t_mapping(t_uint256,t_address)": {
        "encoding": "mapping",
        "key": "t_uint256",
        "label": "mapping(uint256 => address)",
        "numberOfBytes": "32",
        "value": "t_address"
      },
      "t_mapping(t_uint256,t_uint256)": {
        "encoding": "mapping",
        "key": "t_uint256",
        "label": "mapping(uint256 => uint256)",
        "numberOfBytes": "32",
        "value": "t_uint256"
      },
      "t_string_storage": {
        "encoding": "bytes",
        "label": "string",
        "numberOfBytes": "32"
      },
      "t_uint256": {
        "encoding": "inplace",
        "label": "uint256",
        "numberOfBytes": "32"
      },
      "t_uint8": {
        "encoding": "inplace",
        "label": "uint8",
        "numberOfBytes": "1"
      }
    }
  }
}